:100000000C94E0090C94270A0C94270A0C94270AF4
:100010000C94270A0C94270A0C94270A0C94270A9C
:100020000C94270A0C94270A0C9496300C9468318F
:100030000C948D2A0C94270A0C94270A0C94270AF6
:100040000C94270A0C94270A0C94270A0C94270A6C
:100050000C94270A0C94F52A0C94270A0C94270A6E
:100060000C94270A0C94270A0C94270A0C94270A4C
:100070000C94270A0C94270A0C94270A0C94270A3C
:100080000C94270A0C94270A0C94270A0C94270A2C
:100090000C94270A0C94270A0C94270A0C94270A1C
:1000A0000C94270A0C94270A0C94270A060E380E83
:1000B000380E380E0D0E0F0E110E130E170E150EF4
:1000C000030E380EF70D380E380E380E380E1B0E94
:1000D0001E0E230EF40DF40D6B0F6D0F6F0F720FCC
:1000E0006F0F740F760FD510D710E210D910DB10F8
:1000F000DD10DF10E110E410E610E810F310EA1054
:10010000EC10EE10F010F210F5106A206A20A42016
:10011000A420E32034223422342203213422B321C8
:10012000B3212622342234222E22C021C021C02114
:10013000C021C021C021C021C021C021C021C021B7
:10014000C021C021C021C021C021D221E021E7214E
:10015000EE21F821C322C322D522D522CC22D522DA
:10016000D522D522C322C322D122D522D522D12203
:10017000D531FC31EE32FC31EE3248326B32EE32A8
:10018000C132D032444F55424C455F53494E474CE3
:10019000455F54415000444F55424C455F484F4CD9
:1001A0004400444F55424C455F54415000647A36F8
:1001B000302F646976696465303A76396234633722
:1001C000622D64697274792374657374696E670053
:1001D0007E2F2E00647A36302F646976696465302C
:1001E0003A763962346337622D64697274792374A4
:1001F000657374696E670064796E616D6963206D03
:100200006163726F3A2069676E6F72696E67206D05
:100210006163726F20706C6179206B6579207768FB
:10022000696C65207265636F7264696E670D0A00A0
:1002300064796E616D6963206D6163726F3A2073DA
:100240006C6F742025642073617665642C206C6566
:100250006E6774683A2025640A0064796E616D697E
:1002600063206D6163726F3A207472696D6D696E9F
:1002700067206120747261696C696E67206B6579B3
:100280002D646F776E206576656E740D0A00647953
:100290006E616D6963206D6163726F3A20736C6F7C
:1002A00074202564206C656E6774683A2025642F7D
:1002B00025640A0064796E616D6963206D61637203
:1002C0006F3A2069676E6F72696E672061206C6596
:1002D0006164696E67206B65792D75702065766540
:1002E0006E740D0A0064796E616D6963206D6163DF
:1002F000726F3A20736C6F7420256420706C617982
:100300006261636B0A0064796E616D6963206D617F
:1003100063726F207265636F7264696E673A2073EF
:100320007461727465640D0A00155C1E001F002064
:100330000021002200230024002500260027002D94
:10034000002E0000002A000457000014001A0008C4
:1003500000150017001C0018000C00120013002FDD
:100360000030000157025700000400160007000982
:10037000000A000B000D000E000F003300340003D4
:10038000570000065700001D001B0006001900055D
:100390000011001000360037003800317252004C56
:1003A00000E00005570000E2002C000000005700AC
:1003B000002C0000004A004D00500051004F00008A
:1003C000000000000000000000000000000000002D
:1003D000000000000000000000000000000000001D
:1003E000000000000000000000000000000000000D
:1003F00000000000000000000000000000000000FD
:10099000000000000000000000000001003A003BE1
:1009A000003C003D003E003F00400041004200434B
:1009B000004400450000002A0001000000501650CD
:1009C000144F144F16F90006114A004B004D001940
:1009D0001101000100005C01000000501350114F94
:1009E000114F1301005000510052004F000100014F
:1009F0000001000000010000001D111B110611196B
:100A000011FA00010050114E004F111D1301004B4F
:100A100000010001000100000001000100000001D0
:100A200000000001000000010001004A004E004DDE
:100A3000000100F400F500F600F700F800010001E5
:100A4000000100010001000100010000000100019F
:100A50000000000100F400F000F500F900F900F4D6
:100A600000F000F500010001000100005C01000041
:100A7000000100F200F100F300FA00FA00F200F1C8
:100A800000F300010001000100000001000000016E
:100A900000FD00FE00FF0001000100FD00FE00FF60
:100AA000000100010001000100010001000000013F
:100AB0000001000000010000000100000001000131
:100AC000000100010001000100C35CC45CC55CC6FC
:100AD0005CC75CC85CC95CCA5C01000100BC5CBB53
:100AE0005C0000BA5C01000000BD5CBF5CC15C0141
:100AF00000010001000100010001000100A600A7A3
:100B000000005C01000000BE5CC05CC25C01000132
:100B1000000100010001000100AC00AB00DE5C0040
:100B200000010000000100010001000100010001BE
:100B30000001000100010001000100A90001000105
:100B400000010000000100010000000100000001A0
:100B500000000001000100AD00AA00AE00E85CE961
:100B60005CEA5C01000100010001000100010001DC
:100B700000E65CE75C0100000001000100000010DD
:100B8000580D580F580C580B580B580C580F580D3F
:100B9000581058010001000100010000001E021F52
:100BA0000220022102220223022402250226022719
:100BB0000201000100000001000000350235002E96
:100BC000022E00310231002F0030002F02300201CE
:100BD000000100010001000100000001000100000F
:100BE00000010000000100000001000100010001FF
:100BF00000010001001E001F002000210022002330
:100C00000024002500260027002D002E0000002AC9
:100C1000000100000014001A000800150017001C55
:100C20000018000C00120013002F0030000100011A
:100C300000000004001600070009000A000B000D68
:100C4000000E000F003300340028000000010000F7
:100C5000001D001B000600190005001100100036E1
:100C6000003700380031725200010001000100001D
:100C7000000100010000000100000001000000016F
:100C8000000100010001000100010001000100015C
:100C9000000100010001000100010001000100014C
:100CA000000100000001000100000001000100013E
:100CB000000100010001000100010001000100012C
:100CC000000100010001000000010001000100011D
:100CD000000100010001000100010001000100010C
:100CE00000000001000000010001000100010001FE
:100CF00000010001000100010001000100010001EC
:100D000000010001000000010001000000010000DE
:100D10000001000000010001000100010001004489
:100D2000454255473A20656E61626C65642E0A0043
:100D300000000000000000002A2B28000000000036
:100D4000000000000000000000000029000000007A
:100D50002C1E3420212224342627252E362D3738E8
:100D6000271E1F202122232425263333362E3738F1
:100D70001F0405060708090A0B0C0D0E0F101112AF
:100D8000131415161718191A1B1C1D2F3130232D7B
:100D9000350405060708090A0B0C0D0E0F10111279
:100DA000131415161718191A1B1C1D2F3130354C2A
:100DB0000000000000000000000000000000000033
:100DC0000000000000000000000000000000000023
:100DD0000001010101010100010101010000000009
:100DE00000000000000000000000010001000101FF
:100DF00001010101010101010101010101010101E3
:100E000001010101010101010101010000000101D5
:100E100000000000000000000000000000000000D2
:100E200000000000000000000000000101010100BE
:100E30000A002530313662003A2000253032580051
:100E40000A722F6320303132333435363738394126
:100E500042434445460A007267626C6967687420C1
:100E600073657420687376205B454550524F4D5D25
:100E70003A2025752C25752C25750A007267626C41
:100E800069676874207261696E626F772073657438
:100E9000206873763A2025752C25752C25642C2521
:100EA000750A007267626C696768742064697361AF
:100EB000626C653A207267626C696768745F636F21
:100EC0006E6669672E656E61626C65203D202575D2
:100ED0000A007267626C6967687420656E61626C93
:100EE000653A207267626C696768745F636F6E66EB
:100EF00069672E656E61626C65203D2025750A006C
:100F00007267626C6967687420746F67676C653AB2
:100F1000207267626C696768745F636F6E66696789
:100F20002E656E61626C65203D2025750A00726732
:100F3000626C69676874206D6F64653A2025750A74
:100F4000007267626C696768745F696E69742072A9
:100F500067626C696768745F636F6E6669672E6D40
:100F60006F6465203D20302E2057726974652064BF
:100F7000656661756C742076616C75657320746F3D
:100F800020454550524F4D2E0A007267626C6967CA
:100F900068745F696E6974206565636F6E66696702
:100FA000206973206E6F7420656E61626C65642EBB
:100FB0000A007267626C696768745F696E697420A1
:100FC0007374617274210A007267626C6967687475
:100FD0005F696E69742063616C6C65642E0A0072CF
:100FE00067626C696768745F636F6E6669672E76A7
:100FF000616C203D2025640A007267626C69676835
:10100000745F636F6E6669672E736174203D20257F
:10101000640A007267626C696768745F636F6E660A
:1010200069672E687565203D2025640A007267682F
:101030006C696768745F636F6E6669672E6D6F6455
:1010400065203D2025640A007267626C69676874D8
:101050005F636F6E6669672E656E61626C65203DC9
:101060002025640A007267626C696768745F636F49
:101070006E666967206570726F6D0A006565636FE3
:101080006E6669675F7570646174655F7267626CD4
:10109000696768745F64656661756C740A006801ED
:1010A000F000B40078005A000000000000010101C7
:1010B0000101010101010202020202020202020315
:1010C00003030303030303040404040404050505E4
:1010D00005050606060606070707070808080809A3
:1010E00009090A0A0A0A0B0B0B0C0C0C0D0D0D0E4C
:1010F0000E0F0F0F101011111112121313141415DB
:101100001516161717181819191A1A1B1C1C1D1D4D
:101110001E1F1F20202122222324252526272728A1
:10112000292A2B2B2C2D2E2F2F30313233343536CC
:10113000363738393A3B3C3D3E3F404142434446D6
:101140004748494A4B4C4D4F5051525355565758AA
:101150005A5B5C5E5F606263646667696A6C6D6E51
:10116000707173747678797B7C7E808183848688C5
:101170008A8B8D8F91929496989A9B9D9FA1A3A5FF
:10118000A7A9ABADAFB1B3B5B7B9BBBDBFC1C4C6FD
:10119000C8CACCCFD1D3D6D8DADCDFE1E4E6E8EBBD
:1011A000EDF0F2F5F7FAFCFF0A0025303258200086
:1011B0006B6579626F6172645F7265706F72743AA9
:1011C00020000A0025303258006B6579626F617229
:1011D000645F7365745F6C65643A200064656C5F7E
:1011E0006B65795F6269743A2063616E277420646D
:1011F000656C3A20253032580A006164645F6B6583
:10120000795F6269743A2063616E27742061646457
:101210003A20253032580A005B735D004B657962D5
:101220006F6172642073746172742E0A005B575D83
:10123000005B535D005B525D005B445D005B435DA2
:10124000000403300000000A0344005A0036003056
:1012500000000010034B0042004400460061006E95
:101260000073000000040309040902740004010073
:10127000A0FA090400000103010100092111010085
:10128000012240000705810308000A09040100014A
:101290000300000009211101000122360007058228
:1012A0000308000A090402000203000000092111DA
:1012B0000100012222000705830320000107050326
:1012C00003200001090403000103000000092111AB
:1012D00001000122390007058403200001120110DA
:1012E0000100000008EDFE6022010001020301057B
:1012F000010906A101050719E029E7150025019557
:1013000008750181020508190129059505750191E6
:10131000029501750391010507190029F7150025AC
:101320000195F875018102C00631FF0974A1010918
:1013300075150026FF0095207508810209761500B5
:1013400026FF00952075089102C005010980A101C2
:1013500085021601002603001A81002A83007510F9
:1013600095018100C0050C0901A10185031601004A
:10137000269C021A01002A9C02751095018100C06A
:1013800005010906A101050719E029E71500250156
:1013900095087501810295017508810105081901FB
:1013A00029059505750191029501750391010507C0
:1013B000190029FF150026FF00950675088100C059
:1013C00011241FBECFEFDAE0DEBFCDBF04B603FEAF
:1013D00027C080912F0690913006A0913106B091E0
:1013E00032068730904BA740B04BD1F410922F06B5
:1013F00010923006109231061092320614BE84B755
:10140000877F84BF0FB6F894A895809160008861AB
:1014100080936000109260000FBEE0E0F8E3099551
:1014200011E0A0E0B1E0EAE4F7E602C005900D9219
:10143000A63DB107D9F726E0A6EDB1E001C01D92A7
:10144000AF32B207E1F70E94B12D0C94A3330C9494
:101450000000FF93EF93E091D601F091D701309710
:1014600009F00995EF91FF910895FC018591803075
:1014700011F0EFDFFBCF0895FF27E0E230E247FFF6
:101480000CC0419597FF09C0EDE26095709580957D
:101490009095611D711D811D911D27FF02C0219531
:1014A00030E350E2AA27660F771F881F991FAA1FF3
:1014B000A41710F0A41B63955A95A9F7AA3008F059
:1014C000A95FA05DAF93F395611571058105910545
:1014D00041F7ED3211F4EF93F395F21718F43F93BF
:1014E000F395FBCF8F91B5DFFA95E1F70895E99178
:1014F000F9918591803021F0853219F0AADFF9CF7A
:10150000089520E0E89455915532C1F3503311F419
:10151000689455915A3348F4505390F3220F022E99
:10152000220F220F200D250FF4CF0EF42195899163
:101530009991533619F3533729F1533559F1BC01B9
:1015400088279927E8945C3621F4899199916894C9
:101550005591543639F446EF7EF077FF0DC08FEF8A
:101560009FEF0AC055374AE039F0583540E121F085
:10157000523642E009F00895FF93EF937DDFEF913B
:10158000FF91B7CFFF93EF93FC0181918030B9F3C6
:1015900060DFFBCFFF93EF9368DFF1CFDF93CF9353
:1015A000CDB7DEB72596A3DFCF91DF9108950C94D8
:1015B000F115229A2A9A08950E94C00D0C94D90A16
:1015C0000C943F138091DD04882331F08BE20E945C
:1015D000BE1F1092DD0424C08091DE049091DF04D0
:1015E00083309105A9F054F48130910589F0029778
:1015F000B9F481EE0E94BE1F80EE10C086309105C6
:1016000039F08730910531F0049751F480EE03C032
:101610008BE204C081EE0E94BE1F82EE0E94BE1FBC
:101620001092DF041092DE040895809108019091D9
:1016300009018130910511F0029719F483EE0E949F
:10164000BE1F109209011092080108950F931F9375
:10165000CF93DF938C010E94A228D82F0E94A2284A
:10166000C82F0E94A228D27229F4C17119F4982FB0
:10167000947441F08BE20E94C71E91E09093DD04C8
:10168000F8019187DF91CF911F910F91089580917B
:10169000DB049091DC048430910589F03CF48130C6
:1016A000910559F0029799F48BE00FC086309105AF
:1016B00041F0079761F480E108C088E203C08EE042
:1016C00004C082EB0E94BE1F02C00E94F926109245
:1016D000DC041092DB0408958091110190911201B5
:1016E0008230910549F08430910541F0019749F429
:1016F00089E20E94BE1F05C08BE001C08CE00E9401
:10170000F9261092120110921101089580910E0194
:1017100090910F018430910539F08730910531F0B7
:10172000029739F48BE003C08CE001C08EE00E9488
:10173000F92610920F0110920E01089580910B016D
:1017400090910C01029719F48EE00E94F9261092F4
:101750000C0110920B0108958091050190910601F2
:10176000019721F481E00E94512803C081EE0E947C
:10177000BE1F109206011092050108950F931F934A
:10178000CF93DF93EC018B018091B80580FF04C0FB
:1017900086E093E00E94350A0E94B1220E94BE2694
:1017A00019830883DF91CF911F910F9108958F9234
:1017B0009F92AF92BF92EF92FF920F931F93CF939E
:1017C000DF93EC017B01042F8091B80580FF11C0ED
:1017D000141614F082E001C081E01F928F9385EE11
:1017E00092E09F938F930E94CE0A0F900F900F90DC
:1017F0000F9080908B0590908C05A0908D05B090F7
:101800008E050E94B1220E94BE2686E00802800159
:101810001124CE15DF0531F0CE010E947622C00FD3
:10182000D11FF7CF0E94B12280928B0590928C0538
:10183000A0928D05B0928E05DF91CF911F910F91EF
:10184000FF90EF90BF90AF909F908F900895EF9290
:10185000FF920F931F93CF93DF93EC017801D80190
:1018600012968C91FB01A081B181811111C0AC173E
:10187000BD0771F48091B80580FF6EC084EB92E0E3
:10188000DF91CF911F910F91FF90EF900C94350A4B
:10189000F6E02F02C00111248D01081B190B40171F
:1018A000510771F036E0F70101900D923A95E1F79A
:1018B000DB01ED91FC9111978E0F9F1F8D939C93EF
:1018C0008091B80580FF48C0022F022E000C110B3A
:1018D0004C1B5D0B55954795ABEABAEA4A9FC00190
:1018E0004B9F900D5A9F900D1124089FA001099FB6
:1018F000500D189F500D11244F5F5F4FFB018081E9
:1019000091818C1B9D0B959587958A9FE0018B9FFC
:10191000D00D9A9FD00D11240C9FB0010D9F700D1A
:101920001C9F700D1124121614F082E001C081E09A
:101930005F934F937F936F931F928F938EE892E004
:101940009F938F930E94CE0A8DB79EB708960FB6CD
:10195000F8949EBF0FBE8DBFDF91CF911F910F9165
:10196000FF90EF9008958F929F92AF92BF92CF9287
:10197000DF92EF92FF920F931F93CF93DF931F920B
:10198000CDB7DEB77C01890186E0480260011124F1
:10199000AA24BB24AC18BD084B018091B8058E1455
:1019A0009F0489F0F401EA0DFB1D9281992359F0FF
:1019B00080FF06C08AE592E049830E94350A49818A
:1019C0008C189D08EACF80FF28C0C4018E199F099A
:1019D000959587952BEA3AEA829FB001839F700D17
:1019E000929F700D112446039001479F300D1124E2
:1019F000141614F082E001C081E03F932F931F92F0
:101A00008F9380E392E09F938F930E94CE0A0F9072
:101A10000F900F900F900F900F90F801918280829D
:101A20000F90DF91CF911F910F91FF90EF90DF907A
:101A3000CF90BF90AF909F908F9008950F931F937A
:101A4000CF938B012091DA04211139C0FB01C281AF
:101A5000C11185C0873EFCE59F07E9F060F4863E32
:101A60009C4509F07BC068ED71E088ED94E00E9430
:101A7000BE0B81E017C0893EECE59E07B1F08A3EBF
:101A80009C4509F06BC060910001709101014FEF1E
:101A900082ED94E011C062ED74E088ED94E00E9464
:101AA000BE0B82E08093DA045AC06091020170910B
:101AB000030141E088ED91E00E94D70B50C0883EC1
:101AC0003CE5930729F088F18B3E9C4510F12DC031
:101AD000FB01C281CC2309F442C0213061F02230E5
:101AE000A9F46091D8047091D90420E031E04FEF5F
:101AF00082ED94E009C06091D8047091D90422E08D
:101B000031E041E088ED91E00E94B30C1092DA04DC
:101B10000AC08091B805C82FC17080FF20C087EF30
:101B200091E00E94350AC0E01AC0213061F02230F5
:101B3000A9F440910201509103012FEF68ED74E088
:101B400082ED94E009C0409100015091010121E033
:101B500068ED74E088ED91E00E94270CC1E08C2FC5
:101B6000CF911F910F910895CF93DF93EC010E94C5
:101B70009A29BE0180E090E0DF91CF910C94782605
:101B80000E94B8176093E0057093E1058093E20529
:101B90009093E3050895EF92FF920F931F93CF93D5
:101BA000DF938C017B010E941E0D882351F10031CF
:101BB00081E5180711F0C80102C088EE9CE5B70165
:101BC0000E941E0DD82F8823E1F0F701C281CC239B
:101BD000E9F1F801E25DFC45E631F10508F048C0A5
:101BE000EA5AFF4F0C9455330E94BE2641C00E9412
:101BF000B8176093E0057093E1058093E205909338
:101C0000E305C0E035C00E94BE26FBCF0E94BE2681
:101C100081E090E00E94B40DF4CF8BE009C08CE02D
:101C200007C08DE005C08EE003C080E101C08FE0F9
:101C30000E94D826E6CF84ED91E002C080ED91E0CD
:101C40000E943613DECF0E946629DBCF0A5B1C455B
:101C50000131110560F40E94E2170E94B8176093E9
:101C6000E0057093E1058093E2059093E305CD2FA5
:101C70008C2FDF91CF911F910F91FF90EF900895DE
:101C8000CF92DF92EF92FF92CF93DF936B017C01B3
:101C90000E94B81760FF08C0992331F09B3A30F4D6
:101CA000D92FD695D90F03C0D8E701C0DFEFC62FD3
:101CB000C695CF738C2F90E003970CF0C1E0C7015D
:101CC000B6010E94E6288D3059F178F48B30E1F0AE
:101CD0008C3009F045C00E94AC1A8C2F0E940B1A60
:101CE0004D2F6FEF8AE590E024C08F3079F120F11D
:101CF0008031B1F50E94AC1A8C2F0E940B1A4D2F27
:101D000060EB80E190E015C00E94AC1A8C2F0E941D
:101D10000B1A4D2F6FEF80EF90E00E94BC182CC083
:101D20000E94AC1A8C2F0E940B1A4D2F6FEF86E980
:101D300090E00E94051920C00E94AC1A8C2F0E94CE
:101D40000B1A4D2F6FEF8CE390E0F3CF0E94AC1A8B
:101D50008C2F0E940B1A4D2F6AED8BE290E0E9CF99
:101D60000E94E2176091E0057091E1058091E20523
:101D70009091E3050E948A1BC701B601DF91CF91C4
:101D8000FF90EF90DF90CF9008951F93CF93DF9354
:101D9000662381F0182FC62FC695D0E0DC1751F0CE
:101DA000812F0E94C71E812F0E94BE1FD03111F0CB
:101DB000DF5FF4CFDF91CF911F910895FC01808107
:101DC000813049F4878181111CC080858823C9F046
:101DD00082E090E00895823049F48781811114C037
:101DE0008085811114C083E090E00895833091F4E0
:101DF0008781811112C08085882379F087E090E087
:101E0000089581E090E0089585E090E0089584E0F1
:101E100090E0089588E090E0089586E090E00895CD
:101E20000E94DE0E9093DC048093DB0483309105E6
:101E3000A9F034F48130910569F0029769F00895B2
:101E40008630910571F08730910571F0049779F42F
:101E50008EE00BC088E206C08BE007C08CE00C94DB
:101E60001E2782EB0C94C71E80E10C94C3260895B4
:101E70000E94DE0E90931201809311018330910530
:101E800091F034F48130910549F0029751F00895B2
:101E90008430910551F0059759F0089589E20C942A
:101EA000C71E8BE003C00C94BE268CE00C94C326A6
:101EB0008DEA91E00C9436130E94DE0E90930F0190
:101EC00080930E01FC013197E730F10590F4E4595D
:101ED000FF4F0C9455338BE003C08BE008C08CE0BF
:101EE0000C941E278CE003C08EE0FACF8EE00C9499
:101EF000D82608950E94DE0E90930C0180930B016A
:101F00008130910519F0029719F008950C94201072
:101F10008EE00C94C3260E94DE0E909309018093FC
:101F200008018330910581F034F48130910549F046
:101F3000029739F008958430910549F0059751F0E2
:101F4000089583EE0C94C71E82EA91E005C086E9ED
:101F500091E002C084E891E00C943613FC0180818A
:101F6000813031F48085882399F082E090E00895F3
:101F7000823031F4808581110EC083E090E00895B5
:101F8000833061F48085882361F087E090E00895D4
:101F900081E090E0089584E090E0089588E090E08A
:101FA000089586E090E008950E94AE0F9093DF04BC
:101FB0008093DE0483309105E9F05CF48130910573
:101FC000F9F08230910521F581EE0E94C71E80EE66
:101FD00018C08630910541F087309105A1F084301A
:101FE0009105B1F480EE10C08BE20E94C71E8BE217
:101FF0000E94BE1F8BE20E94C71E8BE20E94BE1F82
:102000008BE20C94C71E81EE0E94C71E82EEF9CFB0
:10201000682F8BE290E00C94C50E0E94AE0F909357
:10202000060180930501019721F463E08EE00C9492
:10203000482881EE0C94C71E81E008950C94CB0DC6
:102040000E94B1222FEF84E39CE021508040904019
:10205000E1F700C000000C941B2BFF920F931F931D
:10206000CF93DF938C01FC01C081D1818091200549
:10207000811113C08281882349F0CE010E94D127AB
:10208000F82E682FCE010E94762704C0CE010E9450
:10209000A527F82EBE018F2D04C0CE010E94D127A6
:1020A000BE010E944613EC01B8010E94371CB80122
:1020B000CE010E941E10882309F478C2B801CE0117
:1020C0000E94791C882309F471C2B801CE010E94D4
:1020D000A215882309F46AC2C23CFCE5DF0741F47B
:1020E000F8018281882309F461C20E94701B5EC2DC
:1020F000C33C8CE5D80708F019C1CB3B9CE5D90758
:1021000061F4F8018281882309F450C20E94A22858
:102110008272E1F00E94A31A49C2CC3BECE5DE07D3
:10212000C0F0CE3B9CE5D90709F4D1C008F0E3C06C
:10213000CC3BFCE5DF0709F0D2C0F801828188239F
:1021400009F434C20E94A228827221F30E94A01ACC
:102150002DC2C531FCE5DF0708F082C0C2308CE536
:10216000D80708F452C0F8018281882309F459C0C5
:102170000E948729811102C00E9466290E949F291E
:1021800090E09093210680932006FE01E350FC45E9
:10219000E231F10530F4ED58FF4F809120060C94A8
:1021A000553380912006816027C0826025C08460FD
:1021B00023C0806121C080621FC080641DC0806810
:1021C0001BC08460886018C08E7F16C08D7F14C0CD
:1021D0008B7F12C08F7E10C08F7D0EC08F7B0CC096
:1021E0008F770AC08B7F877F07C087FB222720F964
:1021F00091E0922790FB87F980932006809120063A
:102200000E94A3290E94B122D1C1C1159CE5D90722
:1022100081F0C130DC45A9F081E08093E504809332
:10222000E604C801DF91CF911F910F91FF900C94AC
:102230001C10F8018281882309F4B8C10E94201083
:10224000B5C1F8018281882309F4B0C18091B80535
:1022500081608093B8058FE19DE00E94350AA6C198
:10226000C531FCE5DF0739F50E94A228282FF801C7
:1022700082814091A0015091A101882379F02A7AAE
:1022800091E009F490E09093E004911102C069E2BA
:1022900001C065E3CA010E94262A0AC08091E004B9
:1022A000811102C069E201C065E3CA010E94312ABE
:1022B0000E946F287BC1CA3BDC4509F0ADCFF80115
:1022C0008281882309F472C10E94D21A6FC1F80179
:1022D0008281882309F46AC10E94011B67C1CD3B3A
:1022E000DC4509F099CFF8018281882309F45EC1A9
:1022F0000E94E91A5BC1F8018281C03CFCE5DF075E
:1023000031F4882309F452C10E943B1B4FC1C13CE8
:10231000DC4530F4882309F449C10E94201B46C1E2
:10232000882309F443C10E94551B40C1C93CECE518
:10233000DE0749F4F8018281882309F437C188E176
:102340000E940B1A33C1CA3CFCE5DF0708F088C0C5
:10235000C53C8CE5D807B1F4F8018281882309F4E3
:1023600025C10E945718663071058105910540F01E
:102370000E945718683071058105910508F4E6CE72
:1023800086E0DECFC63C9CE5D90728F5C33CECE5EA
:10239000DE0739F4F8018281882309F407C181E05E
:1023A000CFCFC43CDC4509F037CFF80182818823C8
:1023B00009F4FCC00E94571862307105810591052F
:1023C00040F00E945718653071058105910508F4A9
:1023D000BDCE82E0B5CFF8018281C73CFCE5DF07C6
:1023E000A1F4882309F4E2C00E9457186F307105E8
:1023F0008105910540F00E945718643171058105EF
:10240000910508F4A3CE8FE09BCFC83CDC45A0F437
:10241000882309F4CBC00E945718693071058105E3
:10242000910540F00E9457186E30710581059105A5
:1024300008F48CCE89E084CF882309F4B7C00E94C9
:102440005718653171058105910540F00E945718B4
:10245000673171058105910508F478CE85E170CF6B
:10246000CC3CECE5DE0739F5F8018281882361F088
:102470001092E6040E94BF2A9093E4048093E30440
:1024800080E20E941D2092C08091E60481110FC05D
:102490008091E3049091E4040E94CB2A883C91054A
:1024A00030F487E20E94C71E87E20E94BE1F80E2CE
:1024B0000E9424207BC0CD3CFCE5DF0708F041C032
:1024C000CA3C8CE5D807B1F4F8018281882309F46D
:1024D0006DC00E945718693171058105910540F062
:1024E0000E945718623271058105910508F42ECEBD
:1024F00089E126CFCB3CDC4509F08ECEF801828104
:10250000882351F01092E5040E94BF2A9093E204C0
:102510008093E10482E0B5CF8091E50481110FC082
:102520008091E1049091E2040E94CB2A883C9105BD
:1025300030F486E20E94C71E86E20E94BE1F82E03F
:10254000B7CFC03DECE5DE0731F4F8018281882386
:1025500069F180E009C0C13DFCE5DF0741F4F80105
:102560008281882319F182E00E94592E1FC0CD3C40
:10257000DC4509F051CEF8018281811179CF80913B
:10258000E604811194CF8091E3049091E4040E94C9
:10259000CB2A883C910508F08ACF80E20E94242053
:1025A00088E20E94C71E88E20E94BE1F80E0DF9181
:1025B000CF911F910F91FF900895CF93282F30E076
:1025C000F901E05DF24FC491F901E055F24F249119
:1025D000222359F081EE0E94C71E8C2F0E94C71E35
:1025E0008C2F0E94BE1F81EE04C08C2F0E94C71E3C
:1025F0008C2FCF910C94BE1F0F931F93CF93DF931B
:10260000EC01062FFE018491882359F19E012F5F72
:102610003F4F813041F4E901F9011491812F0E946B
:10262000C71E812F0DC0823031F4E901F901849178
:102630000E94C71E0AC0833031F4E901F901849178
:102640000E94BE1F02C00E94DD122196802F8823A7
:10265000C9F2EFE9FFE03197F1F700C000008150C7
:10266000F6CFDF91CF911F910F91089560E00C9408
:10267000FC120C94DC0A0E94D51C0C94D70A089515
:102680000C94E00A80E090E0089508959FE0799F1F
:10269000F00111249BE4899FE00DF11D1124E60F48
:1026A000F11DEE0FFF1FE75DFC4F8591949108959A
:1026B000880F991FFC01E05DF14F85919491089579
:1026C000CF93DF930E9446130E94F814EC0181150A
:1026D00020E49207B0F5811540E3940708F0E1C0CB
:1026E000803E9105D0F4803C910508F06FC0883A97
:1026F000910570F4853A910508F06BC08130910521
:1027000009F472C108F429C1049708F06DC125C10C
:102710008D3B910508F468C020C18F3F910509F0F9
:1027200048F4803F910508F0B6C0883E910508F452
:102730005BC113C1811550E2950708F455C19F7024
:10274000ACC0811564E59607D8F4C11583E5D807B8
:1027500008F0E2C0C11521E5D20740F4C11540E5FB
:10276000D40708F0A7C0DF70D06A3EC1C11552E59A
:10277000D50708F0BBC0DC2FCC27C16FD06A34C1AD
:10278000811566E5960750F4C11585E5D80708F070
:10279000D9C0DC2FCC27C46FD06A26C1811528E5AB
:1027A000920708F4DAC0811549E5940708F4D0C00F
:1027B00090568115904208F0D0C08D2F8F710E94E5
:1027C0007515DD27D0628F71D82B0EC1805C910901
:1027D00064C0853A910509F4C3C0863A910509F0B1
:1027E000C2C0C2E8D0E400C1883A910509F4BEC075
:1027F000893A910509F4BDC08A3A910509F4BCC033
:102800008B3A910509F4BBC08C3A910509F4BAC022
:102810008B3B910509F4B9C08C3B910509F4B8C014
:102820008D3A910509F4B7C0803B910509F4B6C013
:102830008E3A910509F4B5C08F3A910509F4B4C0F8
:10284000813B910509F4B3C0823B910509F4B2C004
:10285000833B910509F4B1C0843B910509F4B0C0F4
:10286000853B910509F4AFC0863B910509F4AEC0E4
:10287000873B910509F4ADC0883B910509F4ACC0D4
:10288000893B910509F4ABC08A3B910509F4AAC0C4
:10289000C0E0D4E4A9C0D065A7C00E945813EC01E1
:1028A000A3C09927D3FF03C0EC01D86C9DC0EC01F5
:1028B000D06C9AC02C2F237081E090E002C0880F6A
:1028C000991F2A95E2F79C689E0144E0369527956A
:1028D0004A95E1F72370922BCF70C695C69560E2BA
:1028E000C69FE0011124C82BD92B7EC02C2F269522
:1028F000269580E2289F90011124C370DD2781E096
:1029000090E0AC0102C0440F551FCA95E2F7EA01FE
:10291000C22BD32BDC6868C02C2F2695269580E22D
:10292000289F90011124C370DD2781E090E0AC0165
:1029300002C0440F551FCA95E2F7EA01C22BD32B00
:10294000DA6852C0CF71DD27DC2FCC27D0624CC0B3
:10295000DC2FCC27C06FD06A47C0C0E0D0E044C0B5
:10296000C1E8D0E441C0C3E8D0E43EC0C2EED4E444
:102970003BC0C9EED4E438C0CAEED4E435C0C5EBE0
:10298000D4E432C0C6EBD4E42FC0C3EBD4E42CC0F3
:10299000C4EBD4E429C0C7EBD4E426C0CCECD4E427
:1029A00023C0CDECD4E420C0C3E8D5E41DC0CAE800
:1029B000D5E41AC0C2E9D5E417C0C4E9D5E414C00F
:1029C000C1E2D6E411C0C3E2D6E40EC0C4E2D6E44C
:1029D0000BC0C5E2D6E408C0C6E2D6E405C0C7E233
:1029E000D6E402C0CAE2D6E4CE01DF91CF910895C9
:1029F0008238910549F1B0F48133910509F458C04A
:102A000048F48932910509F44EC08A32910509F4DF
:102A100054C008958533910509F440C08933910568
:102A200099F00895833E910529F138F4803E91058F
:102A300091F0823E9105A1F00895863E9105F9F04E
:102A4000873E910531F108952091200620FD3AC07E
:102A500021FD38C008958091200680FD35C032C028
:102A60008091200682FF32C08091200684FD30C014
:102A700083EE39C08091200682FD28C0F5CF809179
:102A8000200683FF27C08091200684FD21C087EEA9
:102A90002AC08091200683FD1DC0F5CF80912006BD
:102AA00085FD1AC01BC08091200685FD17C014C08B
:102AB0008091200686FD14C015C08091200686FDF9
:102AC00011C00EC080EE0FC089E30DC082EE0BC0B6
:102AD00080E009C086EE07C089E205C085E303C037
:102AE0008AE201C081E390E00895CF93C82F0E944D
:102AF0009F2990E0909321068093200682FF0DC0CD
:102B00009C2F9871983019F4C77FC46006C09C2F21
:102B10009471943011F4CB7FC86083FF0DC09C2F5B
:102B20009871983119F4C77EC46106C09C2F9471C6
:102B3000943111F4CB7EC86184FDC77E8C2FCF9178
:102B4000089508950F931F93CF93FB0122812111C4
:102B500002C0C1E041C08C01C091F404C11125C084
:102B600086319C45B1F70E94A11581E08093F40461
:102B70000E94BF2A9093F3048093F2041092E7041A
:102B80001092E9041092E8041092EB041092EA0407
:102B90001092ED041092EC041092EF041092EE04E7
:102BA0001092F1041092F00417C08091F2049091F9
:102BB000F3040E94CB2A883C910558F69091E704D3
:102BC000E92FF0E0EE0FFF1FE851FB4F1183008368
:102BD0009F5F9093E704C0E08C2FCF911F910F91DE
:102BE0000895089585B7806885BF85B7806885BFDB
:102BF000ACEBB1E041E050E025E02A0F8D91E82FE9
:102C0000E295EF70F0E031A18F70BA0102C0660F5B
:102C1000771F8A95E2F7CB01962F9095932391A386
:102C200092A1892B82A32A13E9CFADEAB1E041E05A
:102C300050E02FE02A0F8D91E82FE295EF70F0E041
:102C400031A18F70BA0102C0660F771F8A95E2F733
:102C5000CB01962F9095932391A392A1892B82A3C8
:102C60002A13E9CFEFEFF4E0A5EFB4E0119211924F
:102C70001D921D9275E0E930F707C1F70C943913E6
:102C80002F923F925F926F927F928F929F92AF921C
:102C9000BF92CF92DF92EF92FF920F931F93CF9349
:102CA000DF932CEBC22E21E0D22E05EF14E0E801D9
:102CB000EE24E394F12C662463945E01888099806D
:102CC00019821882D6018D916D01E82FE295EF707F
:102CD000F0E021A18F70A70102C0440F551F8A9513
:102CE000E2F7CA01242B21A322A1742E709427217C
:102CF00022A350EA5A95F1F79DEA292E91E0392E48
:102D000020E030E0D1017D911D01472F42954F70A9
:102D100050E0DA0190965C90488159817F70D7012C
:102D200002C0AA0FBB1F7A95E2F7BD01652141F4ED
:102D3000B701022E02C0660F771F0A94E2F702C0A5
:102D400060E070E0462B572B598348832F5F3F4F3D
:102D50002F303105B9F691A1792271A292A1892B68
:102D600082A32296F501808191818816990641F00F
:102D7000609209050E94BF2A90930B0580930A0573
:102D8000F4E0CF3FDF0709F098CF80910905882351
:102D9000B1F080910A0590910B050E94CB2A06970D
:102DA00070F0EFEFF4E0D8018D919D918D0181934A
:102DB0009193B4E00F3F1B07B1F7109209050E94F1
:102DC0003B1381E0DF91CF911F910F91FF90EF9026
:102DD000DF90CF90BF90AF909F908F907F906F903B
:102DE0005F903F902F900895E82FF0E0EE0FFF1FC7
:102DF000E150FB4F808191810895CF92DF92EF9255
:102E0000FF920F931F93CF93DF9380E49EE00E9485
:102E1000350A8FEFE82E84E0F82EC0E0D0E09BE387
:102E2000C92E9EE0D92E02E31EE0DF93CF93DF92FE
:102E3000CF920E94CE0A88E39EE00E94350AF701F5
:102E4000819191917F010E944C299F938F931F93B1
:102E50000F930E94CE0A80E39EE00E94350A2196DD
:102E60008DB79EB708960FB6F8949EBF0FBE8DBF64
:102E7000C530D105D1F6DF91CF911F910F91FF9011
:102E8000EF90DF90CF900895EF92FF920F931F93F2
:102E9000CF93DF93E901662309F44BC0242F30E080
:102EA000EFEFF0E0E61BF109B901E69F9001E79F23
:102EB000300DF69F300D1124232F8B01031B1109B8
:102EC0005CE3E52EF12CB7010E942D33FB01BC0120
:102ED000069FC001079F900D169F900D1124B7010A
:102EE0000E942D33E230F105B1F040F4309779F0D3
:102EF000319711F5832F242F461B21C0E430F105B3
:102F0000A1F068F03597C1F4842F861B18C0832F79
:102F1000262F230F14C0862F830FE42F03C0E42F26
:102F2000E61B842F432F2E2F0AC0842F462F430FDA
:102F300006C0842F242F03C080E020E040E0E42F6F
:102F4000F0E0E855FF4E4491E22FF0E0E855FF4EE7
:102F50009491E82FF0E0E855FF4EE491498398837F
:102F6000EA83DF91CF911F910F91FF90EF90089529
:102F700088E090E00C946333AB01BC0188E090E002
:102F80000C9481338091B80580FF08C08CE790E1F4
:102F90009F938F930E94CE0A0F900F9083E08093AF
:102FA000E4051092E5058FEF8093E6058093E70531
:102FB0006091E4057091E5058091E6059091E70543
:102FC0000C94BC178091B80580FF08C085E690E19D
:102FD0009F938F930E94CE0A0F900F908091B80517
:102FE00080FF0FC08091E40581701F928F9388E469
:102FF00090E19F938F930E94CE0A0F900F900F90B5
:103000000F908091B80580FF10C08091E4058695EF
:103010008F731F928F938DE290E19F938F930E9405
:10302000CE0A0F900F900F900F908091B80580FFFF
:1030300019C08091E405881F8827881F9091E505B5
:10304000292F220F822B97FB992790F99F938F931B
:1030500083E190E19F938F930E94CE0A0F900F908F
:103060000F900F908091B80580FF0EC08091E6050B
:103070001F928F9389EF9FE09F938F930E94CE0AB8
:103080000F900F900F900F908091B80580FF0EC0A9
:103090008091E7051F928F938FED9FE09F938F9311
:1030A0000E94CE0A0F900F900F900F90089560919C
:1030B000E40560FF06C066956F7370E080E090E005
:1030C000089560E070E0CB0108958091E40580FFF1
:1030D00006C060E170E08CEE95E00C94D01B80E0BF
:1030E00090E0FC01E451FA4F1182108212820396A3
:1030F00080339105B1F7EDCFCF93DF93C4EED5E0E8
:1031000088818E7F88836091E4057091E5058091C8
:10311000E6059091E7050E94BC17888181701F9297
:103120008F9383EA9EE09F938F930E94CE0A2FEFA6
:1031300080E792E0215080409040E1F700C000001D
:103140000F900F900F900F90DF91CF910C94651816
:103150009091E40590FF0FC020E030E0F901E451C8
:10316000FA4F8183608342832D5F3F4F20333105C7
:10317000A9F70C9465180895EF92FF920F931F938F
:10318000CF93DF9300D01F92CDB7DEB70091E40557
:103190001091E5052091E6053091E7050093E805DB
:1031A0001093E9052093EA053093EB052091E4059F
:1031B00020FF21C0042FF62EE92E182F9E012F5F2D
:1031C0003F4F0E9444178091E80510FB87F98093D8
:1031D000E80516958091E9058078182BE0FA17F933
:1031E0001093E905F092EA050093EB054B816981A4
:1031F0008A810E94A8180F900F900F90DF91CF91B5
:103200001F910F91FF90EF9008952F923F924F9250
:103210005F926F927F928F929F92AF92BF92CF9266
:10322000DF92EF92FF920F931F93CF93DF9300D023
:1032300000D01F92CDB7DEB79D838C83262E342E0F
:103240008091E40580FFCFC0982F9E77923029F4BB
:103250008C819D810E94BC1884C0E82FE695EF7395
:103260009EE39E0F9F73943018F43090E70579C069
:103270009AE39E0F9F73993070F4881F8827881FE8
:103280009091E505292F220F282B2C8397FB992756
:1032900090F99D8366C087E28E0F8F738A3008F0A5
:1032A00060C0F0E07997E0FD03C021E0298302C00F
:1032B0003FEF3983EE7FE256FF4EA590B4908981AF
:1032C000882E880F9908C50124E0969587952A9540
:1032D000E1F7889E3001899E700C989E700C112435
:1032E000CC80DD8098E9C91A9EEFD90A3CEEE32E26
:1032F00035E0F32E00E010E048E6442E55245394C8
:10330000C601B2010E942D332091B80520FF18C0DC
:10331000BF92AF929F92A981AF939F938F931F9378
:103320000F93ACE7BEE0BF93AF938A839B830E9469
:10333000CE0A0FB6F894DEBF0FBECDBF9B818A8147
:103340009701432D622D0E9444170F5F1F4FC60C3B
:10335000D71CB3E0EB0EF11C0031110589F60E9479
:1033600065188091E4052C8120FB87F98093E405A2
:10337000922F96958091E5058078892B3D8130FBD1
:1033800087F98093E5052092E6053092E705609184
:10339000E4057091E5058091E6059091E7050E94AE
:1033A000BC178091E7051F928F938091E6051F92CD
:1033B0008F938091E405881F8827881F9091E505E9
:1033C000292F220F822B97FB992790F99F938F9398
:1033D00087E59EE09F938F930E94CE0A0FB6F894E4
:1033E000DEBF0FBECDBF0F900F900F900F900F90CC
:1033F000DF91CF911F910F91FF90EF90DF90CF90D1
:10340000BF90AF909F908F907F906F905F904F9004
:103410003F902F9008958091E40580FF31C081781E
:1034200082608093E4056091E4057091E5058091E8
:10343000E6059091E7050E94BC178091E40586950A
:103440008F731F928F938EE29FE09F938F930E94C2
:10345000CE0A0F900F900F900F908091E405881F77
:103460008827881F9091E505292F220F97FB992720
:1034700090F94091E7056091E605822B0C940519BF
:1034800008958091B80581608093B80588EC9FE02D
:103490009F938F930E94CE0A81E080930C058091C8
:1034A000B8050F900F9080FF08C082EB9FE09F93BC
:1034B0008F930E94CE0A0F900F900E94872981114E
:1034C00010C08091B80580FF08C08AE89FE09F93F4
:1034D0008F930E94CE0A0F900F900E9466290E943F
:1034E000C2170E94B8176093E4057093E5058093B6
:1034F000E6059093E7056E77C1F48091B80580FFEB
:1035000008C081E49FE09F938F930E94CE0A0F90A2
:103510000F900E94C2170E94B8176093E405709341
:10352000E5058093E6059093E7050E94E2178091F8
:10353000E40580FF04C086958F730C940B1A0895E0
:1035400081E00C940B1A8091E40586958F7381506D
:1035500009F481E00C940B1ACF93DF93C4EED5E00D
:103560008881816088836091E4057091E505809190
:10357000E6059091E7050E94BC17888181701F9233
:103580008F9382ED9EE09F938F930E94CE0A0F90BF
:103590000F900F900F90888186958F73DF91CF9158
:1035A0000C940B1A8091E405809581701F928F9383
:1035B00080E09FE09F938F930E94CE0A8091E40564
:1035C0000F900F900F900F9080FD0C947C180C942E
:1035D000AC1AE4EEF5E02081221F2227221F309151
:1035E000E505432F440F842F822B37FB992790F951
:1035F000089668E671E00E944133438162810C9431
:1036000005192091E405221F2227221F3091E5058C
:10361000432F440F842F822B37FB992790F9883052
:1036200091051CF4805A9E4F01C0089768E671E02E
:103630000E9441334091E7056091E6050C9405191D
:103640006091E605862F90E0883F910514F4685F4D
:1036500001C06FEF8091E405881F8827881F909133
:10366000E505292F220F97FB992790F94091E7054F
:10367000822B0C9405196091E605862F90E008973F
:1036800014F0685001C060E08091E405881F88272D
:10369000881F9091E505292F220F97FB992790F914
:1036A0004091E705822B0C9405194091E705842F82
:1036B00090E0883F910514F4485F01C04FEF80917E
:1036C000E405881F8827881F9091E505292F220F80
:1036D00097FB992790F96091E605822B0C940519C8
:1036E0004091E705842F90E0089714F0485001C0FE
:1036F00040E08091E405881F8827881F9091E505A8
:10370000292F220F97FB992790F96091E605822BCC
:103710000C9405196093E4057093E5058093E60524
:103720009093E7050E94BC178091E40580FF04C0D8
:1037300086958F730C940B1A0C9465182EB1342F48
:10374000309523233EB1432B3FB7F894FC01680F1B
:10375000791FE617F70789F0819198E04EB90000CC
:1037600000C087FF2EB9880F000000C000C000C055
:103770002EB900C09A9591F7ECCF3FBF08952DB1B7
:10378000242B2DB99B01220F331F620F731F0E9440
:103790009E1B87EC90E00197F1F700C000000895B0
:1037A00044E00C94BF1BCF93DF93FC0127852111CC
:1037B00016C0EC0181E0878787810E94A528888553
:1037C0000E94B8280E946F28EA81FB816A897B8960
:1037D000CE010696309719F0DF91CF910994DF91D1
:1037E000CF910895EF92FF920F931F93CF93DF93A2
:1037F000FC012085211134C0EC01E380F480F7E561
:10380000FF1A24E12E9DC0012F9D900D1124DC0193
:10381000AD5EBE4F1496ED91FC91159752966D9149
:103820007C915397875E9E4F309709F0099584E10C
:103830008E9D80018F9D100D11240D5E1E4FF8018D
:1038400087810E94AB28F80180850E94BE280E94D3
:103850006F2818821F82198610920E0510920D058E
:10386000DF91CF911F910F91FF90EF900895DF921C
:10387000EF92FF920F931F93CF93DF93FB0122816F
:10388000222379F120919F012F3F59F18C01C9E149
:10389000D1E0E12CF12CDD24D39480919F01082EFE
:1038A000000C990B8E159F05E4F088818823A1F008
:1038B0008B819C810817190739F480910D0590912F
:1038C0000E050817190741F0DF82CE0106970E9406
:1038D000D31BCE010E94F21BFFEFEF1AFF0A649682
:1038E000DCCFDF91CF911F910F91FF90EF90DF9090
:1038F0000895EF92FF920F931F93CF93DF939C0154
:1039000037552F3F310511F008F047C040919F0116
:10391000042E000C550B4217530714F420939F01FB
:10392000FB017C01828194E1929F8001939F100DA5
:103930001124E801CD5EDE4F8E8792818E8199231E
:1039400011F1FA86E9868F5F8E830E94BF2A9C87D9
:103950008B870E94DE288F830E94A22888870E947E
:10396000B5289885892B8887E881F9816A897B89C0
:10397000C801875E9E4F309709F00995F0920E05B9
:10398000E0920D050AC0882341F08F85882329F035
:10399000C801875E9E4F0E94F21B81E0DF91CF91AC
:1039A0001F910F91FF90EF900895CF92DF92EF92C9
:1039B000FF920F931F93CF93DF9380919F018F3FCF
:1039C000C1F1C0E0D4E12C2F30E080919F01082E9E
:1039D000000C990B8217930764F1D29FF001D39FDB
:1039E000F00D1124ED5EFE4FE088F188E114F10442
:1039F00019F488ECE82EF12CD29F6001D39FD00CF3
:103A0000112486010D5E1E4FF8018681882379F00E
:103A1000838594850E94CB2AE816F90640F4C801F4
:103A20000E94D31BC601875E9E4F0E94F21BCF5F90
:103A3000CACFDF91CF911F910F91FF90EF90DF9050
:103A4000CF90089590931405809313050895E09105
:103A50001305F0911405309721F00190F081E02DCD
:103A6000099480E00895EF92FF920F931F93CF93F4
:103A7000DF93E0911305F09114053097B1F18C01BB
:103A80000280F381E02D09958091B80582FF2DC059
:103A900080FF04C080EB91E10E94350AE80110E24A
:103AA0008AEAE82E81E1F82E8091B80580FF0BC0EC
:103AB00088811F928F93FF92EF920E94CE0A0F90FF
:103AC0000F900F900F90115021961111EDCF809112
:103AD000B80580FF0AC088EA91E1DF91CF911F917C
:103AE0000F91FF90EF900C94350ADF91CF911F91C9
:103AF0000F91FF90EF9008952091110530911205DC
:103B00008217930771F09093120580931105E0914D
:103B10001305F0911405309721F00680F781E02D10
:103B20000994089520910F0530911005821793078D
:103B300071F09093100580930F05E0911305F091BB
:103B40001405309721F00084F185E02D0994089543
:103B500008950C94A81D81E008950E94B62A0E9441
:103B6000F2150E943F2B0C94411ACF93C82F8091DD
:103B7000B80582FF1EC080FF04C089EC91E10E945D
:103B8000350A8091B80580FF0CC01F92CF9384EC5A
:103B900091E19F938F930E94CE0A0F900F900F9008
:103BA0000F908091B80580FF04C082EC91E10E94E3
:103BB000350A8C2FCF910C9440134F925F927F92D5
:103BC0008F929F92AF92BF92CF92DF92EF92FF922D
:103BD0000F931F93CF93DF93CDB7DEB72A970FB61E
:103BE000F894DEBF0FBECDBF0E9440160E94AB1DF1
:103BF000811111C08FEF89838A831B820E94BF2AA3
:103C00008160782F9D838C8349815A816B818D815E
:103C10000E94991E57C096E1C92E95E0D92E00E06A
:103C200010E0AA24A394B12C702E802F0E94F416C9
:103C30004C01F601419051906F01482659264114DC
:103C4000510431F40F5F1F4F0530110569F7D2CFD2
:103C50008091B80581FD0E94FD1620E030E07501DD
:103C6000022E02C0EE0CFF1C0A94E2F7C701842169
:103C70009521892B09F12E837F828E209F2091E050
:103C8000892809F490E098870E94BF2A8160782FE4
:103C90009A8789874E815F8168858A850E94991EEF
:103CA000000F111FF801EA5EFA4F80819181E8262A
:103CB000F926F182E08206C02F5F3F4F2F30310599
:103CC00071F6C0CF109115050E94271D1817D9F065
:103CD0000E94271D809315052A960FB6F894DEBF23
:103CE0000FBECDBFDF91CF911F910F91FF90EF904D
:103CF000DF90CF90BF90AF909F908F907F905F901C
:103D00004F900C94B51D2A960FB6F894DEBF0FBEE7
:103D1000CDBFDF91CF911F910F91FF90EF90DF907A
:103D2000CF90BF90AF909F908F907F905F904F907B
:103D30000895CF93DF93CDB7DEB72B970FB6F894E6
:103D4000DEBF0FBECDBF4F83588769877A878B87C9
:103D5000DE01119686E0FD0111928A95E9F785E072
:103D6000FE01379601900D928A95E1F749815A81BB
:103D70006B817C818D819E810E9449252B960FB697
:103D8000F894DEBF0FBECDBFDF91CF910895882399
:103D900009F4F3C0682F8238C1F40E94271D81FD09
:103DA000ECC069E38091A0019091A1010E94262AB4
:103DB0000E946F282FEF81EE94E0215080409040C8
:103DC000E1F700C0000069E319C08338F9F40E94EC
:103DD000271D80FDD2C063E58091A0019091A101D3
:103DE0000E94262A0E946F282FEF81EE94E0215036
:103DF00080409040E1F700C0000063E58091A001A1
:103E00009091A1010E94312A0C946F288438C1F44A
:103E10000E94271D82FDB1C067E48091A0019091AE
:103E2000A1010E94262A0E946F282FEF81EE94E0C4
:103E3000215080409040E1F700C0000067E4DECFF1
:103E40008CEF860F813A38F48091A0019091A10106
:103E50000E94262AD9CF80E2860F883048F4677006
:103E600081E001C0880F6A95EAF70E94A528CCCFAF
:103E70008BE5860F833070F4653A29F0663A31F0AD
:103E800083E890E005C081E890E002C082E890E01D
:103E90000C947C1D88E5860F853108F06EC0683A69
:103EA00061F1693A69F16A3A71F16B3A79F16C3A08
:103EB00081F16B3B89F16C3B91F16D3A99F1603B7B
:103EC000A1F16E3AA9F16F3AB1F1613BB9F1623BF0
:103ED000C1F1633BC9F1643BD1F1653BD9F1663B6C
:103EE000E1F1673BE9F1683BF1F1693BF9F16A3BCC
:103EF00009F43FC080E090E03EC082EE90E03BC01D
:103F000089EE90E038C08AEE90E035C085EB90E015
:103F100032C086EB90E02FC083EB90E02CC084EBA6
:103F200090E029C087EB90E026C08CEC90E023C0A5
:103F30008DEC90E020C083E891E01DC08AE891E01C
:103F40001AC082E991E017C084E991E014C081E2CF
:103F500092E011C083E292E00EC084E292E00BC0D6
:103F600085E292E008C086E292E005C087E292E036
:103F700002C08AE292E00C94921D0895882309F40D
:103F80005BC0682F823879F40E94271D81FF54C0DE
:103F900069E38091A0019091A1010E94262A0E94CC
:103FA0006F2869E310C08338B1F40E94271D80FF99
:103FB00043C063E58091A0019091A1010E94262A4F
:103FC0000E946F2863E58091A0019091A1010E9459
:103FD000312A0C946F28843879F40E94271D82FFBF
:103FE0002BC067E48091A0019091A1010E94262A34
:103FF0000E946F2867E4E7CF8CEF860F813A18F3B1
:1040000080E2860F883048F4677081E001C0880F35
:104010006A95EAF70E94AB28DCCF8BE5860F8330E8
:1040200020F480E090E00C947C1D685A653120F407
:1040300080E090E00C94921D0895882321F00E9466
:10404000A5280C946F280895882321F00E94AB289E
:104050000C946F2808954F925F926F927F92AF9267
:10406000BF92CF92DF92EF92FF920F931F93CF9365
:10407000DF931F92CDB7DEB77C01A72EFC0105812F
:1040800002950F701281112321F069830E94C528C7
:10409000698169830E9468286981882381F01123DE
:1040A00071F080E2860F883050F082E00E94512843
:1040B0000E94682891E0B82EB926698101C0B12C10
:1040C000CA2CC2948FE0C822D12CF601EB57FF4FC7
:1040D0000C9455338A2D807F0A2D0F70882311F0A0
:1040E0000295007F1123C1F0002309F49AC180E2F8
:1040F000860F883010F0611105C0802F69830E94FF
:10410000A52804C0802F69830E94B828698169832B
:104110000E946F28698185C1862F69830E94BE1F16
:104120006981002309F4A0C180E2860F883010F075
:10413000611104C0802F0E94AB2803C0802F0E9411
:10414000BE280E946F2890C18A2D807F9A2D9F7073
:10415000803211F4892F03C0892F8295807F6623D6
:1041600019F06130B1F01FC0112349F0002309F4A8
:1041700010C1013009F00DC10E94D82875C100237B
:1041800019F0013009F470C189830E94DB2889810C
:1041900006C1112321F0063008F066C1FAC00530CF
:1041A00008F062C1FCC0112351F0002309F4F1C0F2
:1041B000F701958190FF35C19F709583EAC0002378
:1041C00009F4EDC03FC18A2D86958695837090E0F5
:1041D000009719F0019761F047C1112321F0862F54
:1041E0009A2D937002C080E090E00E947C1D4CC12B
:1041F000112321F0862F9A2D937002C080E090E069
:104200000E94921D41C18A2D837009F052C0111184
:1042100037C1862F829586958770880F880F962FD5
:104220009F70492E512C612C712C082E04C0440C17
:10423000551C661C771C0A94D2F764FF14C00FE06B
:1042400010E020E030E0B901A80104C0440F551F80
:10425000661F771F8A95D2F7CB01BA0160957095DA
:104260008095909503C060E070E0CB012A2D2695E3
:104270002695237030E02230310569F02330310576
:1042800089F064297529862997292130310571F033
:104290000E948C26F5C064297529862997290E94D9
:1042A0009E26EEC00E948C26C301B2010E947A268F
:1042B000E7C0112319F08A2D817001C086958823EB
:1042C00009F4DEC0862F829586958770880F880F47
:1042D000962F9F70492E512C612C712C082E04C0F2
:1042E000440C551C661C771C0A94D2F764FF14C05A
:1042F0000FE010E020E030E0B901A80104C0440F55
:10430000551F661F771F8A95D2F7CB01BA016095BA
:1043100070958095909503C060E070E0CB012A2DE8
:10432000269526952370422F50E04230510569F0C2
:104330004330510589F06429752986299729413030
:10434000510571F00E9451279BC064297529862967
:1043500097290E94632794C00E945127C301B2018C
:104360000E943F278DC0862F90E0FC01E05EF1099E
:10437000E531F10508F051C0EB56FF4F0C94553371
:10438000062F0F708A2D8F71112331F00E94D826CD
:10439000802F0E941D2068C00E94F926802F0E9455
:1043A000242062C0112341F0053008F05DC08A2D41
:1043B0008F710E941E2758C0063008F055C0F7CFF5
:1043C000112339F08A2D8F710E94D8264DC01123F8
:1043D000C9F38A2D8F710E94F92646C0112329F056
:1043E0008A2D8F710E94C3263FC00E94BE263CC00A
:1043F000112351F01A2D1F71812F0E94D82663E0DE
:10440000812F0E94482830C081E00E94512802304C
:1044100058F182E00E94512827C0112331F0002377
:1044200089F2862F0E94C71E1FC0002391F26933B4
:1044300049F45FEF77EE83E0515070408040E1F740
:1044400000C00000862F0E94BE1F0EC04A2D4F7074
:10445000C7010E9442130E94ED2516C04A2D4F70DD
:10446000C7010E94451310C098E0C916D10441F05D
:104470005CF0FAE0CF1AD10822E0C216D10420F491
:104480000E94271D0E944013BB2001F10E94442876
:1044900080FD1CC0F70112820E943E280E94D8268F
:1044A000C7010E9476220E943E280F90DF91CF9193
:1044B0001F910F91FF90EF90DF90CF90BF90AF9042
:1044C0007F906F905F904F900C94F9260F90DF9142
:1044D000CF911F910F91FF90EF90DF90CF90BF9001
:1044E000AF907F906F905F904F9008950F931F93C0
:1044F000CF93DF93EC01888199812B813C81232B21
:10450000B9F09F3F11F48F3F99F0CE010E942D101A
:10451000882371F0688179818A810E941B288C012F
:104520000E9475270E947726B801CE010E942B2099
:10453000DF91CF911F910F9108950E94C5280E948D
:10454000D5288091A0019091A1010E943C2A0E944F
:104550006F2880E090E00E947C1D80E090E00C9449
:10456000921D0E94B2280C949D220E941028E92FCF
:10457000E295EF70F0E03297EE30F105B0F4E655D9
:10458000FF4F0C945533803F91F018F4803E68F44F
:104590000EC0843F51F40BC0803E48F0813F29F4A7
:1045A00006C093FB882780F9089580E0089581E094
:1045B0000895CF93DF9300D000D01F92CDB7DEB720
:1045C0000F900F900F900F900F90DF91CF91089563
:1045D000CF93DF9300D000D000D0CDB7DEB72696C2
:1045E0000FB6F894DEBF0FBECDBFDF91CF91089517
:1045F0001F93CF93DF93C091210516E08091220590
:10460000C81799F0D0E01C9FF0011D9FF00D1124F8
:10461000ED5DFA4F40815181628173818481958182
:104620000E94E8222196C770E9CFDF91CF911F91B8
:10463000089540915305509154056091550570912E
:10464000560580915705909158050C94E822809169
:10465000580582958F7009F054C0809155058823C4
:1046600009F44FC080912105A09122056091530566
:10467000709154054091560550915705B6E08A1740
:1046800009F43FC090E041155105C1F17F3F11F49D
:104690006F3FA1F1B89FF001B99FF00D1124ED5DBE
:1046A000FA4F218172132AC02081621327C0228110
:1046B000211124C0238134812417350710F421509F
:1046C0003109241B350B283C3105C0F420915805D5
:1046D0002F7020612093580526E0289FF001299F24
:1046E000F00D1124E85DFA4F80818F708061808326
:1046F00083E595E00E9476220C94F822019687705B
:10470000BECF0895CF92DF92EF92FF920F931F9347
:10471000CF93DF93CDB7DEB762970FB6F894DEBFC5
:104720000FBECDBF8C0185E0F801DE011D96019022
:104730000D928A95E1F7D8014C9111965C911197F1
:1047400012966C9112971396CD90DC90149730913D
:104750005305709154058091560590915705009727
:1047600009F46BC17F3F19F43F3F09F466C1E09043
:104770005505EE2009F4C0C020915805C816D90689
:1047800028F0F601E81BF90BCF0104C08095909545
:104790008C0D9D1DFF24F394883C910578F0F12C3D
:1047A000207F09F0C6C07C2DD98AC88A89890E94D9
:1047B000D92283E595E00E947622B1C0822F807FC6
:1047C00009F046C0751314C0341312C0611110C033
:1047D0002F702061209358050E94192383E595E0EE
:1047E0000E94762280915805D80115968C932EC090
:1047F000CD2819F15F3F11F44F3FF9F0F62E61110A
:104800001CC0809121052091220536E0821709F411
:104810005AC090E0389FF001399FF00D1124ED5DF2
:10482000FA4F7181571306C07081471303C072811C
:10483000711103C001968770E9CFF62E662309F443
:1048400018C180915805816080935805F12C11C1E1
:10485000751308C0341306C0611104C08091580557
:10486000D801C3C04D875E878D859E856A8B0E9467
:10487000B5226A898823E1F16623D1F12091580598
:10488000822F82958F7090E0029774F0809153058B
:104890009091540598878F831986DB86CA862C876A
:1048A000CE0107960E94762286E0F801A3E5B5E0E6
:1048B00001900D928A95E1F70E9427230E94192307
:1048C000FF24F394D6C04D875E878D859E850E9418
:1048D0001028292F22952F7030E0223031050CF05E
:1048E000BCC09F7009F0B6C0805E883008F4C1C0BB
:1048F000C8010E947622E4CFC816D90608F453C036
:10490000F601E81BF90BCF01883C910508F450C073
:10491000F12C7C2DD98AC88A89890E94D922E3E5A5
:10492000F5E086E0DF011D928A95E9F70E941923E0
:10493000A0C0751314C0341312C0611110C080914F
:104940005805F8018583C8010E94762286E0E3E5D8
:10495000F5E0DF011D928A95E9F7FE2C8AC04D87AC
:104960005E878D859E856A8B0E94B5226A89882321
:1049700009F4BECF662309F4BBCF20915805822FDE
:1049800082958F7090E002970CF48ECF8091530542
:10499000909154059A8389831B82DD82CC822E8379
:1049A000CE0101967FCF809590958C0D9D1DACCF4B
:1049B000F62E662309F49CCF75132EC034132CC039
:1049C0002091580520FD1FC0822F82958F70D9F04D
:1049D000D80115962C9315978F3049F08F5F982F3B
:1049E0009295907F822F8F70892B15968C93C8019A
:1049F0000E94762286E0F801A3E5B5E001900D92D1
:104A00008A95E1F793CF86E0F801A3E5B5E0019040
:104A10000D928A95E1F72DC04D875E878D859E8525
:104A20000E94B522811140CF80915805816080930A
:104A30005805C8010E9476221CC0662309F458CF8D
:104A40004D875E878D859E850E94B522882309F457
:104A50004FCF2ACF811148CF0CC0243031050CF044
:104A600047CF9F7009F440CFF8019581907F09F0FE
:104A70003BCF8F2D62960FB6F894DEBF0FBECDBF31
:104A8000DF91CF911F910F91FF90EF90DF90CF902A
:104A900008951F93CF93DF93CDB7DEB72C970FB652
:104AA000F894DEBF0FBECDBF4F83588769877A87E2
:104AB0008B879C87CE0107960E948223882369F00A
:104AC0008F8198852A853B85232BF1F19F3F09F043
:104AD00063C08F3F09F060C037C086E0FE013796A3
:104AE000DE01119601900D928A95E1F76F8178852C
:104AF000EA85FB85309741F17F3F11F46F3F21F14B
:104B00002091220530E0C9010196877099274091D4
:104B1000210550E08417950709F447C069837A831B
:104B2000FD83EC8396E0929FD001939FB00D1124FA
:104B3000AD5DBA4FFE01319601900D929A95E1F765
:104B4000809322050E94F82216E080912105909121
:104B500022058917C1F1189FC00111248D5D9A4F5C
:104B60000E948223882379F1E09121051E9FF001A4
:104B70001124ED5DFA4F40815181628173818481FE
:104B800095810E94E8228091210590E0019687702E
:104B9000992780932105D9CF4F81588569857A85DA
:104BA0008B859C850E94E822CFCF0E94B122109273
:104BB000220510922105E3E5F5E086E0DF011D9274
:104BC0008A95E9F7C1CF2C960FB6F894DEBF0FBED9
:104BD000CDBFDF91CF911F910895EF92FF920F9378
:104BE0001F93CF93DF938C01892B09F46CC0F12CB8
:104BF000EE24E394E8012196F8018491843740F48F
:104C0000843008F051C0813081F0823019F15BC0EE
:104C1000853709F444C0A8F19CE7980F903708F055
:104C200052C08F770E94BE1F41C00E5F1F4FFE0112
:104C3000C49180E28C0F883048F4C7708E2D01C07B
:104C4000880FCA95EAF70E94C82814C08C2F0E94CA
:104C5000C71E2DC00E5F1F4FFE01C49180E28C0F56
:104C6000883058F4C7708E2D01C0880FCA95EAF7B6
:104C70000E94CE280E946F281AC08C2F0E94BE1F4F
:104C800016C00E5F1F4FFE01C491CC2381F08FE947
:104C90009FE00197F1F700C00000C150F6CF0E5F12
:104CA0001F4FFE01F49003C00E94C71E8E018F2D7E
:104CB000882309F49FCFEFE9FFE03197F1F700C0B7
:104CC00000008150F5CFDF91CF911F910F91FF90A0
:104CD000EF90089508950E946A2660938F0570935F
:104CE000900580939105909392050C949D220895D0
:104CF0000C946B260F931F9300918F0510919005D4
:104D00002091910530919205602B712B822B932B72
:104D10001F910F910C946B260F931F9300918F0599
:104D20001091900520919105309192056023712397
:104D3000822393231F910F910C946B260F931F9343
:104D400000918F0510919005209191053091920569
:104D500060277127822793271F910F910C946B2650
:104D60000C94400E0E94B02660938B0570938C05C6
:104D700080938D0590938E050C949D2260E070E0E9
:104D8000CB010C94B2260F931F9341E050E060E0FA
:104D900070E08A019B0104C0000F111F221F331F06
:104DA0008A95D2F7C901B8011F910F910C94B226D0
:104DB0000F931F9341E050E060E070E004C0440FA7
:104DC000551F661F771F8A95D2F780918B059091AA
:104DD0008C05A0918D05B0918E058A019B01082B51
:104DE000192B2A2B3B2BC901B8011F910F910C9451
:104DF000B2260F931F9341E050E060E070E004C0E2
:104E0000440F551F661F771F8A95D2F7409550951E
:104E10006095709580918B0590918C05A0918D0582
:104E2000B0918E058A019B01082319232A233B2375
:104E3000C901B8011F910F910C94B2260F931F93D3
:104E400041E050E060E070E004C0440F551F661F71
:104E5000771F8A95D2F780918B0590918C05A09150
:104E60008D05B0918E058A019B01082719272A27F5
:104E70003B27C901B8011F910F910C94B2260F93E3
:104E80001F9300918B0510918C0520918D05309119
:104E90008E05602B712B822B932B1F910F910C94FD
:104EA000B2260F931F9300918B0510918C052091D2
:104EB0008D0530918E0560237123822393231F91EA
:104EC0000F910C94B2260F931F9300918B051091B4
:104ED0008C0520918D0530918E05602771278227E2
:104EE00093271F910F910C94B22608952FE0929F63
:104EF000800D1124A82FA695A695A695877051E040
:104F000001C0550F8A95EAF785E0A89FD0011124CA
:104F100020E030E070E0F901EA0FFB1FE75AFA4F9A
:104F20004081CB01022E02C0969587950A94E2F744
:104F300081709927819584278523842780832F5F1B
:104F40003F4F2530310539F708952FE0929F800DAE
:104F50001124682F669566956695982F977085E061
:104F6000689FB001112440E050E080E0FA01E60FB4
:104F7000F71FE75AFA4F208130E0092E02C036951C
:104F800027950A94E2F721703327042E01C0220FDF
:104F90000A94EAF7822B4F5F5F4F4530510531F796
:104FA0000895CF92DF92EF92FF920F931F93CF93CA
:104FB000DF938C01C0908F05D0909005E090910513
:104FC000F090920580918B0590918C05A0918D05B4
:104FD000B0918E05C82AD92AEA2AFB2ACFE1D0E06F
:104FE000D701C6010C2E04C0B695A7959795879555
:104FF0000A94D2F780FF06C0B8018C2F0E9460137C
:10500000019721F4219760F780E001C08C2FDF9198
:10501000CF911F910F91FF90EF90DF90CF90089567
:10502000CF93DF93EC010E94D127BE010E94601351
:10503000DF91CF9108951F93CF93DF93EB01909170
:105040002005992321F0CB010E94102813C088234A
:1050500049F0CB010E94D127182F682FCE010E9462
:10506000762704C0CB010E94A527182FBE01812FEF
:105070000E946013DF91CF911F9108958091930555
:1050800085958595859508958091930587700895F8
:1050900098E0899F90011124262B209393050C946E
:1050A000D826209193058095822380939305982F8D
:1050B000977069F430E0482F082E000C550B241728
:1050C000350729F08595859585950C94F9260895E1
:1050D00090919305977081E009F480E00895E09144
:1050E000A001F091A1018091B7058083E091A0011A
:1050F000F091A10190818091B605892B8083E09188
:10510000A001F091A10190818091B505892B808348
:1051100080919405882381F0E091A001F091A10194
:105120009081892B80838091A0019091A1010E94A0
:10513000A8298111109294058091A0019091A1015C
:105140000C94331D8091B70508959091B705892B74
:105150008093B705089580959091B7058923809332
:10516000B70508951092B70508958091B605089582
:105170009091B605892B8093B605089580959091FE
:10518000B60589238093B60508951092B605089553
:105190009091B505892B8093B505089580959091E0
:1051A000B50589238093B50508951092B505089536
:1051B0008093940508951092940508958091940524
:1051C00008959093D7018093D6010895CF92DF92EE
:1051D000EF92FF926C01EE24FF24C114D104E1048C
:1051E000F10421F0C701B60120E101C020E0C72E83
:1051F000D82EE92EFF24C114D104E104F10419F0E2
:10520000285FC701B6016B017C0154E0F694E79476
:10521000D794C7945A95D1F7C114D104E104F1048D
:1052200019F02C5FC701B6016B017C0142E0F694D6
:10523000E794D794C7944A95D1F7C114D104E104F7
:10524000F10419F02E5FC701B601DC01CB01B69560
:10525000A79597958795892B8A2B8B2B09F02F5F24
:10526000822FFF90EF90DF90CF9008958295982F36
:105270009C7C392F36953695282F237344E0249F44
:10528000C0011124932F982B292F2A7A2695892F34
:105290008575880F822B08951F93CF93DF931F92FC
:1052A000CDB7DEB799830E943629182F9981892FAF
:1052B0000E943629212F30E0322F2227A901482BC6
:1052C000CA010F90DF91CF911F9108956DEE7EEF8F
:1052D00080E090E00E948D3360E082E090E00E94E8
:1052E0006F3360E083E090E00E946F3360E084E021
:1052F00090E00E946F3360E085E090E00E946F33A1
:1053000040E050E0BA0188E090E00C94813380E006
:1053100090E00E94693321E08D3E9E4F09F020E02D
:10532000822F089582E090E00C945B3383E090E05C
:105330000C945B33682F83E090E00C946F3384E02F
:1053400090E00C945B33682F84E090E00C946F3312
:10535000FC0131969C01205E3F4F80E091919111BC
:105360008F5FE217F307D1F708959C01FC01329695
:105370009FEF80E04191461789F09F3F19F441115A
:1053800001C0982F8F5F8E31A9F79F3F39F0F90147
:10539000E90FF11D97FDFA95628308950895FC01C8
:1053A000329680962081261301C010823196E8172C
:1053B000F907C1F70895262F2695269526952F31B2
:1053C00070F4FC01E20FF11D677021E030E001C0D4
:1053D000220F6A95EAF78181282B21830895809115
:1053E000B80580FF0CC01F926F938AEF91E19F93E5
:1053F0008F930E94CE0A0F900F900F900F900895F8
:10540000262F2695269526952F3178F4FC01E20F5C
:10541000F11D677021E030E001C0220F6A95EAF7C4
:10542000209581812823218308958091B80580FFEC
:105430000CC01F926F938CED91E19F938F930E940C
:10544000CE0A0F900F900F900F9008952091AC010D
:10545000222329F02091200627FD0C94DB290C94AF
:10546000B5292091AC01222329F02091200627FDA7
:105470000C94002A0C94CF29FC013196809611924D
:10548000E817F907E1F7089580912606843039F18D
:105490001092B90520E488E190E00FB6F894A89541
:1054A000809360000FBE2093600080E00E94401354
:1054B00083B7817F846083BF83B7816083BF789423
:1054C000889583B78E7F83BF0FB6F894A895809197
:1054D0006000886180936000109260000FBE0895A4
:1054E00008950895CF930E94702A0E9440160E944A
:1054F000712AC0E08C2F0E94F416892B29F4CF5F0B
:10550000C530C1F780E001C081E0CF9108950E94CD
:10551000B1220E94271D0C9440131F920F920FB6C8
:105520000F9211248F939F93AF93BF938091B905EE
:10553000811113C080911C0690911D06A0911E063A
:10554000B0911F064196A11DB11D80931C0690933A
:105550001D06A0931E06B0931F06BF91AF919F91A9
:105560008F910F900FBE0F901F90189582E084BD11
:1055700093E095BD9AEF97BD80936E0008952FB785
:10558000F89480911C0690911D06A0911E06B09182
:105590001F062FBF0895CF92DF92EF92FF920F93D5
:1055A0001F932FB7F89440911C0650911D066091EF
:1055B0001E0670911F062FBF6A017B01EE24FF2497
:1055C0008C0120E030E0C016D106E206F30610F4AC
:1055D000415051099A01281B390BC9011F910F91A4
:1055E000FF90EF90DF90CF90089578941F920F92E4
:1055F0000FB60F9211248F939F93AF93BF93809117
:105600001C0690911D06A0911E06B0911F060196E2
:10561000A11DB11D80931C0690931D06A0931E062C
:10562000B0931F06BF91AF919F918F910F900FBEC6
:105630000F901F90189581E08093E00080E28093A6
:10564000D8001092C9008FE19EE40197F1F700C0E5
:10565000000087E090EBDC0180932F0690933006EA
:10566000A0933106B09332069CE088E10FB6F8941F
:10567000A895809360000FBE90936000FFCF0E94BA
:105680008729811102C00E9466290E949229809375
:10569000B8050E949F2990E09093210680932006F0
:1056A0000E949629682F70E080E090E00C947826A4
:1056B0008091DD05089508959FB7F8941092BC0578
:1056C0009FBF90912606943009F057C09091E90051
:1056D0009F703091EC00232F217030FD20E8922B39
:1056E00023E02093E9002091EB0020FF43C02091AC
:1056F000EE0027FF3FC02091BA05222321F0209120
:10570000E80025FF37C01092BA0526E03091E80086
:1057100035FD15C030912606343061F53091EB002F
:1057200035FD28C0215021F481E08093BA0522C0C4
:10573000EFE9FFE03197F1F700C00000E7CF809379
:10574000F1008091E80085FD0AC08091E80080FFAB
:10575000FCCF8091E8008E778093E80006C08FB779
:10576000F89421E02093BC058FBF9F709093E900CF
:1057700080E008959F709093E9008FEF08950F9354
:105780001F93CF93DF9300D01F92CDB7DEB78C016C
:105790000E94692E823011F0843021F583E08983E4
:1057A0001B830A8382E08093E9008FEF9091E800E9
:1057B000815095FD06C095ED9A95F1F70000811195
:1057C000F5CF8091E80085FF0DC040E050E063E038
:1057D00070E0CE0101960E94862E8091E8008E77BF
:1057E0008093E8000F900F900F90DF91CF911F9161
:1057F0000F910895CF93DF9300D01F92CDB7DEB7FE
:1058000020912606243029F522E029838058910929
:105810009B838A832093E9008FEF9091E800815069
:1058200095FD06C095ED9A95F1F700008111F5CF31
:105830008091E80085FF0DC040E050E063E070E03B
:10584000CE0101960E94862E8091E8008E7780938B
:10585000E8000F900F900F90DF91CF910895CF93B4
:10586000DF93EC010E94692E823019F0843009F038
:1058700047C08091AC018823E1F08091200687FF2A
:1058800018C084E08093E9008FEF9091E800815088
:1058900095FD06C095E19A95F1F700008111F5CFCD
:1058A0008091E80085FF2CC040E050E060E270E0AD
:1058B00017C081E08093E9008FEF9091E80081505C
:1058C00095FD06C095ED9A95F1F700008111F5CF91
:1058D0008091E80085FF14C040E050E068E070E08F
:1058E000CE010E94862E8091E8008E778093E8009A
:1058F00080E2FE01ADEBB5E001900D928A95E1F7F3
:10590000DF91CF9108958DE392E10E94350A809155
:105910002506811109C00E941B300E9478308091B9
:10592000E20084608093E200089589E392E10E949E
:10593000350A10922506089585E392E10C94350A04
:1059400081E392E10C94350A8DE292E10E94350ADE
:105950000C94872A2091BB052F5F822F62E30E945F
:105960002133992319F02093BB0508951092BB05AC
:105970008091BC05882371F180912606843041F521
:105980008091E9008F702091EC00922F917020FDA2
:1059900090E8892B93E09093E9009091EB0090FFC1
:1059A00014C09091EE0097FF10C09091E80095FF11
:1059B00003C01092F100F9CF9091E80090FF05C06C
:1059C0009091E8009E779093E8008F708093E900B3
:1059D0001092BC05089542E061EC81E00E94952F91
:1059E00042E061EC82E00E94952F42E261EC83E0AC
:1059F0000E94952F42E261EC84E00C94952F8091F7
:105A00002806833009F455C030F4813071F08230BB
:105A100009F48EC008958A3009F47AC08B3009F4F5
:105A200060C0893009F09CC020C080912706813A6F
:105A300009F096C08091E800877F8093E80080910C
:105A40002B0690912C06892B21F460E28DEB95E0DA
:105A500003C060E080E090E070E00E94D12E809171
:105A6000E8008B778093E8000895809127068132C3
:105A700009F076C080912B0690912C06009719F0C2
:105A8000039709F06DC08091E800877F8093E8005C
:105A90008091E80082FD05C0809126068111F8CF33
:105AA0005FC08091F1008093DD058091E8008B77E5
:105AB00053C080912706813A09F052C080912B068D
:105AC00090912C06892B09F04BC08091E800877FCC
:105AD0008093E8008091E80080FFFCCF8091AC01CA
:105AE00036C0809127068132D9F580912B0690919E
:105AF0002C06892BA9F58091E800877F8093E80028
:105B00000E94CA2F809129068093AC010C94B12287
:105B100080912706813221F58091E800877F80936C
:105B2000E8000E94CA2F80912A068093DE0508951E
:105B300080912706813AA1F48091E800877F8093C5
:105B4000E8008091E80080FFFCCF8091DE05809323
:105B5000F1008091E8008E778093E8000C94CA2FC2
:105B6000089584B7877F84BF0FB6F894A895809175
:105B70006000886180936000109260000FBE80E832
:105B800080936100109261000E94A91D0E941B3049
:105B90000E9478308091E20084608093E2008CE57E
:105BA0009BE20E94E12878940E9406330E94AD1D7A
:105BB00082EA91E00E94221D8CE192E10E94350A66
:105BC00080912606853089F488E192E10E94350AA9
:105BD0000E94442A80912406882391F30E94722A0D
:105BE000882371F30E94702EEBCF0E94DD1DE8CF59
:105BF0000C94FA2D292F332723303105C9F064F492
:105C00002130310581F02230310509F049C084E7A7
:105C100090E029E632E148C02132310521F12232FB
:105C2000310571F13DC082E190E02DED32E13CC0E3
:105C300099278130910571F02CF4892B89F5E5E6DF
:105C4000F2E10DC08230910541F0039749F5E1E49E
:105C5000F2E105C0E3E5F2E102C0E7E4F2E184919C
:105C600090E09F0121C064307105D0F4660F771F6A
:105C7000FB01E353FE4F2081318189E090E014C0A5
:105C80006430710568F4FB01EE0FFF1FEB53FE4F0C
:105C900020813181FB01EF53FE4F808190E004C0F1
:105CA00080E090E020E030E0FA0131832083089525
:105CB0000895CF93C82F0E94582EC093DF05CF912F
:105CC000089580912606843011F081E0089582E0E5
:105CD00008958091DF05811102C00C94612E089512
:105CE00080E189BD82E189BD09B400FEFDCF8091CC
:105CF000D8008F7D8093D8008091E00082608093EF
:105D0000E0008091E00081FDFCCF0895CF92DF920A
:105D1000EF92FF920F931F93CF93DF93EC018B01D0
:105D20006A010E94E92F811133C0C114D10439F0F6
:105D3000F60180819181081B190BC80FD91FE12C36
:105D4000F12C0115110519F18091E80085FD16C0AF
:105D50008091E8008E778093E800C114D10449F067
:105D6000F60180819181E80EF91EF182E08285E0E2
:105D70000FC00E94E92F882321F30AC089918093E4
:105D8000F10001501109FFEFEF1AFF0ADACF80E0AE
:105D9000DF91CF911F910F91FF90EF90DF90CF9007
:105DA000089520912D0630912E062617370748F0CA
:105DB0006115710539F42091E8002E772093E800F1
:105DC00001C0B90140E061157105A9F120912606D5
:105DD000222309F443C0253009F442C02091E80091
:105DE00023FD40C02091E80022FD32C02091E80050
:105DF00020FFE9CF4091F3002091F20030E0342BF6
:105E0000FC01CF016115710559F02830310540F4CE
:105E100081918093F100615071092F5F3F4FF1CF65
:105E200041E02830310509F040E02091E8002E776C
:105E30002093E800C8CF4111C9CF0AC0809126063F
:105E4000882361F0853061F08091E80083FD0AC00D
:105E50008091E80082FFF2CF80E0089582E008950B
:105E600083E0089581E0089520912D0630912E065B
:105E70002617370748F06115710539F42091E800BD
:105E80002E772093E80001C0B901FC0120E06115E4
:105E9000710591F180912606882309F440C0853070
:105EA00009F43FC08091E80083FD3DC08091E80087
:105EB00082FD2FC08091E80080FFE9CF2091F300A0
:105EC0008091F20090E0922B6115710559F08830B5
:105ED000910540F424912093F100319661507109AD
:105EE0000196F2CF21E0089709F020E08091E800C8
:105EF0008E778093E800CBCF2111CCCF0AC0809160
:105F00002606882361F0853061F08091E80083FDEA
:105F10000AC08091E80082FFF2CF80E0089582E01D
:105F2000089583E0089581E00895982F973058F5FB
:105F30009093E900981739F07091EC002091ED00F2
:105F40005091F00003C0242F762F50E021FF19C09C
:105F50003091EB003E7F3093EB003091ED003D7FC0
:105F60003093ED003091EB0031603093EB00709393
:105F7000EC002093ED005093F0002091EE0027FFFD
:105F800007C09F5FD3CF8F708093E90081E00895B1
:105F900080E008958091270687FF11C08091E80076
:105FA00082FD05C0809126068111F8CF11C0809135
:105FB000E8008B770BC080912606882349F08091FA
:105FC000E80080FFF8CF8091E8008E778093E800AA
:105FD00008952091E4003091E50095E64091EC00B1
:105FE000842F817040FF22C08091E80080FD1CC09A
:105FF00080912606882391F0853091F08091EB0006
:1060000085FD10C04091E4005091E5004217530710
:1060100029F39A01915011F784E0089582E00895E0
:1060200083E0089581E0089580E008954091E800BC
:1060300042FFDECF08950E9489300E949130E0EE49
:10604000F0E0808181608083E8EDF0E080818F77EF
:10605000808319BCA7EDB0E08C918E7F8C938081FA
:106060008F7E80831092250608950F931F93CF9300
