:100000000C94E8070C942F080C942F080C942F08DC
:100010000C942F080C942F080C942F080C942F0884
:100020000C942F080C942F080C944C2F0C941E3019
:100030000C94C5270C942F080C942F080C942F08AF
:100040000C942F080C942F080C942F080C942F0854
:100050000C942F080C942D280C942F080C942F0826
:100060000C942F080C942F080C942F080C942F0834
:100070000C942F080C942F080C942F080C942F0824
:100080000C942F080C942F080C942F080C942F0814
:100090000C942F080C942F080C942F080C942F0804
:1000A0000C942F080C942F080C942F083C0A9E0ADD
:1000B0009E0A9E0A430A450A470A490A4D0A4B0A04
:1000C000380A9E0A510A5E0A600A620A670A700AC2
:1000D000730A780A350A350AC80BCA0BCC0BCF0B4A
:1000E000CC0BD10BD30B5A0D5C0D670D5E0D600D63
:1000F000620D640D660D690D6B0D6D0D780D6F0D44
:10010000710D730D750D770D7A0DB31DB31DED1DBA
:10011000ED1D2C1E4C1EBF1FBF1F8E1EBF1F3E1F7E
:100120003E1FB11FBF1FBF1FB91F4B1F4B1F4B1FD0
:100130004B1F4B1F4B1F4B1F4B1F4B1F4B1F4B1F6F
:100140004B1F4B1F4B1F4B1F4B1F5D1F6B1F721F06
:10015000791F831F52205220642064205B2064207A
:10016000642064205220522060206420642060209B
:100170008B30B230A431B230A431FE302131A43101
:100180007731863107634236B79BD8A71A3968564C
:1001900018AEBAAB558C1D3CB7CC5763BD6DEDFDA9
:1001A000753EF6177231BF000000803F05A84CCDA8
:1001B000B2D44EB93836A9020C50B9918688083CA1
:1001C000A6AAAA2ABE000000803F444F55424C45D3
:1001D0005F53494E474C455F54415000444F554290
:1001E0004C455F484F4C4400444F55424C455F548A
:1001F000415000647A36302F646976696465303A1C
:1002000076312E3230007E2F2E00647A36302F6405
:100210006976696465303A76312E323000155C1E9D
:10022000001F0020002100220023002400250026BA
:100230000027002D002E0000002A000457000014A3
:10024000001A000800150017001C0018000C00120E
:100250000013002F00300001570257000004001661
:1002600000070009000A000B000D000E000F00330C
:1002700000340028000000065700001D001B000687
:100280000019000500110010000357370038003135
:10029000725200DC5CE00005570000E2002C000018
:1002A00000005700002C0000004A004D0050005193
:1002B000004F0000000000000000000000000000EF
:1002C000000000000000000000000000000000002E
:1002D000000000000000000000000000000000001E
:1002E000000000000000000000000000000000000E
:1002F00000000000000000000000000000000000FE
:100880000000000000000000000000000000000167
:10089000003A003B003C003D003E003F004000416C
:1008A00000420043004400450000002A000100000F
:1008B00000501650144F144F16F90006114A004B01
:1008C000004D00191101000100005C010000005002
:1008D0001350114F114F1301005000510052004F9F
:1008E000000100010028000000010000001D111B94
:1008F0001106111911FA00010050114E004F111D7F
:100900001301004B00010001000100000001002C58
:10091000000000005700002C000000010001004A08
:10092000004E004D000100F400F500F600F700F85D
:1009300000010001000100010001000100010000B0
:10094000000100010000000100F400F000F500F9D2
:1009500000F900F400F000F50001000100010000C2
:100960005C010000000100F200F100F300FA00FA5F
:1009700000F200F100F3000100010001000000019D
:100980000000000100FD00FE00FF0001000100FD6D
:1009900000FE00FF00010001000100010001000154
:1009A00000000001002C000000005700002C000097
:1009B00000010001000100010001000100C35CC44E
:1009C0005CC55CC65CC75CC85CC95CCA5C010001F4
:1009D00000BC5CBB5C0000BA5C01000000BD5CBFF9
:1009E0005CC15C0100010001000100010001000187
:1009F00000A600A700005C01000000BE5CC05CC255
:100A00005C010001000100010001000100AC00AB2D
:100A100000DE5C0000010000000100010001000197
:100A2000000100010001000100010001000100A916
:100A300000010001000100000001002C0000000086
:100A40005700002C00000001000100AD00AA00AE1C
:100A500000E85CE95CEA5C010001000100010001C2
:100A60000001000100E65CE75C01000000010001FC
:100A700000000010580D580F580C580B580B580C0C
:100A8000580F580D581058010001000100010000D6
:100A9000001E021F0220022102220223022402253C
:100AA00002260227020100010000000100000035BB
:100AB0000235002E022E00310231002F0030002FAF
:100AC00002300201000100010001000100000001EC
:100AD0000001000000010000000100000001000111
:100AE0000001000100010001001E001F0020002184
:100AF000002200230024002500260027002D002EC0
:100B00000000002A000100000014001A000800156F
:100B10000017001C0018000C00120013002F0030FA
:100B20000001000100000004001600070009000A8F
:100B3000000B000D000E000F0033003400280000F1
:100B400000010000001D001B000600190005001137
:100B500000100036003700380031725200010001E9
:100B60000001000000010001000000010000000180
:100B7000000000010001000100010001000100016E
:100B8000000100010001000100010001000100015D
:100B9000000100010001000000010001000000014F
:100BA000000100010001000100010001000100013D
:100BB000000100010001000100010000000100012E
:100BC000000100010001000100010001000100011D
:100BD000000100010000000100000001000100010F
:100BE00000010001000100010001000100010001FD
:100BF00000010001000100010000000100010000EF
:100C000000010000000100000001000100010001DE
:100C100000010000000000000000002A2B28000056
:100C2000000000000000000000000000000029009B
:100C30000000002C1E3420212224342627252E36A5
:100C40002D3738271E1F2021222324252633333613
:100C50002E37381F0405060708090A0B0C0D0E0F66
:100C6000101112131415161718191A1B1C1D2F31E9
:100C700030232D350405060708090A0B0C0D0E0F4D
:100C8000101112131415161718191A1B1C1D2F31C9
:100C900030354C00000000000000000000000000A3
:100CA0000000000000000000000000000000000044
:100CB000000000000101010101010001010101002A
:100CC0000000000000000000000000000001000122
:100CD0000001010101010101010101010101010105
:100CE00001010101010101010101010101010000F6
:100CF00000010100000000000000000000000000F2
:100D000000000000000000000000000000000101E1
:100D10000101006801F000B40078005A007F3F1F15
:100D2000643214643214783C1E1E140A050000005C
:100D300000000101010101010101010202020202A0
:100D40000202020203030303030303030404040473
:100D50000404050505050506060606060707070738
:100D6000080808080909090A0A0A0A0B0B0B0C0CE7
:100D70000C0D0D0D0E0E0F0F0F1010111111121280
:100D800013131414151516161717181819191A1AFB
:100D90001B1C1C1D1D1E1F1F202021222223242559
:100DA0002526272728292A2B2B2C2D2E2F2F303193
:100DB0003233343536363738393A3B3C3D3E3F40A6
:100DC00041424344464748494A4B4C4D4F5051528B
:100DD00053555657585A5B5C5E5F60626364666742
:100DE000696A6C6D6E707173747678797B7C7E80C5
:100DF00081838486888A8B8D8F91929496989A9B12
:100E00009D9FA1A3A5A7A9ABADAFB1B3B5B7B9BB22
:100E1000BDBFC1C4C6C8CACCCFD1D3D6D8DADCDFF7
:100E2000E1E4E6E8EBEDF0F2F5F7FAFCFF0403305D
:100E30000000000A0344005A003600300000001091
:100E4000034B0042004400460061006E0073000046
:100E5000000403090409026D00040100A0FA09045A
:100E600000000103010100092111010001224000DD
:100E70000705810308000A090401000103010200BB
:100E8000092111010001224D000705820308000A13
:100E900009040200010300000009211101000122E0
:100EA00036000705830308000A0904030001030054
:100EB00000000921110100012239000705840320E7
:100EC00000011201100100000008EDFE6022010087
:100ED0000102030105010906A101050719E029E73F
:100EE00015002501950875018102050819012905DC
:100EF000950575019102950175039101050719008A
:100F000029F71500250195F875018102C005010931
:100F100080A10185021601002603001A81002A83A0
:100F200000751095018100C0050C0901A101850320
:100F3000160100269C021A01002A9C0275109501D8
:100F40008100C005010902A1010901A100050919DB
:100F50000129051500250195057501810295017589
:100F60000381010501093009311581257F9502753D
:100F700008810609381581257F95017508810605C8
:100F80000C0A38021581257F950175088106C0C0BD
:100F900005010906A101050719E029E7150025014A
:100FA00095087501810295017508810105081901EF
:100FB00029059505750191029501750391010507B4
:100FC000190029FF150026FF00950675088100C04D
:100FD00011241FBECFEFDAE0DEBFCDBF04B603FEA3
:100FE00027C08091540690915506A0915606B09165
:100FF00057068730904BA740B04BD1F4109254065F
:1010000010925506109256061092570614BE84B7D9
:10101000877F84BF0FB6F894A8958091600088619F
:1010200080936000109260000FBEE0E0F8E3099545
:1010300011E0A0E0B1E0E2E3FBE602C005900D9212
:10104000A43EB107D9F726E0A4EEB1E001C01D929D
:10105000A435B207E1F70E94712C0C9497350C94DB
:1010600000000C947212229A2A9A08950E94040A8F
:101070000C9433080C94C00F8091170190911801C3
:1010800083309105A9F054F48130910589F00297DD
:10109000B9F481EE0E94071D80EE10C086309105E4
:1010A00039F08730910531F0049751F480EE03C098
:1010B0008BE204C081EE0E94071D82EE0E94071D94
:1010C00010921801109217010895809108019091D3
:1010D00009018130910511F0029719F483EE0E9405
:1010E000071D1092090110920801089580911401C2
:1010F000909115018430910589F03CF4813091057F
:1011000059F0029799F48BE00FC08630910541F0B9
:10111000079761F480E108C086E303C08EE004C055
:1011200082EB0E94071D02C00E94882410921501C4
:101130001092140108958091110190911201823052
:10114000910549F08430910541F0019749F489E215
:101150000E94071D05C08BE001C08CE00E9488241E
:101160001092120110921101089580910E01909138
:101170000F018430910539F08730910531F00297E5
:1011800039F48BE003C08CE001C08EE00E9488241B
:1011900010920F0110920E01089580910B01909111
:1011A0000C01029719F48EE00E94882410920C0121
:1011B00010920B010895809105019091060101970D
:1011C00021F481E00E94E02503C081EE0E94071D0A
:1011D00010920601109205010895AF92BF92CF922E
:1011E000DF92EF92FF920F931F93CF93DF93EC0167
:1011F0005B01042FC090A805D090A905E090AA0536
:10120000F090AB050E9440200E944D2486E0080229
:1012100080011124CA15DB0531F0CE010E940120A6
:10122000C00FD11FF7CF0E944020C092A805D092D6
:10123000A905E092AA05F092AB05DF91CF911F912D
:101240000F91FF90EF90DF90CF90BF90AF900895F7
:101250000F931F93CF93DF93EB01F8013281A881A5
:10126000B981311103C0A817B907A9F086E0280297
:1012700090011124CD01821B930B4817590759F097
:1012800086E001900D928A95E1F788819981280F77
:10129000391F39832883DF91CF911F910F910895D2
:1012A000DC0186E04802A0011124FB016E2F9F2F74
:1012B000EA17FB0729F0E41BF50B72817111F6CFD9
:1012C000F9016083918308950F931F93CF938B014E
:1012D0002091E604211141C0FB01C281C11183C0EC
:1012E000873EFCE59F0709F180F4863E9C4509F0A6
:1012F00079C00E9440200E944D2484EE91E090939A
:10130000E5048093E40481E01BC0893EECE59E0780
:10131000D1F08A3E9C4509F065C060910001709152
:1013200001014FEF8EED94E015C00E9440200E9415
:101330004D248EED94E09093E5048093E40482E0E4
:101340008093E60450C0609102017091030141E076
:1013500084EE91E00E94ED0846C0883E3CE593078C
:1013600029F020F18B3E9C45D8F120C0FB01C281C1
:10137000CC23C9F1213061F02230A9F46091E4045A
:101380007091E50420E031E04FEF8EED94E009C06C
:101390006091E4047091E50422E031E041E084EEE4
:1013A00091E00E9450091092E6041AC0213061F0C9
:1013B0002230C1F440910201509103012FEF64EEFD
:1013C00074E08EED94E009C040910001509101015C
:1013D00021E064EE74E084EE91E00E94280902C0EE
:1013E000C0E001C0C1E08C2FCF911F910F910895F3
:1013F000CF93DF93EC010E94F426BE0180E090E0E1
:10140000DF91CF910C9407240E94F313609303069D
:1014100070930406809305069093060608950F9333
:101420001F93CF93DF938C01EB010E946409882303
:1014300009F1003181E5180711F0C80102C088EEFA
:101440009CE5BE010E9464098823A1F0CA81CC23D7
:1014500009F451C0F801E25DFC45E631F10508F000
:101460006DC0EA5AFF4F0C9449350E944D2466C066
:101470000E944D24C0E062C00E944D2481E090E0B3
:101480000E94F809F7CF8BE009C08CE007C08DE01F
:1014900005C08EE003C080E101C08FE00E94672498
:1014A000E9CF0E9410140E94F31360930306709317
:1014B00004068093050690930606DCCF80EF03C0F8
:1014C00080EF06C081EF0E94122982EF04C081EFF5
:1014D0000E94122983EF0E9412290E94FF29CACF7D
:1014E0008AE092E002C086E092E00E94B70FC2CF8D
:1014F0000E94C026BFCF003E9CE5190779F028F472
:101500000F3D1C45D1F480EF0CC0013E9CE519074E
:1015100039F0023E1C4589F481EF07C080EF05C019
:1015200081EF0E947A2982EF03C00E947A2983EF1B
:101530000E947A290E94FF2901C0C82F8C2FDF91B9
:10154000CF911F910F910895BF92CF92DF92EF92AA
:10155000FF920F931F93CF93DF9300D0CDB7DEB7E9
:101560006B017C010E94F313092F9A8369830E9407
:10157000F026182F4A81698160FF08C0002331F0EE
:101580000B3A30F4042F0695040F03C008E701C09E
:101590000FEF262F26952F73822F90E0039714F4D8
:1015A000B22E02C0BB24B394C701B6014A830E9485
:1015B00070264A818D3041F170F48B30D9F08C3037
:1015C000F1F50E9470168B2D0E94E215402F6FEFEF
:1015D0008AE590E045C08F3059F100F1803179F50E
:1015E0000E9470168B2D0E94E215402F60EB80E167
:1015F00090E036C00E9470168B2D0E94E215402F9D
:101600006FEF80EF90E02CC00E9470168B2D0E942F
:10161000E215402F6FEF86E990E022C00E9470161D
:101620008B2D0E94E215402F6FEF8CE390E018C0E5
:101630000E9470168B2D0E94E215402F0EC011FFE4
:1016400004C06FEF8CE291E00BC013FF04C06FEF9A
:1016500088E790E005C012FF06C06AED8BE290E0DB
:101660000E9493140CC00E941014609103067091A4
:10167000040680910506909106060E948816C7010F
:10168000B6010F900F90DF91CF911F910F91FF90B6
:10169000EF90DF90CF90BF9008951F93CF93DF938B
:1016A000662369F0182FC62FC695D0E0DC1739F0F5
:1016B000812F0E94101CDF3011F0DF5FF7CFDF9128
:1016C000CF911F910895FC018081813049F4878179
:1016D00081111CC080858823C9F082E090E00895C4
:1016E000823049F48781811114C08085811114C032
:1016F00083E090E00895833091F48781811112C0D6
:101700008085882379F087E090E0089581E090E07B
:10171000089585E090E0089584E090E0089588E0E1
:1017200090E0089586E090E008950E94630B909306
:101730001201809311018330910591F034F48130CE
:10174000910549F0029751F008958430910551F0C8
:10175000059759F0089589E20C94101C8BE003C0A2
:101760000C944D248CE00C94522483EF91E00C9463
:10177000B70F0E94630B90930F0180930E01FC0141
:101780003197E730F10590F4E459FF4F0C94493557
:101790008BE003C08BE008C08CE00C94AD248CE09F
:1017A00003C08EE0FACF8EE00C94672408950E9467
:1017B000630B90930C0180930B018130910519F01C
:1017C000029719F008950C94A50C8EE00C94522405
:1017D0000E94630B90930901809308018330910567
:1017E00081F034F48130910549F0029739F0089581
:1017F0008430910549F0059751F0089583EE0C94DB
:10180000101C88EE91E005C08CED91E002C08AECDE
:1018100091E00C94B70FFC018081813031F4808518
:10182000882399F082E090E00895823031F4808539
:1018300081110EC083E090E00895833061F48085CB
:10184000882361F087E090E0089581E090E00895BA
:1018500084E090E0089588E090E0089586E090E0CC
:1018600008950E940B0C9093180180931701833008
:101870009105E9F05CF481309105F9F08230910531
:1018800021F581EE0E94101C80EE18C08630910573
:1018900041F087309105A1F084309105B1F480EEDC
:1018A00010C08BE20E94101C8BE20E94071D8BE28D
:1018B0000E94101C8BE20E94071D8BE20C94101CEE
:1018C00081EE0E94101C82EEF9CF682F8BE290E02F
:1018D0000C944D0B0E940B0C9093150180931401F6
:1018E00083309105A9F034F48130910569F00297B5
:1018F00069F008958630910571F08730910571F097
:10190000049779F48EE00BC086E306C08BE007C035
:101910008CE00C94AD2482EB0C94101C80E10C94B0
:10192000522408950E940B0C9093060180930501A8
:10193000019721F463E08EE00C94D72581EE0C949E
:10194000101C81E008950C940F0A0E9440202FEF94
:1019500084E39CE0215080409040E1F700C000000B
:101960000C945328FF920F931F93CF93DF938C0116
:10197000FC01C081D18180913D05811113C082811C
:10198000882349F0CE010E946025F82E682FCE01F1
:101990000E94052504C0CE010E943425F82EBE0108
:1019A0008F2D04C0CE010E946025BE010E94C70F8A
:1019B000EC01B8010E94D919B801CE010E94A30C14
:1019C000882309F474C2B801CE010E941B1A88232F
:1019D00009F46DC2B801CE010E942312882309F4D4
:1019E00066C2C23CFCE5DF0741F4F801828188232E
:1019F00009F45DC20E94C8155AC2C33C8CE5D807E1
:101A000008F015C1CB3B9CE5D90761F4F801828150
:101A1000882309F44CC20E9431268272E1F00E94B0
:101A2000671645C2CC3BECE5DE07C0F0CE3B9CE53B
:101A3000D90709F4CDC008F0DFC0CC3BFCE5DF07D7
:101A400009F0CEC0F8018281882309F430C20E94D7
:101A50003126827221F30E945D1629C2C531FCE550
:101A6000DF0708F07EC0C2308CE5D80708F452C00A
:101A7000F8018281882309F459C00E94E12681116E
:101A800002C00E94C0260E94F92690E0909346066C
:101A900080934506FE01E350FC45E231F10530F448
:101AA000ED58FF4F809145060C94493580914506CD
:101AB000816027C0826025C0846023C0806121C00E
:101AC00080621FC080641DC080681BC08460886005
:101AD00018C08E7F16C08D7F14C08B7F12C08F7E82
:101AE00010C08F7D0EC08F7B0CC08F770AC08B7F9C
:101AF000877F07C087FB222720F991E0922790FB80
:101B000087F980934506809145060E94FD260E9434
:101B10004020CDC1C1159CE5D90781F0C130DC451D
:101B2000A9F081E08093EC048093ED04C801DF917B
:101B3000CF911F910F91FF900C94A10CF80182811D
:101B4000882309F4B4C10E94A50CB1C1F8018281B7
:101B5000882309F4ACC18091D50581608093D505B7
:101B6000A6C1C531FCE5DF0739F50E943126282FD3
:101B7000F80182814091A8015091A901882379F050
:101B80002A7A91E009F490E09093E704911102C061
:101B900069E201C065E3CA010E945E270AC0809124
:101BA000E704811102C069E201C065E3CA010E9435
:101BB00069270E94FE257BC1CA3BDC4509F0B1CFF5
:101BC000F8018281882309F472C10E94BA166FC19C
:101BD000F8018281882309F46AC10E94591567C1FE
:101BE000CD3BDC4509F09DCFF8018281882309F4C3
:101BF0005EC10E9441155BC1F8018281C03CFCE5D9
:101C0000DF0731F4882309F452C10E9493154FC1B4
:101C1000C13CDC4530F4882309F449C10E947815A1
:101C200046C1882309F443C10E94AD1540C1C93C97
:101C3000ECE5DE0749F4F8018281882309F437C115
:101C400088E10E94E21533C1CA3CFCE5DF0708F0D9
:101C500088C0C53C8CE5D807B1F4F801828188239F
:101C600009F425C10E9411146630710581059105A2
:101C700040F00E941114683071058105910508F447
:101C8000EACE86E0DECFC63C9CE5D90728F5C33C0A
:101C9000ECE5DE0739F4F8018281882309F407C1F5
:101CA00081E0CFCFC43CDC4509F03BCFF801828115
:101CB000882309F4FCC00E9411146230710581056B
:101CC000910540F00E941114653071058105910560
:101CD00008F4C1CE82E0B5CFF8018281C73CFCE5B3
:101CE000DF07A1F4882309F4E2C00E9411146F30C9
:101CF00071058105910540F00E9411146431710550
:101D00008105910508F4A7CE8FE09BCFC83CDC4548
:101D1000A0F4882309F4CBC00E9411146930710526
:101D20008105910540F00E9411146E307105810506
:101D3000910508F490CE89E084CF882309F4B7C0D8
:101D40000E941114653171058105910540F00E94D2
:101D50001114673171058105910508F47CCE85E188
:101D600070CFCC3CECE5DE0739F5F80182818823A1
:101D700061F01092ED040E94F7279093EB0480939A
:101D8000EA0480E20E94661D92C08091ED048111F8
:101D90000FC08091EA049091EB040E940328883CD4
:101DA000910530F487E20E94101C87E20E94071D13
:101DB00080E20E946D1D7BC0CD3CFCE5DF0708F092
:101DC00041C0CA3C8CE5D807B1F4F8018281882370
:101DD00009F46DC00E9411146931710581059105E6
:101DE00040F00E941114623271058105910508F4DA
:101DF00032CE89E126CFCB3CDC4509F092CEF8010A
:101E00008281882351F01092EC040E94F72790936E
:101E1000E9048093E80482E0B5CF8091EC0481115D
:101E20000FC08091E8049091E9040E940328883C47
:101E3000910530F486E20E94101C86E20E94071D84
:101E400082E0B7CFC03DECE5DE0731F4F8018281D6
:101E5000882369F180E009C0C13DFCE5DF0741F45A
:101E6000F8018281882319F182E00E940F2D1FC0A2
:101E7000CD3CDC4509F055CEF8018281811179CF46
:101E80008091ED04811194CF8091EA049091EB044C
:101E90000E940328883C910508F08ACF80E20E94C6
:101EA0006D1D88E20E94101C88E20E94071D80E0E0
:101EB000DF91CF911F910F91FF900895CF93282F1D
:101EC00030E0F901ED5EF34FC491F901ED56F34FA7
:101ED0002491222359F081EE0E94101C8C2F0E9425
:101EE000101C8C2F0E94071D81EE04C08C2F0E94B5
:101EF000101C8C2FCF910C94071D0F931F93CF9321
:101F0000DF93EC01062FFE018491882359F19E0195
:101F10002F5F3F4F813041F4E901F9011491812F86
:101F20000E94101C812F0DC0823031F4E901F901AB
:101F300084910E94101C0AC0833031F4E901F90138
:101F400084910E94071D02C00E945E0F2196802F7F
:101F50008823C9F2EFE9FFE03197F1F700C00000F4
:101F60008150F6CFDF91CF911F910F91089560E0DE
:101F70000C947D0F0C9436080E94771A0C9431084B
:101F800008950C943A0880E090E0089508959FE049
:101F9000799FF00111249BE4899FE00DF11D11242C
:101FA000E60FF11DEE0FFF1FE35EFD4F859194914B
:101FB0000895880F991FFC01ED5EF24F8591949171
:101FC0000895CF93DF930E94C70F0E947911EC010F
:101FD000811520E49207B0F5811540E3940708F0DD
:101FE000E1C0803E9105D0F4803C910508F06FC0BF
:101FF000883A910570F4853A910508F06BC08130FC
:10200000910509F472C108F429C1049708F06DC163
:1020100025C18D3B910508F468C020C18F3F910513
:1020200009F048F4803F910508F0B6C0883E91055C
:1020300008F45BC113C1811550E2950708F455C13E
:102040009F70ACC0811564E59607D8F4C11583E58F
:10205000D80708F0E2C0C11521E5D20740F4C11548
:1020600040E5D40708F0A7C0DF70D06A3EC1C115B3
:1020700052E5D50708F0BBC0DC2FCC27C16FD06A72
:1020800034C1811566E5960750F4C11585E5D8077A
:1020900008F0D9C0DC2FCC27C46FD06A26C18115C7
:1020A00028E5920708F4DAC0811549E5940708F499
:1020B000D0C090568115904208F0D0C08D2F8F71FE
:1020C0000E94F611DD27D0628F71D82B0EC1805C83
:1020D000910964C0853A910509F4C3C0863A910517
:1020E00009F0C2C0C2E8D0E400C1883A910509F401
:1020F000BEC0893A910509F4BDC08A3A910509F438
:10210000BCC08B3A910509F4BBC08C3A910509F427
:10211000BAC08B3B910509F4B9C08C3B910509F419
:10212000B8C08D3A910509F4B7C0803B910509F418
:10213000B6C08E3A910509F4B5C08F3A910509F4FD
:10214000B4C0813B910509F4B3C0823B910509F409
:10215000B2C0833B910509F4B1C0843B910509F4F9
:10216000B0C0853B910509F4AFC0863B910509F4E9
:10217000AEC0873B910509F4ADC0883B910509F4D9
:10218000ACC0893B910509F4ABC08A3B910509F4C9
:10219000AAC0C0E0D4E4A9C0D065A7C00E94D90FEE
:1021A000EC01A3C09927D3FF03C0EC01D86C9DC0FC
:1021B000EC01D06C9AC02C2F237081E090E002C01B
:1021C000880F991F2A95E2F79C689E0144E0369596
:1021D00027954A95E1F72370922BCF70C695C69547
:1021E00060E2C69FE0011124C82BD92B7EC02C2FA2
:1021F0002695269580E2289F90011124C370DD2743
:1022000081E090E0AC0102C0440F551FCA95E2F78F
:10221000EA01C22BD32BDC6868C02C2F26952695AB
:1022200080E2289F90011124C370DD2781E090E0B7
:10223000AC0102C0440F551FCA95E2F7EA01C22B58
:10224000D32BDA6852C0CF71DD27DC2FCC27D062C8
:102250004CC0DC2FCC27C06FD06A47C0C0E0D0E0B4
:1022600044C0C1E8D0E441C0C3E8D0E43EC0C2EEFF
:10227000D4E43BC0C9EED4E438C0CAEED4E435C0DF
:10228000C5EBD4E432C0C6EBD4E42FC0C3EBD4E436
:102290002CC0C4EBD4E429C0C7EBD4E426C0CCECFA
:1022A000D4E423C0CDECD4E420C0C3E8D5E41DC001
:1022B000CAE8D5E41AC0C2E9D5E417C0C4E9D5E438
:1022C00014C0C1E2D6E411C0C3E2D6E40EC0C4E239
:1022D000D6E40BC0C5E2D6E408C0C6E2D6E405C029
:1022E000C7E2D6E402C0CAE2D6E4CE01DF91CF91C4
:1022F00008958238910549F1B0F48133910509F4CC
:1023000058C048F48932910509F44EC08A329105CB
:1023100009F454C008958533910509F440C0893308
:10232000910599F00895833E910529F138F4803E96
:10233000910591F0823E9105A1F00895863E9105A8
:10234000F9F0873E910531F108952091450620FD71
:102350003AC021FD38C008958091450680FD35C002
:1023600032C08091450682FF32C08091450684FDCF
:1023700030C083EE39C08091450682FD28C0F5CF7C
:102380008091450683FF27C08091450684FD21C0CA
:1023900087EE2AC08091450683FD1DC0F5CF809150
:1023A000450685FD1AC01BC08091450685FD17C0F6
:1023B00014C08091450686FD14C015C08091450665
:1023C00086FD11C00EC080EE0FC089E30DC082EE05
:1023D0000BC080E009C086EE07C089E205C085E336
:1023E00003C08AE201C081E390E00895CF93C82F33
:1023F0000E94F92690E0909346068093450682FF5E
:102400000DC09C2F9871983019F4C77FC46006C026
:102410009C2F9471943011F4CB7FC86083FF0DC062
:102420009C2F9871983119F4C77EC46106C09C2F07
:102430009471943111F4CB7EC86184FDC77E8C2FDA
:10244000CF91089508950F931F93CF93FB0122819D
:10245000211102C0C1E041C08C01C091FB04C11137
:1024600025C086319C45B1F70E94221281E08093FD
:10247000FB040E94F7279093FA048093F9041092CA
:10248000EE041092F0041092EF041092F2041092F5
:10249000F1041092F4041092F3041092F6041092D6
:1024A000F5041092F8041092F70417C08091F90413
:1024B0009091FA040E940328883C910558F6909167
:1024C000EE04E92FF0E0EE0FFF1FE151FB4F118307
:1024D00000839F5F9093EE04C0E08C2FCF911F91FB
:1024E0000F910895089585B7806885BF85B7806886
:1024F00085BFAAECB1E041E050E025E02A0F8D91C4
:10250000E82FE295EF70F0E031A18F70BA0102C0C0
:10251000660F771F8A95E2F7CB01962F909593234C
:1025200091A392A1892B82A32A13E9CFABEBB1E04F
:1025300041E050E02FE02A0F8D91E82FE295EF70F7
:10254000F0E031A18F70BA0102C0660F771F8A9543
:10255000E2F7CB01962F9095932391A392A1892B1B
:1025600082A32A13E9CFE6E0F5E0ACEFB4E01192E4
:1025700011921D921D9275E0E031F707C1F70C949E
:10258000BA0F2F923F925F926F927F928F929F929B
:10259000AF92BF92CF92DF92EF92FF920F931F9371
:1025A000CF93DF932AECC22E21E0D22E0CEF14E061
:1025B000E801EE24E394F12C662463945E018880A4
:1025C000998019821882D6018D916D01E82FE295CC
:1025D000EF70F0E021A18F70A70102C0440F551FDA
:1025E0008A95E2F7CA01242B21A322A1742E7094AC
:1025F000272122A350EA5A95F1F79BEB292E91E06F
:10260000392E20E030E0D1017D911D01472F429508
:102610004F7050E0DA0190965C90488159817F704C
:10262000D70102C0AA0FBB1F7A95E2F7BD01652151
:1026300041F4B701022E02C0660F771F0A94E2F739
:1026400002C060E070E0462B572B598348832F5F10
:102650003F4F2F303105B9F691A1792271A292A195
:10266000892B82A32296F501808191818816990693
:1026700041F0609210050E94F72790931205809315
:102680001105F5E0C630DF0709F098CF80911005FD
:102690008823B1F080911105909112050E940328C2
:1026A000069770F0E6E0F5E0D8018D919D918D01DF
:1026B00081939193B5E006301B07B1F71092100596
:1026C0000E94BC0F81E0DF91CF911F910F91FF908D
:1026D000EF90DF90CF90BF90AF909F908F907F90C2
:1026E0006F905F903F902F900895E82FF0E0EE0FED
:1026F000FF1FEA5FFA4F8081918108950895EF925C
:10270000FF920F931F93CF93DF93E901662309F4A0
:102710004BC0242F30E0EFEFF0E0E61BF109B901E8
:10272000E69F9001E79F300DF69F300D1124232F77
:102730008B01031B11095CE3E52EF12CB7010E940C
:102740002135FB01BC01069FC001079F900D169F1C
:10275000900D1124B7010E942135E230F105B1F04E
:1027600040F4309779F0319711F5832F242F461BD1
:1027700021C0E430F105A1F068F03597C1F4842F51
:10278000861B18C0832F262F230F14C0862F830F7C
:10279000E42F03C0E42FE61B842F432F2E2F0AC003
:1027A000842F462F430F06C0842F242F03C080E0C0
:1027B00020E040E0E42FF0E0E35DF24F4491E22FAF
:1027C000F0E0E35DF24F9491E82FF0E0E35DF24F2B
:1027D000E49149839883EA83DF91CF911F910F9110
:1027E000FF90EF90089588E090E00C945735AB018E
:1027F000BC0188E090E00C947535E7E0F6E083E0FA
:102800008083109208068FEF82838383609107068E
:10281000709108068091090690910A060C94F713AE
:1028200008956091070660FF06C066956F7370E0BB
:1028300080E090E0089560E070E0CB010895809121
:10284000070680FF06C060E170E08FE096E00C9420
:10285000721980E090E0FC01E15FF94F1182108273
:102860001282039680339105B1F7EDCF9091070660
:1028700090FF0FC020E030E0F901E15FF94F818364
:10288000608342832D5F3F4F20333105A9F70C94BD
:102890001F140895EF92FF920F931F93CF93DF932E
:1028A00000D01F92CDB7DEB7009107061091080641
:1028B0002091090630910A0600930B0610930C062E
:1028C00020930D0630930E062091070620FF21C0AD
:1028D000042FF62EE92E182F9E012F5F3F4F0E94E6
:1028E0007F1380910B0610FB87F980930B061695DA
:1028F00080910C068078182BE0FA17F910930C06DB
:10290000F0920D0600930E064B8169818A810E9428
:1029100036140F900F900F90DF91CF911F910F9170
:10292000FF90EF9008958F929F92AF92BF92CF92B7
:10293000DF92EF92FF920F931F93CF93DF93EC01FF
:10294000062F142F8091070680FF8EC0982F9E7748
:10295000923021F4CE010E944A145CC0E82FE69523
:10296000EF739EE39E0F9F73943018F410910A0644
:1029700051C09AE39E0F9F73993070F4881F882787
:10298000881F90910806292F220FC22FC82B97FB72
:10299000992790F9D92F3EC087E28E0F8F738A3026
:1029A000C8F5F0E07997E0FD02C021E001C02FEF0B
:1029B000EE7FED5EF24F85919491AC0184E05695E7
:1029C00047958A95E1F724036001259FD00C1124D7
:1029D0004E0188E9881A8EEF980A9FE0E92E96E06A
:1029E000F92E28E6A22EBB24B394C401B5010E949F
:1029F00021359701412F602F0E947F138C0C9D1C65
:102A000093E0E90EF11C8FE3E81686E0F80669F71B
:102A10000E941F14809107069C2FC0FB87F98093AA
:102A200007069695809108068078892BD0FB87F958
:102A3000809308060093090610930A066091070622
:102A4000709108068091090690910A06DF91CF9156
:102A50001F910F91FF90EF90DF90CF90BF90AF90BC
:102A60009F908F900C94F713DF91CF911F910F914E
:102A7000FF90EF90DF90CF90BF90AF909F908F909E
:102A80000895E7E0F6E02081221F2227221F3091DF
:102A90000806432F440F842F822B37FB992790F988
:102AA000089668E671E00E943535438162810C9496
:102AB000931420910706221F2227221F3091080617
:102AC000432F440F842F822B37FB992790F98830AE
:102AD00091051CF4805A9E4F01C0089768E671E08A
:102AE0000E94353540910A06609109060C949314B2
:102AF00060910906862F90E0883F910514F4685F85
:102B000001C06FEF80910706881F8827881F90916A
:102B10000806292F220F97FB992790F940910A0662
:102B2000822B0C94931460910906862F90E00897ED
:102B300014F0685001C060E080910706881F882764
:102B4000881F90910806292F220F97FB992790F94B
:102B500040910A06822B0C94931440910A06842F0C
:102B600090E0883F910514F4485F01C04FEF8091D9
:102B70000706881F8827881F90910806292F220F93
:102B800097FB992790F960910906822B0C94931476
:102B900040910A06842F90E0089714F0485001C035
:102BA00040E080910706881F8827881F90910806BB
:102BB000292F220F97FB992790F960910906822B04
:102BC0000C9493149091070690FF42C09178811164
:102BD00002C0926007C0833210F0946403C08F7308
:102BE000880F982B9093070660910706709108064E
:102BF0008091090690910A060E94F71380910706BA
:102C0000982F9E77923019F41092280510C0982FB3
:102C100096959F732EE3290F2F73273120F491E0AF
:102C20009093280504C0995D9F739A3068F3881FBC
:102C30008827881F90910806292F220F97FB992734
:102C400090F940910A0660910906822B0C94931426
:102C500008958091D50581608093D50581E08093AA
:102C600029050E94E126811104C00E94C0260E940D
:102C7000FD130E94F3136093070670930806809378
:102C8000090690930A066E7761F40E94FD130E9474
:102C9000F3136093070670930806809309069093D8
:102CA0000A0681E0809328058091070680FF04C012
:102CB00086958F730C94E21508958091070686958A
:102CC0008F738F5F833208F081E00C94E21580915E
:102CD000070686958F73815009F482E20C94E21501
:102CE000CF93DF93C7E0D6E08881816088836091CD
:102CF0000706709108068091090690910A060E94C5
:102D0000F713888186958F73DF91CF910C94E2152C
:102D100060930706709308068093090690930A064D
:102D20000E94F7138091070680FF04C086958F7379
:102D30000C94E215109228050C941F14E7E0F6E0BD
:102D400080818E7F80836091070670910806809154
:102D5000090690910A060E94F713109228052FEF9A
:102D600080E792E0215080409040E1F700C00000F1
:102D70000C941F148091070680FD0C949E160C94F1
:102D80007016CF93C82F80912605909127050E9439
:102D90000328EC2FF0E0E75DF24FE491F0E08E17AE
:102DA0009F0708F443C00E94F7279093270580935C
:102DB00026056091250570E080E090E00E942233B6
:102DC00020E030E04FE753E40E9445322BED3FE036
:102DD00049E450E40E944B340E94B8340E94BF3250
:102DE0002BE43AE34EE25FE30E94D83120EF3BEF61
:102DF00048ED52E40E944B340E94F132462F8091FC
:102E00000706881F8827881F90910806292F220F00
:102E100097FB992790F960910906822B0E944A142A
:102E20008091250590E0019680932505CF91089526
:102E3000CF93C82F80912305909124050E940328E9
:102E4000EC2FF0E0EA5DF24FE491F0E08E179F077F
:102E5000E8F00E94F7279093240580932305409182
:102E60000A066091090680912105909122050E9431
:102E70004A148091210590912205019668E671E03F
:102E80000E9421359093220580932105CF910895CA
:102E9000CF92DF92FF920F931F93CF93DF93F82E81
:102EA00080911F05909120050E940328EF2DE69543
:102EB000F0E0ED5DF24FE491F0E08E179F07F0F146
:102EC0000E94F7279093200580931F050FE016E0DE
:102ED000C0E0D0E088E6C82EDD24D39480911D05A3
:102EE00090911E058C0F9D1FB6010E9421359801FF
:102EF00040910A06609109060E947F1366960D5F55
:102F00001F4FC03681E0D80749F70E941F14209157
:102F10001D0530911E05F0FE0BC0C901019668E643
:102F200071E00E94213590931E0580931D0506C017
:102F30002150310930931E0520931D05DF91CF915B
:102F40001F910F91FF90DF90CF900895AF92BF92A5
:102F5000CF92DF92EF92FF920F931F93CF93DF9365
:102F6000C82F80FF02C01FEF01C011E080911B0538
:102F700090911C050E940328C695EC2FF0E0E05EBE
:102F8000F24FE491F0E08E179F0708F465C00E94AD
:102F9000F72790931C0580931B052FE0C22E26E097
:102FA000D22E31E1E32E36E0F32EC0E0D0E0F7017F
:102FB00031971082F6011082F701108294E0A92E59
:102FC000B12C00E080911A05800F87FD805F082EEC
:102FD000000C990BC817D907E9F480910A068A9D5D
:102FE000A0018B9D500D11245595479555954795FA
:102FF00080910706881F8827881F90910806592FFF
:10300000550F97FB992790F9960160910906852B3A
:103010000E947F13010FF1E0AF1AB10899F62196D3
:1030200083E0C80ED11CE3E0EE0EF11CC031D105E7
:1030300009F0BDCF0E941F1480911A05113031F4A0
:10304000811102C08FE006C0815004C090E001965B
:103050008F70992780931A05DF91CF911F910F915F
:10306000FF90EF90DF90CF90BF90AF900895EF92D8
:10307000FF920F931F93CF93DF93C82F8091180572
:10308000909119050E940328EC2FF0E0E35EF24FC7
:10309000E491F0E08E179F0708F464C00E94F727C0
:1030A000909319058093180580E090E0FC01E15FA2
:1030B000F94F118210821282039680339105B1F785
:1030C0008FE0E82E86E0F82E01E116E0C0E0D0E0C7
:1030D00080911705082E000C990BC817D907ECF042
:1030E0008091A601082E000C990B8C179D07ACF05F
:1030F00080910706881F8827881F90910806592FFE
:10310000550F97FB992790F9970140910A06609116
:103110000906852B0E947F1307C0F80131971082A2
:10312000F7011082F80110822196F3E0EF0EF11CF6
:103130000D5F1F4FC031D10559F60E941F148091B9
:10314000A50190911705980F909317052091A6015E
:10315000280F2093A601121614F49F301CF08195BD
:103160008093A501DF91CF911F910F91FF90EF9078
:103170000895EF92FF920F931F93CF93DF93809167
:103180001505909116050E940328883E9340D0F1C2
:103190000E94F7279093160580931505C09113059B
:1031A000D09114052196C170DD27D0931405C093EA
:1031B00013058FE0E82E86E0F82E10E008E7812F57
:1031C0008695FE01E80FF11DCF01817099279701C7
:1031D00040910A0660910906FC010E9FC0010F9FF5
:1031E000900D11240E947F131F5FF3E0EF0EF11C7E
:1031F000103129F7DF91CF911F910F91FF90EF9040
:103200000C941F14DF91CF911F910F91FF90EF90BD
:10321000089580912805882391F190910706892FC0
:1032200086958F732EE3280F2F73243018F4825065
:103230000C94C1162AE3280F2F73233018F48650FC
:103240000C94181727E3280F2F73263018F4895091
:103250000C94481721E3280F2F73263018F48F5051
:103260000C94A6172BE2280F2F73233018F48551E6
:103270000C9437189E77903311F40C94B918089574
:103280002EB1342F309523233EB1432B3FB7F89412
:10329000FC01680F791FE617F70789F0819198E024
:1032A0004EB9000000C087FF2EB9880F000000C093
:1032B00000C000C02EB900C09A9591F7ECCF3FBF77
:1032C00008952DB1242B2DB99B01220F331F620FBE
:1032D000731F0E94401987EC90E00197F1F700C03E
:1032E0000000089544E00C946119CF93DF93FC0132
:1032F0002785211116C0EC0181E0878787810E9414
:10330000342688850E9447260E94FE25EA81FB819B
:103310006A897B89CE010696309719F0DF91CF91AB
:103320000994DF91CF910895EF92FF920F931F932D
:10333000CF93DF93FC012085211134C0EC01E380A1
:10334000F480F7E5FF1A24E12E9DC0012F9D900D1A
:103350001124DC01A75EBE4F1496ED91FC911597E8
:1033600052966D917C915397815E9E4F309709F0F4
:10337000099584E18E9D80018F9D100D1124075EBB
:103380001E4FF80187810E943A26F80180850E942D
:103390004D260E94FE2518821F82198610922B0549
:1033A00010922A05DF91CF911F910F91FF90EF901E
:1033B0000895DF92EF92FF920F931F93CF93DF93C5
:1033C000FB012281222379F12091A7012F3F59F19E
:1033D0008C01CFE1D1E0E12CF12CDD24D39480915C
:1033E000A701082E000C990B8E159F05E4F088812B
:1033F0008823A1F08B819C810817190739F48091EB
:103400002A0590912B050817190741F0DF82CE019C
:1034100006970E947519CE010E949419FFEFEF1ACA
:10342000FF0A6496DCCFDF91CF911F910F91FF903F
:10343000EF90DF900895EF92FF920F931F93CF9339
:10344000DF939C0137552F3F310511F008F047C03D
:103450004091A701042E000C550B4217530714F49A
:103460002093A701FB017C01828194E1929F80015E
:10347000939F100D1124E801C75EDE4F8E87928165
:103480008E81992311F1FA86E9868F5F8E830E94DF
:10349000F7279C878B870E946D268F830E94312699
:1034A00088870E9444269885892B8887E881F9813E
:1034B0006A897B89C801815E9E4F309709F0099522
:1034C000F0922B05E0922A050AC0882341F08F85EF
:1034D000882329F0C801815E9E4F0E94941981E0E3
:1034E000DF91CF911F910F91FF90EF900895CF92B0
:1034F000DF92EF92FF920F931F93CF93DF93809110
:10350000A7018F3FC1F1C0E0D4E12C2F30E08091C2
:10351000A701082E000C990B8217930764F1D29F24
:10352000F001D39FF00D1124E75EFE4FE088F18893
:10353000E114F10419F488ECE82EF12CD29F60011B
:10354000D39FD00C11248601075E1E4FF80186819F
:10355000882379F0838594850E940328E816F9066C
:1035600040F4C8010E947519C601815E9E4F0E94F9
:103570009419CF5FCACFDF91CF911F910F91FF9028
:10358000EF90DF90CF9008959093310580933005B0
:103590000895E0913005F0913105309721F00190C8
:1035A000F081E02D099480E00895E0913005F091DC
:1035B0003105309721F00280F381E02D09940895C0
:1035C000E0913005F0913105309721F00480F581CC
:1035D000E02D0994089520912E0530912F05821732
:1035E000930771F090932F0580932E05E09130059D
:1035F000F0913105309721F00680F781E02D099494
:10360000089520912C0530912D058217930771F0B4
:1036100090932D0580932C05E0913005F0913105B4
:10362000309721F00084F185E02D099408950895E4
:103630000C94171B81E008950E94EE270E947312DC
:103640000E9477280C9429164F925F927F928F9256
:103650009F92AF92BF92CF92DF92EF92FF920F9321
:103660001F93CF93DF93CDB7DEB72A970FB6F894A9
:10367000DEBF0FBECDBF0E94C1120E941A1B811176
:1036800011C08FEF89838A831B820E94F727816094
:10369000782F9D838C8349815A816B818D810E9413
:1036A000E21B57C093E3C92E95E0D92E00E010E04D
:1036B000AA24A394B12C702E802F0E9475134C0164
:1036C000F601419051906F0148265926411451044A
:1036D00031F40F5F1F4F0530110569F7D2CF80918C
:1036E000D50581FD0E947E1320E030E07501022E99
:1036F00002C0EE0CFF1C0A94E2F7C7018421952159
:10370000892B09F12E837F828E209F2091E08928CA
:1037100009F490E098870E94F7278160782F9A87B4
:1037200089874E815F8168858A850E94E21B000F30
:10373000111FF801ED5CFA4F80819181E826F9268E
:10374000F182E08206C02F5F3F4F2F30310571F6C6
:10375000C0CF0E940A2A109132050E94C91A181778
:10376000D9F00E94C91A809332052A960FB6F894B0
:10377000DEBF0FBECDBFDF91CF911F910F91FF90A4
:10378000EF90DF90CF90BF90AF909F908F907F9001
:103790005F904F900C94C10F2A960FB6F894DEBF3D
:1037A0000FBECDBFDF91CF911F910F91FF90EF9092
:1037B000DF90CF90BF90AF909F908F907F905F9061
:1037C0004F900895CF93DF93CDB7DEB72B970FB609
:1037D000F894DEBF0FBECDBF4F83588769877A87C5
:1037E0008B87DE01119686E0FD0111928A95E9F73B
:1037F00085E0FE01379601900D928A95E1F74981A7
:103800005A816B817C818D819E810E94D8222B966A
:103810000FB6F894DEBF0FBECDBFDF91CF910895F4
:10382000882309F4F3C0682F8238C1F40E94C91AB2
:1038300081FDECC069E38091A8019091A9010E94EB
:103840005E270E94FE252FEF81EE94E021508040FC
:103850009040E1F700C0000069E319C08338F9F433
:103860000E94C91A80FDD2C063E58091A8019091A1
:10387000A9010E945E270E94FE252FEF81EE94E0B1
:10388000215080409040E1F700C0000063E5809146
:10389000A8019091A9010E9469270C94FE25843803
:1038A000C1F40E94C91A82FDB1C067E48091A801E9
:1038B0009091A9010E945E270E94FE252FEF81EEC4
:1038C00094E0215080409040E1F700C0000067E4A0
:1038D000DECF8CEF860F813A38F48091A801909169
:1038E000A9010E945E27D9CF80E2860F883048F474
:1038F000677081E001C0880F6A95EAF70E9434265C
:10390000CCCF8BE5860F833070F4653A29F0663AA8
:1039100031F083E890E005C081E890E002C082E8E1
:1039200090E00C94EB1A88E5860F853108F06EC0A4
:10393000683A61F1693A69F16A3A71F16B3A79F181
:103940006C3A81F16B3B89F16C3B91F16D3A99F1E5
:10395000603BA1F16E3AA9F16F3AB1F1613BB9F167
:10396000623BC1F1633BC9F1643BD1F1653BD9F1E5
:10397000663BE1F1673BE9F1683BF1F1693BF9F145
:103980006A3B09F43FC080E090E03EC082EE90E0E8
:103990003BC089EE90E038C08AEE90E035C085EB00
:1039A00090E032C086EB90E02FC083EB90E02CC01B
:1039B00084EB90E029C087EB90E026C08CEC90E08F
:1039C00023C08DEC90E020C083E891E01DC08AE820
:1039D00091E01AC082E991E017C084E991E014C037
:1039E00081E292E011C083E292E00EC084E292E0B4
:1039F0000BC085E292E008C086E292E005C087E253
:103A000092E002C08AE292E00C94011B08958823A0
:103A100009F45BC0682F823879F40E94C91A81FFCB
:103A200054C069E38091A8019091A9010E945E278A
:103A30000E94FE2569E310C08338B1F40E94C91AC0
:103A400080FF43C063E58091A8019091A9010E9485
:103A50005E270E94FE2563E58091A8019091A9014F
:103A60000E9469270C94FE25843879F40E94C91AB3
:103A700082FF2BC067E48091A8019091A9010E9468
:103A80005E270E94FE2567E4E7CF8CEF860F813A20
:103A900018F380E2860F883048F4677081E001C037
:103AA000880F6A95EAF70E943A26DCCF8BE5860FED
:103AB000833020F480E090E00C94EB1A685A653172
:103AC00020F480E090E00C94011B0895882321F0FD
:103AD0000E9434260C94FE250895882321F00E942C
:103AE0003A260C94FE2508954F925F926F927F9232
:103AF000AF92BF92CF92DF92EF92FF920F931F93FC
:103B0000CF93DF931F92CDB7DEB77C01A72EFC01C8
:103B1000058102950F701281112321F069830E94A3
:103B20005426698169830E94F7256981882381F081
:103B3000112371F080E2860F883050F082E00E94FD
:103B4000E0250E94F72591E0B82EB926698101C0D1
:103B5000B12CCA2CC2948FE0C822D12CF601EB57AD
:103B6000FF4F0C9449358A2D807F0A2D0F708823D2
:103B700011F00295007F1123C1F0002309F4DCC18C
:103B800080E2860F883010F0611105C0802F6983B4
:103B90000E94342604C0802F69830E9447266981D1
:103BA00069830E94FE256981C7C1862F69830E94AF
:103BB000071D6981002309F4E2C180E2860F883085
:103BC00010F0611104C0802F0E943A2603C0802F9C
:103BD0000E944D260E94FE25D2C18A2D807F9A2DFB
:103BE0009F70803211F4892F03C0892F8295807FC6
:103BF000662319F06130B1F01FC0112349F0002392
:103C000009F452C1013009F04FC10E946726B7C1C3
:103C1000002319F0013009F4B2C189830E946A2699
:103C2000898148C1112321F0063008F0A8C13CC1A8
:103C3000053008F0A4C13EC1112351F0002309F45E
:103C400033C1F701958190FF77C19F7095832CC197
:103C5000002309F42FC181C18A2D86958695837032
:103C600090E0009719F0019761F089C1112321F0CC
:103C7000862F9A2D937002C080E090E00E94EB1A8C
:103C80008EC1112321F0862F9A2D937002C080E0FF
:103C900090E00E94011B83C11123F9F0653F51F0B0
:103CA000663F71F0643FA9F480913F069091400611
:103CB00081600BC080913F0690914006826005C0F4
:103CC00080913F06909140068460909340068093D7
:103CD0003F06862F0E9412291EC0653F51F0663FA5
:103CE00071F0643FA9F480913F06909140068E7F69
:103CF0000BC080913F06909140068D7F05C080915A
:103D00003F06909140068B7F9093400680933F063C
:103D1000862F0E947A290E94FF2941C18A2D837033
:103D200009F052C0111137C1862F82958695877090
:103D3000880F880F962F9F70492E512C612C712C63
:103D4000082E04C0440C551C661C771C0A94D2F73C
:103D500064FF14C00FE010E020E030E0B901A801DA
:103D600004C0440F551F661F771F8A95D2F7CB01F9
:103D7000BA01609570958095909503C060E070E001
:103D8000CB012A2D26952695237030E0223031056F
:103D900069F02330310589F064297529862997292E
:103DA0002130310571F00E941B24F5C0642975296A
:103DB000862997290E942D24EEC00E941B24C3014E
:103DC000B2010E940924E7C0112319F08A2D8170E5
:103DD00001C08695882309F4DEC0862F82958695DA
:103DE0008770880F880F962F9F70492E512C612C59
:103DF000712C082E04C0440C551C661C771C0A94B8
:103E0000D2F764FF14C00FE010E020E030E0B90109
:103E1000A80104C0440F551F661F771F8A95D2F76B
:103E2000CB01BA01609570958095909503C060E0D4
:103E300070E0CB012A2D269526952370422F50E065
:103E40004230510569F04330510589F064297529E4
:103E5000862997294130510571F00E94E0249BC0CA
:103E600064297529862997290E94F22494C00E940A
:103E7000E024C301B2010E94CE248DC0862F90E0C1
:103E8000FC01E05EF109E531F10508F051C0EB56A7
:103E9000FF4F0C944935062F0F708A2D8F71112317
:103EA00031F00E946724802F0E94661D68C00E9426
:103EB0008824802F0E946D1D62C0112341F00530BF
:103EC00008F05DC08A2D8F710E94AD2458C0063065
:103ED00008F055C0F7CF112339F08A2D8F710E9459
:103EE00067244DC01123C9F38A2D8F710E94882445
:103EF00046C0112329F08A2D8F710E9452243FC0A1
:103F00000E944D243CC0112351F01A2D1F71812FA6
:103F10000E94672463E0812F0E94D72530C081E092
:103F20000E94E025023058F182E00E94E02527C07F
:103F3000112331F0002389F2862F0E94101C1FC02C
:103F4000002391F2693349F45FEF77EE83E051503B
:103F500070408040E1F700C00000862F0E94071DDE
:103F60000EC04A2D4F70C7010E94C30F0E947C23D0
:103F700016C04A2D4F70C7010E94C60F10C098E0AE
:103F8000C916D10441F05CF0FAE0CF1AD10822E062
:103F9000C216D10420F40E94C91A0E94C10FBB208E
:103FA00001F10E94D32580FD1CC0F70112820E94FE
:103FB000CD250E946724C7010E9401200E94CD25C3
:103FC0000F90DF91CF911F910F91FF90EF90DF90B5
:103FD000CF90BF90AF907F906F905F904F900C9478
:103FE00088240F90DF91CF911F910F91FF90EF9058
:103FF000DF90CF90BF90AF907F906F905F904F9089
:1040000008950F931F93CF93DF93EC0188819981DB
:104010002B813C81232BB9F09F3F11F48F3F99F006
:10402000CE010E94B20C882371F0688179818A8167
:104030000E94AA258C010E9404250E940624B80132
:10404000CE010E94741DDF91CF911F910F910895B1
:104050000E9454260E9464268091A8019091A90193
:104060000E9474270E94FE250E94982A0E94FF2920
:1040700080E090E00E94EB1A80E090E00C94011B3D
:104080000E9441260C9428200E949F25E92FE2954A
:10409000EF70F0E03297EE30F105B0F4E655FF4FE7
:1040A0000C944935803F91F018F4803E68F40EC0BE
:1040B000843F51F40BC0803E48F0813F29F406C094
:1040C00093FB882780F9089580E0089581E00895A2
:1040D000CF93DF9300D000D01F92CDB7DEB70F9003
:1040E0000F900F900F900F90DF91CF910895CF9385
:1040F000DF9300D000D000D0CDB7DEB726960FB644
:10410000F894DEBF0FBECDBFDF91CF9108951F930E
:10411000CF93DF93C0913E0516E080913F05C8170D
:1041200099F0D0E01C9FF0011D9FF00D1124E05C80
:10413000FA4F4081518162817381848195810E940F
:1041400077202196C770E9CFDF91CF911F91089515
:1041500040917005509171056091720570917305E1
:1041600080917405909175050C9477208091750568
:1041700082958F7009F054C080917205882309F4EC
:104180004FC080913E05A0913F05609170057091F0
:1041900071054091730550917405B6E08A1709F4D2
:1041A0003FC090E041155105C1F17F3F11F46F3FD1
:1041B000A1F1B89FF001B99FF00D1124E05CFA4F16
:1041C000218172132AC02081621327C0228121110C
:1041D00024C0238134812417350710F4215031097C
:1041E000241B350B283C3105C0F4209175052F7038
:1041F00020612093750526E0289FF001299FF00D8E
:104200001124EB5BFA4F80818F708061808380E79F
:1042100095E00E9401200C94872001968770BECF04
:104220000895CF92DF92EF92FF920F931F93CF9357
:10423000DF93CDB7DEB762970FB6F894DEBF0FBE3F
:10424000CDBF8C0185E0F801DE011D9601900D9235
:104250008A95E1F7D8014C9111965C9111971296CD
:104260006C9112971396CD90DC9014973091700555
:10427000709171058091730590917405009709F410
:104280006BC17F3F19F43F3F09F466C1E0907205AE
:10429000EE2009F4C0C020917505C816D90628F093
:1042A000F601E81BF90BCF0104C0809590958C0DA9
:1042B0009D1DFF24F394883C910578F0F12C207F1C
:1042C00009F0C6C07C2DD98AC88A89890E946820D5
:1042D00080E795E00E940120B1C0822F807F09F025
:1042E00046C0751314C0341312C0611110C02F7072
:1042F0002061209375050E94A82080E795E00E9428
:10430000012080917505D80115968C932EC0CD287B
:1043100019F15F3F11F44F3FF9F0F62E61111CC007
:1043200080913E0520913F0536E0821709F45AC07E
:1043300090E0389FF001399FF00D1124E05CFA4FB6
:104340007181571306C07081471303C072817111C8
:1043500003C001968770E9CFF62E662309F418C1D1
:1043600080917505816080937505F12C11C17513DD
:1043700008C0341306C0611104C080917505D801CE
:10438000C3C04D875E878D859E856A8B0E944420C1
:104390006A898823E1F16623D1F120917505822F86
:1043A00082958F7090E0029774F0809170059091E3
:1043B000710598878F831986DB86CA862C87CE0184
:1043C00007960E94012086E0F801A0E7B5E0019081
:1043D0000D928A95E1F70E94B6200E94A820FF2442
:1043E000F394D6C04D875E878D859E850E949F255C
:1043F000292F22952F7030E0223031050CF0BCC0FF
:104400009F7009F0B6C0805E883008F4C1C0C80152
:104410000E940120E4CFC816D90608F453C0F60163
:10442000E81BF90BCF01883C910508F450C0F12C32
:104430007C2DD98AC88A89890E946820E0E7F5E046
:1044400086E0DF011D928A95E9F70E94A820A0C0AE
:10445000751314C0341312C0611110C0809175051A
:10446000F8018583C8010E94012086E0E0E7F5E0BD
:10447000DF011D928A95E9F7FE2C8AC04D875E8781
:104480008D859E856A8B0E9444206A89882309F461
:10449000BECF662309F4BBCF20917505822F82958C
:1044A0008F7090E002970CF48ECF80917005909100
:1044B00071059A8389831B82DD82CC822E83CE0193
:1044C00001967FCF809590958C0D9D1DACCFF62EDB
:1044D000662309F49CCF75132EC034132CC0209191
:1044E000750520FD1FC0822F82958F70D9F0D801ED
:1044F00015962C9315978F3049F08F5F982F9295D2
:10450000907F822F8F70892B15968C93C8010E9403
:10451000012086E0F801A0E7B5E001900D928A95B0
:10452000E1F793CF86E0F801A0E7B5E001900D92A6
:104530008A95E1F72DC04D875E878D859E850E9407
:104540004420811140CF809175058160809375056D
:10455000C8010E9401201CC0662309F458CF4D8772
:104560005E878D859E850E944420882309F44FCF65
:104570002ACF811148CF0CC0243031050CF047CF31
:104580009F7009F440CFF8019581907F09F03BCFEF
:104590008F2D62960FB6F894DEBF0FBECDBFDF91B0
:1045A000CF911F910F91FF90EF90DF90CF900895E2
:1045B0001F93CF93DF93CDB7DEB72C970FB6F89448
:1045C000DEBF0FBECDBF4F83588769877A878B8741
:1045D0009C87CE0107960E941121882369F08F8164
:1045E00098852A853B85232BF1F19F3F09F063C015
:1045F0008F3F09F060C037C086E0FE013796DE01CC
:10460000119601900D928A95E1F76F817885EA8580
:10461000FB85309741F17F3F11F46F3F21F12091ED
:104620003F0530E0C90101968770992740913E050A
:1046300050E08417950709F447C069837A83FD83A6
:10464000EC8396E0929FD001939FB00D1124A05C63
:10465000BA4FFE01319601900D929A95E1F7809341
:104660003F050E94872016E080913E0590913F050E
:104670008917C1F1189FC0011124805C9A4F0E94D4
:104680001121882379F1E0913E051E9FF00111244C
:10469000E05CFA4F40815181628173818481958110
:1046A0000E94772080913E0590E0019687709927BF
:1046B00080933E05D9CF4F81588569857A858B8552
:1046C0009C850E947720CFCF0E94402010923F050A
:1046D00010923E05E0E7F5E086E0DF011D928A9545
:1046E000E9F7C1CF2C960FB6F894DEBF0FBECDBF51
:1046F000DF91CF911F910895EF92FF920F931F9337
:10470000CF93DF938C01892B09F46CC0F12CEE243C
:10471000E394E8012196F8018491843740F48430D1
:1047200008F051C0813081F0823019F15BC08537CB
:1047300009F444C0A8F19CE7980F903708F052C0E4
:104740008F770E94071D41C00E5F1F4FFE01C4916D
:1047500080E28C0F883048F4C7708E2D01C0880F1E
:10476000CA95EAF70E94572614C08C2F0E94101C8D
:104770002DC00E5F1F4FFE01C49180E28C0F883068
:1047800058F4C7708E2D01C0880FCA95EAF70E94B1
:104790005D260E94FE251AC08C2F0E94071D16C0A0
:1047A0000E5F1F4FFE01C491CC2381F08FE99FE083
:1047B0000197F1F700C00000C150F6CF0E5F1F4F08
:1047C000FE01F49003C00E94101C8E018F2D8823DF
:1047D00009F49FCFEFE9FFE03197F1F700C0000047
:1047E0008150F5CFDF91CF911F910F91FF90EF9006
:1047F000089508950E94F9236093AC057093AD0568
:104800008093AE059093AF050C94282008950C94E6
:10481000FA230F931F930091AC051091AD052091E1
:10482000AE053091AF05602B712B822B932B1F911E
:104830000F910C94FA230F931F930091AC051091E4
:10484000AD052091AE053091AF0560237123822321
:1048500093231F910F910C94FA230F931F930091B0
:10486000AC051091AD052091AE053091AF056027E4
:104870007127822793271F910F910C94FA230C9490
:10488000A40A0E943F246093A8057093A905809311
:10489000AA059093AB050C94282060E070E0CB0152
:1048A0000C9441240F931F9341E050E060E070E0CE
:1048B0008A019B0104C0000F111F221F331F8A951C
:1048C000D2F7C901B8011F910F910C9441240F93A5
:1048D0001F9341E050E060E070E004C0440F551FBA
:1048E000661F771F8A95D2F78091A8059091A90538
:1048F000A091AA05B091AB058A019B01082B192B49
:104900002A2B3B2BC901B8011F910F910C94412414
:104910000F931F9341E050E060E070E004C0440F4B
:10492000551F661F771F8A95D2F740955095609561
:1049300070958091A8059091A905A091AA05B091C4
:10494000AB058A019B01082319232A233B23C901B4
:10495000B8011F910F910C9441240F931F9341E0D4
:1049600050E060E070E004C0440F551F661F771FE1
:104970008A95D2F78091A8059091A905A091AA05E2
:10498000B091AB058A019B01082719272A273B27ED
:10499000C901B8011F910F910C9441240F931F93EB
:1049A0000091A8051091A9052091AA053091AB05A9
:1049B000602B712B822B932B1F910F910C94412410
:1049C0000F931F930091A8051091A9052091AA05A6
:1049D0003091AB0560237123822393231F910F91A4
:1049E0000C9441240F931F930091A8051091A905E1
:1049F0002091AA053091AB05602771278227932764
:104A00001F910F910C94412408952FE0929F800DE7
:104A10001124A82FA695A695A695877051E001C0F0
:104A2000550F8A95EAF785E0A89FD001112420E070
:104A300030E070E0F901EA0FFB1FEA58FA4F4081BD
:104A4000CB01022E02C0969587950A94E2F78170F9
:104A50009927819584278523842780832F5F3F4F63
:104A60002530310539F708952FE0929F800D1124EC
:104A7000682F669566956695982F977085E0689F74
:104A8000B001112440E050E080E0FA01E60FF71F8A
:104A9000EA58FA4F208130E0092E02C0369527955A
:104AA0000A94E2F721703327042E01C0220F0A94E2
:104AB000EAF7822B4F5F5F4F4530510531F708957C
:104AC000CF92DF92EF92FF920F931F93CF93DF93DA
:104AD0008C01C090AC05D090AD05E090AE05F09093
:104AE000AF058091A8059091A905A091AA05B09164
:104AF000AB05C82AD92AEA2AFB2ACFE1D0E0D701A0
:104B0000C6010C2E04C0B695A795979587950A9473
:104B1000D2F780FF06C0B8018C2F0E94E10F0197E9
:104B200021F4219760F780E001C08C2FDF91CF91B5
:104B30001F910F91FF90EF90DF90CF900895CF934A
:104B4000DF93EC010E946025BE010E94E10FDF911E
:104B5000CF9108951F93CF93DF93EB0190913D0583
:104B6000992321F0CB010E949F2513C0882349F08F
:104B7000CB010E946025182F682FCE010E940525C9
:104B800004C0CB010E943425182FBE01812F0E9442
:104B9000E10FDF91CF911F9108958091B005859528
:104BA0008595859508958091B0058770089598E062
:104BB000899F90011124262B2093B0050C94672423
:104BC0002091B005809582238093B005982F97702F
:104BD00069F430E0482F082E000C550B24173507D8
:104BE00029F08595859585950C9488240895909154
:104BF000B005977081E009F480E00895E091A80184
:104C0000F091A9018091D4058083E091A801F091F1
:104C1000A90190818091D305892B8083E091A8011F
:104C2000F091A90190818091D205892B8083809198
:104C3000B105882381F0E091A801F091A90190814C
:104C4000892B80838091A8019091A9010E9402275D
:104C500081111092B1058091A8019091A9010C9445
:104C6000D51A8091D40508959091D405892B80930D
:104C7000D405089580959091D40589238093D40517
:104C800008951092D40508958091D30508959091C8
:104C9000D305892B8093D305089580959091D305F2
:104CA00089238093D30508951092D3050895909198
:104CB000D205892B8093D205089580959091D205D5
:104CC00089238093D20508951092D2050895809388
:104CD000B10508951092B10508958091B105089528
:104CE000CF92DF92EF92FF926C01EE24FF24C11469
:104CF000D104E104F10421F0C701B60120E101C0B3
:104D000020E0C72ED82EE92EFF24C114D104E104DF
:104D1000F10419F0285FC701B6016B017C0154E072
:104D2000F694E794D794C7945A95D1F7C114D10457
:104D3000E104F10419F02C5FC701B6016B017C019D
:104D400042E0F694E794D794C7944A95D1F7C114FA
:104D5000D104E104F10419F02E5FC701B601DC01B2
:104D6000CB01B695A79597958795892B8A2B8B2B89
:104D700009F02F5F822FFF90EF90DF90CF90089582
:104D80006DEE7EEF80E090E00E94813560E082E091
:104D900090E00E94633560E083E090E00E9463351C
:104DA00060E084E090E00E94633560E085E090E0A0
:104DB0000E94633540E050E0BA0188E090E00C9436
:104DC000753580E090E00E945D3521E08D3E9E4F7C
:104DD00009F020E0822F089582E090E00C944F3596
:104DE00083E090E00C944F35682F83E090E00C94C2
:104DF000633584E090E00C944F35682F84E090E0B8
:104E00000C946335FC0131969C01205E3F4F80E09D
:104E1000919191118F5FE217F307D1F708959C01EB
:104E2000FC0132969FEF80E04191461789F09F3F49
:104E300019F4411101C0982F8F5F8E31A9F79F3F60
:104E400039F0F901E90FF11D97FDFA956283089594
:104E50000895FC01329680962081261301C01082AD
:104E60003196E817F907C1F70895262F269526955C
:104E700026952F3168F4FC01E20FF11D677021E0E7
:104E800030E001C0220F6A95EAF78181282B218347
:104E90000895262F2695269526952F3170F4FC012E
:104EA000E20FF11D677021E030E001C0220F6A952A
:104EB000EAF7209581812823218308952091BA0162
:104EC000222329F02091450627FD0C9435270C94C8
:104ED0000F272091BA01222329F02091450627FDB2
:104EE0000C9449270C942927FC0131968096119245
:104EF000E817F907E1F7089580914B06843039F1FE
:104F00001092D60520E488E190E00FB6F894A895B9
:104F1000809360000FBE2093600080E00E94C10F6C
:104F200083B7817F846083BF83B7816083BF7894B8
:104F3000889583B78E7F83BF0FB6F894A89580912C
:104F40006000886180936000109260000FBE089539
:104F500008950895CF930E94A8270E94C1120E942D
:104F6000A927C0E08C2F0E947513892B29F4CF5FED
:104F7000C530C1F780E001C081E0CF9108950E9463
:104F800040200E94C91A0C94C10F1F920F920FB6B5
:104F90000F9211248F939F93AF93BF938091D60567
:104FA000811113C08091410690914206A091430661
:104FB000B09144064196A11DB11D80934106909386
:104FC0004206A0934306B0934406BF91AF919F91D0
:104FD0008F910F900FBE0F901F90189582E084BDA7
:104FE00093E095BD9AEF97BD80936E0008952FB71B
:104FF000F8948091410690914206A0914306B091A9
:1050000044062FBF0895CF92DF92EF92FF920F9345
:105010001F932FB7F894409141065091420660913A
:105020004306709144062FBF6A017B01EE24FF24E2
:105030008C0120E030E0C016D106E206F30610F441
:10504000415051099A01281B390BC9011F910F9139
:10505000FF90EF90DF90CF90089578941F920F9279
:105060000FB60F9211248F939F93AF93BF938091AC
:10507000410690914206A0914306B09144060196E4
:10508000A11DB11D8093410690934206A093430653
:10509000B0934406BF91AF919F918F910F900FBE37
:1050A0000F901F90189581E08093E00080E280933C
:1050B000D8001092C9008FE19EE40197F1F700C07B
:1050C000000087E090EBDC01809354069093550636
:1050D000A0935606B09357069CE088E10FB6F8946B
:1050E000A895809360000FBE90936000FFCF0E9450
:1050F000E126811102C00E94C0260E94EC26809306
:10510000D5050E94F92690E09093460680934506C7
:105110000E94F026682F70E080E090E00C94072455
:105120008091D90580FF0BC06091AD0185E0689F3B
:10513000B001112475956795759567952BC081FF12
:1051400009C06091AD0185E0689FB001112475959B
:10515000679520C082FF07C06091AD0185E0689F20
:10516000B001112417C09091DA059923D1F0609114
:10517000AC01961788F72091AD0185E0289F90013A
:105180001124929FA001939F500D112470E0CA0139
:105190000E9435356038710540F46115710539F0AC
:1051A00002C065E070E0862F08958FE7089581E0E2
:1051B00008958091D90580FF08C06091AB0170E02F
:1051C000759567957595679521C081FF06C06091BB
:1051D000AB0170E07595679519C082FF04C06091BE
:1051E000AB0170E010C09091DA059923C1F0609195
:1051F000AA019617A0F78091AB01899FC0011124E5
:1052000070E00E9435356038710528F4611571052C
:1052100021F0862F08958FE7089581E0089561E0D9
:1052200070E0F4CF803F21F40E949028819504C063
:10523000813F29F40E9490288093DD050895823FE4
:1052400021F40E949028819504C0833F29F40E9494
:1052500090288093DC050895893F19F40E94D9288D
:1052600005C08A3F31F40E94D92881958093DE05DC
:1052700008958B3F21F40E94D928819504C08C3F6A
:1052800029F40E94D9288093DF050895843F21F4F2
:105290008091DB05816017C0853F21F48091DB059B
:1052A000826011C0863F21F48091DB0584600BC0D1
:1052B000873F21F48091DB05886005C0883F31F489
:1052C0008091DB0580618093DB0508958D3F21F49B
:1052D0008091D90581600BC08E3F21F48091D90562
:1052E000826005C08F3F29F48091D9058460809346
:1052F000D9050895803F39F48091DD0587FF6CC0A2
:105300001092DD0569C0813F29F48091DD051816F2
:10531000BCF362C09091DC05823F29F497FF5CC02A
:105320001092DC0559C0833F19F41916CCF354C010
:10533000893F41F48091DE0518160CF04DC01092A3
:10534000DE054AC08A3F29F48091DE0587FF44C00C
:10535000F6CF8B3F39F48091DF0587FF3DC0109277
:10536000DF053AC08C3F29F48091DF051816BCF3A5
:1053700033C0843F21F48091DB058E7F17C0853FC9
:1053800021F48091DB058D7F11C0863F21F480914F
:10539000DB058B7F0BC0873F21F48091DB05877F86
:1053A00005C0883F31F48091DB058F7E8093DB055B
:1053B00013C08D3F21F48091D9058E7F0BC08E3FA5
:1053C00021F48091D9058D7F05C08F3F29F480910C
:1053D000D9058B7F8093D9058091DC0581110EC0A2
:1053E0008091DD0581110AC08091DE05811106C022
:1053F0008091DF05811102C01092DA0508958BEDCE
:1054000095E00E94E01A0E94F7279093D8058093B8
:10541000D70508951F93CF93DF938091D70590917F
:10542000D8050E940328AC019091DA05992321F058
:105430002091AE0130E006C02091AF018AE0289FA4
:10544000900111244217530708F46EC08091DC05C7
:10545000C091DD05D091DE051091DF05811107C0F7
:10546000C1115EC0D1115CC011115AC05DC09F3F17
:1054700019F09F5F9093DA05181624F40E94902883
:105480008093DC058091DC0587FF05C00E94902891
:1054900081958093DC051C1624F40E94902880934B
:1054A000DD058091DD0587FF05C00E94902881956C
:1054B0008093DD054091DC05442379F03091DD05D2
:1054C000332359F025EB4203A00111245093DC054E
:1054D0003203C00111249093DD051D1624F40E94AF
:1054E000D9288093DE058091DE0587FF05C00E94E4
:1054F000D92881958093DE05111624F40E94D928BD
:105500008093DF058091DF0587FF05C00E94D928C1
:1055100081958093DF05DF91CF911F910C94FF2936
:105520009F3F09F0A6CFAECFDF91CF911F91089595
:10553000EBEDF5E085E0DF011D928A95E9F7109229
:10554000DA051092D90508958091000608950F9309
:105550001F93CF93DF9300D01F92CDB7DEB78C019E
:105560000E941F2D823011F0843019F593E0998349
:105570001B830A839093E9008FEF9091E80081509C
:1055800095FD06C095ED9A95F1F700008111F5CFD4
:105590008091E80085FF0DC040E050E063E070E0DE
:1055A000CE0101960E943C2D8091E8008E77809379
:1055B000E8000F900F900F90DF91CF911F910F9106
:1055C0000895CF93DF9300D01F92CDB7DEB720911F
:1055D0004B06243031F522E02983805891099B83C2
:1055E0008A8383E08093E9008FEF9091E8008150F7
:1055F00095FD06C095ED9A95F1F700008111F5CF64
:105600008091E80085FF0DC040E050E063E070E06D
:10561000CE0101960E943C2D8091E8008E77809308
:10562000E8000F900F900F90DF91CF910895CF93E6
:10563000DF93EC010E941F2D823011F08430F9F4C9
:1056400082E08093E9009FEF8091E800915085FD12
:1056500006C085ED8A95F1F700009111F5CF809194
:10566000E80085FF0CC040E050E065E070E0CE014E
:105670000E943C2D8091E8008E778093E800DF91B6
:10568000CF910895CF93DF93EC010E941F2D8230BC
:1056900019F0843009F047C08091BA018823E1F005
:1056A0008091450687FF18C084E08093E9008FEF62
:1056B0009091E800815095FD06C095E19A95F1F72B
:1056C00000008111F5CF8091E80085FF2CC040E0FB
:1056D00050E060E270E017C081E08093E9008FEF56
:1056E0009091E800815095FD06C095ED9A95F1F7EF
:1056F00000008111F5CF8091E80085FF14C040E0E3
:1057000050E068E070E0CE010E943C2D8091E800FE
:105710008E778093E80080E2FE01A0EEB5E0019074
:105720000D928A95E1F7DF91CF91089580914A0615
:10573000811109C00E94D12E0E942E2F8091E2007B
:1057400084608093E200089510924A0608950895B7
:1057500008950C94BF2742E061EC81E00E944B2E3B
:1057600042E061EC82E00E944B2E42E061EC83E07B
:105770000E944B2E42E261EC84E00C944B2E80910F
:105780004D06833009F455C030F4813071F0823019
:1057900009F48EC008958A3009F47AC08B3009F478
:1057A00060C0893009F09CC020C080914C06813ACD
:1057B00009F096C08091E800877F8093E80080918F
:1057C000500690915106892B21F460E280EE95E01D
:1057D00003C060E080E090E070E00E94872D80913F
:1057E000E8008B778093E800089580914C06813221
:1057F00009F076C08091500690915106009719F0FB
:10580000039709F06DC08091E800877F8093E800DE
:105810008091E80082FD05C080914B068111F8CF90
:105820005FC08091F100809300068091E8008B7743
:1058300053C080914C06813A09F052C080915006C5
:1058400090915106892B09F04BC08091E800877F29
:105850008093E8008091E80080FFFCCF8091BA013E
:1058600036C080914C068132D9F5809150069091D6
:105870005106892BA9F58091E800877F8093E80085
:105880000E94802E80914E068093BA010C94402095
:1058900080914C06813221F58091E800877F8093CA
:1058A000E8000E94802E80914F06809301060895A3
:1058B00080914C06813AA1F48091E800877F809323
:1058C000E8008091E80080FFFCCF80910106809382
:1058D000F1008091E8008E778093E8000C94802E90
:1058E000089584B7877F84BF0FB6F894A8958091F8
:1058F0006000886180936000109260000FBE80E8B5
:1059000080936100109261000E94181B0E94D12EAA
:105910000E942E2F8091E20084608093E2007894B0
:105920000E94BD310E941C1B80EB91E00E94C41AB2
:1059300080914B06853069F40E947C27809149064E
:105940008823B1F30E94AA27882391F30E94262D71
:10595000EFCF0E94241B0E940919EACF0C94B02CAF
:10596000292F332723303105C9F064F42130310564
:1059700081F02230310509F049C08DE690E025E53F
:105980003EE048C02132310521F12232310571F16A
:105990003DC082E190E022EC3EE03CC0992781309E
:1059A000910571F02CF4892B89F5E1E5FEE00DC03D
:1059B0008230910541F0039749F5EDE2FEE005C024
:1059C000EFE3FEE002C0E3E3FEE0849190E09F019C
:1059D00021C064307105D0F4660F771FFB01E552DA
:1059E000FE4F2081318189E090E014C06430710560
:1059F00068F4FB01EE0FFF1FED52FE4F2081318155
:105A0000FB01E153FE4F808190E004C080E090E014
:105A100020E030E0FA013183208308950895CF9388
:105A2000C82F0E940E2DC0930206CF910895809139
:105A30004B06843011F081E0089582E00895809152
:105A40000206811102C00C94172D089580E189BDD2
:105A500082E189BD09B400FEFDCF8091D8008F7D21
:105A60008093D8008091E00082608093E000809174
:105A7000E00081FDFCCF0895CF92DF92EF92FF927C
:105A80000F931F93CF93DF93EC018B016A010E9468
:105A90009F2E811133C0C114D10439F0F6018081E9
:105AA0009181081B190BC80FD91FE12CF12C01158E
:105AB000110519F18091E80085FD16C08091E8007C
:105AC0008E778093E800C114D10449F0F6018081FB
:105AD0009181E80EF91EF182E08285E00FC00E94FC
:105AE0009F2E882321F30AC089918093F1000150F1
:105AF0001109FFEFEF1AFF0ADACF80E0DF91CF91B3
:105B00001F910F91FF90EF90DF90CF90089520911B
:105B10005206309153062617370748F06115710574
:105B200039F42091E8002E772093E80001C0B901F4
:105B300040E061157105A9F120914B06222309F47B
:105B400043C0253009F442C02091E80023FD40C045
:105B50002091E80022FD32C02091E80020FFE9CF2B
:105B60004091F3002091F20030E0342BFC01CF0192
:105B70006115710559F02830310540F48191809309
:105B8000F100615071092F5F3F4FF1CF41E02830A4
:105B9000310509F040E02091E8002E772093E800DD
:105BA000C8CF4111C9CF0AC080914B06882361F04C
:105BB000853061F08091E80083FD0AC08091E800A3
:105BC00082FFF2CF80E0089582E0089583E0089597
:105BD00081E0089520915206309153062617370729
:105BE00048F06115710539F42091E8002E77209373
:105BF000E80001C0B901FC0120E06115710591F1D7
:105C000080914B06882309F440C0853009F43FC0D9
:105C10008091E80083FD3DC08091E80082FD2FC0A7
:105C20008091E80080FFE9CF2091F3008091F2009D
:105C300090E0922B6115710559F08830910540F480
:105C400024912093F1003196615071090196F2CFB1
:105C500021E0089709F020E08091E8008E7780939A
:105C6000E800CBCF2111CCCF0AC080914B0688230E
:105C700061F0853061F08091E80083FD0AC0809179
:105C8000E80082FFF2CF80E0089582E0089583E08B
:105C9000089581E00895982F973058F59093E90082
:105CA000981739F07091EC002091ED005091F000C0
:105CB00003C0242F762F50E021FF19C03091EB0054
:105CC0003E7F3093EB003091ED003D7F3093ED004F
:105CD0003091EB0031603093EB007093EC00209337
:105CE000ED005093F0002091EE0027FF07C09F5F6A
:105CF000D3CF8F708093E90081E0089580E008950C
:105D000080914C0687FF11C08091E80082FD05C09C
:105D100080914B068111F8CF11C08091E8008B77FC
:105D20000BC080914B06882349F08091E80080FFEA
:105D3000F8CF8091E8008E778093E8000895209155
:105D4000E4003091E50095E64091EC00842F8170ED
:105D500040FF22C08091E80080FD1CC080914B066E
:105D6000882391F0853091F08091EB0085FD10C083
:105D70004091E4005091E5004217530729F39A013E
:105D8000915011F784E0089582E0089583E008952A
:105D900081E0089580E008954091E80042FFDECF61
:105DA00008950E943F2F0E94472FE0EEF0E080818F
:105DB00081608083E8EDF0E080818F77808319BC7B
:105DC000A7EDB0E08C918E7F8C9380818F7E808355
:105DD00010924A0608950F931F93CF93DF930E946A
:105DE0003F2F0E94472FC8EDD0E088818F778883AE
:105DF00088818068888388818F7D888319BC109210
:105E00004B0610924706109249061092480600EE83
:105E100010E0F80180818B7F808388818160888396
:105E200042E060E080E00E944B2EE1EEF0E08081F5
:105E30008E7F8083E2EEF0E08081816080838081CC
:105E400088608083F80180818E7F80838881806173
:105E50008883DF91CF911F910F910895E8EDF0E0D5
:105E600080818F7E8083E7EDF0E080818160808398
:105E700084E082BF81E080934A060C94EB2EE8ED2B
:105E8000F0E080818E7F80831092E200089510926E
:105E9000DA001092E10008951F920F920FB60F9250
:105EA00011242F933F934F935F936F937F938F931F
:105EB0009F93AF93BF93EF93FF938091E10082FF95
:105EC0000BC08091E20082FF07C08091E1008B7FD0
:105ED0008093E1000E94BC318091DA0080FF1FC0F6
:105EE0008091D80080FF1BC08091DA008E7F809364
:105EF000DA008091D90080FF0DC080E189BD82E188
:105F000089BD09B400FEFDCF81E080934B060E945D
:105F1000962B05C019BC10924B060E94A42B8091B1
:105F2000E10080FF19C08091E20080FF15C08091E0
:105F3000E2008E7F8093E2008091E2008061809396
:105F4000E2008091D80080628093D80019BC85E07F
:105F500080934B060E94A82B8091E10084FF30C003
:105F60008091E20084FF2CC080E189BD82E189BD7F
:105F700009B400FEFDCF8091D8008F7D8093D800BA
:105F80008091E1008F7E8093E1008091E2008F7E1E
:105F90008093E2008091E20081608093E200809132
:105FA0004706882311F084E007C08091E30087FD55
:105FB00002C081E001C083E080934B060E94A92BC0
:105FC0008091E10083FF29C08091E20083FF25C01A
:105FD0008091E100877F8093E10082E080934B060F
:105FE000109247068091E1008E7F8093E1008091BE
:105FF000E2008E7F8093E2008091E20080618093D6
:10600000E20042E060E080E00E944B2E8091F000D0
:1060100088608093F0000E94A72BFF91EF91BF91C1
:10602000AF919F918F917F916F915F914F913F9130
:106030002F910F900FBE0F901F9018951F920F92E7
:106040000FB60F9211242F933F934F935F936F934B
:106050007F938F939F93AF93BF93CF93DF93EF93F0
