:100000000C94380A0C947F0A0C947F0A0C947F0A93
:100010000C947F0A0C947F0A0C947F0A0C947F0A3C
:100020000C947F0A0C947F0A0C9441340C94133581
:100030000C94732B0C947F0A0C947F0A0C947F0A07
:100040000C947F0A0C947F0A0C947F0A0C947F0A0C
:100050000C947F0A0C94DB2B0C947F0A0C947F0A7F
:100060000C947F0A0C947F0A0C947F0A0C947F0AEC
:100070000C947F0A0C947F0A0C947F0A0C947F0ADC
:100080000C947F0A0C947F0A0C947F0A0C947F0ACC
:100090000C947F0A0C947F0A0C947F0A0C947F0ABC
:1000A0000C947F0A0C947F0A0C947F0A610EC40E94
:1000B000C40EC40E680E6A0E6C0E6E0E720E700EBA
:1000C0005E0EC40E520E810E830E850E8A0E760EC3
:1000D000790E7E0E4F0E4F0EA90FAB0FAD0FB00F66
:1000E000AD0FB20FB40F68116A1175116C116E115A
:1000F000701172117411771179117B1186117D11B4
:100100007F1181118311851188110A210A2144214F
:1001100044218321A32116231623E52116239522AA
:1001200095220823162316231023A222A222A222FC
:10013000A222A222A222A222A222A222A222A2229F
:10014000A222A222A222A222A222B422C222C92236
:10015000D022DA22A923A923BB23BB23B223BB23AA
:10016000BB23BB23A923A923B723BB23BB23B723CB
:100170008035A7359936A7359936F3351636993631
:100180006C367B36444F55424C455F53494E474C85
:10019000455F54415000444F55424C455F484F4CD9
:1001A0004400444F55424C455F54415000647A36F8
:1001B000302F646976696465303A76353534346653
:1001C000612D64697274792374657374696E670054
:1001D0007E2F2E00647A36302F646976696465302C
:1001E0003A763535343466612D64697274792374D6
:1001F000657374696E670064796E616D6963206D03
:100200006163726F3A2069676E6F72696E67206D05
:100210006163726F20706C6179206B6579207768FB
:10022000696C65207265636F7264696E670D0A00A0
:1002300064796E616D6963206D6163726F3A2073DA
:100240006C6F742025642073617665642C206C6566
:100250006E6774683A2025640A0064796E616D697E
:1002600063206D6163726F3A207472696D6D696E9F
:1002700067206120747261696C696E67206B6579B3
:100280002D646F776E206576656E740D0A00647953
:100290006E616D6963206D6163726F3A20736C6F7C
:1002A00074202564206C656E6774683A2025642F7D
:1002B00025640A0064796E616D6963206D61637203
:1002C0006F3A2069676E6F72696E672061206C6596
:1002D0006164696E67206B65792D75702065766540
:1002E0006E740D0A0064796E616D6963206D6163DF
:1002F000726F3A20736C6F7420256420706C617982
:100300006261636B0A0064796E616D6963206D617F
:1003100063726F207265636F7264696E673A2073EF
:100320007461727465640D0A00155C1E001F002064
:100330000021002200230024002500260027002D94
:10034000002E0000002A000457000014001A0008C4
:1003500000150017001C0018000C00120013002FDD
:100360000030000157025700000400160007000982
:10037000000A000B000D000E000F003300340003D4
:10038000570000065700001D001B0006001900055D
:100390000011001000360037003800317252004C56
:1003A00000E00005570000E2002C000000005700AC
:1003B000002C0000004A004D00500051004F00008A
:1003C000000000000000000000000000000000002D
:1003D000000000000000000000000000000000001D
:1003E000000000000000000000000000000000000D
:1003F00000000000000000000000000000000000FD
:10099000000000000000000000000001003A003BE1
:1009A000003C003D003E003F00400041004200434B
:1009B000004400450000002A0001000000501650CD
:1009C000144F144F16F90006114A004B004D001940
:1009D0001101000100005C01000000501350114F94
:1009E000114F1301005000510052004F000100014F
:1009F0000001000000010000001D111B110611196B
:100A000011FA00010050114E004F111D1301004B4F
:100A100000010001000100000001000100000001D0
:100A200000000001000000010001004A004E004DDE
:100A3000000100F400F500F600F700F800010001E5
:100A4000000100010001000100010000000100019F
:100A50000000000100F400F000F500F900F900F4D6
:100A600000F000F500010001000100005C01000041
:100A7000000100F200F100F300FA00FA00F200F1C8
:100A800000F300010001000100000001000000016E
:100A900000FD00FE00FF0001000100FD00FE00FF60
:100AA000000100010001000100010001000000013F
:100AB0000001000000010000000100000001000131
:100AC000000100010001000100C35CC45CC55CC6FC
:100AD0005CC75CC85CC95CCA5C01000100BC5CBB53
:100AE0005C0000BA5C01000000BD5CBF5CC15C0141
:100AF00000010001000100010001000100A600A7A3
:100B000000005C01000000BE5CC05CC25C01000132
:100B1000000100010001000100AC00AB00DE5C0040
:100B200000010000000100010001000100010001BE
:100B30000001000100010001000100A90001000105
:100B400000010000000100010000000100000001A0
:100B500000000001000100AD00AA00AE00E85CE961
:100B60005CEA5C01000100010001000100010001DC
:100B700000E65CE75C0100000001000100000010DD
:100B8000580D580F580C580B580B580C580F580D3F
:100B9000581058010001000100010000001E021F52
:100BA0000220022102220223022402250226022719
:100BB0000201000100000001000000350235002E96
:100BC000022E00310231002F0030002F02300201CE
:100BD000000100010001000100000001000100000F
:100BE00000010000000100000001000100010001FF
:100BF00000010001001E001F002000210022002330
:100C00000024002500260027002D002E0000002AC9
:100C1000000100000014001A000800150017001C55
:100C20000018000C00120013002F0030000100011A
:100C300000000004001600070009000A000B000D68
:100C4000000E000F003300340028000000010000F7
:100C5000001D001B000600190005001100100036E1
:100C6000003700380031725200010001000100001D
:100C7000000100010000000100000001000000016F
:100C8000000100010001000100010001000100015C
:100C9000000100010001000100010001000100014C
:100CA000000100000001000100000001000100013E
:100CB000000100010001000100010001000100012C
:100CC000000100010001000000010001000100011D
:100CD000000100010001000100010001000100010C
:100CE00000000001000000010001000100010001FE
:100CF00000010001000100010001000100010001EC
:100D000000010001000000010001000000010000DE
:100D10000001000000010001000100010001004489
:100D2000454255473A20656E61626C65642E0A0043
:100D300000000000000000002A2B28000000000036
:100D4000000000000000000000000029000000007A
:100D50002C1E3420212224342627252E362D3738E8
:100D6000271E1F202122232425263333362E3738F1
:100D70001F0405060708090A0B0C0D0E0F101112AF
:100D8000131415161718191A1B1C1D2F3130232D7B
:100D9000350405060708090A0B0C0D0E0F10111279
:100DA000131415161718191A1B1C1D2F3130354C2A
:100DB0000000000000000000000000000000000033
:100DC0000000000000000000000000000000000023
:100DD0000001010101010100010101010000000009
:100DE00000000000000000000000010001000101FF
:100DF00001010101010101010101010101010101E3
:100E000001010101010101010101010000000101D5
:100E100000000000000000000000000000000000D2
:100E200000000000000000000000000101010100BE
:100E30000A002530313662003A2000253032580051
:100E40000A722F6320303132333435363738394126
:100E500042434445460A007267626C6967687420C1
:100E600073657420687376205B454550524F4D5D25
:100E70003A2025752C25752C25750A007267626C41
:100E800069676874207261696E626F772073657438
:100E9000206873763A2025752C25752C25642C2521
:100EA000750A007267626C696768742064697361AF
:100EB000626C653A207267626C696768745F636F21
:100EC0006E6669672E656E61626C65203D202575D2
:100ED0000A007267626C6967687420656E61626C93
:100EE000653A207267626C696768745F636F6E66EB
:100EF00069672E656E61626C65203D2025750A006C
:100F00007267626C6967687420746F67676C653AB2
:100F1000207267626C696768745F636F6E66696789
:100F20002E656E61626C65203D2025750A00726732
:100F3000626C69676874206D6F64653A2025750A74
:100F4000007267626C696768745F696E69742072A9
:100F500067626C696768745F636F6E6669672E6D40
:100F60006F6465203D20302E2057726974652064BF
:100F7000656661756C742076616C75657320746F3D
:100F800020454550524F4D2E0A007267626C6967CA
:100F900068745F696E6974206565636F6E66696702
:100FA000206973206E6F7420656E61626C65642EBB
:100FB0000A007267626C696768745F696E697420A1
:100FC0007374617274210A007267626C6967687475
:100FD0005F696E69742063616C6C65642E0A0072CF
:100FE00067626C696768745F636F6E6669672E76A7
:100FF000616C203D2025640A007267626C69676835
:10100000745F636F6E6669672E736174203D20257F
:10101000640A007267626C696768745F636F6E660A
:1010200069672E687565203D2025640A007267682F
:101030006C696768745F636F6E6669672E6D6F6455
:1010400065203D2025640A007267626C69676874D8
:101050005F636F6E6669672E656E61626C65203DC9
:101060002025640A007267626C696768745F636F49
:101070006E666967206570726F6D0A006565636FE3
:101080006E6669675F7570646174655F7267626CD4
:10109000696768745F64656661756C740A006801ED
:1010A000F000B40078005A000000000000010101C7
:1010B0000101010101010202020202020202020315
:1010C00003030303030303040404040404050505E4
:1010D00005050606060606070707070808080809A3
:1010E00009090A0A0A0A0B0B0B0C0C0C0D0D0D0E4C
:1010F0000E0F0F0F101011111112121313141415DB
:101100001516161717181819191A1A1B1C1C1D1D4D
:101110001E1F1F20202122222324252526272728A1
:10112000292A2B2B2C2D2E2F2F30313233343536CC
:10113000363738393A3B3C3D3E3F404142434446D6
:101140004748494A4B4C4D4F5051525355565758AA
:101150005A5B5C5E5F606263646667696A6C6D6E51
:10116000707173747678797B7C7E808183848688C5
:101170008A8B8D8F91929496989A9B9D9FA1A3A5FF
:10118000A7A9ABADAFB1B3B5B7B9BBBDBFC1C4C6FD
:10119000C8CACCCFD1D3D6D8DADCDFE1E4E6E8EBBD
:1011A000EDF0F2F5F7FAFCFF0A0025303258200086
:1011B0006B6579626F6172645F7265706F72743AA9
:1011C00020000A0025303258006B6579626F617229
:1011D000645F7365745F6C65643A200064656C5F7E
:1011E0006B65795F6269743A2063616E277420646D
:1011F000656C3A20253032580A006164645F6B6583
:10120000795F6269743A2063616E27742061646457
:101210003A20253032580A00290A002575002F008F
:101220002575005D2800256400200025640020004D
:1012300025640020002564007C0025303258006DB4
:101240006F7573656B6579205B62746E7C7820794D
:10125000207620685D287265702F61636C293A20C2
:101260005B005B735D004B6579626F617264207334
:10127000746172742E0A005B575D005B535D005B06
:10128000525D005B445D005B435D00040330000081
:10129000000A0344005A0036003000000010034BDF
:1012A0000042004400460061006E0073000000042C
:1012B00003090409028D00050100A0FA09040000D9
:1012C000010301010009211101000122400007056D
:1012D000810308000A090401000103010200092139
:1012E00011010001224D000705820308000A0904CC
:1012F0000200010300000009211101000122360053
:101300000705830308000A09040300020300000024
:101310000921110100012222000705840320000198
:101320000705040320000109040400010300000074
:101330000921110100012239000705850320000160
:101340001201100100000008EDFE60220100010200
:10135000030105010906A101050719E029E71500A8
:1013600025019508750181020508190129059505D2
:10137000750191029501750391010507190029F77F
:101380001500250195F875018102C00631FF097429
:10139000A1010975150026FF009520750881020935
:1013A00076150026FF00952075089102C0050109F9
:1013B00080A10185021601002603001A81002A83FC
:1013C00000751095018100C0050C0901A10185037C
:1013D000160100269C021A01002A9C027510950134
:1013E0008100C005010902A1010901A10005091937
:1013F00001290515002501950575018102950175E5
:101400000381010501093009311581257F95027598
:1014100008810609381581257F9501750881060523
:101420000C0A38021581257F950175088106C0C018
:1014300005010906A101050719E029E715002501A5
:10144000950875018102950175088101050819014A
:10145000290595057501910295017503910105070F
:10146000190029FF150026FF00950675088100C0A8
:1014700011241FBECFEFDAE0DEBFCDBF04B603FEFE
:1014800027C08091400690914106A0914206B091FC
:1014900043068730904BA740B04BD1F410924006E2
:1014A00010924106109242061092430614BE84B771
:1014B000877F84BF0FB6F894A895809160008861FB
:1014C00080936000109260000FBEE0E0F8E30995A1
:1014D00011E0A0E0B1E0E0EAFEE602C005900D9266
:1014E000A23DB107D9F726E0A2EDB1E001C01D92FF
:1014F000A034B207E1F70E945C310C944E370C9493
:101500000000FF93EF93E091D201F091D301309767
:1015100009F00995EF91FF910895FC0185918030C4
:1015200011F0EFDFFBCF0895FF27E0E230E247FF45
:101530000CC0419597FF09C0EDE2609570958095CC
:101540009095611D711D811D911D27FF02C0219580
:1015500030E350E2AA27660F771F881F991FAA1F42
:10156000A41710F0A41B63955A95A9F7AA3008F0A8
:10157000A95FA05DAF93F395611571058105910594
:1015800041F7ED3211F4EF93F395F21718F43F930E
:10159000F395FBCF8F91B5DFFA95E1F70895E991C7
:1015A000F9918591803021F0853219F0AADFF9CFC9
:1015B000089520E0E89455915532C1F3503311F469
:1015C000689455915A3348F4505390F3220F022EE9
:1015D000220F220F200D250FF4CF0EF421958991B3
:1015E0009991533619F3533729F1533559F1BC0109
:1015F00088279927E8945C3621F489919991689419
:101600005591543639F446EF7EF077FF0DC08FEFD9
:101610009FEF0AC055374AE039F0583540E121F0D4
:10162000523642E009F00895FF93EF937DDFEF918A
:10163000FF91B7CFFF93EF93FC0181918030B9F315
:1016400060DFFBCFFF93EF9368DFF1CFDF93CF93A2
:10165000CDB7DEB72596A3DFCF91DF9108950C9427
:101660008416229A2A9A08950E941E0E0C94310B19
:101670000C94D2138091E104882331F08BE20E9414
:101680005E201092E10424C08091E2049091E30472
:1016900083309105A9F054F48130910589F00297C7
:1016A000B9F481EE0E945E2080EE10C08630910574
:1016B00039F08730910531F0049751F480EE03C082
:1016C0008BE204C081EE0E945E2082EE0E945E20CA
:1016D0001092E3041092E20408958091D90490914D
:1016E000DA048130910511F0029719F483EE0E941B
:1016F0005E201092DA041092D90408958091E404D7
:101700009091E5048430910539F08730910531F0EE
:10171000029739F48BE003C08CE001C08EE00E9498
:10172000DF271092E5041092E40408958091DF040D
:101730009091E0048430910589F03CF4813091056A
:1017400059F0029799F48BE00FC08630910541F073
:10175000079761F480E108C088E203C08EE004C00E
:1017600082EB0E945E2002C00E94DF271092E004FC
:101770001092DF0408958091DD049091DE048230A0
:10178000910549F08430910541F0019749F489E2CF
:101790000E945E2005C08BE001C08CE00E94DF2724
:1017A0001092DE041092DD0408958091D704909188
:1017B000D804029719F48EE00E94DF271092D80413
:1017C0001092D70408950F931F93CF93DF938C014A
:1017D0000E948829D82F0E948829C82F0E94882912
:1017E000D27229F4C17119F4982F947441F08BE2EC
:1017F0000E94671F91E09093E104F8019187DF91C7
:10180000CF911F910F9108958091DB049091DC049A
:101810008230910549F08330910511F0019721F450
:1018200081E00E94372903C081EE0E945E20109261
:10183000DC041092DB0408950F931F93CF93DF9382
:10184000EC018B018091BE0580FF04C086E093E02F
:101850000E948D0A0E9497230E94A427198308835F
:10186000DF91CF911F910F9108958F929F92AF9228
:10187000BF92EF92FF920F931F93CF93DF93EC01F0
:101880007B01042F8091BE0580FF11C0141614F057
:1018900082E001C081E01F928F9385EE92E09F93DA
:1018A0008F930E94260B0F900F900F900F908090B7
:1018B000910590909205A0909305B09094050E9498
:1018C00097230E94A42786E0080280011124CE15E8
:1018D000DF0531F0CE010E945823C00FD11FF7CF92
:1018E0000E9497238092910590929205A092930571
:1018F000B0929405DF91CF911F910F91FF90EF90DF
:10190000BF90AF909F908F900895EF92FF920F93AA
:101910001F93CF93DF93EC017801D80112968C913D
:10192000FB01A081B181811111C0AC17BD0771F419
:101930008091BE0580FF6EC084EB92E0DF91CF9175
:101940001F910F91FF90EF900C948D0AF6E02F02FB
:10195000C00111248D01081B190B4017510771F0AC
:1019600036E0F70101900D923A95E1F7DB01ED9138
:10197000FC9111978E0F9F1F8D939C938091BE05B4
:1019800080FF48C0022F022E000C110B4C1B5D0B78
:1019900055954795ABEABAEA4A9FC0014B9F900D17
:1019A0005A9F900D1124089FA001099F500D189F68
:1019B000500D11244F5F5F4FFB01808191818C1B83
:1019C0009D0B959587958A9FE0018B9FD00D9A9FDF
:1019D000D00D11240C9FB0010D9F700D1C9F700D38
:1019E0001124121614F082E001C081E05F934F933E
:1019F0007F936F931F928F938EE892E09F938F93C4
:101A00000E94260B8DB79EB708960FB6F8949EBF1E
:101A10000FBE8DBFDF91CF911F910F91FF90EF907F
:101A200008958F929F92AF92BF92CF92DF92EF92E2
:101A3000FF920F931F93CF93DF931F92CDB7DEB723
:101A40007C01890186E0480260011124AA24BB249C
:101A5000AC18BD084B018091BE058E149F0489F01F
:101A6000F401EA0DFB1D9281992359F080FF06C015
:101A70008AE592E049830E948D0A49818C189D086D
:101A8000EACF80FF28C0C4018E199F0995958795DC
:101A90002BEA3AEA829FB001839F700D929F700DEE
:101AA000112446039001479F300D1124141614F0A1
:101AB00082E001C081E03F932F931F928F9380E3D8
:101AC00092E09F938F930E94260B0F900F900F90A0
:101AD0000F900F900F90F801918280820F90DF910C
:101AE000CF911F910F91FF90EF90DF90CF90BF901B
:101AF000AF909F908F9008950F931F93CF938B017A
:101B00002091D604211139C0FB01C281C11185C0C9
:101B1000873EFCE59F07E9F060F4863E9C4509F0AE
:101B20007BC064ED71E084ED94E00E941C0C81E0C8
:101B300017C0893EECE59E07B1F08A3E9C4509F04E
:101B40006BC060910001709101014FEF8EEC94E049
:101B500011C06EEC74E084ED94E00E941C0C82E0F5
:101B60008093D6045AC0609102017091030141E054
:101B700084ED91E00E94350C50C0883E3CE593070F
:101B800029F088F18B3E9C4510F12DC0FB01C281EC
:101B9000CC2309F442C0213061F02230A9F46091D5
:101BA000D4047091D50420E031E04FEF8EEC94E046
:101BB00009C06091D4047091D50422E031E041E085
:101BC00084ED91E00E94110D1092D6040AC080911C
:101BD000BE05C82FC17080FF20C087EF91E00E9432
:101BE0008D0AC0E01AC0213061F02230A9F4409182
:101BF0000201509103012FEF64ED74E08EEC94E04C
:101C000009C0409100015091010121E064ED74E0B0
:101C100084ED91E00E94850CC1E08C2FCF911F9143
:101C20000F910895CF93DF93EC010E94802ABE01AB
:101C300080E090E0DF91CF910C945E270E944B18DA
:101C40006093EF057093F0058093F1059093F20592
:101C500008950F931F93CF93DF938C01EB010E94A4
:101C60007C0D882349F1003181E5180711F0C80186
:101C700002C088EE9CE5BE010E947C0D8823E1F045
:101C8000CA81CC2309F44FC0F801E25DFC45E6317E
:101C9000F10508F079C0EA5AFF4F0C9400370E9412
:101CA000A42772C00E944B186093EF057093F00553
:101CB0008093F1059093F205C0E066C00E94A427CE
:101CC000FBCF81E090E00E94120E0E949723F4CF98
:101CD0008BE009C08CE007C08DE005C08EE003C03A
:101CE00080E101C08FE00E94BE27E6CF84ED91E045
:101CF00002C080ED91E00E94C913DECF0E944C2A01
:101D0000DBCF80EF03C080EF06C081EF0E94C02CC4
:101D100082EF04C081EF0E94C02C83EF0E94C02C90
:101D20000E94AD2DC9CF0F3D9CE51907D9F080F475
:101D30000A5B1C450131110530F50E944B18609378
:101D4000EF057093F0058093F1059093F2050AC0BA
:101D5000013E9CE5190751F038F0023E1C4599F40C
:101D600081EF09C080EF03C080EF05C081EF0E94C2
:101D7000282D82EF03C00E94282D83EF0E94282D7A
:101D80000E94AD2D01C0C82F8C2FDF91CF911F91E4
:101D90000F910895CF92DF92EF92FF92CF93DF934E
:101DA0006B017C010E944B1860FF08C0992331F041
:101DB0009B3A30F4D92FD695D90F03C0D8E701C08C
:101DC000DFEFC62FC695CF738C2F90E003970CF0F2
:101DD000C1E0C701B6010E94CC298D3059F178F4D9
:101DE0008B30E1F08C3009F045C00E943F1B8C2FF6
:101DF0000E949E1A4D2F6FEF8AE590E024C08F302D
:101E000079F120F18031B1F50E943F1B8C2F0E94A7
:101E10009E1A4D2F60EB80E190E015C00E943F1BA1
:101E20008C2F0E949E1A4D2F6FEF80EF90E00E9442
:101E30004F192CC00E943F1B8C2F0E949E1A4D2FC1
:101E40006FEF86E990E00E94981920C00E943F1B26
:101E50008C2F0E949E1A4D2F6FEF8CE390E0F3CFF2
:101E60000E943F1B8C2F0E949E1A4D2F6AED8BE221
:101E700090E0E9CF0E9475186091EF057091F00530
:101E80008091F1059091F2050E941D1CC701B601D9
:101E9000DF91CF91FF90EF90DF90CF9008951F9347
:101EA000CF93DF93662381F0182FC62FC695D0E01D
:101EB000DC1751F0812F0E94671F812F0E945E2046
:101EC000D03111F0DF5FF4CFDF91CF911F910895F2
:101ED000FC018081813049F4878181111CC080859B
:101EE0008823C9F082E090E00895823049F4878128
:101EF000811114C08085811114C083E090E00895A1
:101F0000833091F48781811112C08085882379F014
:101F100087E090E0089581E090E0089585E090E00A
:101F2000089584E090E0089588E090E0089586E0C8
:101F300090E008950E94680F9093E5048093E40474
:101F4000FC013197E730F10590F4E459FF4F0C9410
:101F500000378BE003C08BE008C08CE00C940428B1
:101F60008CE003C08EE0FACF8EE00C94BE2708957B
:101F70000E94680F9093E0048093DF048330910502
:101F8000A9F034F48130910569F0029769F0089561
:101F90008630910571F08730910571F0049779F4DE
:101FA0008EE00BC088E206C08BE007C08CE00C948A
:101FB000042882EB0C94671F80E10C94A9270895F4
:101FC0000E94680F9093DE048093DD0483309105B6
:101FD00091F034F48130910549F0029751F0089561
:101FE0008430910551F0059759F0089589E20C94D9
:101FF000671F8BE003C00C94A4278CE00C94A927E6
:102000008DEA91E00C94C9130E94680F9093DA0452
:102010008093D9048330910581F034F481309105A7
:1020200049F0029739F008958430910549F00597F9
:1020300051F0089583EE0C94671F82EA91E005C089
:1020400086E991E002C084E891E00C94C9130E94F3
:10205000680F9093D8048093D7048130910519F0CC
:10206000029719F008950C94B3108EE00C94A927F0
:10207000FC018081813031F48085882399F082E0F1
:1020800090E00895823031F4808581110EC083E0A4
:1020900090E00895833061F48085882361F087E0C3
:1020A00090E0089581E090E0089584E090E0089544
:1020B00088E090E0089586E090E008950E9438104E
:1020C0009093E3048093E20483309105E9F05CF49B
:1020D00081309105F9F08230910521F581EE0E9461
:1020E000671F80EE18C08630910541F0873091055A
:1020F000A1F084309105B1F480EE10C08BE20E9413
:10210000671F8BE20E945E208BE20E94671F8BE2BA
:102110000E945E208BE20C94671F81EE0E94671F75
:1021200082EEF9CF682F8BE290E00C944F0F0E9463
:1021300038109093DC048093DB048230910561F0C9
:102140008330910529F0019739F463E08EE002C0F5
:1021500063E080E10C942E2981EE0C94671F81E0EE
:1021600008950C94290E0E9497232FEF84E39CE09E
:10217000215080409040E1F700C000000C94012CF9
:10218000FF920F931F93CF93DF938C01FC01C081CB
:10219000D18180912605811113C08281882349F065
:1021A000CE010E94B728F82E682FCE010E945C282D
:1021B00004C0CE010E948B28F82EBE018F2D04C0D2
:1021C000CE010E94B728BE010E94D913EC01B801CC
:1021D0000E94CA1CB801CE010E94B110882309F4E4
:1021E00078C2B801CE010E940C1D882309F471C287
:1021F000B801CE010E943516882309F46AC2C23C98
:10220000FCE5DF0741F4F8018281882309F461C20B
:102210000E94031C5EC2C33C8CE5D80708F019C1BC
:10222000CB3B9CE5D90761F4F8018281882309F44E
:1022300050C20E9488298272E1F00E94361B49C276
:10224000CC3BECE5DE07C0F0CE3B9CE5D90709F4BA
:10225000D1C008F0E3C0CC3BFCE5DF0709F0D2C0F9
:10226000F8018281882309F434C20E94882982728D
:1022700021F30E94331B2DC2C531FCE5DF0708F0B6
:1022800082C0C2308CE5D80708F452C0F8018281C0
:10229000882309F459C00E946D2A811102C00E944E
:1022A0004C2A0E94852A90E0909332068093310652
:1022B000FE01E350FC45E231F10530F4ED58FF4FEB
:1022C000809131060C94003780913106816027C0DF
:1022D000826025C0846023C0806121C080621FC0ED
:1022E00080641DC080681BC08460886018C08E7FB9
:1022F00016C08D7F14C08B7F12C08F7E10C08F7D63
:102300000EC08F7B0CC08F770AC08B7F877F07C082
:1023100087FB222720F991E0922790FB87F9809391
:102320003106809131060E94892A0E949723D1C1EB
:10233000C1159CE5D90781F0C130DC45A9F081E0E9
:102340008093EB048093EC04C801DF91CF911F913F
:102350000F91FF900C94AF10F8018281882309F44B
:10236000B8C10E94B310B5C1F8018281882309F475
:10237000B0C18091BE0581608093BE058FE19DE074
:102380000E948D0AA6C1C531FCE5DF0739F50E9420
:102390008829282FF8018281409191015091920162
:1023A000882379F02A7A91E009F490E09093E6048A
:1023B000911102C069E201C065E3CA010E940C2BC1
:1023C0000AC08091E604811102C069E201C065E3A0
:1023D000CA010E94172B0E9455297BC1CA3BDC45CC
:1023E00009F0ADCFF8018281882309F472C10E94FF
:1023F000651B6FC1F8018281882309F46AC10E94BC
:10240000941B67C1CD3BDC4509F099CFF80182816F
:10241000882309F45EC10E947C1B5BC1F8018281A4
:10242000C03CFCE5DF0731F4882309F452C10E9467
:10243000CE1B4FC1C13CDC4530F4882309F449C1AF
:102440000E94B31B46C1882309F443C10E94E81BC4
:1024500040C1C93CECE5DE0749F4F80182818823DC
:1024600009F437C188E10E949E1A33C1CA3CFCE5D9
:10247000DF0708F088C0C53C8CE5D807B1F4F80147
:102480008281882309F425C10E94EA18663071050B
:102490008105910540F00E94EA18683071058105B8
:1024A000910508F4E6CE86E0DECFC63C9CE5D90770
:1024B00028F5C33CECE5DE0739F4F8018281882376
:1024C00009F407C181E0CFCFC43CDC4509F037CF28
:1024D000F8018281882309F4FCC00E94EA18623066
:1024E00071058105910540F00E94EA18653071057B
:1024F0008105910508F4BDCE82E0B5CFF801828157
:10250000C73CFCE5DF07A1F4882309F4E2C00E9480
:10251000EA186F3071058105910540F00E94EA18B4
:10252000643171058105910508F4A3CE8FE09BCF3E
:10253000C83CDC45A0F4882309F4CBC00E94EA180B
:10254000693071058105910540F00E94EA186E30EE
:1025500071058105910508F48CCE89E084CF88232C
:1025600009F4B7C00E94EA1865317105810591052B
:1025700040F00E94EA18673171058105910508F461
:1025800078CE85E170CFCC3CECE5DE0739F5F8017B
:102590008281882361F01092EC040E94A52B909315
:1025A000EA048093E90480E20E94BD2092C08091F9
:1025B000EC0481110FC08091E9049091EA040E941B
:1025C000B12B883C910530F487E20E94671F87E2B7
:1025D0000E945E2080E20E94C4207BC0CD3CFCE5CE
:1025E000DF0708F041C0CA3C8CE5D807B1F4F80118
:1025F0008281882309F46DC00E94EA18693171054F
:102600008105910540F00E94EA186232710581054A
:10261000910508F42ECE89E126CFCB3CDC4509F0AC
:102620008ECEF8018281882351F01092EB040E9433
:10263000A52B9093E8048093E70482E0B5CF8091C6
:10264000EB0481110FC08091E7049091E8040E948F
:10265000B12B883C910530F486E20E94671F86E228
:102660000E945E2082E0B7CFC03DECE5DE0731F48A
:10267000F8018281882369F180E009C0C13DFCE551
:10268000DF0741F4F8018281882319F182E00E947A
:1026900004321FC0CD3CDC4509F051CEF8018281E7
:1026A000811179CF8091EC04811194CF8091E9045C
:1026B0009091EA040E94B12B883C910508F08ACFE2
:1026C00080E20E94C42088E20E94671F88E20E9484
:1026D0005E2080E0DF91CF911F910F91FF900895D0
:1026E000CF93282F30E0F901E05DF24FC491F9015A
:1026F000E055F24F2491222359F081EE0E94671F8A
:102700008C2F0E94671F8C2F0E945E2081EE04C0D8
:102710008C2F0E94671F8C2FCF910C945E200F93FB
:102720001F93CF93DF93EC01062FFE018491882342
:1027300059F19E012F5F3F4F813041F4E901F901CA
:102740001491812F0E94671F812F0DC0823031F4B8
:10275000E901F90184910E94671F0AC0833031F4B6
:10276000E901F90184910E945E2002C00E94701369
:102770002196802F8823C9F2EFE9FFE03197F1F726
:1027800000C000008150F6CFDF91CF911F910F91D3
:10279000089560E00C948F130C94340B0E94681D14
:1027A0000C942F0B08950C94380B80E090E0089562
:1027B00008959FE0799FF00111249BE4899FE00D2B
:1027C000F11D1124E60FF11DEE0FFF1FE75DFC4F19
:1027D000859194910895880F991FFC01E05DF14F58
:1027E000859194910895CF93DF930E94D9130E940D
:1027F0008B15EC01811520E49207B0F5811540E3BB
:10280000940708F0E1C0803E9105D0F4803C91052A
:1028100008F06FC0883A910570F4853A910508F088
:102820006BC08130910509F472C108F429C1049785
:1028300008F06DC125C18D3B910508F468C020C129
:102840008F3F910509F048F4803F910508F0B6C02C
:10285000883E910508F45BC113C1811550E29507CC
:1028600008F455C19F70ACC0811564E59607D8F493
:10287000C11583E5D80708F0E2C0C11521E5D207EC
:1028800040F4C11540E5D40708F0A7C0DF70D06A56
:102890003EC1C11552E5D50708F0BBC0DC2FCC27DF
:1028A000C16FD06A34C1811566E5960750F4C11531
:1028B00085E5D80708F0D9C0DC2FCC27C46FD06AD3
:1028C00026C1811528E5920708F4DAC0811549E58B
:1028D000940708F4D0C090568115904208F0D0C0FB
:1028E0008D2F8F710E940816DD27D0628F71D82B33
:1028F0000EC1805C910964C0853A910509F4C3C09A
:10290000863A910509F0C2C0C2E8D0E400C1883A15
:10291000910509F4BEC0893A910509F4BDC08A3A0F
:10292000910509F4BCC08B3A910509F4BBC08C3AFF
:10293000910509F4BAC08B3B910509F4B9C08C3BF1
:10294000910509F4B8C08D3A910509F4B7C0803BF0
:10295000910509F4B6C08E3A910509F4B5C08F3AD5
:10296000910509F4B4C0813B910509F4B3C0823BE1
:10297000910509F4B2C0833B910509F4B1C0843BD1
:10298000910509F4B0C0853B910509F4AFC0863BC1
:10299000910509F4AEC0873B910509F4ADC0883BB1
:1029A000910509F4ACC0893B910509F4ABC08A3BA1
:1029B000910509F4AAC0C0E0D4E4A9C0D065A7C0BD
:1029C0000E94EB13EC01A3C09927D3FF03C0EC01D5
:1029D000D86C9DC0EC01D06C9AC02C2F237081E084
:1029E00090E002C0880F991F2A95E2F79C689E012B
:1029F00044E0369527954A95E1F72370922BCF70E6
:102A0000C695C69560E2C69FE0011124C82BD92B5C
:102A10007EC02C2F2695269580E2289F90011124B8
:102A2000C370DD2781E090E0AC0102C0440F551F68
:102A3000CA95E2F7EA01C22BD32BDC6868C02C2FC1
:102A40002695269580E2289F90011124C370DD27EA
:102A500081E090E0AC0102C0440F551FCA95E2F737
:102A6000EA01C22BD32BDA6852C0CF71DD27DC2FED
:102A7000CC27D0624CC0DC2FCC27C06FD06A47C0B7
:102A8000C0E0D0E044C0C1E8D0E441C0C3E8D0E435
:102A90003EC0C2EED4E43BC0C9EED4E438C0CAEEB6
:102AA000D4E435C0C5EBD4E432C0C6EBD4E42FC0C7
:102AB000C3EBD4E42CC0C4EBD4E429C0C7EBD4E40A
:102AC00026C0CCECD4E423C0CDECD4E420C0C3E8D1
:102AD000D5E41DC0CAE8D5E41AC0C2E9D5E417C0E0
:102AE000C4E9D5E414C0C1E2D6E411C0C3E2D6E41F
:102AF0000EC0C4E2D6E40BC0C5E2D6E408C0C6E20C
:102B0000D6E405C0C7E2D6E402C0CAE2D6E4CE01EC
:102B1000DF91CF9108958238910549F1B0F4813366
:102B2000910509F458C048F48932910509F44EC062
:102B30008A32910509F454C008958533910509F44A
:102B400040C08933910599F00895833E910529F19C
:102B500038F4803E910591F0823E9105A1F00895F0
:102B6000863E9105F9F0873E910531F10895209157
:102B7000310620FD3AC021FD38C00895809131060C
:102B800080FD35C032C08091310682FF32C0809115
:102B9000310684FD30C083EE39C08091310682FD5C
:102BA00028C0F5CF8091310683FF27C08091310680
:102BB00084FD21C087EE2AC08091310683FD1DC0AF
:102BC000F5CF8091310685FD1AC01BC0809131067A
:102BD00085FD17C014C08091310686FD14C015C054
:102BE0008091310686FD11C00EC080EE0FC089E3D2
:102BF0000DC082EE0BC080E009C086EE07C089E2FE
:102C000005C085E303C08AE201C081E390E0089536
:102C1000CF93C82F0E94852A90E09093320680932C
:102C2000310682FF0DC09C2F9871983019F4C77F30
:102C3000C46006C09C2F9471943011F4CB7FC8609F
:102C400083FF0DC09C2F9871983119F4C77EC46121
:102C500006C09C2F9471943111F4CB7EC86184FD21
:102C6000C77E8C2FCF91089508950F931F93CF9314
:102C7000FB012281211102C0C1E041C08C01C09141
:102C8000FA04C11125C086319C45B1F70E94341663
:102C900081E08093FA040E94A52B9093F90480931D
:102CA000F8041092ED041092EF041092EE041092CA
:102CB000F1041092F0041092F3041092F2041092B6
:102CC000F5041092F4041092F7041092F60417C061
:102CD0008091F8049091F9040E94B12B883C9105F1
:102CE00058F69091ED04E92FF0E0EE0FFF1FE2514E
:102CF000FB4F118300839F5F9093ED04C0E08C2F06
:102D0000CF911F910F910895089585B7806885BF71
:102D100085B7806885BFA3EBB1E041E050E025E0D6
:102D20002A0F8D91E82FE295EF70F0E031A18F70BE
:102D3000BA0102C0660F771F8A95E2F7CB01962F82
:102D40009095932391A392A1892B82A32A13E9CF73
:102D5000A4EAB1E041E050E02FE02A0F8D91E82F86
:102D6000E295EF70F0E031A18F70BA0102C0660FFA
:102D7000771F8A95E2F7CB01962F9095932391A325
:102D800092A1892B82A32A13E9CFE5E0F5E0ABEF0E
:102D9000B4E0119211921D921D9275E0EF30F70789
:102DA000C1F70C94CC132F923F925F926F927F9257
:102DB0008F929F92AF92BF92CF92DF92EF92FF924B
:102DC0000F931F93CF93DF9323EBC22E21E0D22EDC
:102DD0000BEF14E0E801EE24E394F12C66246394F5
:102DE0005E018880998019821882D6018D916D01CB
:102DF000E82FE295EF70F0E021A18F70A70102C0EB
:102E0000440F551F8A95E2F7CA01242B21A322A162
:102E1000742E7094272122A350EA5A95F1F794EA70
:102E2000292E91E0392E20E030E0D1017D911D0165
:102E3000472F42954F7050E0DA0190965C904881A0
:102E400059817F70D70102C0AA0FBB1F7A95E2F7A4
:102E5000BD01652141F4B701022E02C0660F771F44
:102E60000A94E2F702C060E070E0462B572B5983CA
:102E700048832F5F3F4F2F303105B9F691A179225A
:102E800071A292A1892B82A32296F5018081918162
:102E90008816990641F060920F050E94A52B909329
:102EA000110580931005F5E0C530DF0709F098CFD4
:102EB00080910F058823B1F0809110059091110544
:102EC0000E94B12B069770F0E5E0F5E0D8018D91F6
:102ED0009D918D0181939193B5E005301B07B1F76A
:102EE00010920F050E94CE1381E0DF91CF911F91C8
:102EF0000F91FF90EF90DF90CF90BF90AF909F9099
:102F00008F907F906F905F903F902F900895E82F63
:102F1000F0E0EE0FFF1FEB5FFA4F80819181089583
:102F2000CF92DF92EF92FF920F931F93CF93DF9395
:102F300080E49EE00E948D0A85E0E82E85E0F82E70
:102F4000C0E0D0E09BE3C92E9EE0D92E02E31EE054
:102F5000DF93CF93DF92CF920E94260B88E39EE00F
:102F60000E948D0AF701819191917F010E94322A7E
:102F70009F938F931F930F930E94260B80E39EE0F5
:102F80000E948D0A21968DB79EB708960FB6F894C9
:102F90009EBF0FBE8DBFC530D105D1F6DF91CF9159
:102FA0001F910F91FF90EF90DF90CF900895EF92D7
:102FB000FF920F931F93CF93DF93E901662309F4E8
:102FC0004BC0242F30E0EFEFF0E0E61BF109B90130
:102FD000E69F9001E79F300DF69F300D1124232FBF
:102FE0008B01031B11095CE3E52EF12CB7010E9454
:102FF000D836FB01BC01069FC001079F900D169FAC
:10300000900D1124B7010E94D836E230F105B1F0DD
:1030100040F4309779F0319711F5832F242F461B18
:1030200021C0E430F105A1F068F03597C1F4842F98
:10303000861B18C0832F262F230F14C0862F830FC3
:10304000E42F03C0E42FE61B842F432F2E2F0AC04A
:10305000842F462F430F06C0842F242F03C080E007
:1030600020E040E0E42FF0E0E855FF4E4491E22FED
:10307000F0E0E855FF4E9491E82FF0E0E855FF4E60
:10308000E49149839883EA83DF91CF911F910F9157
:10309000FF90EF90089588E090E00C940E37AB011C
:1030A000BC0188E090E00C942C378091BE0580FF35
:1030B00008C08CE790E19F938F930E94260B0F909E
:1030C0000F9083E08093F3051092F4058FEF8093C7
:1030D000F5058093F6056091F3057091F4058091F4
:1030E000F5059091F6050C944F188091BE0580FF70
:1030F00008C085E690E19F938F930E94260B0F9066
:103100000F908091BE0580FF0FC08091F305817004
:103110001F928F9388E490E19F938F930E94260BD8
:103120000F900F900F900F908091BE0580FF10C000
:103130008091F30586958F731F928F938DE290E1B6
:103140009F938F930E94260B0F900F900F900F90DC
:103150008091BE0580FF19C08091F305881F8827E4
:10316000881F9091F405292F220F822B97FB992716
:1031700090F99F938F9383E190E19F938F930E94A7
:10318000260B0F900F900F900F908091BE0580FF3F
:103190000EC08091F5051F928F9389EF9FE09F935A
:1031A0008F930E94260B0F900F900F900F9080919D
:1031B000BE0580FF0EC08091F6051F928F938FEDA4
:1031C0009FE09F938F930E94260B0F900F900F907C
:1031D0000F9008956091F30560FF06C066956F73C8
:1031E00070E080E090E0089560E070E0CB01089529
:1031F0008091F30580FF06C060E170E08BEF95E001
:103200000C94631C80E090E0FC01E550FA4F1182C1
:1032100010821282039680339105B1F7EDCFCF93E0
:10322000DF93C3EFD5E088818E7F88836091F305BB
:103230007091F4058091F5059091F6050E944F1864
:10324000888181701F928F9383EA9EE09F938F9372
:103250000E94260B2FEF80E792E0215080409040A3
:10326000E1F700C000000F900F900F900F90DF91DA
:10327000CF910C94F8189091F30590FF0FC020E0C7
:1032800030E0F901E550FA4F8183608342832D5F7E
:103290003F4F20333105A9F70C94F8180895EF92A9
:1032A000FF920F931F93CF93DF9300D01F92CDB760
:1032B000DEB70091F3051091F4052091F5053091EA
:1032C000F6050093F7051093F8052093F905309360
:1032D000FA052091F30520FF21C0042FF62EE92ED8
:1032E000182F9E012F5F3F4F0E94D7178091F7053F
:1032F00010FB87F98093F70516958091F805807883
:10330000182BE0FA17F91093F805F092F9050093DD
:10331000FA054B8169818A810E943B190F900F90B9
:103320000F90DF91CF911F910F91FF90EF90089533
:103330002F923F924F925F926F927F928F929F92C5
:10334000AF92BF92CF92DF92EF92FF920F931F93B3
:10335000CF93DF9300D000D01F92CDB7DEB79D830F
:103360008C83262E342E8091F30580FFCFC0982FBA
:103370009E77923029F48C819D810E944F1984C0E0
:10338000E82FE695EF739EE39E0F9F73943018F439
:103390003090F60579C09AE39E0F9F73993070F4D0
:1033A000881F8827881F9091F405292F220F282B2A
:1033B0002C8397FB992790F99D8366C087E28E0F37
:1033C0008F738A3008F060C0F0E07997E0FD03C0A9
:1033D00021E0298302C03FEF3983EE7FE256FF4EA2
:1033E000A590B4908981882E880F9908C50124E0A2
:1033F000969587952A95E1F7889E3001899E700CF5
:10340000989E700C1124CC80DD8098E9C91A9EEF3B
:10341000D90A3BEFE32E35E0F32E00E010E048E65A
:10342000442E55245394C601B2010E94D8362091EF
:10343000BE0520FF18C0BF92AF929F92A981AF93A3
:103440009F938F931F930F93ACE7BEE0BF93AF930F
:103450008A839B830E94260B0FB6F894DEBF0FBEB3
:10346000CDBF9B818A819701432D622D0E94D71782
:103470000F5F1F4FC60CD71CB3E0EB0EF11C0031E1
:10348000110589F60E94F8188091F3052C8120FB24
:1034900087F98093F305922F96958091F4058078B3
:1034A000892B3D8130FB87F98093F4052092F50547
:1034B0003092F6056091F3057091F4058091F50561
:1034C0009091F6050E944F188091F6051F928F93F8
:1034D0008091F5051F928F938091F305881F8827AF
:1034E000881F9091F405292F220F822B97FB992793
:1034F00090F99F938F9387E59EE09F938F930E940F
:10350000260B0FB6F894DEBF0FBECDBF0F900F9005
:103510000F900F900F90DF91CF911F910F91FF901F
:10352000EF90DF90CF90BF90AF909F908F907F9063
:103530006F905F904F903F902F9008958091F3058A
:1035400080FF31C0817882608093F3056091F3053C
:103550007091F4058091F5059091F6050E944F1841
:103560008091F30586958F731F928F938EE29FE073
:103570009F938F930E94260B0F900F900F900F90A8
:103580008091F305881F8827881F9091F405292FC3
:10359000220F97FB992790F94091F6056091F50568
:1035A000822B0C94981908958091BE0581608093B8
:1035B000BE0588EC9FE09F938F930E94260B81E0CD
:1035C000809312058091BE050F900F9080FF08C078
:1035D00082EB9FE09F938F930E94260B0F900F909A
:1035E0000E946D2A811110C08091BE0580FF08C025
:1035F0008AE89FE09F938F930E94260B0F900F9075
:103600000E944C2A0E9455180E944B186093F305A3
:103610007093F4058093F5059093F6056E77C1F4E9
:103620008091BE0580FF08C081E49FE09F938F9347
:103630000E94260B0F900F900E9455180E944B1865
:103640006093F3057093F4058093F5059093F60568
:103650000E9475188091F30580FF04C086958F73D2
:103660000C949E1A089581E00C949E1A8091F305A3
:1036700086958F73815009F481E00C949E1ACF9344
:10368000DF93C3EFD5E08881816088836091F30583
:103690007091F4058091F5059091F6050E944F1800
:1036A000888181701F928F9382ED9EE09F938F930C
:1036B0000E94260B0F900F900F900F908881869597
:1036C0008F73DF91CF910C949E1A8091F3058095B2
:1036D00081701F928F9380E09FE09F938F930E9451
:1036E000260B8091F3050F900F900F900F9080FDA7
:1036F0000C940F190C943F1BE3EFF5E02081221F7F
:103700002227221F3091F405432F440F842F822B50
:1037100037FB992790F9089668E671E00E94EC362D
:10372000438162810C9498192091F305221F22276E
:10373000221F3091F405432F440F842F822B37FB37
:10374000992790F9883091051CF4805A9E4F01C04A
:10375000089768E671E00E94EC364091F6056091AA
:10376000F5050C9498196091F505862F90E0883F37
:10377000910514F4685F01C06FEF8091F305881F15
:103780008827881F9091F405292F220F97FB9927EE
:1037900090F94091F605822B0C9498196091F505EB
:1037A000862F90E0089714F0685001C060E0809187
:1037B000F305881F8827881F9091F405292F220F71
:1037C00097FB992790F94091F605822B0C94981954
:1037D0004091F605842F90E0883F910514F4485FEE
:1037E00001C04FEF8091F305881F8827881F9091B3
:1037F000F405292F220F97FB992790F96091F50581
:10380000822B0C9498194091F605842F90E008972C
:1038100014F0485001C040E08091F305881F8827CC
:10382000881F9091F405292F220F97FB992790F973
:103830006091F505822B0C9498196093F3057093B1
:10384000F4058093F5059093F6050E944F1880913A
:10385000F30580FF04C086958F730C949E1A0C9418
:10386000F8182EB1342F309523233EB1432B3FB7A8
:10387000F894FC01680F791FE617F70789F081912A
:1038800098E04EB9000000C087FF2EB9880F0000F5
:1038900000C000C000C02EB900C09A9591F7ECCFCF
:1038A0003FBF08952DB1242B2DB99B01220F331F4B
:1038B000620F731F0E94311C87EC90E00197F1F7B3
:1038C00000C00000089544E00C94521CCF93DF9395
:1038D000FC012785211116C0EC0181E087878781D3
:1038E0000E948B2988850E949E290E945529EA8181
:1038F000FB816A897B89CE010696309719F0DF91AA
:10390000CF910994DF91CF910895EF92FF920F9399
:103910001F93CF93DF93FC012085211134C0EC016C
:10392000E380F480F7E5FF1A24E12E9DC0012F9D6E
:10393000900D1124DC01AC5FBE4F1496ED91FC910B
:10394000159752966D917C915397865F9E4F309755
:1039500009F0099584E18E9D80018F9D100D112441
:103960000C5F1E4FF80187810E949129F801808524
:103970000E94A4290E94552918821F82198610923C
:10398000140510921305DF91CF911F910F91FF90B5
:10399000EF900895DF92EF92FF920F931F93CF93D2
:1039A000DF93FB012281222379F1209190012F3FA7
:1039B00059F18C01CAE0D1E0E12CF12CDD24D39443
:1039C00080919001082E000C990B8E159F05E4F054
:1039D00088818823A1F08B819C810817190739F40D
:1039E00080911305909114050817190741F0DF82A3
:1039F000CE0106970E94661CCE010E94851CFFEF37
:103A0000EF1AFF0A6496DCCFDF91CF911F910F91DF
:103A1000FF90EF90DF900895EF92FF920F931F9326
:103A2000CF93DF939C0137552F3F310511F008F0FC
:103A300047C040919001042E000C550B42175307CC
:103A400014F420939001FB017C01828194E1929F08
:103A50008001939F100D1124E801CC5FDE4F8E870B
:103A600092818E81992311F1FA86E9868F5F8E8388
:103A70000E94A52B9C878B870E94C4298F830E945C
:103A8000882988870E949B299885892B8887E881C7
:103A9000F9816A897B89C801865F9E4F309709F05A
:103AA0000995F0921405E09213050AC0882341F0AD
:103AB0008F85882329F0C801865F9E4F0E94851C50
:103AC00081E0DF91CF911F910F91FF90EF900895CA
:103AD000CF92DF92EF92FF920F931F93CF93DF93DA
:103AE000809190018F3FC1F1C0E0D4E12C2F30E0F4
:103AF00080919001082E000C990B8217930764F1B6
:103B0000D29FF001D39FF00D1124EC5FFE4FE088AF
:103B1000F188E114F10419F488ECE82EF12CD29F1D
:103B20006001D39FD00C112486010C5F1E4FF80159
:103B30008681882379F0838594850E94B12BE816CD
:103B4000F90640F4C8010E94661CC601865F9E4FBC
:103B50000E94851CCF5FCACFDF91CF911F910F913B
:103B6000FF90EF90DF90CF90089590931A05809387
:103B700019050895E0911905F0911A05309721F083
:103B80000190F081E02D099480E00895EF92FF927A
:103B90000F931F93CF93DF93E0911905F0911A05CE
:103BA0003097B1F18C010280F381E02D099580916D
:103BB000BE0582FF2DC080FF04C080EB91E10E9412
:103BC0008D0AE80110E28AEAE82E81E1F82E809160
:103BD000BE0580FF0BC088811F928F93FF92EF92EA
:103BE0000E94260B0F900F900F900F90115021966E
:103BF0001111EDCF8091BE0580FF0AC088EA91E1E6
:103C0000DF91CF911F910F91FF90EF900C948D0A4F
:103C1000DF91CF911F910F91FF90EF900895E09168
:103C20001905F0911A05309721F00480F581E02DF7
:103C3000099408952091170530911805821793076C
:103C400071F09093180580931705E0911905F09194
:103C50001A05309721F00680F781E02D0994089528
:103C600020911505309116058217930771F09093F6
:103C7000160580931505E0911905F0911A05309706
:103C800021F00084F185E02D0994089508950C94A5
:103C9000461E81E008950E949C2B0E9485160E947A
:103CA000252C0C94D41ACF93C82F8091BE0582FF87
:103CB0001EC080FF04C089EC91E10E948D0A8091B2
:103CC000BE0580FF0CC01F92CF9384EC91E19F93BF
:103CD0008F930E94260B0F900F900F900F90809162
:103CE000BE0580FF04C082EC91E10E948D0A8C2FFA
:103CF000CF910C94D3134F925F927F928F929F92A9
:103D0000AF92BF92CF92DF92EF92FF920F931F93E9
:103D1000CF93DF93CDB7DEB72A970FB6F894DEBF07
:103D20000FBECDBF0E94D3160E94491E811111C043
:103D30008FEF89838A831B820E94A52B8160782F55
:103D40009D838C8349815A816B818D810E94391FAB
:103D500057C09CE1C92E95E0D92E00E010E0AA24BE
:103D6000A394B12C702E802F0E9487174C01F6016E
:103D7000419051906F01482659264114510431F465
:103D80000F5F1F4F0530110569F7D2CF8091BE0537
:103D900081FD0E94901720E030E07501022E02C0E4
:103DA000EE0CFF1C0A94E2F7C70184219521892BB0
:103DB00009F12E837F828E209F2091E0892809F4CB
:103DC00090E098870E94A52B8160782F9A87898739
:103DD0004E815F8168858A850E94391F000F111FFF
:103DE000F801E45EFA4F80819181E826F926F1829C
:103DF000E08206C02F5F3F4F2F30310571F6C0CFF4
:103E00000E943A2E10911B050E94BA1D1817D9F076
:103E10000E94BA1D80931B052A960FB6F894DEBF48
:103E20000FBECDBFDF91CF911F910F91FF90EF900B
:103E3000DF90CF90BF90AF909F908F907F905F90DA
:103E40004F900C94531E2A960FB6F894DEBF0FBE07
:103E5000CDBFDF91CF911F910F91FF90EF90DF9039
:103E6000CF90BF90AF909F908F907F905F904F903A
:103E70000895CF93DF93CDB7DEB72B970FB6F894A5
:103E8000DEBF0FBECDBF4F83588769877A878B8788
:103E9000DE01119686E0FD0111928A95E9F785E031
:103EA000FE01379601900D928A95E1F749815A817A
:103EB0006B817C818D819E810E942F262B960FB66F
:103EC000F894DEBF0FBECDBFDF91CF910895882358
:103ED00009F4F3C0682F8238C1F40E94BA1D81FD35
:103EE000ECC069E380919101909192010E940C2BAA
:103EF0000E9455292FEF81EE94E0215080409040A0
:103F0000E1F700C0000069E319C08338F9F40E94AA
:103F1000BA1D80FDD2C063E580919101909192011C
:103F20000E940C2B0E9455292FEF81EE94E0215026
:103F300080409040E1F700C0000063E5809191016E
:103F4000909192010E94172B0C9455298438C1F44A
:103F50000E94BA1D82FDB1C067E4809191019091E9
:103F600092010E940C2B0E9455292FEF81EE94E0C4
:103F7000215080409040E1F700C0000067E4DECFB0
:103F80008CEF860F813A38F48091910190919201E3
:103F90000E940C2BD9CF80E2860F883048F46770DE
:103FA00081E001C0880F6A95EAF70E948B29CCCF87
:103FB0008BE5860F833070F4653A29F0663A31F06C
:103FC00083E890E005C081E890E002C082E890E0DC
:103FD0000C941A1E88E5860F853108F06EC0683A89
:103FE00061F1693A69F16A3A71F16B3A79F16C3AC7
:103FF00081F16B3B89F16C3B91F16D3A99F1603B3A
:10400000A1F16E3AA9F16F3AB1F1613BB9F1623BAE
:10401000C1F1633BC9F1643BD1F1653BD9F1663B2A
:10402000E1F1673BE9F1683BF1F1693BF9F16A3B8A
:1040300009F43FC080E090E03EC082EE90E03BC0DB
:1040400089EE90E038C08AEE90E035C085EB90E0D4
:1040500032C086EB90E02FC083EB90E02CC084EB65
:1040600090E029C087EB90E026C08CEC90E023C064
:104070008DEC90E020C083E891E01DC08AE891E0DB
:104080001AC082E991E017C084E991E014C081E28E
:1040900092E011C083E292E00EC084E292E00BC095
:1040A00085E292E008C086E292E005C087E292E0F5
:1040B00002C08AE292E00C94301E0895882309F42D
:1040C0005BC0682F823879F40E94BA1D81FF54C00A
:1040D00069E380919101909192010E940C2B0E94C2
:1040E000552969E310C08338B1F40E94BA1D80FFDE
:1040F00043C063E580919101909192010E940C2B45
:104100000E94552963E580919101909192010E944E
:10411000172B0C945529843879F40E94BA1D82FF1C
:104120002BC067E480919101909192010E940C2B29
:104130000E94552967E4E7CF8CEF860F813A18F388
:1041400080E2860F883048F4677081E001C0880FF4
:104150006A95EAF70E949129DCCF8BE5860F8330C0
:1041600020F480E090E00C941A1E685A653120F427
:1041700080E090E00C94301E0895882321F00E9486
:104180008B290C9455290895882321F00E949129A8
:104190000C94552908954F925F926F927F92AF923F
:1041A000BF92CF92DF92EF92FF920F931F93CF9324
:1041B000DF931F92CDB7DEB77C01A72EFC010581EE
:1041C00002950F701281112321F069830E94AB299F
:1041D000698169830E944E296981882381F01123B6
:1041E00071F080E2860F883050F082E00E9437291B
:1041F0000E944E2991E0B82EB926698101C0B12CE8
:10420000CA2CC2948FE0C822D12CF601EB57FF4F85
:104210000C9400378A2D807F0A2D0F70882311F0AF
:104220000295007F1123C1F0002309F4DCC180E274
:10423000860F883010F0611105C0802F69830E94BD
:104240008B2904C0802F69830E949E29698169831C
:104250000E9455296981C7C1862F69830E945E200B
:104260006981002309F4E2C180E2860F883010F0F2
:10427000611104C0802F0E94912903C0802F0E94E9
:10428000A4290E945529D2C18A2D807F9A2D9F7022
:10429000803211F4892F03C0892F8295807F662395
:1042A00019F06130B1F01FC0112349F0002309F467
:1042B00052C1013009F04FC10E94BE29B7C100238D
:1042C00019F0013009F4B2C189830E94C1298981A2
:1042D00048C1112321F0063008F0A8C13CC10530C7
:1042E00008F0A4C13EC1112351F0002309F433C1E9
:1042F000F701958190FF77C19F7095832CC10023B2
:1043000009F42FC181C18A2D86958695837090E02E
:10431000009719F0019761F089C1112321F0862FD0
:104320009A2D937002C080E090E00E941A1E8EC108
:10433000112321F0862F9A2D937002C080E090E027
:104340000E94301E83C11123F9F0653F51F0663F92
:1043500071F0643FA9F480912B0690912C06816046
:104360000BC080912B0690912C06826005C0809135
:104370002B0690912C06846090932C0680932B063C
:10438000862F0E94C02C1EC0653F51F0663F71F021
:10439000643FA9F480912B0690912C068E7F0BC070
:1043A00080912B0690912C068D7F05C080912B0665
:1043B00090912C068B7F90932C0680932B06862F52
:1043C0000E94282D0E94AD2D41C18A2D837009F0D5
:1043D00052C0111137C1862F829586958770880F3C
:1043E000880F962F9F70492E512C612C712C082E0E
:1043F00004C0440C551C661C771C0A94D2F764FF59
:1044000014C00FE010E020E030E0B901A80104C0C2
:10441000440F551F661F771F8A95D2F7CB01BA014B
:10442000609570958095909503C060E070E0CB0139
:104430002A2D26952695237030E02230310569F02B
:104440002330310589F0642975298629972921307F
:10445000310571F00E947227F5C0642975298629FB
:1044600097290E948427EEC00E947227C301B201DF
:104470000E946027E7C0112319F08A2D817001C0C6
:104480008695882309F4DEC0862F829586958770ED
:10449000880F880F962F9F70492E512C612C712CFC
:1044A000082E04C0440C551C661C771C0A94D2F7D5
:1044B00064FF14C00FE010E020E030E0B901A80173
:1044C00004C0440F551F661F771F8A95D2F7CB0192
:1044D000BA01609570958095909503C060E070E09A
:1044E000CB012A2D269526952370422F50E042308D
:1044F000510569F04330510589F0642975298629F1
:1045000097294130510571F00E9437289BC06429DA
:104510007529862997290E94492894C00E94372826
:10452000C301B2010E9425288DC0862F90E0FC01B6
:10453000E05EF109E531F10508F051C0EB56FF4F9F
:104540000C940037062F0F708A2D8F71112331F0D4
:104550000E94BE27802F0E94BD2068C00E94DF27D6
:10456000802F0E94C42062C0112341F0053008F062
:104570005DC08A2D8F710E94042858C0063008F053
:1045800055C0F7CF112339F08A2D8F710E94BE27B5
:104590004DC01123C9F38A2D8F710E94DF2746C0B9
:1045A000112329F08A2D8F710E94A9273FC00E94F4
:1045B000A4273CC0112351F01A2D1F71812F0E9496
:1045C000BE2763E0812F0E942E2930C081E00E9427
:1045D0003729023058F182E00E94372927C0112381
:1045E00031F0002389F2862F0E94671F1FC000232D
:1045F00091F2693349F45FEF77EE83E051507040F8
:104600008040E1F700C00000862F0E945E200EC0AF
:104610004A2D4F70C7010E94D5130E94D32616C0A1
:104620004A2D4F70C7010E94D81310C098E0C916D8
:10463000D10441F05CF0FAE0CF1AD10822E0C216B2
:10464000D10420F40E94BA1D0E94D313BB2001F1B3
:104650000E942A2980FD1CC0F70112820E94242991
:104660000E94BE27C7010E9458230E9424290F9050
:10467000DF91CF911F910F91FF90EF90DF90CF903E
:10468000BF90AF907F906F905F904F900C94DF271A
:104690000F90DF91CF911F910F91FF90EF90DF90DE
:1046A000CF90BF90AF907F906F905F904F900895A4
:1046B0000F931F93CF93DF93EC01888199812B8116
:1046C0003C81232BB9F09F3F11F48F3F99F0CE012D
:1046D0000E94C010882371F0688179818A810E94CC
:1046E00001298C010E945B280E945D27B801CE0140
:1046F0000E94CB20DF91CF911F910F9108950E94CE
:10470000AB290E94BB2980919101909192010E9456
:10471000222B0E9455290E94C82E0E94AD2D80E0B8
:1047200090E00E941A1E80E090E00C94301E0E94DF
:1047300098290C947F230E94F628E92FE295EF70C8
:10474000F0E03297EE30F105B0F4E655FF4F0C94EF
:104750000037803F91F018F4803E68F40EC0843F2B
:1047600051F40BC0803E48F0813F29F406C093FB12
:10477000882780F9089580E0089581E00895CF9317
:10478000DF9300D000D01F92CDB7DEB70F900F900F
:104790000F900F900F90DF91CF910895CF93DF93FB
:1047A00000D000D000D0CDB7DEB726960FB6F89473
:1047B000DEBF0FBECDBFDF91CF9108951F93CF9382
:1047C000DF93C091270516E080912805C81799F05E
:1047D000D0E01C9FF0011D9FF00D1124E75DFA4F02
:1047E0004081518162817381848195810E94CE23B1
:1047F0002196C770E9CFDF91CF911F910895409125
:10480000590550915A0560915B0570915C05809146
:104810005D0590915E050C94CE2380915E05829596
:104820008F7009F054C080915B05882309F44FC054
:1048300080912705A09128056091590570915A052E
:1048400040915C0550915D05B6E08A1709F43FC0C0
:1048500090E041155105C1F17F3F11F46F3FA1F187
:10486000B89FF001B99FF00D1124E75DFA4F218147
:1048700072132AC02081621327C02281211124C013
:10488000238134812417350710F421503109241B6A
:10489000350B283C3105C0F420915E052F70206156
:1048A00020935E0526E0289FF001299FF00D11243A
:1048B000E25DFA4F80818F708061808389E595E0A9
:1048C0000E9458230C94DE2301968770BECF089572
:1048D000CF92DF92EF92FF920F931F93CF93DF93CC
:1048E000CDB7DEB762970FB6F894DEBF0FBECDBF6F
:1048F0008C0185E0F801DE011D9601900D928A95EC
:10490000E1F7D8014C9111965C91119712966C9138
:1049100012971396CD90DC901497309159057091B1
:104920005A0580915C0590915D05009709F46BC173
:104930007F3F19F43F3F09F466C1E0905B05EE202C
:1049400009F4C0C020915E05C816D90628F0F6010A
:10495000E81BF90BCF0104C0809590958C0D9D1D2F
:10496000FF24F394883C910578F0F12C207F09F026
:10497000C6C07C2DD98AC88A89890E94BF2389E54F
:1049800095E00E945823B1C0822F807F09F046C075
:10499000751314C0341312C0611110C02F70206140
:1049A00020935E050E94FF2389E595E00E9458232D
:1049B00080915E05D80115968C932EC0CD2819F1F3
:1049C0005F3F11F44F3FF9F0F62E61111CC080914A
:1049D00027052091280536E0821709F45AC090E097
:1049E000389FF001399FF00D1124E75DFA4F718176
:1049F000571306C07081471303C07281711103C041
:104A000001968770E9CFF62E662309F418C18091CC
:104A10005E05816080935E05F12C11C1751308C09D
:104A2000341306C0611104C080915E05D801C3C073
:104A30004D875E878D859E856A8B0E949B236A8940
:104A40008823E1F16623D1F120915E05822F8295C2
:104A50008F7090E0029774F08091590590915A05FB
:104A600098878F831986DB86CA862C87CE010796A6
:104A70000E94582386E0F801A9E5B5E001900D9267
:104A80008A95E1F70E940D240E94FF23FF24F394EE
:104A9000D6C04D875E878D859E850E94F628292F7A
:104AA00022952F7030E0223031050CF0BCC09F7091
:104AB00009F0B6C0805E883008F4C1C0C8010E9409
:104AC0005823E4CFC816D90608F453C0F601E81BF2
:104AD000F90BCF01883C910508F450C0F12C7C2DD6
:104AE000D98AC88A89890E94BF23E9E5F5E086E072
:104AF000DF011D928A95E9F70E94FF23A0C075137C
:104B000014C0341312C0611110C080915E05F80109
:104B10008583C8010E94582386E0E9E5F5E0DF01BE
:104B20001D928A95E9F7FE2C8AC04D875E878D8598
:104B30009E856A8B0E949B236A89882309F4BECFD5
:104B4000662309F4BBCF20915E05822F82958F707A
:104B500090E002970CF48ECF8091590590915A0500
:104B60009A8389831B82DD82CC822E83CE010196BB
:104B70007FCF809590958C0D9D1DACCFF62E662332
:104B800009F49CCF75132EC034132CC020915E0500
:104B900020FD1FC0822F82958F70D9F0D801159605
:104BA0002C9315978F3049F08F5F982F9295907FB7
:104BB000822F8F70892B15968C93C8010E945823E1
:104BC00086E0F801A9E5B5E001900D928A95E1F73C
:104BD00093CF86E0F801A9E5B5E001900D928A95A2
:104BE000E1F72DC04D875E878D859E850E949B23B2
:104BF000811140CF80915E05816080935E05C80180
:104C00000E9458231CC0662309F458CF4D875E8745
:104C10008D859E850E949B23882309F44FCF2ACF40
:104C2000811148CF0CC0243031050CF047CF9F7064
:104C300009F440CFF8019581907F09F03BCF8F2D8B
:104C400062960FB6F894DEBF0FBECDBFDF91CF9155
:104C50001F910F91FF90EF90DF90CF9008951F93D9
:104C6000CF93DF93CDB7DEB72C970FB6F894DEBFA6
:104C70000FBECDBF4F83588769877A878B879C8704
:104C8000CE0107960E946824882369F08F81988559
:104C90002A853B85232BF1F19F3F09F063C08F3FAD
:104CA00009F060C037C086E0FE013796DE0111963C
:104CB00001900D928A95E1F76F817885EA85FB85F1
:104CC000309741F17F3F11F46F3F21F1209128058A
:104CD00030E0C9010196877099274091270550E07F
:104CE0008417950709F447C069837A83FD83EC83B1
:104CF00096E0929FD001939FB00D1124A75DBA4F0B
:104D0000FE01319601900D929A95E1F78093280566
:104D10000E94DE2316E080912705909128058917CF
:104D2000C1F1189FC0011124875D9A4F0E94682429
:104D3000882379F1E09127051E9FF0011124E75D9A
:104D4000FA4F4081518162817381848195810E94F3
:104D5000CE238091270590E0019687709927809354
:104D60002705D9CF4F81588569857A858B859C85A4
:104D70000E94CE23CFCF0E94972310922805109235
:104D80002705E9E5F5E086E0DF011D928A95E9F760
:104D9000C1CF2C960FB6F894DEBF0FBECDBFDF910A
:104DA000CF911F910895EF92FF920F931F93CF938E
:104DB000DF938C01892B09F46CC0F12CEE24E39471
:104DC000E8012196F8018491843740F4843008F09A
:104DD00051C0813081F0823019F15BC0853709F410
:104DE00044C0A8F19CE7980F903708F052C08F7725
:104DF0000E945E2041C00E5F1F4FFE01C49180E201
:104E00008C0F883048F4C7708E2D01C0880FCA956A
:104E1000EAF70E94AE2914C08C2F0E94671F2DC094
:104E20000E5F1F4FFE01C49180E28C0F883058F452
:104E3000C7708E2D01C0880FCA95EAF70E94B42969
:104E40000E9455291AC08C2F0E945E2016C00E5F4A
:104E50001F4FFE01C491CC2381F08FE99FE00197A1
:104E6000F1F700C00000C150F6CF0E5F1F4FFE01EA
:104E7000F49003C00E94671F8E018F2D882309F4D0
:104E80009FCFEFE9FFE03197F1F700C000008150BC
:104E9000F5CFDF91CF911F910F91FF90EF90089583
:104EA00008950E945027609395057093960580930E
:104EB0009705909398050C947F2308950C9451279F
:104EC0000F931F93009195051091960520919705DA
:104ED00030919805602B712B822B932B1F910F9192
:104EE0000C9451270F931F930091950510919605EF
:104EF0002091970530919805602371238223932395
:104F00001F910F910C9451270F931F9300919505BA
:104F1000109196052091970530919805602771278B
:104F2000822793271F910F910C9451270C94CA0E3E
:104F30000E94962760939105709392058093930544
:104F4000909394050C947F2360E070E0CB010C9467
:104F500098270F931F9341E050E060E070E08A01D2
:104F60009B0104C0000F111F221F331F8A95D2F727
:104F7000C901B8011F910F910C9498270F931F93AB
:104F800041E050E060E070E004C0440F551F661F30
:104F9000771F8A95D2F78091910590919205A09103
:104FA0009305B09194058A019B01082B192B2A2B9C
:104FB0003B2BC901B8011F910F910C9498270F93B7
:104FC0001F9341E050E060E070E004C0440F551FC3
:104FD000661F771F8A95D2F740955095609570951A
:104FE0008091910590919205A0919305B0919405BF
:104FF0008A019B01082319232A233B23C901B801F5
:105000001F910F910C9498270F931F9341E050E04C
:1050100060E070E004C0440F551F661F771F8A953B
:10502000D2F78091910590919205A0919305B0914E
:1050300094058A019B01082719272A273B27C901C4
:10504000B8011F910F910C9498270F931F93009113
:105050009105109192052091930530919405602B54
:10506000712B822B932B1F910F910C9498270F93E8
:105070001F93009191051091920520919305309115
:10508000940560237123822393231F910F910C9425
:1050900098270F931F9300919105109192052091ED
:1050A00093053091940560277127822793271F91DC
:1050B0000F910C94982708952FE0929F800D112452
:1050C000A82FA695A695A695877051E001C0550F0B
:1050D0008A95EAF785E0A89FD001112420E030E00E
:1050E00070E0F901EA0FFB1FE15AFA4F4081CB0152
:1050F000022E02C0969587950A94E2F7817099274F
:10510000819584278523842780832F5F3F4F253017
:10511000310539F708952FE0929F800D1124682FF3
:10512000669566956695982F977085E0689FB001A3
:10513000112440E050E080E0FA01E60FF71FE15A49
:10514000FA4F208130E0092E02C0369527950A9447
:10515000E2F721703327042E01C0220F0A94EAF7E8
:10516000822B4F5F5F4F4530510531F70895CF9245
:10517000DF92EF92FF920F931F93CF93DF938C01F7
:10518000C0909505D0909605E0909705F090980511
:105190008091910590919205A0919305B09194050D
:1051A000C82AD92AEA2AFB2ACFE1D0E0D701C601D2
:1051B0000C2E04C0B695A795979587950A94D2F7BB
:1051C00080FF06C0B8018C2F0E94F313019721F4D1
:1051D000219760F780E001C08C2FDF91CF911F9164
:1051E0000F91FF90EF90DF90CF900895CF93DF93D2
:1051F000EC010E94B728BE010E94F313DF91CF910A
:1052000008951F93CF93DF93EB0190912605992387
:1052100021F0CB010E94F62813C0882349F0CB016E
:105220000E94B728182F682FCE010E945C2804C066
:10523000CB010E948B28182FBE01812F0E94F313EF
:10524000DF91CF911F91089580919905859585955E
:1052500085950895809199058770089598E0899FB4
:1052600090011124262B209399050C94BE272091A0
:1052700099058095822380939905982F977069F4FA
:1052800030E0482F082E000C550B2417350729F065
:105290008595859585950C94DF27089590919905BE
:1052A000977081E009F480E00895E0919101F09118
:1052B00092018091BD058083E0919101F09192016E
:1052C00090818091BC05892B8083E0919101F091C0
:1052D000920190818091BB05892B808380919A05F2
:1052E000882381F0E0919101F09192019081892BC6
:1052F000808380919101909192010E948E2A811168
:1053000010929A0580919101909192010C94C61D82
:105310008091BD0508959091BD05892B8093BD05B1
:10532000089580959091BD0589238093BD050895CA
:105330001092BD0508958091BC0508959091BC051B
:10534000892B8093BC05089580959091BC05892395
:105350008093BC0508951092BC0508959091BB05FB
:10536000892B8093BB05089580959091BB05892377
:105370008093BB0508951092BB05089580939A050C
:10538000089510929A05089580919A050895909332
:10539000D3018093D2010895CF92DF92EF92FF92D2
:1053A0006C01EE24FF24C114D104E104F10421F0C6
:1053B000C701B60120E101C020E0C72ED82EE92E9A
:1053C000FF24C114D104E104F10419F0285FC701DE
:1053D000B6016B017C0154E0F694E794D794C7942E
:1053E0005A95D1F7C114D104E104F10419F02C5FEE
:1053F000C701B6016B017C0142E0F694E794D794B3
:10540000C7944A95D1F7C114D104E104F10419F00D
:105410002E5FC701B601DC01CB01B695A795979524
:105420008795892B8A2B8B2B09F02F5F822FFF907A
:10543000EF90DF90CF9008958295982F9C7C392F24
:1054400036953695282F237344E0249FC0011124FC
:10545000932F982B292F2A7A2695892F8575880FC7
:10546000822B08951F93CF93DF931F92CDB7DEB7A2
:1054700099830E941C2A182F9981892F0E941C2A27
:10548000212F30E0322F2227A901482BCA010F908B
:10549000DF91CF911F9108956DEE7EEF80E090E057
:1054A0000E94383760E082E090E00E941A3760E0A6
:1054B00083E090E00E941A3760E084E090E00E9470
:1054C0001A3760E085E090E00E941A3740E050E033
:1054D000BA0188E090E00C942C3780E090E00E94C4
:1054E000143721E08D3E9E4F09F020E0822F089571
:1054F00082E090E00C94063783E090E00C9406374D
:10550000682F83E090E00C941A3784E090E00C94CC
:105510000637682F84E090E00C941A37FC0131962E
:105520009C01205E3F4F80E0919191118F5FE217C7
:10553000F307D1F708959C01FC0132969FEF80E0BC
:105540004191461789F09F3F19F4411101C0982FEE
:105550008F5F8E31A9F79F3F39F0F901E90FF11DF7
:1055600097FDFA95628308950895FC01329680961E
:105570002081261301C010823196E817F907C1F780
:105580000895262F2695269526952F3170F4FC0137
:10559000E20FF11D677021E030E001C0220F6A9533
:1055A000EAF78181282B218308958091BE0580FF31
:1055B0000CC01F926F938AEF91E19F938F930E948B
:1055C000260B0F900F900F900F900895262F269581
:1055D000269526952F3178F4FC01E20FF11D6770B6
:1055E00021E030E001C0220F6A95EAF72095818121
:1055F0002823218308958091BE0580FF0CC01F924F
:105600006F938CED91E19F938F930E94260B0F90E7
:105610000F900F900F9008952091A301222329F05D
:105620002091310627FD0C94C12A0C949B2A2091CD
:10563000A301222329F02091310627FD0C94E62AAC
:105640000C94B52AFC01319680961192E817F9075F
:10565000E1F7089580913706843039F11092BF0543
:1056600020E488E190E00FB6F894A895809360005C
:105670000FBE2093600080E00E94D31383B7817F28
:10568000846083BF83B7816083BF7894889583B734
:105690008E7F83BF0FB6F894A895809160008861D3
:1056A00080936000109260000FBE089508950895E1
:1056B000CF930E94562B0E94D3160E94572BC0E016
:1056C0008C2F0E948717892B29F4CF5FC530C1F733
:1056D00080E001C081E0CF9108950E9497230E944D
:1056E000BA1D0C94D3131F920F920FB60F92112470
:1056F0008F939F93AF93BF938091BF05811113C088
:1057000080912D0690912E06A0912F06B091300623
:105710004196A11DB11D80932D0690932E06A09356
:105720002F06B0933006BF91AF919F918F910F904C
:105730000FBE0F901F90189582E084BD93E095BD39
:105740009AEF97BD80936E0008952FB7F8948091DB
:105750002D0690912E06A0912F06B09130062FBFF6
:105760000895CF92DF92EF92FF920F931F932FB77E
:10577000F89440912D0650912E0660912F0670915D
:1057800030062FBF6A017B01EE24FF248C0120E04C
:1057900030E0C016D106E206F30610F4415051097C
:1057A0009A01281B390BC9011F910F91FF90EF90AF
:1057B000DF90CF90089578941F920F920FB60F92BA
:1057C00011248F939F93AF93BF9380912D06909157
:1057D0002E06A0912F06B09130060196A11DB11D95
:1057E00080932D0690932E06A0932F06B09330063B
:1057F000BF91AF919F918F910F900FBE0F901F900F
:10580000189581E08093E00080E28093D8001092A8
:10581000C9008FE19EE40197F1F700C0000087E026
:1058200090EBDC018093400690934106A0934206E2
:10583000B09343069CE088E10FB6F894A895809356
:1058400060000FBE90936000FFCF0E946D2A81110F
:1058500002C00E944C2A0E94782A8093BE050E94B2
:10586000852A90E090933206809331060E947C2A2C
:10587000682F70E080E090E00C945E278091C20574
:1058800080FF0BC06091960185E0689FB0011124F4
:1058900075956795759567952BC081FF09C06091D7
:1058A000960185E0689FB00111247595679520C029
:1058B00082FF07C06091960185E0689FB0011124C6
:1058C00017C09091C3059923D1F060919501961767
:1058D00088F72091960185E0289F90011124929FDE
:1058E000A001939F500D112470E0CA010E94EC3674
:1058F0006038710540F46115710539F002C065E04A
:1059000070E0862F08958FE7089581E008958091D3
:10591000C20580FF08C06091940170E0759567959D
:105920007595679521C081FF06C06091940170E074
:105930007595679519C082FF04C06091940170E06D
:1059400010C09091C3059923C1F0609193019617FF
:10595000A0F780919401899FC001112470E00E94FA
:10596000EC366038710528F46115710521F0862F39
:1059700008958FE7089581E0089561E070E0F4CF25
:10598000803F21F40E943E2C819504C0813F29F480
:105990000E943E2C8093C6050895823F21F40E9408
:1059A0003E2C819504C0833F29F40E943E2C8093B5
:1059B000C5050895893F19F40E94872C05C08A3FC8
:1059C00031F40E94872C81958093C70508958B3F01
:1059D00021F40E94872C819504C08C3F29F40E94F9
:1059E000872C8093C8050895843F21F48091C405D5
:1059F000816017C0853F21F48091C405826011C089
:105A0000863F21F48091C40584600BC0873F21F458
:105A10008091C405886005C0883F31F48091C40539
:105A200080618093C40508958D3F21F48091C20563
:105A300081600BC08E3F21F48091C205826005C059
:105A40008F3F29F48091C20584608093C205089538
:105A5000803F39F48091C60587FF6CC01092C6055F
:105A600069C0813F29F48091C6051816BCF362C055
:105A70009091C505823F29F497FF5CC01092C5053F
:105A800059C0833F19F41916CCF354C0893F41F42F
:105A90008091C70518160CF04DC01092C7054AC07A
:105AA0008A3F29F48091C70587FF44C0F6CF8B3F1A
:105AB00039F48091C80587FF3DC01092C8053AC0EF
:105AC0008C3F29F48091C8051816BCF333C0843F7D
:105AD00021F48091C4058E7F17C0853F21F4809109
:105AE000C4058D7F11C0863F21F48091C4058B7F52
:105AF0000BC0873F21F48091C405877F05C0883F94
:105B000031F48091C4058F7E8093C40513C08D3F0E
:105B100021F48091C2058E7F0BC08E3F21F48091CD
:105B2000C2058D7F05C08F3F29F48091C2058B7F10
:105B30008093C2058091C50581110EC08091C60574
:105B400081110AC08091C705811106C08091C805E6
:105B5000811102C01092C30508958091BE0583FF94
:105B60007EC08FE392E10E948D0A8091C4051F924E
:105B70008F938AE392E19F938F930E94260B88E391
:105B800092E10E948D0A8091C505282F082E000CF5
:105B9000330B3F938F9385E392E19F938F930E9402
:105BA000260B83E392E10E948D0A8091C605282F7F
:105BB000082E000C330B3F938F9380E392E19F9369
:105BC0008F930E94260B8EE292E10E948D0A8091B3
:105BD000C705282F082E000C330B3F938F938BE2C1
:105BE00092E19F938F930E94260B89E292E10E949B
:105BF0008D0A8091C805282F082E000C330B3F9387
:105C00008F9386E292E19F938F930E94260B83E20B
:105C100092E10E948D0A8091C3051F928F9380E2CA
:105C200092E19F938F930E94260B8EE192E10E9456
:105C30008D0A8091C2051F928F938BE192E19F9311
:105C40008F930E94260B88E192E10E948D0A8DB706
:105C50009EB74C960FB6F8949EBF0FBE8DBF84ECD6
:105C600095E00E940F1E0E94A52B9093C105809382
:105C7000C00508951F93CF93DF938091C005909145
:105C8000C1050E94B12BAC019091C305992321F06D
:105C90002091970130E006C0209198018AE0289F6A
:105CA000900111244217530708F46EC08091C50576
:105CB000C091C605D091C7051091C805811107C0D4
:105CC000C1115EC0D1115CC011115AC05DC09F3FAF
:105CD00019F09F5F9093C305181624F40E943E2C80
:105CE0008093C5058091C50587FF05C00E943E2CA5
:105CF00081958093C5051C1624F40E943E2C809348
:105D0000C6058091C60587FF05C00E943E2C81957F
:105D10008093C6054091C505442379F03091C605AE
:105D2000332359F025EB4203A00111245093C505FC
:105D30003203C00111249093C6051D1624F40E945D
:105D4000872C8093C7058091C70587FF05C00E94F7
:105D5000872C81958093C705111624F40E94872C07
:105D60008093C8058091C80587FF05C00E94872CD5
:105D700081958093C805DF91CF911F910C94AD2D33
:105D80009F3F09F0A6CFAECFDF91CF911F9108952D
:105D9000E4ECF5E085E0DF011D928A95E9F71092C9
:105DA000C3051092C20508958091EC0508959FB730
:105DB000F8941092CB059FBF90913706943009F06C
:105DC00057C09091E9009F703091EC00232F217013
:105DD00030FD20E8922B24E02093E9002091EB0095
:105DE00020FF43C02091EE0027FF3FC02091C9054E
:105DF000222321F02091E80025FF37C01092C90529
:105E000026E03091E80035FD15C03091370634307A
:105E100061F53091EB0035FD28C0215021F481E07F
:105E20008093C90522C0EFE9FFE03197F1F700C088
:105E30000000E7CF8093F1008091E80085FD0AC063
:105E40008091E80080FFFCCF8091E8008E778093FE
:105E5000E80006C08FB7F89421E02093CB058FBFF0
:105E60009F709093E90080E008959F709093E900FF
:105E70008FEF08950F931F93CF93DF9300D01F925E
:105E8000CDB7DEB78C010E941432823011F084301D
:105E900019F593E099831B830A839093E9008FEFB0
:105EA0009091E800815095FD06C095ED9A95F1F727
:105EB00000008111F5CF8091E80085FF0DC040E022
:105EC00050E063E070E0CE0101960E943132809193
:105ED000E8008E778093E8000F900F900F90DF918D
:105EE000CF911F910F910895CF93DF9300D01F9210
:105EF000CDB7DEB720913706243031F522E0298373
:105F0000805891099B838A8383E08093E9008FEF17
:105F10009091E800815095FD06C095ED9A95F1F7B6
:105F200000008111F5CF8091E80085FF0DC040E0B1
:105F300050E063E070E0CE0101960E943132809122
:105F4000E8008E778093E8000F900F900F90DF911C
:105F5000CF910895CF93DF93EC010E9414328230E9
:105F600011F08430F9F482E08093E9009FEF809192
:105F7000E800915085FD06C085ED8A95F1F7000097
:105F80009111F5CF8091E80085FF0CC040E050E012
:105F900065E070E0CE010E9431328091E8008E779A
:105FA0008093E800DF91CF910895CF93DF93EC01C8
:105FB0000E941432823019F0843009F047C0809179
:105FC000A3018823E1F08091310687FF18C085E0A6
:105FD0008093E9008FEF9091E800815095FD06C015
:105FE00095E19A95F1F700008111F5CF8091E800D5
:105FF00085FF2CC040E050E060E270E017C081E017
:106000008093E9008FEF9091E800815095FD06C0E4
:1060100095ED9A95F1F700008111F5CF8091E80098
:1060200085FF14C040E050E068E070E0CE010E94BF
:1060300031328091E8008E778093E80080E2FE01A3
:10604000ACECB5E001900D928A95E1F7DF91CF912C
:10605000089587E892E10E948D0A809136068111A9
:1060600009C00E94C6330E9423348091E2008460FC
