:100000000C94380A0C947F0A0C947F0A0C947F0A93
:100010000C947F0A0C947F0A0C947F0A0C947F0A3C
:100020000C947F0A0C947F0A0C942F340C940135A5
:100030000C94672B0C947F0A0C947F0A0C947F0A13
:100040000C947F0A0C947F0A0C947F0A0C947F0A0C
:100050000C947F0A0C94CF2B0C947F0A0C947F0A8B
:100060000C947F0A0C947F0A0C947F0A0C947F0AEC
:100070000C947F0A0C947F0A0C947F0A0C947F0ADC
:100080000C947F0A0C947F0A0C947F0A0C947F0ACC
:100090000C947F0A0C947F0A0C947F0A0C947F0ABC
:1000A0000C947F0A0C947F0A0C947F0A560EB90EAA
:1000B000B90EB90E5D0E5F0E610E630E670E650E12
:1000C000530EB90E470E760E780E7A0E7F0E6B0E1B
:1000D0006E0E730E440E440E9E0FA00FA20FA50FBE
:1000E000A20FA70FA90F5D115F116A1161116311B2
:1000F0006511671169116C116E1170117B1172110C
:100100007411761178117A117D11F720F7202921C9
:10011000292163218121E722E722C321E7226622E8
:100120006622D722E722E722E0227322732273227B
:100130007322732273227322732273227322732217
:1001400073227322732273227322842292229922B1
:10015000A022AA22782378238A238A2381238A2330
:100160008A238A237823782386238A238A23862353
:100170006E3595358D3695358D36E13504368D36AF
:100180005B366A36444F55424C455F53494E474CA7
:10019000455F54415000444F55424C455F484F4CD9
:1001A0004400444F55424C455F54415000647A36F8
:1001B000302F646976696465303A7664623234312E
:1001C000372D64697274792354657374696E67009E
:1001D0007E2F2E00647A36302F646976696465302C
:1001E0003A766462323431372D64697274792354FB
:1001F000657374696E670064796E616D6963206D03
:100200006163726F3A2069676E6F72696E67206D05
:100210006163726F20706C6179206B6579207768FB
:10022000696C65207265636F7264696E670D0A00A0
:1002300064796E616D6963206D6163726F3A2073DA
:100240006C6F742025642073617665642C206C6566
:100250006E6774683A2025640A0064796E616D697E
:1002600063206D6163726F3A207472696D6D696E9F
:1002700067206120747261696C696E67206B6579B3
:100280002D646F776E206576656E740D0A00647953
:100290006E616D6963206D6163726F3A20736C6F7C
:1002A00074202564206C656E6774683A2025642F7D
:1002B00025640A0064796E616D6963206D61637203
:1002C0006F3A2069676E6F72696E672061206C6596
:1002D0006164696E67206B65792D75702065766540
:1002E0006E740D0A0064796E616D6963206D6163DF
:1002F000726F3A20736C6F7420256420706C617982
:100300006261636B0A0064796E616D6963206D617F
:1003100063726F207265636F7264696E673A2073EF
:100320007461727465640D0A00155C1E001F002064
:100330000021002200230024002500260027002D94
:10034000002E0000002A000457000014001A0008C4
:1003500000150017001C0018000C00120013002FDD
:100360000030000157025700000400160007000982
:10037000000A000B000D000E000F003300340003D4
:10038000570000065700001D001B0006001900055D
:100390000011001000360037003800317252004C56
:1003A00000E00005570000E2002C000000005700AC
:1003B000002C0000004A004D00500051004F00008A
:1003C000000000000000000000000000000000002D
:1003D000000000000000000000000000000000001D
:1003E000000000000000000000000000000000000D
:1003F00000000000000000000000000000000000FD
:10099000000000000000000000000001003A003BE1
:1009A000003C003D003E003F00400041004200434B
:1009B000004400450000002A0001000000501650CD
:1009C000144F144F16F90006114A004B004D001940
:1009D0001101000100005C01000000501350114F94
:1009E000114F1301005000510052004F000100014F
:1009F0000001000000010000001D111B110611196B
:100A000011FA00010050114E004F111D1301004B4F
:100A100000010001000100000001000100000001D0
:100A200000000001000000010001004A004E004DDE
:100A3000000100F400F500F600F700F800010001E5
:100A4000000100010001000100010000000100019F
:100A50000000000100F400F000F500F900F900F4D6
:100A600000F000F500010001000100005C01000041
:100A7000000100F200F100F300FA00FA00F200F1C8
:100A800000F300010001000100000001000000016E
:100A900000FD00FE00FF0001000100FD00FE00FF60
:100AA000000100010001000100010001000000013F
:100AB0000001000000010000000100000001000131
:100AC000000100010001000100C35CC45CC55CC6FC
:100AD0005CC75CC85CC95CCA5C01000100BC5CBB53
:100AE0005C0000BA5C01000000BD5CBF5CC15C0141
:100AF00000010001000100010001000100A600A7A3
:100B000000005C01000000BE5CC05CC25C01000132
:100B1000000100010001000100AC00AB00DE5C0040
:100B200000010000000100010001000100010001BE
:100B30000001000100010001000100A90001000105
:100B400000010000000100010000000100000001A0
:100B500000000001000100AD00AA00AE00E85CE961
:100B60005CEA5C01000100010001000100010001DC
:100B700000E65CE75C0100000001000100000010DD
:100B8000580D580F580C580B580B580C580F580D3F
:100B9000581058010001000100010000001E021F52
:100BA0000220022102220223022402250226022719
:100BB0000201000100000001000000350235002E96
:100BC000022E00310231002F0030002F02300201CE
:100BD000000100010001000100000001000100000F
:100BE00000010000000100000001000100010001FF
:100BF00000010001001E001F002000210022002330
:100C00000024002500260027002D002E0000002AC9
:100C1000000100000014001A000800150017001C55
:100C20000018000C00120013002F0030000100011A
:100C300000000004001600070009000A000B000D68
:100C4000000E000F003300340028000000010000F7
:100C5000001D001B000600190005001100100036E1
:100C6000003700380031725200010001000100001D
:100C7000000100010000000100000001000000016F
:100C8000000100010001000100010001000100015C
:100C9000000100010001000100010001000100014C
:100CA000000100000001000100000001000100013E
:100CB000000100010001000100010001000100012C
:100CC000000100010001000000010001000100011D
:100CD000000100010001000100010001000100010C
:100CE00000000001000000010001000100010001FE
:100CF00000010001000100010001000100010001EC
:100D000000010001000000010001000000010000DE
:100D10000001000000010001000100010001004489
:100D2000454255473A20656E61626C65642E0A0043
:100D300000000000000000002A2B28000000000036
:100D4000000000000000000000000029000000007A
:100D50002C1E3420212224342627252E362D3738E8
:100D6000271E1F202122232425263333362E3738F1
:100D70001F0405060708090A0B0C0D0E0F101112AF
:100D8000131415161718191A1B1C1D2F3130232D7B
:100D9000350405060708090A0B0C0D0E0F10111279
:100DA000131415161718191A1B1C1D2F3130354C2A
:100DB0000000000000000000000000000000000033
:100DC0000000000000000000000000000000000023
:100DD0000001010101010100010101010000000009
:100DE00000000000000000000000010001000101FF
:100DF00001010101010101010101010101010101E3
:100E000001010101010101010101010000000101D5
:100E100000000000000000000000000000000000D2
:100E200000000000000000000000000101010100BE
:100E30000A002530313662003A2000253032580051
:100E40000A722F6320303132333435363738394126
:100E500042434445460A007267626C6967687420C1
:100E600073657420687376205B454550524F4D5D25
:100E70003A2025752C25752C25750A007267626C41
:100E800069676874207261696E626F772073657438
:100E9000206873763A2025752C25752C25642C2521
:100EA000750A007267626C696768742064697361AF
:100EB000626C653A207267626C696768745F636F21
:100EC0006E6669672E656E61626C65203D202575D2
:100ED0000A007267626C6967687420656E61626C93
:100EE000653A207267626C696768745F636F6E66EB
:100EF00069672E656E61626C65203D2025750A006C
:100F00007267626C6967687420746F67676C653AB2
:100F1000207267626C696768745F636F6E66696789
:100F20002E656E61626C65203D2025750A00726732
:100F3000626C69676874206D6F64653A2025750A74
:100F4000007267626C696768745F696E69742072A9
:100F500067626C696768745F636F6E6669672E6D40
:100F60006F6465203D20302E2057726974652064BF
:100F7000656661756C742076616C75657320746F3D
:100F800020454550524F4D2E0A007267626C6967CA
:100F900068745F696E6974206565636F6E66696702
:100FA000206973206E6F7420656E61626C65642EBB
:100FB0000A007267626C696768745F696E697420A1
:100FC0007374617274210A007267626C6967687475
:100FD0005F696E69742063616C6C65642E0A0072CF
:100FE00067626C696768745F636F6E6669672E76A7
:100FF000616C203D2025640A007267626C69676835
:10100000745F636F6E6669672E736174203D20257F
:10101000640A007267626C696768745F636F6E660A
:1010200069672E687565203D2025640A007267682F
:101030006C696768745F636F6E6669672E6D6F6455
:1010400065203D2025640A007267626C69676874D8
:101050005F636F6E6669672E656E61626C65203DC9
:101060002025640A007267626C696768745F636F49
:101070006E666967206570726F6D0A006565636FE3
:101080006E6669675F7570646174655F7267626CD4
:10109000696768745F64656661756C740A006801ED
:1010A000F000B40078005A000000000000010101C7
:1010B0000101010101010202020202020202020315
:1010C00003030303030303040404040404050505E4
:1010D00005050606060606070707070808080809A3
:1010E00009090A0A0A0A0B0B0B0C0C0C0D0D0D0E4C
:1010F0000E0F0F0F101011111112121313141415DB
:101100001516161717181819191A1A1B1C1C1D1D4D
:101110001E1F1F20202122222324252526272728A1
:10112000292A2B2B2C2D2E2F2F30313233343536CC
:10113000363738393A3B3C3D3E3F404142434446D6
:101140004748494A4B4C4D4F5051525355565758AA
:101150005A5B5C5E5F606263646667696A6C6D6E51
:10116000707173747678797B7C7E808183848688C5
:101170008A8B8D8F91929496989A9B9D9FA1A3A5FF
:10118000A7A9ABADAFB1B3B5B7B9BBBDBFC1C4C6FD
:10119000C8CACCCFD1D3D6D8DADCDFE1E4E6E8EBBD
:1011A000EDF0F2F5F7FAFCFF0A0025303258200086
:1011B0006B6579626F6172645F7265706F72743AA9
:1011C00020000A0025303258006B6579626F617229
:1011D000645F7365745F6C65643A200064656C5F7E
:1011E0006B65795F6269743A2063616E277420646D
:1011F000656C3A20253032580A006164645F6B6583
:10120000795F6269743A2063616E27742061646457
:101210003A20253032580A00290A002575002F008F
:101220002575005D2800256400200025640020004D
:1012300025640020002564007C0025303258006DB4
:101240006F7573656B6579205B62746E7C7820794D
:10125000207620685D287265702F61636C293A20C2
:101260005B005B735D004B6579626F617264207334
:10127000746172742E0A005B575D005B535D005B06
:10128000525D005B445D005B435D00040330000081
:10129000000A0344005A0036003000000010034BDF
:1012A0000042004400460061006E0073000000042C
:1012B00003090409028D00050100A0FA09040000D9
:1012C000010301010009211101000122400007056D
:1012D000810308000A090401000103010200092139
:1012E00011010001224D000705820308000A0904CC
:1012F0000200010300000009211101000122360053
:101300000705830308000A09040300020300000024
:101310000921110100012222000705840320000198
:101320000705040320000109040400010300000074
:101330000921110100012239000705850320000160
:101340001201100100000008EDFE60220100010200
:10135000030105010906A101050719E029E71500A8
:1013600025019508750181020508190129059505D2
:10137000750191029501750391010507190029F77F
:101380001500250195F875018102C00631FF097429
:10139000A1010975150026FF009520750881020935
:1013A00076150026FF00952075089102C0050109F9
:1013B00080A10185021601002603001A81002A83FC
:1013C00000751095018100C0050C0901A10185037C
:1013D000160100269C021A01002A9C027510950134
:1013E0008100C005010902A1010901A10005091937
:1013F00001290515002501950575018102950175E5
:101400000381010501093009311581257F95027598
:1014100008810609381581257F9501750881060523
:101420000C0A38021581257F950175088106C0C018
:1014300005010906A101050719E029E715002501A5
:10144000950875018102950175088101050819014A
:10145000290595057501910295017503910105070F
:10146000190029FF150026FF00950675088100C0A8
:1014700011241FBECFEFDAE0DEBFCDBF04B603FEFE
:1014800027C08091400690914106A0914206B091FC
:1014900043068730904BA740B04BD1F410924006E2
:1014A00010924106109242061092430614BE84B771
:1014B000877F84BF0FB6F894A895809160008861FB
:1014C00080936000109260000FBEE0E0F8E30995A1
:1014D00011E0A0E0B1E0E8E8FEE602C005900D9260
:1014E000A23DB107D9F726E0A2EDB1E001C01D92FF
:1014F000A034B207E1F70E9450310C9442370C94AB
:101500000000FF93EF93E091D201F091D301309767
:1015100009F00995EF91FF910895FC0185918030C4
:1015200011F0EFDFFBCF0895FF27E0E230E247FF45
:101530000CC0419597FF09C0EDE2609570958095CC
:101540009095611D711D811D911D27FF02C0219580
:1015500030E350E2AA27660F771F881F991FAA1F42
:10156000A41710F0A41B63955A95A9F7AA3008F0A8
:10157000A95FA05DAF93F395611571058105910594
:1015800041F7ED3211F4EF93F395F21718F43F930E
:10159000F395FBCF8F91B5DFFA95E1F70895E991C7
:1015A000F9918591803021F0853219F0AADFF9CFC9
:1015B000089520E0E89455915532C1F3503311F469
:1015C000689455915A3348F4505390F3220F022EE9
:1015D000220F220F200D250FF4CF0EF421958991B3
:1015E0009991533619F3533729F1533559F1BC0109
:1015F00088279927E8945C3621F489919991689419
:101600005591543639F446EF7EF077FF0DC08FEFD9
:101610009FEF0AC055374AE039F0583540E121F0D4
:10162000523642E009F00895FF93EF937DDFEF918A
:10163000FF91B7CFFF93EF93FC0181918030B9F315
:1016400060DFFBCFFF93EF9368DFF1CFDF93CF93A2
:10165000CDB7DEB72596A3DFCF91DF9108950C9427
:101660007A16229A2A9A08950E94130E0C94310B2E
:101670000C94C6138091E104882331F08BE20E9420
:1016800055201092E10424C08091E2049091E3047B
:1016900083309105A9F054F48130910589F00297C7
:1016A000B9F481EE0E94552080EE10C0863091057D
:1016B00039F08730910531F0049751F480EE03C082
:1016C0008BE204C081EE0E94552082EE0E945520DC
:1016D0001092E3041092E20408958091D90490914D
:1016E000DA048130910511F0029719F483EE0E941B
:1016F00055201092DA041092D90408958091E404E0
:101700009091E5048430910539F08730910531F0EE
:10171000029739F48BE003C08CE001C08EE00E9498
:10172000E0271092E5041092E40408958091DF040C
:101730009091E0048430910589F03CF4813091056A
:1017400059F0029799F48BE00FC08630910541F073
:10175000079761F480E108C088E203C08EE004C00E
:1017600082EB0E94552002C00E94E0271092E00404
:101770001092DF0408958091DD049091DE048230A0
:10178000910549F08430910541F0019749F489E2CF
:101790000E94552005C08BE001C08CE00E94E0272C
:1017A0001092DE041092DD0408958091D704909188
:1017B000D804029719F48EE00E94E0271092D80412
:1017C0001092D70408950F931F93CF93DF938C014A
:1017D0000E948529D82F0E948529C82F0E9485291B
:1017E000D27221F4C17111F4847441F08BE20E9431
:1017F0005E1F81E08093E104F8018187DF91CF9142
:101800001F910F9108958091DB049091DC04823048
:10181000910549F08330910511F0019721F481E0A1
:101820000E94342903C081EE0E9455201092DC04EE
:101830001092DB0408950F931F93CF93DF93EC0175
:101840008B018091BE0580FF04C086E093E00E947A
:101850008D0A0E9464230E94A52719830883DF91C3
:10186000CF911F910F9108958F929F92AF92BF9247
:10187000EF92FF920F931F93CF93DF93EC017B01C5
:10188000042F8091BE0580FF11C0141614F082E071
:1018900001C081E01F928F9385EE92E09F938F931A
:1018A0000E94260B0F900F900F900F908090910543
:1018B00090909205A0909305B09094050E946423A7
:1018C0000E94A52786E0080280011124CE15DF05BD
:1018D00031F0CE010E941E23C00FD11FF7CF0E940E
:1018E00064238092910590929205A0929305B09204
:1018F0009405DF91CF911F910F91FF90EF90BF90D2
:10190000AF909F908F900895EF92FF920F931F9347
:10191000CF93DF93EC017801D80112968C91FB01F3
:10192000A081B181811111C0AC17BD0771F4809104
:10193000BE0580FF6EC084EB92E0DF91CF911F91D6
:101940000F91FF90EF900C948D0AF6E02F02C001EA
:1019500011248D01081B190B4017510771F036E057
:10196000F70101900D923A95E1F7DB01ED91FC91C1
:1019700011978E0F9F1F8D939C938091BE0580FFC2
:1019800048C0022F022E000C110B4C1B5D0B55950D
:101990004795ABEABAEA4A9FC0014B9F900D5A9F08
:1019A000900D1124809FA001819F500D909F500D9C
:1019B00011244F5F5F4FFB01808191818C1B9D0B38
:1019C000959587958A9FE0018B9FD00D9A9FD00DAA
:1019D0001124C09FB001C19F700DD09F700D1124C4
:1019E000121614F082E001C081E05F934F937F9361
:1019F0006F931F928F938EE892E09F938F930E9434
:101A0000260B8DB79EB708960FB6F8949EBF0FBEF3
:101A10008DBFDF91CF911F910F91FF90EF900895AF
:101A20008F929F92AF92BF92CF92DF92EF92FF92EE
:101A30001F93CF93DF936C01EB01142F79018AEF91
:101A40004802400111248091BE05CC15DD0519F432
:101A500080FD10C037C05E01A80CB91CF501928151
:101A60009923B1F380FF04C08AE592E00E948D0AB9
:101A7000E501E9CFCE018C199D09959587952BEA53
:101A80003AEA829FA001839F500D929F500D11242E
:101A900014039001159F300D1124111614F082E0EB
:101AA00001C081E03F932F931F928F9380E392E0D8
:101AB0009F938F930E94260B0F900F900F900F9083
:101AC0000F900F90F701D183C083DF91CF911F91C9
:101AD000FF90EF90DF90CF90BF90AF909F908F904E
:101AE00008950F931F93CF938B012091D60421115A
:101AF00039C0FB01C281C11185C0873EFCE59F074B
:101B0000E9F060F4863E9C4509F07BC064ED71E02D
:101B100084ED94E00E941B0C81E017C0893EECE547
:101B20009E07B1F08A3E9C4509F06BC060910001B0
:101B3000709101014FEF8EEC94E011C06EEC74E0F7
:101B400084ED94E00E941B0C82E08093D6045AC07E
:101B5000609102017091030141E084ED91E00E94E7
:101B6000340C50C0883E3CE5930729F088F18B3E49
:101B70009C4510F12DC0FB01C281CC2309F442C069
:101B8000213061F02230A9F46091D4047091D50421
:101B900020E031E04FEF8EEC94E009C06091D40476
:101BA0007091D50422E031E041E084ED91E00E94A3
:101BB000100D1092D6040AC08091BE05C82FC170C6
:101BC00080FF20C087EF91E00E948D0AC0E01AC01C
:101BD000213061F02230A9F44091020150910301BB
:101BE0002FEF64ED74E08EEC94E009C040910001A9
:101BF0005091010121E064ED74E084ED91E00E94D8
:101C0000840CC1E08C2FCF911F910F910895CF9339
:101C1000DF93EC010E94722ABE0180E090E0DF9128
:101C2000CF910C945F270E944B186093EF0570933F
:101C3000F0058093F1059093F20508950F931F939B
:101C4000CF93DF938C01EB010E94710D882349F142
:101C5000003181E5180711F0C80102C088EE9CE54B
:101C6000BE010E94710D8823E1F0CA81CC2309F4E2
:101C70004FC0F801E25DFC45E631F10508F079C09E
:101C8000EA5AFF4F0C94F4360E94A52772C00E94B6
:101C90004B186093EF057093F0058093F1059093D6
:101CA000F205C0E066C00E94A527FBCF81E090E06E
:101CB0000E94070E0E946423F4CF8BE009C08CE0E1
:101CC00007C08DE005C08EE003C080E101C08FE059
:101CD0000E94BF27E6CF84ED91E002C080ED91E045
:101CE0000E94BD13DECF0E943E2ADBCF80EF03C0EF
:101CF00080EF06C081EF0E94B42C82EF04C081EF18
:101D00000E94B42C83EF0E94B42C0E94A12DC9CF55
:101D10000F3D9CE51907D9F080F40A5B1C450131A1
:101D2000110530F50E944B186093EF057093F00594
:101D30008093F1059093F2050AC0013E9CE51907D6
:101D400051F038F0023E1C4599F481EF09C080EF54
:101D500003C080EF05C081EF0E941C2D82EF03C0FD
:101D60000E941C2D83EF0E941C2D0E94A12D01C0FA
:101D7000C82F8C2FDF91CF911F910F910895CF9293
:101D8000DF92EF92FF92CF93DF936B017C010E9471
:101D90004B1860FF08C0992331F09B3A30F4D92FDB
:101DA000D695D90F03C0D8E701C0DFEFC62FC6957F
:101DB000CF738C2F90E003970CF0C1E0C701B60100
:101DC0000E94C9298D3059F178F48B30E1F08C30C4
:101DD00009F045C00E94321B8C2F0E94911A4D2F92
:101DE0006FEF8AE590E024C08F3079F120F18031E7
:101DF000B1F50E94321B8C2F0E94911A4D2F60EB7F
:101E000080E190E015C00E94321B8C2F0E94911A35
:101E10004D2F6FEF80EF90E00E944A192CC00E9476
:101E2000321B8C2F0E94911A4D2F6FEF86E990E0A4
:101E30000E94931920C00E94321B8C2F0E94911A7D
:101E40004D2F6FEF8CE390E0F3CF0E94321B8C2F6D
:101E50000E94911A4D2F6AED8BE290E0E9CF0E942B
:101E600075186091EF057091F0058091F1059091E2
:101E7000F2050E94101CC701B601DF91CF91FF90BF
:101E8000EF90DF90CF9008951F93CF93DF93662359
:101E900081F0182FC62FC695D0E0DC1751F0812FA6
:101EA0000E945E1F812F0E945520D03111F0DF5F0C
:101EB000F4CFDF91CF911F910895FC018081813093
:101EC00049F4878181111CC080858823C9F082E094
:101ED00090E00895823049F48781811114C0808593
:101EE000811114C083E090E00895833091F48781DC
:101EF000811112C08085882379F087E090E00895F1
:101F000081E090E0089585E090E0089584E090E01D
:101F1000089588E090E0089586E090E008950E949A
:101F20005D0F9093E5048093E404FC013197E73062
:101F3000F10590F4E459FF4F0C94F4368BE003C0A4
:101F40008BE008C08CE00C9405288CE003C08EE088
:101F5000FACF8EE00C94BF2708950E945D0F9093F6
:101F6000E0048093DF0483309105A9F034F48130DC
:101F7000910569F0029769F008958630910571F036
:101F80008730910571F0049779F48EE00BC088E2F8
:101F900006C08BE007C08CE00C94052882EB0C9403
:101FA0005E1F80E10C94AA2708950E945D0F909314
:101FB000DE048093DD048330910591F034F48130A8
:101FC000910549F0029751F008958430910551F040
:101FD000059759F0089589E20C945E1F8BE003C0C9
:101FE0000C94A5278CE00C94AA278DEA91E00C9420
:101FF000BD130E945D0F9093DA048093D90483305F
:10200000910581F034F48130910549F0029739F05F
:1020100008958430910549F0059751F0089583EEB5
:102020000C945E1F82EA91E005C086E991E002C04F
:1020300084E891E00C94BD130E945D0F9093D80446
:102040008093D7048130910519F0029719F0089513
:102050000C94A8108EE00C94AA27FC01808181309A
:1020600031F48085882399F082E090E008958230F1
:1020700031F4808581110EC083E090E008958330B3
:1020800061F48085882361F087E090E0089581E025
:1020900090E0089584E090E0089588E090E008954D
:1020A00086E090E008950E942D109093E3048093C1
:1020B000E20483309105E9F05CF481309105F9F098
:1020C0008230910521F581EE0E945E1F80EE18C0DE
:1020D0008630910541F087309105A1F0843091055B
:1020E000B1F480EE10C08BE20E945E1F8BE20E9472
:1020F00055208BE20E945E1F8BE20E9455208BE2EE
:102100000C945E1F81EE0E945E1F82EEF9CF682F55
:102110008BE290E00C94440F0E942D109093DC040D
:102120008093DB048230910561F08330910529F0C2
:10213000019739F463E08EE002C063E080E10C9423
:102140002B2981EE0C945E1F81E008950C941E0EE5
:102150000E9464232FEF84E39CE021508040904054
:10216000E1F700C000000C94F52BFF920F931F9332
:10217000CF93DF938C01FC01C081D1818091260532
:10218000811113C08281882349F0CE010E94B428B6
:10219000F82E682FCE010E945D2804C0CE010E9457
:1021A0008828F82EBE018F2D04C0CE010E94B428CD
:1021B000BE010E94CD13EC01B8010E94B91CB80108
:1021C000CE010E94A610882309F478C2B801CE017E
:1021D0000E94FE1C882309F471C2B801CE010E943E
:1021E0002B16882309F46AC2C23CFCE5DF0741F4E0
:1021F000F8018281882309F461C20E94F61B5EC245
:10220000C33C8CE5D80708F019C1CB3B9CE5D90746
:1022100061F4F8018281882309F450C20E94852963
:102220008272E1F00E94291B49C2CC3BECE5DE073B
:10223000C0F0CE3B9CE5D90709F4D1C008F0E3C05B
:10224000CC3BFCE5DF0709F0D2C0F801828188238E
:1022500009F434C20E948529827221F30E94261B50
:102260002DC2C531FCE5DF0708F082C0C2308CE525
:10227000D80708F452C0F8018281882309F459C0B4
:102280000E945F2A811102C00E943E2A0E94772A82
:1022900090E09093320680933106FE01E350FC45B6
:1022A000E231F10530F4ED58FF4F809131060C9486
:1022B000F43680913106816027C0826025C0846039
:1022C00023C0806121C080621FC080641DC08068FF
:1022D0001BC08460886018C08E7F16C08D7F14C0BC
:1022E0008B7F12C08F7E10C08F7D0EC08F7B0CC085
:1022F0008F770AC08B7F877F07C087FB222720F953
:1023000091E0922790FB87F9809331068091310606
:102310000E947B2A0E946423D1C1C1159CE5D90784
:1023200081F0C130DC45A9F081E08093EB0480931B
:10233000EC04C801DF91CF911F910F91FF900C9495
:10234000A410F8018281882309F4B8C10E94A81062
:10235000B5C1F8018281882309F4B0C18091BE051E
:1023600081608093BE058FE19DE00E948D0AA6C129
:10237000C531FCE5DF0739F50E948529982FF80162
:1023800082812091910130919201882379F09A7A8B
:1023900081E009F480E08093E604911102C069E2D3
:1023A00001C065E3C9010E94FF2A0AC08091E604CA
:1023B000811102C069E201C065E3C9010E940A2BD4
:1023C0000E9452297BC1CA3BDC4509F0ADCFF80120
:1023D0008281882309F472C10E94581B6FC1F801E1
:1023E0008281882309F46AC10E94871B67C1CD3BA3
:1023F000DC4509F099CFF8018281882309F45EC198
:102400000E946F1B5BC1F8018281C03CFCE5DF07C5
:1024100031F4882309F452C10E94C11B4FC1C13C51
:10242000DC4530F4882309F449C10E94A61B46C14B
:10243000882309F443C10E94DB1B40C1C93CECE581
:10244000DE0749F4F8018281882309F437C188E165
:102450000E94911A33C1CA3CFCE5DF0708F088C02E
:10246000C53C8CE5D807B1F4F8018281882309F4D2
:1024700025C10E94EA18663071058105910540F07A
:102480000E94EA18683071058105910508F4E6CECE
:1024900086E0DECFC63C9CE5D90728F5C33CECE5D9
:1024A000DE0739F4F8018281882309F407C181E04D
:1024B000CFCFC43CDC4509F037CFF80182818823B7
:1024C00009F4FCC00E94EA1862307105810591058B
:1024D00040F00E94EA18653071058105910508F405
:1024E000BDCE82E0B5CFF8018281C73CFCE5DF07B5
:1024F000A1F4882309F4E2C00E94EA186F30710544
:102500008105910540F00E94EA186431710581054A
:10251000910508F4A3CE8FE09BCFC83CDC45A0F426
:10252000882309F4CBC00E94EA186930710581053F
:10253000910540F00E94EA186E3071058105910501
:1025400008F48CCE89E084CF882309F4B7C00E94B8
:10255000EA18653171058105910540F00E94EA187D
:10256000673171058105910508F478CE85E170CF5A
:10257000CC3CECE5DE0739F5F8018281882361F077
:102580001092EC040E94992B9093EA048093E90442
:1025900080E20E94B42092C08091EC0481110FC0AF
:1025A0008091E9049091EA040E94A52B883C910552
:1025B00030F487E20E945E1F87E20E94552080E28D
:1025C0000E94BB207BC0CD3CFCE5DF0708F041C08A
:1025D000CA3C8CE5D807B1F4F8018281882309F45C
:1025E0006DC00E94EA18693171058105910540F0BE
:1025F0000E94EA18623271058105910508F42ECE19
:1026000089E126CFCB3CDC4509F08ECEF8018281F2
:10261000882351F01092EB040E94992B9093E804C8
:102620008093E70482E0B5CF8091EB0481110FC065
:102630008091E7049091E8040E94A52B883C9105C5
:1026400030F486E20E945E1F86E20E94552082E0FE
:10265000B7CFC03DECE5DE0731F4F8018281882375
:1026600069F180E009C0C13DFCE5DF0741F4F801F4
:102670008281882319F182E00E94F6311FC0CD3C8F
:10268000DC4509F051CEF8018281811179CF80912A
:10269000EC04811194CF8091E9049091EA040E94A6
:1026A000A52B883C910508F08ACF80E20E94BB20D0
:1026B00088E20E945E1F88E20E94552080E0DF9140
:1026C000CF911F910F91FF900895CF9390E0FC015F
:1026D000E05DF24FC491FC01E055F24F84918823F4
:1026E00059F081EE0E945E1F8C2F0E945E1F8C2F7E
:1026F0000E94552081EE04C08C2F0E945E1F8C2FFB
:10270000CF910C9455200F931F93CF93DF93EC013F
:10271000062FFE018491882359F19E012F5F3F4FC0
:10272000813041F4E901F9011491812F0E945E1F6B
:10273000812F0DC0823031F4E901F90184910E94AA
:102740005E1F0AC0833031F4E901F90184910E94CF
:10275000552002C00E9465132196802F8823C9F25C
:10276000EFE9FFE03197F1F700C000008150F6CFAC
:10277000DF91CF911F910F91089560E00C94831326
:102780000C94340B0E945A1D0C942F0B08950C943A
:10279000380B80E090E0089508952BE4829FC001FB
:1027A0001124FC012FE0729FE00DF11D1124E60FB2
:1027B000F11DEE0FFF1FE75DFC4F85919491089589
:1027C000880F991FFC01E05DF14F85919491089568
:1027D000CF93DF930E94CD130E948215EC018115E7
:1027E00020E49207B8F5811540E3940708F0E3C0B0
:1027F000803E9105D0F4803C910508F071C0883A84
:10280000910570F4853A910508F06DC0813091050D
:1028100009F474C108F42BC1049708F06FC127C1F3
:102820008D3B910508F46AC022C18F3F910509F0E4
:1028300048F4803F910508F0B8C0883E910508F43F
:102840005DC115C1C11580E2D80708F457C1CE019A
:102850009F70ADC0811524E59207D8F4811543E53A
:10286000940708F0E4C0C11581E5D80740F4C1150C
:1028700020E5D20708F0A8C0DF70D06A3FC1C115BB
:1028800042E5D40708F0BDC0DC2FCC27C16FD06A69
:1028900035C1C11586E5D80750F4C11525E5D20725
:1028A00008F0DAC0DC2FCC27C46FD06A27C1C1156D
:1028B00048E5D40708F4DBC0C11589E5D80708F45A
:1028C000D1C0CE0190568115904208F0D0C08D2F16
:1028D0008F710E94FE15DD27D0628F71D82B0EC13B
:1028E000805C910964C0853A910509F4C3C0863AB9
:1028F000910509F0C2C0C2E8D0E400C1883A910550
:1029000009F4BEC0893A910509F4BDC08A3A91051F
:1029100009F4BCC08B3A910509F4BBC08C3A91050F
:1029200009F4BAC08B3B910509F4B9C08C3B910501
:1029300009F4B8C08D3A910509F4B7C0803B910500
:1029400009F4B6C08E3A910509F4B5C08F3A9105E5
:1029500009F4B4C0813B910509F4B3C0823B9105F1
:1029600009F4B2C0833B910509F4B1C0843B9105E1
:1029700009F4B0C0853B910509F4AFC0863B9105D1
:1029800009F4AEC0873B910509F4ADC0883B9105C1
:1029900009F4ACC0893B910509F4ABC08A3B9105B1
:1029A00009F4AAC0C0E0D4E4A9C0D065A7C00E94C1
:1029B000E013EC01A3C09927D3FF03C0EC01D86C4E
:1029C0009DC0EC01D06C9AC0CE0144E096958795ED
:1029D0004A95E1F7282F23703C2F337081E090E077
:1029E00002C0880F991F3A95E2F79C68922BCF702E
:1029F000C695C69540E2C49FE0011124C82BD92B8F
:102A00007DC0CE018370992721E030E002C0220F03
:102A1000331F8A95E2F78C2F8695869540E2849F36
:102A2000C0011124E901C82BD92BDC6867C0837071
:102A3000992721E030E002C0220F331F8A95E2F788
:102A40008C2F8695869540E2849FC0011124E90170
:102A5000C82BD92BDA6852C0CF71DD27DC2FCC27E9
:102A6000D0624CC0DC2FCC27C06FD06A47C0C0E01A
:102A7000D0E044C0C1E8D0E441C0C3E8D0E43EC0E7
:102A8000C2EED4E43BC0C9EED4E438C0CAEED4E40C
:102A900035C0C5EBD4E432C0C6EBD4E42FC0C3EBE1
:102AA000D4E42CC0C4EBD4E429C0C7EBD4E426C0E2
:102AB000CCECD4E423C0CDECD4E420C0C3E8D5E40E
:102AC0001DC0CAE8D5E41AC0C2E9D5E417C0C4E9FC
:102AD000D5E414C0C1E2D6E411C0C3E2D6E40EC00E
:102AE000C4E2D6E40BC0C5E2D6E408C0C6E2D6E430
:102AF00005C0C7E2D6E402C0CAE2D6E4CE01DF9147
:102B0000CF9108958238910549F1B0F48133910550
:102B100009F459C048F48932910509F44FC08A324A
:102B2000910509F455C008958533910509F441C014
:102B30008933910599F00895833E910531F138F478
:102B4000803E910591F0823E9105A9F00895863E60
:102B5000910501F1873E910539F1089520913106E3
:102B600020FD3BC021FD39C008958091310680FFD2
:102B700034C089E341C08091310682FF30C080912A
:102B8000310684FD2EC083EE37C08091310682FD70
:102B900026C0F5CF8091310683FF25C08091310694
:102BA00084FD1FC087EE28C08091310683FD1BC0C5
:102BB000F5CF8091310685FD18C019C0809131068E
:102BC00085FD15C012C08091310686FD12C013C06C
:102BD0008091310686FD0FC00CC080EE0DC082EEE4
:102BE0000BC080E009C086EE07C089E205C085E31E
:102BF00003C08AE201C081E390E00895CF93C82F1B
:102C00000E94772A90E0909332068093310682FFEB
:102C10000DC09C2F9871983019F4C77FC46006C00E
:102C20009C2F9471943011F4CB7FC86083FF0DC04A
:102C30009C2F9871983119F4C77EC46106C09C2FEF
:102C40009471943111F4CB7EC86184FDC77E8C2FC2
:102C5000CF91089508950F931F93CF93FB01228185
:102C6000211102C0C1E041C08C01C091FA04C11120
:102C700025C086319C45B1F70E942A1681E08093D9
:102C8000FA040E94992B9093F9048093F80410920F
:102C9000ED041092EF041092EE041092F1041092E1
:102CA000F0041092F3041092F2041092F5041092C2
:102CB000F4041092F7041092F60417C08091F804FF
:102CC0009091F9040E94A52B883C910558F69091AB
:102CD000ED04E92FF0E0EE0FFF1FE251FB4F1183EF
:102CE00000839F5F9093ED04C0E08C2FCF911F91E4
:102CF0000F9108950895CF93DF9385B7806885BFBE
:102D000085B7806885BFA3EBB1E048EB51E061E097
:102D100070E08D91E82FE295EF70F0E021A18F70C7
:102D2000EB0102C0CC0FDD1F8A95E2F7CE019C2F8C
:102D30009095922391A392A1892B82A34A175B07B6
:102D400041F7A4EAB1E043EB51E061E070E08D911E
:102D5000E82FE295EF70F0E021A18F70EB0102C047
:102D6000CC0FDD1F8A95E2F7CE019C2F9095922320
:102D700091A392A1892B82A34A175B0741F7E5E053
:102D8000F5E0ABEFB4E08FE095E0119211921D9267
:102D90001D928E179F07C9F7DF91CF910C94C01336
:102DA0002F923F924F925F926F927F928F929F925B
:102DB000AF92BF92CF92DF92EF92FF920F931F9349
:102DC000CF93DF9323EBC22E21E0D22E0BEF14E042
:102DD000E801EE24E394F12C662463945E0188807C
:102DE000998019821882D6018D916D01E82FE295A4
:102DF000EF70F0E021A18F70A70102C0440F551FB2
:102E00008A95E2F7CA01242B21A322A1742E709483
:102E1000272122A350EA5A95F1F794EA292E91E04E
:102E2000392E20E030E0D1015D901D01452D429505
:102E30004F7050E0DA0190964C9068817981552D61
:102E40005F70D70102C0AA0FBB1F5A95E2F7AD0110
:102E5000442141F4A701022E02C0440F551F0A94D9
:102E6000E2F702C040E050E0462B572B59834883DD
:102E70002F5F3F4F2F303105B1F691A1792271A21A
:102E800092A1892B82A32296F501808191818816D7
:102E9000990641F060920F050E94992B90931105BD
:102EA00080931005F5E0C530DF0709F097CF8091DA
:102EB0000F058823B1F080911005909111050E94B3
:102EC000A52B069770F0E5E0F5E0D8018D919D9176
:102ED0008D0181939193B5E005301B07B1F71092F6
:102EE0000F050E94C21381E0DF91CF911F910F91D6
:102EF000FF90EF90DF90CF90BF90AF909F908F901A
:102F00007F906F905F904F903F902F900895E82FA3
:102F1000F0E0EE0FFF1FEB5FFA4F80819181089583
:102F2000CF92DF92EF92FF920F931F93CF93DF9395
:102F300080E49EE00E948D0A85E0E82E85E0F82E70
:102F4000C0E0D0E09BE3C92E9EE0D92E02E31EE054
:102F5000DF93CF93DF92CF920E94260B88E39EE00F
:102F60000E948D0AF701819191917F010E942B2A85
:102F70009F938F931F930F930E94260B80E39EE0F5
:102F80000E948D0A21968DB79EB708960FB6F894C9
:102F90009EBF0FBE8DBFC530D105D1F6DF91CF9159
:102FA0001F910F91FF90EF90DF90CF900895EF92D7
:102FB000FF920F931F93CF93DF93E901662309F4E8
:102FC0004BC0242F30E0EFEFF0E0E61BF109B90130
:102FD000E69F9001E79F300DF69F300D1124232FBF
:102FE0008B01031B11095CE3E52EF12CB7010E9454
:102FF000CC36FB01BC01069FC001079F900D169FB8
:10300000900D1124B7010E94CC36E230F105B1F0E9
:1030100040F4309779F0319711F5832F242F461B18
:1030200021C0E430F105A1F068F03597C1F4842F98
:10303000861B18C0832F262F230F14C0862F830FC3
:10304000E42F03C0E42FE61B842F432F2E2F0AC04A
:10305000842F462F430F06C0842F242F03C080E007
:1030600020E040E0E42FF0E0E855FF4E4491E22FED
:10307000F0E0E855FF4E9491E82FF0E0E855FF4E60
:10308000E49149839883EA83DF91CF911F910F9157
:10309000FF90EF90089588E090E00C940237AB0128
:1030A000BC0188E090E00C9420378091BE0580FF41
:1030B00008C08CE790E19F938F930E94260B0F909E
:1030C0000F9083E08093F3051092F4058FEF8093C7
:1030D000F5058093F6056091F3057091F4058091F4
:1030E000F5059091F6050C944F188091BE0580FF70
:1030F00008C085E690E19F938F930E94260B0F9066
:103100000F908091BE0580FF0FC08091F305817004
:103110001F928F9388E490E19F938F930E94260BD8
:103120000F900F900F900F908091BE0580FF10C000
:103130008091F30586958F731F928F938DE290E1B6
:103140009F938F930E94260B0F900F900F900F90DC
:103150008091BE0580FF19C08091F305881F8827E4
:10316000881F9091F405292F220F822B97FB992716
:1031700090F99F938F9383E190E19F938F930E94A7
:10318000260B0F900F900F900F908091BE0580FF3F
:103190000EC08091F5051F928F9389EF9FE09F935A
:1031A0008F930E94260B0F900F900F900F9080919D
:1031B000BE0580FF0EC08091F6051F928F938FEDA4
:1031C0009FE09F938F930E94260B0F900F900F907C
:1031D0000F9008956091F30560FF06C066956F73C8
:1031E00070E080E090E0089560E070E0CB01089529
:1031F0008091F30580FF06C060E170E08BEF95E001
:103200000C94561CEBEFF5E011821082128233967B
:1032100086E0EB32F807C1F7EFCFCF93DF93C3EF30
:10322000D5E088818E7F88836091F3057091F405E5
:103230008091F5059091F6050E944F188881817064
:103240001F928F9383EA9EE09F938F930E94260B99
:103250002FEF80E792E0215080409040E1F700C0DE
:1032600000000F900F900F900F90DF91CF910C9472
:10327000F8189091F30590FF0CC0EBEFF5E0818317
:1032800060834283339696E0EB32F907C1F70C94E2
:10329000F8180895EF92FF920F931F93CF93DF9347
:1032A00000D01F92CDB7DEB70091F3051091F40561
:1032B0002091F5053091F6050093F7051093F80578
:1032C0002093F9053093FA052091F30520FF21C0E2
:1032D000042FF62EE92E182F9E012F5F3F4F0E94DC
:1032E000D7178091F70510FB87F98093F70516959E
:1032F0008091F8058078182BE0FA17F91093F805FB
:10330000F092F9050093FA054B8169818A810E9448
:1033100039190F900F900F90DF91CF911F910F915E
:10332000FF90EF9008952F923F924F925F926F928D
:103330007F928F929F92AF92BF92CF92DF92EF9245
:10334000FF920F931F93CF93DF9300D01F92CDB7BF
:10335000DEB79B838A83462E542E8091F30580FF2F
:10336000CAC0982F9E77923029F48A819B810E944F
:103370004A197FC0E82FE695EF739EE39E0F9F7377
:10338000943018F45090F60574C09AE39E0F9F7322
:10339000993070F4881F8827881F9091F405292F91
:1033A000220F282B2A8397FB992790F99B8361C0D2
:1033B00087E28E0F8F738A3008F05BC0F0E0799758
:1033C000E0FD03C021E0298302C08FEF8983EE7FF7
:1033D000E256FF4EA590B490C50124E096958795DE
:1033E0002A95E1F72981822E220F9908889D3001C4
:1033F000899D700C989D700C1124CA80DB8088E92F
:10340000C81A8EEFD80A3BEFE32E35E0F32E00E02A
:1034100010E0C60168E671E00E94CC361C01809184
:10342000BE0580FF14C0BF92AF929F9299819F9377
:103430003F922F921F930F938CE79EE09F938F9361
:103440000E94260B0FB6F894DEBF0FBECDBF9701CA
:10345000452D642DC1010E94D7170F5F1F4FC60C69
:10346000D71C93E0E90EF11C0031110591F60E9482
:10347000F8188091F3052A8120FB87F98093F305E2
:10348000922F96958091F4058078892B9B8190FBF3
:1034900087F98093F4054092F5055092F605609106
:1034A000F3057091F4058091F5059091F6050E9461
:1034B0004F188091F6051F928F938091F5051F920A
:1034C0008F938091F305881F8827881F9091F405BA
:1034D000292F220F822B97FB992790F99F938F9387
:1034E00087E59EE09F938F930E94260B0FB6F8947A
:1034F000DEBF0FBECDBF0F900F900F90DF91CF9129
:103500001F910F91FF90EF90DF90CF90BF90AF9001
:103510009F908F907F906F905F904F903F902F90F3
:1035200008958091F30580FF31C081788260809397
:10353000F3056091F3057091F4058091F505909184
:10354000F6050E944F188091F30586958F731F92A0
:103550008F938EE29FE09F938F930E94260B0F9094
:103560000F900F900F908091F305881F8827881F78
:103570009091F405292F220F97FB992790F94091FC
:10358000F6056091F505822B0C94931908958091AE
:10359000BE0581608093BE0588EC9FE09F938F936A
:1035A0000E94260B81E0809312058091BE050F904A
:1035B0000F9080FF08C082EB9FE09F938F930E9443
:1035C000260B0F900F900E945F2A811110C08091EE
:1035D000BE0580FF08C08AE89FE09F938F930E94FA
:1035E000260B0F900F900E943E2A0E9455180E94B1
:1035F0004B186093F3057093F4058093F505909351
:10360000F6056E77C1F48091BE0580FF08C081E4A5
:103610009FE09F938F930E94260B0F900F900E9424
:1036200055180E944B186093F3057093F40580932E
:10363000F5059093F6050E9475188091F30580FFBB
:1036400004C086958F730C94911A089581E00C94B0
:10365000911A8091F30586958F73815009F481E06A
:103660000C94911ACF93DF93C3EFD5E088818160EA
:1036700088836091F3057091F4058091F505909130
:10368000F6050E944F18888181701F928F9382EDFA
:103690009EE09F938F930E94260B0F900F900F90A8
:1036A0000F90888186958F73DF91CF910C94911A3A
:1036B0008091F305809581701F928F9380E09FE049
:1036C0009F938F930E94260B8091F3050F900F908C
:1036D0000F900F9080FD0C940D190C94321BE3EFAA
:1036E000F5E02081221F2227221F3091F405432F6D
:1036F000440F842F822B37FB992790F9089668E6B0
:1037000071E00E94E036438162810C94931920910C
:10371000F305221F2227221F3091F405432F440F67
:10372000842F822B37FB992790F9883091051CF460
:10373000805A9E4F05C0089768E671E00E94E03607
:103740004091F6056091F5050C9493196091F5058B
:10375000862F90E0883F910514F4685F01C06FEFF9
:103760008091F305881F8827881F9091F405292FE1
:10377000220F97FB992790F94091F605822B0C9424
:1037800093196091F505862F90E0089714F0685022
:1037900001C060E08091F305881F8827881F909101
:1037A000F405292F220F97FB992790F94091F605F0
:1037B000822B0C9493194091F605842F90E0883F5A
:1037C000910514F4485F01C04FEF8091F305881F05
:1037D0008827881F9091F405292F220F97FB99279E
:1037E00090F96091F505822B0C9493194091F605A0
:1037F000842F90E0089714F0485001C040E0809179
:10380000F305881F8827881F9091F405292F220F20
:1038100097FB992790F96091F505822B0C949319E9
:103820006093F3057093F4058093F5059093F60586
:103830000E944F188091F30580FF04C086958F7316
:103840000C94911A0C94F8182EB1342F3095232330
:103850003EB1432B3FB7F894FC01680F791FE61780
:10386000F70789F0819198E04EB9000000C087FF0A
:103870002EB9880F000000C000C000C02EB900C0E3
:103880009A9591F7ECCF3FBF08952DB1242B2DB918
:103890009B01220F331F620F731F0E94241C87ECB1
:1038A00090E00197F1F700C00000089544E00C9407
:1038B000451CCF93DF93EC0181E08F878F810E94BD
:1038C000882988850E949B290E945229EA81FB81D0
:1038D000CE010696309729F06A897B89DF91CF91D6
:1038E0000994DF91CF910895EF92FF920F931F9368
:1038F000CF93DF93FC012085211134C0EC01E380DC
:10390000F480F7E5FF1A24E12E9DC0012F9D900D54
:103910001124DC01AC5FBE4F1496ED91FC9115971C
:10392000865F9E4F309729F052966D917C91539708
:10393000099584E18E9D80018F9D100D11240C5FEF
:103940001E4FF80187810E948E29F80180850E9410
:10395000A1290E94522918821F82198610921405EB
:1039600010921305DF91CF911F910F91FF90EF906F
:103970000895DF92EF92FF920F931F93CF93DF93FF
:10398000FB012281222391F1209190012F3F71F1BF
:103990008C01C4E0D1E0E12CF12CDD24D3948091A2
:1039A0009001082E000C990B8E159F05FCF08E815E
:1039B0008823B9F089859A858017910739F4809119
:1039C0001305909114050817190759F0DD868F85A6
:1039D000811103C0CE010E94591CCE0106960E949F
:1039E000741CFFEFEF1AFF0A6496D9CFDF91CF91D5
:1039F0001F910F91FF90EF90DF900895EF92FF924B
:103A00000F931F93CF93DF939C0137552F3F3105C1
:103A100011F008F047C040919001042E000C550BA6
:103A20004217530714F420939001FB017C0182811B
:103A300094E1929F8001939F100D1124E801CC5FC7
:103A4000DE4F8E8792818E81992311F1FA86E98665
:103A50008F5F8E830E94992B9C878B870E94C12940
:103A60008F830E94852988870E9498299885892BB1
:103A70008887E881F981C801865F9E4F309719F0E9
:103A80006A897B890995F0921405E09213050AC0B2
:103A9000882341F08F85882329F0C801865F9E4FD7
:103AA0000E94741C81E0DF91CF911F910F91FF90D4
:103AB000EF900895CF92DF92EF92FF920F931F93B2
:103AC000CF93DF93809190018F3FF1F1F12C94E13E
:103AD000E92E0F2D10E080919001082E000C990B1B
:103AE000801791078CF1E09EF001E19EF00D11240A
:103AF000EC5FFE4FC088D188C114D10419F488EC62
:103B0000C82ED12CE09EE001E19ED00D1124CC5FA7
:103B1000DE4F8E818823B1F08B859C850E94A52B7A
:103B2000C816D90678F48F85811103C0CE010E9492
:103B3000591CE09EC001E19E900D1124865F9E4FAE
:103B40000E94741CF394C5CFDF91CF911F910F9108
:103B5000FF90EF90DF90CF90089590931A05809397
:103B600019050895E0911905F0911A05309721F093
:103B70000190F081E02D099480E00895EF92FF928A
:103B80000F931F93CF93DF93E0911905F0911A05DE
:103B90003097B1F18C010280F381E02D099580917D
:103BA000BE0582FF2DC080FF04C080EB91E10E9422
:103BB0008D0AE80110E28AEAE82E81E1F82E809170
:103BC000BE0580FF0BC088811F928F93FF92EF92FA
:103BD0000E94260B0F900F900F900F90115021967E
:103BE0001111EDCF8091BE0580FF0AC088EA91E1F6
:103BF000DF91CF911F910F91FF90EF900C948D0A60
:103C0000DF91CF911F910F91FF90EF900895E09178
:103C10001905F0911A05309721F00480F581E02D07
:103C20000994089520911705309118052817390730
:103C300071F09093180580931705E0911905F091A4
:103C40001A05309721F00680F781E02D0994089538
:103C500020911505309116052817390771F09093BA
:103C6000160580931505E0911905F0911A05309716
:103C700021F00084F185E02D0994089508950C94B5
:103C80003E1E81E008950E94902B0E947B160E94A8
:103C9000192C0C94C71ACF93C82F8091BE0582FFB0
:103CA0001EC080FF04C089EC91E10E948D0A8091C2
:103CB000BE0580FF0CC01F92CF9384EC91E19F93CF
:103CC0008F930E94260B0F900F900F900F90809172
:103CD000BE0580FF04C082EC91E10E948D0A8C2F0A
:103CE000CF910C94C7135F926F927F928F929F92A5
:103CF000AF92BF92CF92DF92EF92FF920F931F93FA
:103D0000CF93DF93CDB7DEB72A970FB6F894DEBF17
:103D10000FBECDBF0E94D0160E94411E811111C05E
:103D20008FEF89838A831B820E94992B8160782F71
:103D30009D838C8349815A816B818D810E94301FC4
:103D400056C09CE1692E95E0792E00E010E08824B1
:103D50008394912C502E802F0E9487176C01F301C1
:103D6000A190B1903F01A826B926A114B10431F465
:103D70000F5F1F4F0530110569F7D2CF8091BE0547
:103D800081FD0E94901780E090E07401082E02C02F
:103D9000EE0CFF1C0A94E2F795012E213F21232B04
:103DA00009F18E835F82CE20DF2081E0CD2809F4E7
:103DB00080E088870E94992B8160782F9A87898775
:103DC0004E815F8168858A850E94301F000F111F18
:103DD000F801E45EFA4F80819181E826F926F182AC
:103DE000E08205C001968F30910579F6C1CF0E941F
:103DF0002E2E0E94B21D90911B058917D9F00E94AA
:103E0000B21D80931B052A960FB6F894DEBF0FBE35
:103E1000CDBFDF91CF911F910F91FF90EF90DF9079
:103E2000CF90BF90AF909F908F907F906F905F905A
:103E30000C944B1E2A960FB6F894DEBF0FBECDBF72
:103E4000DF91CF911F910F91FF90EF90DF90CF9076
:103E5000BF90AF909F908F907F906F905F900895EC
:103E6000CF93DF93CDB7DEB72B970FB6F894DEBFB5
:103E70000FBECDBF4F83588769877A878B87DE0156
:103E8000119686E0FD0111928A95E9F785E0FE0121
:103E9000379601900D928A95E1F749815A816B819D
:103EA0007C818D819E810E9424262B960FB6F894EA
:103EB000DEBF0FBECDBFDF91CF910895882309F4F7
:103EC000F3C0682F8238C1F40E94B21D81FDECC09E
:103ED00069E380919101909192010E94FF2A0E94D2
:103EE00052292FEF81EE94E0215080409040E1F77D
:103EF00000C0000069E319C08338F9F40E94B21DC4
:103F000080FDD2C063E580919101909192010E9461
:103F1000FF2A0E9452292FEF81EE94E02150804029
:103F20009040E1F700C0000063E58091910190911D
:103F300092010E940A2B0C9452298438C1F40E94E9
:103F4000B21D82FDB1C067E4809191019091920110
:103F50000E94FF2A0E9452292FEF81EE94E0215007
:103F600080409040E1F700C0000067E4DECF8CEFB6
:103F7000860F813A38F480919101909192010E94CC
:103F8000FF2AD9CF80E2860F883048F4677081E03D
:103F900001C0880F6A95EAF70E948829CCCF8BE58B
:103FA000860F833070F4653A29F0663A31F083E881
:103FB00090E005C081E890E002C082E890E00C94B7
:103FC000121E88E5860F853108F06EC0683A61F1EF
:103FD000693A69F16A3A71F16B3A79F16C3A81F1B7
:103FE0006B3B89F16C3B91F16D3A99F1603BA1F12A
:103FF0006E3AA9F16F3AB1F1613BB9F1623BC1F19F
:10400000633BC9F1643BD1F1653BD9F1663BE1F11A
:10401000673BE9F1683BF1F1693BF9F16A3B09F46F
:104020003FC080E090E03EC082EE90E03BC089EE71
:1040300090E038C08AEE90E035C085EB90E032C069
:1040400086EB90E02FC083EB90E02CC084EB90E0F7
:1040500029C087EB90E026C08CEC90E023C08DEC6B
:1040600090E020C083E891E01DC08AE891E01AC08A
:1040700082E991E017C084E991E014C081E292E006
:1040800011C083E292E00EC084E292E00BC085E2B0
:1040900092E008C086E292E005C087E292E002C0AA
:1040A0008AE292E00C94281E0895882309F45BC0EC
:1040B000682F823879F40E94B21D81FF54C069E3F1
:1040C00080919101909192010E94FF2A0E945229B1
:1040D00069E310C08338B1F40E94B21D80FF43C071
:1040E00063E580919101909192010E94FF2A0E94C4
:1040F000522963E580919101909192010E940A2BCF
:104100000C945229843879F40E94B21D82FF2BC08E
:1041100067E480919101909192010E94FF2A0E9490
:10412000522967E4E7CF8CEF860F813A18F380E2DB
:10413000860F883048F4677081E001C0880F6A9567
:10414000EAF70E948E29DCCF8BE5860F833020F4BE
:1041500080E090E00C94121E685A653120F480E0F3
:1041600090E00C94281E0895882321F00E9488294D
:104170000C9452290895882321F00E948E290C94D2
:10418000522908958F929F92AF92BF92DF92EF9241
:10419000FF920F931F93CF93DF937C01D62FC72FEE
:1041A000FC01058102950F70128111110E94A8294E
:1041B0000E944B29882379F0112369F080E28D0F4A
:1041C000883048F082E00E9434290E944B2991E017
:1041D000D82ED92601C0D12CBC2EB2948FE0B822A3
:1041E0008B2D90E0FC01EB57FF4F0C94F4368C2F95
:1041F000807FCF70882311F0C295C07F112399F082
:10420000CC2309F4BFC180E28D0F883010F0D111AA
:1042100004C08C2F0E94882903C08C2F0E949B29E8
:104220000E945229AFC18D2F0E945520CC2309F442
:10423000CEC180E28D0F883010F0D11104C08C2FD8
:104240000E948E2903C08C2F0E94A1290E9452290E
:10425000BEC18C2F807FCF70803211F0C295C07F9D
:10426000DD2319F0D130A9F01EC0112351F08C2F9D
:10427000002309F440C1013009F03DC10E94BB296F
:10428000A6C1002319F0013009F4A1C10E94BE2982
:1042900018C0112321F0063008F099C10EC0053076
:1042A00008F095C10EC0112351F0002331F0F70141
:1042B000858180FF67C18F7085838C2F1CC10111A0
:1042C00072C18C2F1EC18C2F86958695837019F034
:1042D000813061F07CC1112321F08D2F9C2F9370D0
:1042E00002C080E090E00E94121E7EC1112321F0E6
:1042F0008D2F9C2F937002C080E090E00E94281EBA
:1043000073C11123F9F0D53F51F0D63F71F0D43F7E
:10431000A9F480912B0690912C0681600BC08091AE
:104320002B0690912C06826005C080912B069091FF
:104330002C06846090932C0680932B068D2F0E9470
:10434000B42C1EC0D53F51F0D63F71F0D43FA9F434
:1043500080912B0690912C068E7F0BC080912B06AE
:1043600090912C068D7F05C080912B0690912C0694
:104370008B7F90932C0680932B068D2F0E941C2DF3
:104380000E94A12D31C18C2F837009F04CC01111F6
:1043900027C12D2F229526952770220F220F6D2FD2
:1043A0006F70862F90E0A0E0B0E04C015D01022E1E
:1043B00004C0880C991CAA1CBB1C0A94D2F7D4FF19
:1043C00012C08FE090E0A0E0B0E004C0880F991F19
:1043D000AA1FBB1F2A95D2F7BC01CD01609570952D
:1043E0008095909503C060E070E0CB01C695C695BE
:1043F000C370C23051F080F4682979298A299B2939
:10440000C13071F00E947327EBC0682979298A298D
:104410009B290E948527E4C00E947327C501B4012F
:104420000E946127DDC0112319F08C2F817001C01B
:104430008695882309F4D4C02D2F229526952770C0
:10444000220F220F6D2F6F70862F90E0A0E0B0E05A
:104450004C015D01022E04C0880C991CAA1CBB1CD7
:104460000A94D2F7D4FF12C08FE090E0A0E0B0E051
:1044700004C0880F991FAA1FBB1F2A95D2F7BC0141
:10448000CD01609570958095909503C060E070E0D7
:10449000CB01C695C695C370C23051F080F468292F
:1044A00079298A299B29C13071F00E94382898C047
:1044B000682979298A299B290E944A2891C00E944B
:1044C0003828C501B4010E9426288AC08D2F90E0AB
:1044D000FC01E05EF109E531F10508F04FC0EB5653
:1044E000FF4F0C94F436DF708C2F8F71112331F055
:1044F0000E94BF278D2F0E94B42069C00E94E02730
:104500008D2F0E94BB2063C0112341F0053008F0BD
:104510005EC08C2F8F710E94052859C0063008F0AC
:1045200056C0F7CF112339F08C2F8F710E94BF270F
:104530004EC01123C9F38C2F8F710E94E02747C012
:10454000112329F08C2F8F710E94AA2740C00E944E
:10455000A5273DC0112349F0CF718C2F0E94BF27A2
:1045600063E08C2F0E942B2932C081E00E94342905
:10457000023068F182E00E94342929C0112331F011
:10458000002391F28D2F0E945E1F21C0002399F21B
:10459000D93349F4FFEF27EE83E0F150204080400B
:1045A000E1F700C000008D2F0E94552010C04C2F55
:1045B0004F706D2FC7010E94C9130E94D22614C0EC
:1045C0004C2F4F706D2FC7010E94CC130DC098E087
:1045D000B91631F0B91640F086EF8B0D823020F419
:1045E0000E94B21D0E94C713DD20E1F00E9427291E
:1045F00080FD18C0F70112820E9421290E94BF2766
:10460000C7010E941E230E942129DF91CF911F9193
:104610000F91FF90EF90DF90BF90AF909F908F90A1
:104620000C94E027DF91CF911F910F91FF90EF90B5
:10463000DF90BF90AF909F908F9008950F931F933E
:10464000CF93DF93EC01988189812B813C81232BCF
:1046500031F08F3F31F481E09F3F19F403C081E0D6
:1046600001C080E080FD13C0CE010E94B5108823F8
:1046700071F0688179818A810E94FE288C010E94F4
:104680005C280E944F27B801CE010E94C220DF9112
:10469000CF911F910F9108950E94A8290E94B829D7
:1046A00080919101909192010E94152B0E945229B4
:1046B0000E94BC2E0E94A12D80E090E00E94121E5C
:1046C00080E090E00C94281E0E9495290C944C23C5
:1046D0000E94F328E92FE295EF704E2F50E0FA0187
:1046E0003297EE30F105B0F4E655FF4F0C94F436F6
:1046F000803F91F018F4803E68F40EC0843F51F47E
:104700000BC0803E48F0813F29F406C093FB882708
:1047100080F9089580E0089581E00895CF93DF93B4
:1047200000D000D01F92CDB7DEB70F900F900F9042
:104730000F900F90DF91CF910895CF93DF9300D02A
:1047400000D000D0CDB7DEB726960FB6F894DEBF06
:104750000FBECDBFDF91CF9108951F93CF93DF930D
:10476000C091270516E080912805C81799F0D0E080
:104770001C9FF0011D9FF00D1124E75DFA4F408151
:10478000518162817381848195810E949D2321964C
:10479000C770E9CFDF91CF911F91089540915905DE
:1047A00050915A0560915B0570915C0580915D05A3
:1047B00090915E050C949D23CF9380915E05829528
:1047C0008F7009F05FC080915B05882309F45AC09F
:1047D00080912705B091280570915905A0915A053F
:1047E00040915C0550915D0591E07F3F09F090E0BC
:1047F000692FC6E08B1709F445C04115510521F01A
:10480000AF3F21F020E003C021E001C0262F90E05F
:1048100020FD35C0C89FF001C99FF00D1124E75D50
:10482000FA4F21812A132BC02081271328C022810F
:10483000211125C0238134812417350710F421501C
:104840003109241B350B283C3105C8F420915E0545
:104850002F70206120935E0526E0289FF001299F9C
:10486000F00D1124E25DFA4F80818F7080618083AA
:1048700089E595E00E941E23CF910C94AD2301960B
:104880008770B8CFCF910895AF92BF92CF92DF9249
:10489000EF92FF920F931F93CF93DF93CDB7DEB7C5
:1048A00061970FB6F894DEBF0FBECDBF8C0185E0D7
:1048B000F801DE011D9601900D928A95E1F7D8016D
:1048C0004C9111965C9111971296EC90309159058C
:1048D00060915A0580915C0590915D05009731F0DB
:1048E0006F3F31F421E03F3F19F403C021E001C0E4
:1048F00020E0B22FB170BB2E20FD64C1F801C3804F
:10490000D480A0905B05AA2009F4C3C020915E0565
:10491000C816D90628F0D601A81BB90BCD0104C0D2
:10492000809590958C0D9D1DFF24F394883C9105F6
:1049300080F0F12C207F09F09CC07C2DD98AC88A98
:104940006E2D89890E948E2389E595E00E941E23A1
:10495000B4C0822F807F09F054C0561314C0431393
:1049600012C0FE2CE1100FC02F70206120935E0555
:104970000E94CE2389E595E00E941E2380915E056A
:10498000F80185834FC1CD2831F05F3F31F481E0DC
:104990004F3F19F403C081E001C080E080FD03C0F7
:1049A00081E08E2502C080E090E0F82FF170FF2EAC
:1049B00080FF1CC0809127052091280536E08217D2
:1049C00009F40DC190E0389FF001399FF00D1124DA
:1049D000E75DFA4F6181561306C06081461303C03C
:1049E0006281E61203C001968770E9CFFE2CEE20AB
:1049F00009F418C180915E05816080935E05F12CF9
:104A000011C1561309C0431307C0E11005C08091BE
:104A10005E05F8018583B0C04D875E878D859E85D4
:104A20000E946823882379F1EE2069F120915E05C8
:104A3000822F82958F7090E0029774F080915905D3
:104A400090915A0598878F831986DB86CA862C87B2
:104A5000CE0107960E941E2386E0F801A9E5B5E085
:104A600001900D928A95E1F70E94DC230E94CE23EB
:104A70000DC0561761F14D875E878D859E850E941A
:104A80006823811138C0C8010E941E23FF24F394BB
:104A9000C9C0C816D90608F446C0F601E81BF90BD0
:104AA000CF01883C910508F443C0F12C7C2DD98AB4
:104AB000C88A6E2D89890E948E23E9E5F5E086E09B
:104AC000DF011D928A95E9F70E94CE23ABC0431304
:104AD000D2CFE110D0CF80915E05F8018583C80167
:104AE0000E941E2386E0E9E5F5E0DF011D928A952C
:104AF000E9F7FA2C97C0EE2031F220915E05822F63
:104B000082958F7090E002970CF4A6CF80915905A2
:104B100090915A059A8389831B82DD82CC822E83F1
:104B2000CE01019697CF809590958C0D9D1DB9CFA4
:104B3000FE2CEE2009F4A7CF561333C0431331C027
:104B400020915E0520FD24C0822F82958F70482F12
:104B500050E041155105E1F0D80115962C931597B9
:104B60004F30510549F08F5F982F9295907F822F9B
:104B70008F70892B15968C93C8010E941E2386E0A6
:104B8000F801A9E5B5E001900D928A95E1F79CCF77
:104B900086E0F801A9E5B5E001900D928A95E1F76C
:104BA00041C04D875E878D859E850E946823811157
:104BB00053CF80915E05816080935E05C8010E949D
:104BC0001E2330C0EE2009F45ECF4D875E878D85B1
:104BD0009E850E946823882309F455CF3DCF4D87D9
:104BE0005E878D859E850E94F328292F22952F7040
:104BF000223028F49F7039F0811105C00BC0243099
:104C000028F49F7049F4805E883020F0C8010E942B
:104C10001E23BF2CFB2C06C0D80115969C91907FBB
:104C200091F7F8CF8F2D61960FB6F894DEBF0FBEC7
:104C3000CDBFDF91CF911F910F91FF90EF90DF904B
:104C4000CF90BF90AF9008951F93CF93DF93CDB7D0
:104C5000DEB72C970FB6F894DEBF0FBECDBF4F83E3
:104C6000588769877A878B879C87CE0107960E9431
:104C700044248823D1F09F8188852A853B85232B76
:104C800031F08F3F31F481E09F3F19F403C081E0A0
:104C900001C080E080FD47C04F81588569857A85D5
:104CA0008B859C850E949D233EC086E0FE01379641
:104CB000DE01119601900D928A95E1F7FF81E8855A
:104CC0006A857B856115710531F0EF3F31F481E034
:104CD000FF3F19F403C081E001C080E080FD23C0E4
:104CE0002091280530E0C9010196877099274091ED
:104CF000270550E084179507F1F1F983EA837D8356
:104D00006C8396E0929FD001939FB00D1124A75D14
:104D1000BA4FFE01319601900D929A95E1F780937A
:104D200028050E94AD2316E0809127059091280563
:104D3000891771F1189FC0011124875D9A4F0E9455
:104D40004424882329F1E09127051E9FF0011124B6
:104D5000E75DFA4F40815181628173818481958141
:104D60000E949D238091270590E0019687709927E6
:104D700080932705D9CF0E946423109228051092B2
:104D80002705E9E5F5E086E0DF011D928A95E9F760
:104D90002C960FB6F894DEBF0FBECDBFDF91CF913A
:104DA0001F910895EF92FF920F931F93CF93DF937C
:104DB0008C01892B09F46CC0F12CEE24E394E801FA
:104DC0002196F8018491843740F4843008F051C072
:104DD000813081F0823019F15BC0853709F444C01D
:104DE000A8F19CE7980F903708F052C08F770E9487
:104DF000552041C00E5F1F4FFE01849190E2980F35
:104E0000983050F48770FE2D01C0FF0F8A95EAF7A5
:104E10008F2F0E94AB2914C00E945E1F2DC00E5F11
:104E20001F4FFE01849190E2980F983060F48770D4
:104E3000FE2D01C0FF0F8A95EAF78F2F0E94B1293E
:104E40000E94522919C00E94552016C00E5F1F4FA4
:104E5000FE01C491CC2381F08FE99FE00197F1F727
:104E600000C00000C150F6CF0E5F1F4FFE01F4904E
:104E700003C00E945E1F8E018F2D882309F49FCFEF
:104E8000EFE9FFE03197F1F700C000008150F5CF66
:104E9000DF91CF911F910F91FF90EF9008950895AA
:104EA00008950C9450270E945127609395057093A4
:104EB000960580939705909398050C944C230C9439
:104EC00053270F931F9300919505109196052091FC
:104ED000970530919805602B712B822B932B1F9196
:104EE0000F910C9453270F931F93009195051091E8
:104EF00096052091970530919805602371238223B0
:104F000093231F910F910C9453270F931F9300919C
:104F10009505109196052091970530919805602789
:104F20007127822793271F910F910C9453270C947C
:104F3000BF0E0E949727609391057093920580930E
:104F40009305909394050C944C2360E070E0CB01A2
:104F50000C9499270F931F9341E050E060E070E0BC
:104F60008A019B0104C0000F111F221F331F8A9565
:104F7000D2F7C901B8011F910F910C9499270F9393
:104F80001F9341E050E060E070E004C0440F551F03
:104F9000661F771F8A95D2F78091910590919205AF
:104FA000A0919305B09194058A019B01082B192BC0
:104FB0002A2B3B2BC901B8011F910F910C94992703
:104FC0000F931F9341E050E060E070E004C0440F95
:104FD000551F661F771F8A95D2F7409550956095AB
:104FE00070958091910590919205A0919305B09153
:104FF00094058A019B01082319232A233B23C90115
:10500000B8011F910F910C9499270F931F9341E0C2
:1050100050E060E070E004C0440F551F661F771F2A
:105020008A95D2F78091910590919205A091930570
:10503000B09194058A019B01082719272A273B274D
:10504000C901B8011F910F910C9499270F931F93D9
:10505000009191051091920520919305309194054E
:10506000602B712B822B932B1F910F910C949927FE
:105070000F931F9300919105109192052091930534
:105080003091940560237123822393231F910F9104
:105090000C9499270F931F930091910510919205FD
:1050A00020919305309194056027712782279327DB
:1050B0001F910F910C94992708952FE0929F800DD6
:1050C0001124E82FE695E695E695877051E001C03A
:1050D000550F8A95EAF785E0E89FF0011124E15A1F
:1050E000FA4F20E030E070E04081CB01022E02C098
:1050F000969587950A94E2F7817081958427852398
:10510000842781932F5F3F4F2530310569F708953C
:105110002FE0929F800D1124682F66956695669505
:10512000982F977085E0689FB001112440E050E00F
:1051300080E0FB01E40FF51FE15AFA4F208130E0D7
:10514000092E02C0369527950A94E2F7217033277D
:10515000042E01C0220F0A94EAF7822B4F5F5F4FA3
:105160004530510531F70895CF92DF92EF92FF92CB
:105170000F931F93CF93DF938C01C0909105D09034
:105180009205E0909305F09094058091950590919B
:105190009605A0919705B0919805C82AD92AEA2AC0
:1051A000FB2ACFE1D0E0D701C6010C2E04C0B69592
:1051B000A795979587950A94D2F780FD04C021970B
:1051C00090F780E007C0B8018C2F0E94E813019788
:1051D000B1F38C2FDF91CF911F910F91FF90EF9042
:1051E000DF90CF900895CF93DF93EC010E94B42815
:1051F000BE010E94E813DF91CF9108951F93CF93D2
:10520000DF93EB0190912605992321F0CB010E94B9
:10521000F32813C0882349F0CB010E94B428182F2B
:10522000682FCE010E945D2804C0CB010E9488280F
:10523000182FBE01812F0E94E813DF91CF911F919B
:105240000895809199058595859585950895809116
:1052500099058770089598E0899F90011124262B65
:10526000209399050C94BF2720919905809582235E
:1052700080939905982F977069F430E0482F082E95
:10528000000C550B2417350729F0859585958595D4
:105290000C94E027089590919905977081E009F4A6
:1052A00080E00895E0919101F09192018091BD0517
:1052B0008083E0919101F091920190818091BC05F1
:1052C000892B8083E0919101F091920190818091EE
:1052D000BB05892B808380919A05882381F0E0911A
:1052E0009101F09192019081892B808380919101AD
:1052F000909192010E94802A811110929A058091CA
:105300009101909192010C94BE1D8091BD0508956C
:105310009091BD05892B8093BD050895809590914E
:10532000BD0589238093BD0508951092BD0508959C
:105330008091BC0508959091BC05892B8093BC0594
:10534000089580959091BC0589238093BC050895AC
:105350001092BC0508959091BB05892B8093BB05E5
:10536000089580959091BB0589238093BB0508958E
:105370001092BB05089580939A05089510929A059E
:10538000089580919A0508959093D3018093D20156
:105390000895CF92DF92EF92FF926C01EE24FF24EA
:1053A000C114D104E104F10421F0C701B60120E1E8
:1053B00001C020E0C72ED82EE92EFF24C114D1044D
:1053C000E104F10419F0285FC701B6016B017C010B
:1053D00054E0F694E794D794C7945A95D1F7C11442
:1053E000D104E104F10419F02C5FC701B6016B018F
:1053F0007C0142E0F694E794D794C7944A95D1F79C
:10540000C114D104E104F10419F02E5FC701B60103
:10541000DC01CB01B695A79597958795892B8A2BAB
:105420008B2B09F02F5F822FFF90EF90DF90CF90B2
:1054300008958295982F937344E0949F90011124CE
:105440008C7C86958695282B822F8575880F2A7AE5
:105450002695822B0895CF93DF93D92F0E94192A86
:10546000C82F8D2F0E94192A2C2F30E0322F22278F
:10547000A901482BCA01DF91CF9108956DEE7EEF0F
:1054800080E090E00E942C3760E082E090E00E9493
:105490000E3760E083E090E00E940E3760E084E029
:1054A00090E00E940E3760E085E090E00E940E37A9
:1054B00040E050E0BA0188E090E00C94203780E0B2
:1054C00090E00E94083721E08D3E9E4F09F020E0D9
:1054D000822F089582E090E00C94FA3683E090E009
:1054E0000C94FA36682F83E090E00C940E3784E039
:1054F00090E00C94FA36682F84E090E00C940E371C
:10550000FC0131969C01205E3F4F80E0919191110A
:105510008F5FE217F307D1F708959C01FC013296E3
:105520009FEF80E04191461789F09F3F19F44111A8
:1055300001C0982F8F5F8E31A9F79F3F39F0F90195
:10554000E90FF11D97FDFA956283089508959C0176
:10555000225E3F4FFC014281461301C01282019638
:1055600082179307B9F70895262F26952695269535
:105570002F3171F0FC01E20FF11D677021E030E086
:1055800001C0220F6A95EAF78181282B21830895B3
:105590008091BE0580FF0CC01F926F938AEF91E14E
:1055A0009F938F930E94260B0F900F900F900F9058
:1055B0000895262F2695269526952F3179F0FC0102
:1055C000E20FF11D677021E030E001C0220F6A9503
:1055D000EAF7209581812823218308958091BE05D3
:1055E00080FF0CC01F926F938CED91E19F938F937E
:1055F0000E94260B0F900F900F900F90089520910E
:10560000A301222329F02091310627FD0C94B42A0E
:105610000C948D2A2091A301222329F02091310698
:1056200027FD0C94D92A0C94A72AFC013196809668
:105630001192E817F907E1F7089580913706843051
:1056400039F11092BF0520E488E190E00FB6F8949C
:10565000A895809360000FBE2093600080E00E94B8
:10566000C71383B7817F846083BF83B7816083BFA3
:105670007894889583B78E7F83BF0FB6F894A895EA
:1056800080916000886180936000109260000FBE7E
:10569000089508950C94492BCF930E944A2B0E94A1
:1056A000D0160E94492BC0E08C2F0E948717892BAF
:1056B00029F4CF5FC530C1F780E001C081E0CF9110
:1056C00008950E9464230E94B21D0C94C7131F9278
:1056D0000F920FB60F9211248F939F93AF93BF93A6
:1056E0008091BF05811113C080912D0690912E06E7
:1056F000A0912F06B09130064196A11DB11D809357
:105700002D0690932E06A0932F06B0933006BF91DE
:10571000AF919F918F910F900FBE0F901F90189592
:1057200082E084BD93E095BD9AEF97BD80936E00B3
:1057300008952FB7F89480912D0690912E06A09190
:105740002F06B09130062FBF0895CF92DF92EF92CF
:10575000FF920F931F932FB7F89440912D0650910D
:105760002E0660912F06709130062FBF6A017B01D3
:10577000EE24FF248C0120E030E0C016D106E206C2
:10578000F30610F4415051099A01281B390BC90145
:105790001F910F91FF90EF90DF90CF900895789434
:1057A0001F920F920FB60F9211248F939F93AF9376
:1057B000BF9380912D0690912E06A0912F06B09157
:1057C00030060196A11DB11D80932D0690932E06E3
:1057D000A0932F06B0933006BF91AF919F918F9108
:1057E0000F900FBE0F901F90189581E08093E000FE
:1057F00080E28093D8001092C9008FE19EE4019767
:10580000F1F700C0000087E090EBDC0180934006D8
:1058100090934106A0934206B09343069CE088E132
:105820000FB6F894A895809360000FBE9093600027
:10583000FFCF0E945F2A811102C00E943E2A0E946F
:105840006A2A8093BE050E94772A90E090933206E0
:10585000809331060E946E2A682F70E080E090E00D
:105860000C945F278091C20580FF0BC06091960168
:1058700085E0689FB00111247595679575956795CA
:105880002BC081FF09C06091960185E0689FB0013F
:1058900011247595679520C082FF07C0609196011D
:1058A00085E0689FB001112417C09091C30599232A
:1058B000D1F060919501961788F72091960185E0C7
:1058C000289F90011124929FA001939F500D1124B5
:1058D00070E0CA010E94E0366038710540F461153D
:1058E000710519F406C065E070E0862F08958FE712
:1058F000089581E008958091C20580FF08C06091FD
:10590000940170E0759567957595679521C081FF45
:1059100006C06091940170E07595679519C082FF8B
:1059200004C06091940170E010C09091C305992368
:1059300099F0609193019617A0F780919401899F47
:10594000C001112470E00E94E0366038710540F417
:105950006115710519F406C061E070E0862F0895A5
:105960008FE7089581E00895803F21F40E94322C52
:10597000819504C0813F29F40E94322C8093C60592
:105980000895823F21F40E94322C819504C0833F08
:1059900029F40E94322C8093C5050895893F19F49B
:1059A0000E947B2C05C08A3F31F40E947B2C81959C
:1059B0008093C70508958B3F21F40E947B2C81952D
:1059C00004C08C3F29F40E947B2C8093C805089565
:1059D000843F21F48091C405816017C0853F21F484
:1059E0008091C405826011C0863F21F48091C40576
:1059F00084600BC0873F21F48091C405886005C096
:105A0000883F31F48091C40580618093C405089576
:105A10008D3F21F48091C20581600BC08E3F21F43F
:105A20008091C205826005C08F3F29F48091C20534
:105A300084608093C2050895803F39F48091C60543
:105A400087FF6CC01092C60569C0813F29F4809120
:105A5000C6051816BCF362C09091C505823F29F4B3
:105A600097FF5CC01092C50559C0833F19F4191601
:105A7000CCF354C0893F41F48091C70518160CF04F
:105A80004DC01092C7054AC08A3F29F48091C705CE
:105A900087FF44C0F6CF8B3F39F48091C80587FF5C
:105AA0003DC01092C8053AC08C3F29F48091C805CA
:105AB0001816BCF333C0843F21F48091C4058E7F57
:105AC00017C0853F21F48091C4058D7F11C0863FAA
:105AD00021F48091C4058B7F0BC0873F21F4809116
:105AE000C405877F05C0883F31F48091C4058F7E4F
:105AF0008093C40513C08D3F21F48091C2058E7F31
:105B00000BC08E3F21F48091C2058D7F05C08F3F71
:105B100029F48091C2058B7F8093C2058091C505D1
:105B200081110EC08091C60581110AC08091C70500
:105B3000811106C08091C805811102C01092C30571
:105B400008958091BE0583FF7EC08FE392E10E949D
:105B50008D0A8091C4051F928F938AE392E19F93EF
:105B60008F930E94260B88E392E10E948D0A809118
:105B7000C505282F082E000C330B3F938F9385E328
:105B800092E19F938F930E94260B83E392E10E9400
:105B90008D0A8091C605282F082E000C330B3F93E9
:105BA0008F9380E392E19F938F930E94260B8EE266
:105BB00092E10E948D0A8091C705282F082E000CC3
:105BC000330B3F938F938BE292E19F938F930E94CD
:105BD000260B89E292E10E948D0A8091C805282F48
:105BE000082E000C330B3F938F9386E292E19F9334
:105BF0008F930E94260B83E292E10E948D0A80918E
:105C0000C3051F928F9380E292E19F938F930E942E
:105C1000260B8EE192E10E948D0A8091C2051F92AF
:105C20008F938BE192E19F938F930E94260B88E1E3
:105C300092E10E948D0A8DB79EB74C960FB6F894EC
:105C40009EBF0FBE8DBF84EC95E00E94071E0E9490
:105C5000992B9093C1058093C00508951F93CF930E
:105C6000DF938091C0059091C1050E94A52BAC01E6
:105C70009091C305992321F02091970130E006C04F
:105C8000209198018AE0289F900111244217530720
:105C900008F46EC08091C505C091C605D091C705B6
:105CA0001091C805811107C0C1115EC0D1115CC03F
:105CB00011115AC05DC09F3F19F09F5F9093C305BB
:105CC000181624F40E94322C8093C5058091C505D6
:105CD00087FF05C00E94322C81958093C5051C1654
:105CE00024F40E94322C8093C6058091C60587FF5C
:105CF00005C00E94322C81958093C6054091C50550
:105D0000442379F03091C605332359F025EB420343
:105D1000A00111245093C5053203C00111249093B2
:105D2000C6051D1624F40E947B2C8093C705809124
:105D3000C70587FF05C00E947B2C81958093C7050E
:105D4000111624F40E947B2C8093C8058091C8050D
:105D500087FF05C00E947B2C81958093C805DF9149
:105D6000CF911F910C94A12D9F3F09F0A6CFB7CFE3
:105D7000DF91CF911F910895E4ECF5E085E0DF011C
:105D80001D928A95E9F71092C3051092C2050895F5
:105D90008091EC0508959FB7F8941092CB059FBFB2
:105DA00090913706943009F057C09091E9009F70A8
:105DB0003091EC00232F217030FD20E8922B24E05D
:105DC0002093E9002091EB0020FF43C02091EE00DA
:105DD00027FF3FC02091C905222321F02091E80030
:105DE00025FF37C01092C90526E03091E80035FD47
:105DF00015C030913706343061F53091EB0035FD38
:105E000028C0215021F481E08093C90522C0EFE928
:105E1000FFE03197F1F700C00000E7CF8093F10079
:105E20008091E80085FD0AC08091E80080FFFCCFEA
:105E30008091E8008E778093E80006C08FB7F894D1
:105E400021E02093CB058FBF9F709093E90080E005
:105E500008959F709093E9008FEF08950F931F931B
:105E6000CF93DF9300D01F92CDB7DEB78C010E9495
:105E70000632823011F0843019F583E089831B8368
:105E80000A838093E9008FEF9091E800815095FD9F
:105E900006C095ED9A95F1F700008111F5CF80913C
:105EA000E80085FF0DC040E050E063E070E0CE0107
:105EB00001960E9423328091E8008E778093E8005B
:105EC0000F900F900F90DF91CF911F910F91089538
:105ED000CF93DF9300D01F92CDB7DEB72091370666
:105EE000243031F522E02983805891099B838A83ED
:105EF00083E08093E9008FEF9091E800815095FD59
:105F000006C095ED9A95F1F700008111F5CF8091CB
:105F1000E80085FF0DC040E050E063E070E0CE0196
:105F200001960E9423328091E8008E778093E800EA
:105F30000F900F900F90DF91CF910895CF93DF9343
:105F4000EC010E940632823011F08430F9F482E0D4
:105F50008093E9008FEF9091E800815095FD06C095
:105F600095ED9A95F1F700008111F5CF8091E80049
:105F700085FF0CC040E050E065E070E0CE010E947B
:105F800023328091E8008E778093E800DF91CF91F3
:105F90000895CF93DF93EC010E940632823019F00E
:105FA000843009F047C08091A3018823E1F08091FB
:105FB000310687FF18C085E08093E9008FEF90914C
:105FC000E800815095FD06C095E19A95F1F7000033
:105FD0008111F5CF8091E80085FF2CC040E050E0B2
:105FE00060E270E017C081E08093E9008FEF90914C
:105FF000E800815095FD06C095ED9A95F1F70000F7
:106000008111F5CF8091E80085FF14C040E050E099
:1060100068E070E0CE010E9423328091E8008E7724
:106020008093E80080E2FE01ACECB5E001900D92B7
:106030008A95E1F7DF91CF91089587E892E10E9478
:106040008D0A80913606811109C00E94B4330E94E6
:1060500011348091E20084608093E200089583E827
:1060600092E10E948D0A1092360608958FE792E120
