:100000000C94330A0C947A0A0C947A0A0C947A0AA7
:100010000C947A0A0C947A0A0C947A0A0C947A0A50
:100020000C947A0A0C947A0A0C942C340C94FE34B6
:100030000C945E2B0C947A0A0C947A0A0C947A0A2B
:100040000C947A0A0C947A0A0C947A0A0C947A0A20
:100050000C947A0A0C94C62B0C947A0A0C947A0AA3
:100060000C947A0A0C947A0A0C947A0A0C947A0A00
:100070000C947A0A0C947A0A0C947A0A0C947A0AF0
:100080000C947A0A0C947A0A0C947A0A0C947A0AE0
:100090000C947A0A0C947A0A0C947A0A0C947A0AD0
:1000A0000C947A0A0C947A0A0C947A0A200E820E26
:1000B000820E820E270E290E2B0E2D0E310E2F0EC4
:1000C0001C0E820E350E420E440E460E4B0E540E82
:1000D000570E5C0E190E190EC10FC30FC50FC80FB6
:1000E000C50FCA0FCC0F531155116011571159117B
:1000F0005B115D115F11621164116611711168115C
:100100006A116C116E1170117311F520F5202F21F9
:100110002F216E218E2101230123D0210123802252
:100120008022F32201230123FB228D228D228D22A6
:100130008D228D228D228D228D228D228D228D2247
:100140008D228D228D228D228D229F22AD22B422DE
:10015000BB22C52294239423A623A6239D23A62352
:10016000A623A62394239423A223A623A623A22373
:100170006B359235843692358436DE3501368436D9
:1001800057366636444F55424C455F53494E474CAF
:10019000455F54415000444F55424C455F484F4CD9
:1001A0004400444F55424C455F54415000647A36F8
:1001B000302F646976696465303A76236D617374B3
:1001C000657200707265737365733A202564200D43
:1001D0000A007E2F2E00647A36302F6469766964B7
:1001E00065303A76236D61737465720064796E616F
:1001F0006D6963206D6163726F3A2069676E6F721B
:10020000696E67206D6163726F20706C6179206B1D
:100210006579207768696C65207265636F726469BF
:100220006E670D0A0064796E616D6963206D6163AC
:10023000726F3A20736C6F74202564207361766549
:10024000642C206C656E6774683A2025640A00642B
:10025000796E616D6963206D6163726F3A207472AB
:10026000696D6D696E67206120747261696C696E79
:1002700067206B65792D646F776E206576656E7487
:100280000D0A0064796E616D6963206D6163726F40
:100290003A20736C6F74202564206C656E677468F7
:1002A0003A2025642F25640A0064796E616D6963C4
:1002B000206D6163726F3A2069676E6F72696E6755
:1002C0002061206C656164696E67206B65792D75AE
:1002D00070206576656E740D0A0064796E616D69D3
:1002E00063206D6163726F3A20736C6F74202564B4
:1002F00020706C61796261636B0A0064796E616D74
:100300006963206D6163726F207265636F726469E7
:100310006E673A20737461727465640D0A00155C2F
:100320001E001F00200021002200230024002500C1
:10033000260027002D002E0000002A000457000090
:1003400014001A000800150017001C0018000C000B
:10035000120013002F003000015702570000040064
:100360001600070009000A000B000D000E000F0028
:100370003300340028000000065700001D001B0059
:10038000060019000500110010000357370038005F
:1003900031725200DC5CE00005570000E2002C00E6
:1003A0000000005700002C0000004A004D005000E3
:1003B00051004F000000000000000000000000009D
:1003C000000000000000000000000000000000002D
:1003D000000000000000000000000000000000001D
:1003E000000000000000000000000000000000000D
:1003F00000000000000000000000000000000000FD
:1009900001003A003B003C003D003E003F004000AB
:1009A0004100420043004400450000002A000100CD
:1009B0000000501650144F144F16F90006114A004B
:1009C0004B004D00191101000100005C0100000006
:1009D000501350114F114F1301005000510052009D
:1009E0004F000100010028000000010000001D115F
:1009F0001B1106111911FA00010050114E004F1180
:100A00001D1301004B000100010001000000010066
:100A10002C000000005700002C0000000100010025
:100A20004A004E004D000100F400F500F600F7000A
:100A3000F8000100010001000100010001000100B7
:100A400000000100010000000100F400F000F500CA
:100A5000F900F900F400F000F500010001000100C8
:100A6000005C010000000100F200F100F300FA0058
:100A7000FA00F200F100F3000100010001000000A3
:100A8000010000000100FD00FE00FF000100010068
:100A9000FD00FE00FF000100010001000100010057
:100AA0000100000001002C000000005700002C0095
:100AB0000000010001000100010001000100C35C11
:100AC000C45CC55CC65CC75CC85CC95CCA5C010030
:100AD0000100BC5CBB5C0000BA5C01000000BD5CB6
:100AE000BF5CC15C010001000100010001000100C8
:100AF0000100A600A700005C01000000BE5CC05C15
:100B0000C25C010001000100010001000100AC0015
:100B1000AB00DE5C000001000000010001000100EC
:100B200001000100010001000100010001000100BD
:100B3000A900010001000100000001002C000000DC
:100B4000005700002C00000001000100AD00AA00C9
:100B5000AE00E85CE95CEA5C010001000100010014
:100B6000010001000100E65CE75C010000000100FB
:100B70000100000010580D580F580C580B580B5816
:100B80000C580F580D5810580100010001000100C9
:100B900000001E021F022002210222022302240260
:100BA00025022602270201000100000001000000CA
:100BB000350235002E022E00310231002F003000A8
:100BC0002F023002010001000100010001000000BD
:100BD0000100010000000100000001000000010010
:100BE000010001000100010001001E001F002000A3
:100BF00021002200230024002500260027002D00CC
:100C00002E0000002A000100000014001A00080055
:100C1000150017001C0018000C00120013002F0014
:100C20003000010001000000040016000700090068
:100C30000A000B000D000E000F00330034002800E6
:100C40000000010000001D001B0006001900050047
:100C500011001000360037003800317252000100D8
:100C6000010001000000010001000000010000007F
:100C7000010000000100010001000100010001006D
:100C8000010001000100010001000100010001005C
:100C9000010001000100010000000100010000004E
:100CA000010001000100010001000100010001003C
:100CB000010001000100010001000100000001002D
:100CC000010001000100010001000100010001001C
:100CD000010001000100000001000000010001000E
:100CE00001000100010001000100010001000100FC
:100CF00001000100010001000100000001000100ED
:100D000000000100000001000000010001000100DE
:100D10000100010044454255473A20656E61626C0E
:100D200065642E0A0000000000000000002A2B2845
:100D300000000000000000000000000000000000B3
:100D400029000000002C1E342021222434262725CF
:100D50002E362D3738271E1F202122232425263307
:100D600033362E37381F0405060708090A0B0C0D09
:100D70000E0F101112131415161718191A1B1C1D1B
:100D80002F3130232D350405060708090A0B0C0DF9
:100D90000E0F101112131415161718191A1B1C1DFB
:100DA0002F3130354C000000000000000000000032
:100DB0000000000000000000000000000000000033
:100DC000000000000000010101010101000101011A
:100DD0000100000000000000000000000000000111
:100DE00000010001010101010101010101010101F5
:100DF00001010101010101010101010101010101E3
:100E000000000001010000000000000000000000E0
:100E100000000000000000000000000000000000D2
:100E200001010101000A002530313662003A20003C
:100E300025303258000A722F632030313233343576
:100E4000363738394142434445460A007267626C7E
:100E5000696768742073657420687376205B454504
:100E600050524F4D5D3A2025752C25752C25750A5D
:100E7000007267626C69676874207261696E626F84
:100E80007720736574206873763A2025752C257554
:100E90002C25642C25750A007267626C696768747A
:100EA0002064697361626C653A207267626C69677D
:100EB00068745F636F6E6669672E656E61626C65EC
:100EC000203D2025750A007267626C69676874208E
:100ED000656E61626C653A207267626C69676874FE
:100EE0005F636F6E6669672E656E61626C65203D3B
:100EF0002025750A007267626C6967687420746FD8
:100F000067676C653A207267626C696768745F63D3
:100F10006F6E6669672E656E61626C65203D202587
:100F2000750A007267626C69676874206D6F64652A
:100F30003A2025750A007267626C696768745F6998
:100F40006E6974207267626C696768745F636F6E44
:100F50006669672E6D6F6465203D20302E205772C4
:100F60006974652064656661756C742076616C7562
:100F7000657320746F20454550524F4D2E0A007204
:100F800067626C696768745F696E69742065656320
:100F90006F6E666967206973206E6F7420656E617D
:100FA000626C65642E0A007267626C696768745FC0
:100FB000696E6974207374617274210A00726762C9
:100FC0006C696768745F696E69742063616C6C65D5
:100FD000642E0A007267626C696768745F636F6E83
:100FE0006669672E76616C203D2025640A00726771
:100FF000626C696768745F636F6E6669672E7361A0
:1010000074203D2025640A007267626C6967687409
:101010005F636F6E6669672E687565203D20256485
:101020000A007267686C696768745F636F6E6669EF
:10103000672E6D6F6465203D2025640A007267622B
:101040006C696768745F636F6E6669672E656E6151
:10105000626C65203D2025640A007267626C6967D6
:1010600068745F636F6E666967206570726F6D0A82
:10107000006565636F6E6669675F7570646174654E
:101080005F7267626C696768745F64656661756CDE
:10109000740A006801F000B40078005A00000000F3
:1010A000000001010101010101010102020202022D
:1010B0000202020203030303030303030404040400
:1010C00004040505050505060606060607070707C5
:1010D000080808080909090A0A0A0A0B0B0B0C0C74
:1010E0000C0D0D0D0E0E0F0F0F101011111112120D
:1010F00013131414151516161717181819191A1A88
:101100001B1C1C1D1D1E1F1F2020212222232425E5
:101110002526272728292A2B2B2C2D2E2F2F30311F
:101120003233343536363738393A3B3C3D3E3F4032
:1011300041424344464748494A4B4C4D4F50515217
:1011400053555657585A5B5C5E5F606263646667CE
:10115000696A6C6D6E707173747678797B7C7E8051
:1011600081838486888A8B8D8F91929496989A9B9E
:101170009D9FA1A3A5A7A9ABADAFB1B3B5B7B9BBAF
:10118000BDBFC1C4C6C8CACCCFD1D3D6D8DADCDF84
:10119000E1E4E6E8EBEDF0F2F5F7FAFCFF0A0025F2
:1011A00030325820006B6579626F6172645F7265DE
:1011B000706F72743A20000A0025303258006B6557
:1011C00079626F6172645F7365745F6C65643A2005
:1011D0000064656C5F6B65795F6269743A20636176
:1011E0006E27742064656C3A20253032580A0061FD
:1011F00064645F6B65795F6269743A2063616E272E
:1012000074206164643A20253032580A00290A00AB
:101210002575002F002575005D280025640020003D
:10122000256400200025640020002564007C002542
:10123000303258006D6F7573656B6579205B627431
:101240006E7C782079207620685D287265702F6129
:10125000636C293A205B005B735D004B6579626FBC
:101260006172642073746172742E0A005B575D00B2
:101270005B535D005B525D005B445D005B435D0062
:101280000403300000000A0344005A003600300016
:10129000000010034B0042004400460061006E0055
:1012A000730000000403090409028D00050100A079
:1012B000FA090400000103010100092111010001E4
:1012C0002240000705810308000A09040100010308
:1012D000010200092111010001224D0007058203CE
:1012E00008000A090402000103000000092111019D
:1012F00000012236000705830308000A09040300E1
:10130000020300000009211101000122220007054B
:1013100084032000010705040320000109040400E0
:101320000103000000092111010001223900070515
:1013300085032000011201100100000008EDFE608D
:101340002201000102030105010906A10105071997
:10135000E029E715002501950875018102050819A6
:101360000129059505750191029501750391010506
:1013700007190029F71500250195F875018102C0AC
:101380000631FF0974A1010975150026FF0095209B
:10139000750881020976150026FF009520750891D1
:1013A00002C005010980A101850216010026030083
:1013B0001A81002A8300751095018100C0050C096F
:1013C00001A1018503160100269C021A01002A9C36
:1013D00002751095018100C005010902A1010901F2
:1013E000A1000509190129051500250195057501BB
:1013F00081029501750381010501093009311581CB
:10140000257F95027508810609381581257F95018C
:1014100075088106050C0A38021581257F9501752E
:10142000088106C0C005010906A101050719E029C8
:10143000E715002501950875018102950175088160
:101440000105081901290595057501910295017598
:101450000391010507190029FF150026FF009506D5
:1014600075088100C00011241FBECFEFDAE0DEBF97
:10147000CDBF04B603FE27C0809145069091460675
:10148000A0914706B09148068730904BA740B04BDB
:10149000D1F410924506109246061092470610921B
:1014A000480614BE84B7877F84BF0FB6F894A8950A
:1014B00080916000886180936000109260000FBE90
:1014C000E0E0F8E3099511E0A0E0B1E0E6E7FEE630
:1014D00002C005900D92A63EB107D9F726E0A6EE10
:1014E000B1E001C01D92A534B207E1F70E94473177
:1014F0000C9439370C940000FF93EF93E091E601D0
:10150000F091E701309709F00995EF91FF91089567
:10151000FC018591803011F0EFDFFBCF0895FF27AC
:10152000E0E230E247FF0CC0419597FF09C0EDE2D1
:101530006095709580959095611D711D811D911D1F
:1015400027FF02C0219530E350E2AA27660F771FDC
:10155000881F991FAA1FA41710F0A41B63955A9502
:10156000A9F7AA3008F0A95FA05DAF93F3956115C4
:1015700071058105910541F7ED3211F4EF93F39573
:10158000F21718F43F93F395FBCF8F91B5DFFA95DF
:10159000E1F70895E991F9918591803021F0853244
:1015A00019F0AADFF9CF089520E0E894559155325B
:1015B000C1F3503311F4689455915A3348F45053A1
:1015C00090F3220F022E220F220F200D250FF4CFB1
:1015D0000EF4219589919991533619F3533729F1D6
:1015E000533559F1BC0188279927E8945C3621F4DA
:1015F0008991999168945591543639F446EF7EF06B
:1016000077FF0DC08FEF9FEF0AC055374AE039F0E2
:10161000583540E121F0523642E009F00895FF9339
:10162000EF937DDFEF91FF91B7CFFF93EF93FC0135
:1016300081918030B9F360DFFBCFFF93EF9368DFD8
:10164000F1CFDF93CF93CDB7DEB72596A3DFCF9150
:10165000DF9108950C946F16229A2A9A08950E9499
:10166000E80D0C942C0B0C94BD13809117019091F4
:10167000180183309105A9F054F48130910589F067
:101680000297B9F481EE0E94492080EE10C08630A6
:10169000910539F08730910531F0049751F480EECF
:1016A00003C08BE204C081EE0E94492082EE0E94BA
:1016B0004920109218011092170108958091080195
:1016C000909109018130910511F0029719F483EE90
:1016D0000E944920109209011092080108958091FA
:1016E0001401909115018430910589F03CF481300A
:1016F000910559F0029799F48BE00FC0863091055F
:1017000041F0079761F480E108C086E303C08EE0F2
:1017100004C082EB0E94492002C00E94CA27109296
:1017200015011092140108958091110190911201F8
:101730008230910549F08430910541F0019749F4D8
:1017400089E20E94492005C08BE001C08CE00E9424
:10175000CA271092120110921101089580910E0172
:1017600090910F018430910539F08730910531F067
:10177000029739F48BE003C08CE001C08EE00E9438
:10178000CA2710920F0110920E01089580910B014B
:1017900090910C01029719F48EE00E94CA271092D2
:1017A0000C0110920B0108958091050190910601A2
:1017B000019721F481E00E94222903C081EE0E945A
:1017C0004920109206011092050108950F931F936E
:1017D000CF93DF93EC018B018091C30580FF04C0A0
:1017E0008BEF92E00E94880A0E9482230E948F273A
:1017F00019830883DF91CF911F910F9108958F92E4
:101800009F92AF92BF92EF92FF920F931F93CF934D
:10181000DF93EC017B01042F8091C30580FF11C091
:10182000141614F082E001C081E01F928F938AEDBC
:1018300092E09F938F930E94210B0F900F900F9037
:101840000F908090960590909705A0909805B09085
:1018500099050E9482230E948F2786E0080280015A
:101860001124CE15DF0531F0CE010E944323C00FB5
:10187000D11FF7CF0E948223809296059092970500
:10188000A0929805B0929905DF91CF911F910F9189
:10189000FF90EF90BF90AF909F908F900895EF9240
:1018A000FF920F931F93CF93DF93EC017801D80140
:1018B00012968C91FB01A081B181811111C0AC17EE
:1018C000BD0771F48091C30580FF6EC089EA92E084
:1018D000DF91CF911F910F91FF90EF900C94880AA8
:1018E000F6E02F02C00111248D01081B190B4017CF
:1018F000510771F036E0F70101900D923A95E1F74A
:10190000DB01ED91FC9111978E0F9F1F8D939C939E
:101910008091C30580FF48C0022F022E000C110BDE
:101920004C1B5D0B55954795ABEABAEA4A9FC0013F
:101930004B9F900D5A9F900D1124089FA001099F65
:10194000500D189F500D11244F5F5F4FFB01808198
:1019500091818C1B9D0B959587958A9FE0018B9FAC
:10196000D00D9A9FD00D11240C9FB0010D9F700DCA
:101970001C9F700D1124121614F082E001C081E04A
:101980005F934F937F936F931F928F9383E892E0BF
:101990009F938F930E94210B8DB79EB708960FB629
:1019A000F8949EBF0FBE8DBFDF91CF911F910F9115
:1019B000FF90EF9008958F929F92AF92BF92CF9237
:1019C000DF92EF92FF920F931F93CF93DF931F92BB
:1019D000CDB7DEB77C01890186E0480260011124A1
:1019E000AA24BB24AC18BD084B018091C3058E14FA
:1019F0009F0489F0F401EA0DFB1D9281992359F0AF
:101A000080FF06C08FE492E049830E94880A4981E2
:101A10008C189D08EACF80FF28C0C4018E199F0949
:101A2000959587952BEA3AEA829FB001839F700DC6
:101A3000929F700D112446039001479F300D112491
:101A4000141614F082E001C081E03F932F931F929F
:101A50008F9385E292E09F938F930E94210B0F90CA
:101A60000F900F900F900F900F90F801918280824D
:101A70000F90DF91CF911F910F91FF90EF90DF902A
:101A8000CF90BF90AF909F908F9008950F931F932A
:101A9000CF938B012091EA04211139C0FB01C2814F
:101AA000C11185C0873EFCE59F07E9F060F4863EE2
:101AB0009C4509F07BC068EE71E088EE94E00E94DE
:101AC000E60B81E017C0893EECE59E07B1F08A3E47
:101AD0009C4509F06BC060910001709101014FEFCE
:101AE00082EE94E011C062EE74E088EE94E00E9411
:101AF000E60B82E08093EA045AC060910201709183
:101B0000030141E088EE91E00E94FF0B50C0883E47
:101B10003CE5930729F088F18B3E9C4510F12DC0E0
:101B2000FB01C281CC2309F442C0213061F0223094
:101B3000A9F46091E8047091E90420E031E04FEFEE
:101B400082EE94E009C06091E8047091E90422E01B
:101B500031E041E088EE91E00E94DB0C1092EA0453
:101B60000AC08091C305C82FC17080FF20C08CEED1
:101B700091E00E94880AC0E01AC0213061F0223052
:101B8000A9F440910201509103012FEF68EE74E037
:101B900082EE94E009C0409100015091010121E0E2
:101BA00068EE74E088EE91E00E944F0CC1E08C2F4B
:101BB000CF911F910F910895CF93DF93EC010E9475
:101BC0006B2ABE0180E090E0DF91CF910C94492711
:101BD0000E9436186093F4057093F5058093F6051E
:101BE0009093F70508950F931F93CF93DF938C0184
:101BF000EB010E94460D882309F1003181E51807A9
:101C000011F0C80102C088EE9CE5BE010E94460D9D
:101C10008823A1F0CA81CC2309F451C0F801E25D08
:101C2000FC45E631F10508F06DC0EA5AFF4F0C940F
:101C3000EB360E948F2766C00E948F27C0E062C0EB
:101C40000E948F2781E090E00E94DC0DF7CF8BE0AF
:101C500009C08CE007C08DE005C08EE003C080E1C4
:101C600001C08FE00E94A927E9CF0E9460180E945E
:101C700036186093F4057093F5058093F6059093FC
:101C8000F705DCCF80EF03C080EF06C081EF0E9434
:101C9000AB2C82EF04C081EF0E94AB2C83EF0E943B
:101CA000AB2C0E94982DCACF86ED91E002C082ED48
:101CB00091E00E94B413C2CF0E94372ABFCF003EEA
:101CC0009CE5190779F028F40F3D1C45D1F480EF0D
:101CD0000CC0013E9CE5190739F0023E1C4589F411
:101CE00081EF07C080EF05C081EF0E94132D82EFC6
:101CF00003C00E94132D83EF0E94132D0E94982D84
:101D000001C0C82F8C2FDF91CF911F910F910895A3
:101D1000BF92CF92DF92EF92FF920F931F93CF93D8
:101D2000DF9300D0CDB7DEB76B017C010E9436187F
:101D3000092F9A8369830E94672A182F4A81698133
:101D400060FF08C0002331F00B3A30F4042F0695F1
:101D5000040F03C008E701C00FEF262F26952F734D
:101D6000822F90E0039714F4B22E02C0BB24B394E8
:101D7000C701B6014A830E94B7294A818D3041F1DB
:101D800070F48B30D9F08C30F1F50E942A1B8B2D2A
:101D90000E94891A402F6FEF8AE590E045C08F308E
:101DA00059F100F1803179F50E942A1B8B2D0E9498
:101DB000891A402F60EB80E190E036C00E942A1B18
:101DC0008B2D0E94891A402F6FEF80EF90E02CC07E
:101DD0000E942A1B8B2D0E94891A402F6FEF86E9E3
:101DE00090E022C00E942A1B8B2D0E94891A402F4E
:101DF0006FEF8CE390E018C00E942A1B8B2D0E948D
:101E0000891A402F0EC011FF04C06FEF8CE291E0E1
:101E10000BC013FF04C06FEF88E790E005C012FF0E
:101E200006C06AED8BE290E00E9483190CC00E940C
:101E300060186091F4057091F5058091F605909118
:101E4000F7050E94081CC701B6010F900F90DF91A3
:101E5000CF911F910F91FF90EF90DF90CF90BF90A7
:101E60000895EF92FF921F93CF93DF936623F1F0D3
:101E7000182FC62FC695D0E083ECE82E81E0F82E0F
:101E8000DC17A1F01F92CF93FF92EF920E94210BDB
:101E9000812F0E94521F812F0E9449200F900F9086
:101EA0000F900F90D03111F0DF5FEACFDF91CF912B
:101EB0001F91FF90EF900895FC018081813049F4DB
:101EC000878181111CC080858823C9F082E090E061
:101ED0000895823049F48781811114C08085811171
:101EE00014C083E090E00895833091F487818111DC
:101EF00012C08085882379F087E090E0089581E022
:101F000090E0089585E090E0089584E090E00895E1
:101F100088E090E0089586E090E008950E945C0FCC
:101F200090931201809311018330910591F034F464
:101F30008130910549F0029751F008958430910560
:101F400051F0059759F0089589E20C94521F8BE0E7
:101F500003C00C948F278CE00C9494278DEA91E0B9
:101F60000C94B4130E945C0F90930F0180930E01A8
:101F7000FC013197E730F10590F4E459FF4F0C94E0
:101F8000EB368BE003C08BE008C08CE00C94EF27AD
:101F90008CE003C08EE0FACF8EE00C94A927089560
:101FA0000E945C0F90930C0180930B01813091058E
:101FB00019F0029719F008950C949E108EE00C947D
:101FC00094270E945C0F909309018093080183304D
:101FD000910581F034F48130910549F0029739F090
:101FE00008958430910549F0059751F0089583EEE6
:101FF0000C94521F82EA91E005C086E991E002C08C
:1020000084E891E00C94B413FC018081813031F4B8
:102010008085882399F082E090E00895823031F441
:10202000808581110EC083E090E00895833061F4D3
:102030008085882361F087E090E0089581E090E05A
:10204000089584E090E0089588E090E0089586E0A7
:1020500090E008950E940410909318018093170156
:1020600083309105E9F05CF481309105F9F082301C
:10207000910521F581EE0E94521F80EE18C0863036
:10208000910541F087309105A1F084309105B1F4BC
:1020900080EE10C08BE20E94521F8BE20E9449200A
:1020A0008BE20E94521F8BE20E9449208BE20C942B
:1020B000521F81EE0E94521F82EEF9CF682F8BE2F1
:1020C00090E00C94310F0E940410909315018093BE
:1020D000140183309105A9F034F48130910569F041
:1020E000029769F008958630910571F08730910567
:1020F00071F0049779F48EE00BC086E306C08BE0A4
:1021000007C08CE00C94EF2782EB0C94521F80E107
:102110000C94942708950E940410909306018093D4
:102120000501019721F463E08EE00C94192981EEFA
:102130000C94521F81E008950C94F30D0E948223A9
:102140002FEF84E39CE0215080409040E1F700C0F5
:1021500000000C94EC2BFF920F931F93CF93DF930F
:102160008C01FC01C081D18180912B05811113C0AC
:102170008281882349F0CE010E94A228F82E682F80
:10218000CE010E94472804C0CE010E947628F82E76
:10219000BE018F2D04C0CE010E94A228BE010E9464
:1021A000C413EC01B8010E94B51CB801CE010E9415
:1021B0009C10882309F478C2B801CE010E94F71C54
:1021C000882309F471C2B801CE010E942016882329
:1021D00009F46AC2C23CFCE5DF0741F4F8018281E0
:1021E000882309F461C20E94EE1B5EC2C33C8CE5E9
:1021F000D80708F019C1CB3B9CE5D90761F4F80179
:102200008281882309F450C20E9473298272E1F00E
:102210000E94211B49C2CC3BECE5DE07C0F0CE3B5F
:102220009CE5D90709F4D1C008F0E3C0CC3BFCE53C
:10223000DF0709F0D2C0F8018281882309F434C293
:102240000E947329827221F30E941E1B2DC2C53188
:10225000FCE5DF0708F082C0C2308CE5D80708F43F
:1022600052C0F8018281882309F459C00E94582A7B
:10227000811102C00E94372A0E94702A90E0909338
:10228000370680933606FE01E350FC45E231F10546
:1022900030F4ED58FF4F809136060C94EB36809168
:1022A0003606816027C0826025C0846023C08061BB
:1022B00021C080621FC080641DC080681BC0846014
:1022C000886018C08E7F16C08D7F14C08B7F12C0AF
:1022D0008F7E10C08F7D0EC08F7B0CC08F770AC0A1
:1022E0008B7F877F07C087FB222720F991E0922709
:1022F00090FB87F980933606809136060E94742AF7
:102300000E948223D1C1C1159CE5D90781F0C1305B
:10231000DC45A9F081E08093F0048093F104C801CA
:10232000DF91CF911F910F91FF900C949A10F801BB
:102330008281882309F4B8C10E949E10B5C1F801BA
:102340008281882309F4B0C18091C30581608093A4
:10235000C30584E19DE00E94880AA6C1C531FCE561
:10236000DF0739F50E947329282FF80182814091F7
:10237000A6015091A701882379F02A7A91E009F407
:1023800090E09093EB04911102C069E201C065E313
:10239000CA010E94F72A0AC08091EB04811102C091
:1023A00069E201C065E3CA010E94022B0E94402934
:1023B0007BC1CA3BDC4509F0ADCFF801828188239F
:1023C00009F472C10E94501B6FC1F80182818823F9
:1023D00009F46AC10E947F1B67C1CD3BDC4509F04F
:1023E00099CFF8018281882309F45EC10E94671B9E
:1023F0005BC1F8018281C03CFCE5DF0731F4882332
:1024000009F452C10E94B91B4FC1C13CDC4530F4F4
:10241000882309F449C10E949E1B46C1882309F400
:1024200043C10E94D31B40C1C93CECE5DE0749F41F
:10243000F8018281882309F437C188E10E94891A52
:1024400033C1CA3CFCE5DF0708F088C0C53C8CE519
:10245000D807B1F4F8018281882309F425C10E94CC
:10246000D518663071058105910540F00E94D51898
:10247000683071058105910508F4E6CE86E0DECF6F
:10248000C63C9CE5D90728F5C33CECE5DE0739F4EA
:10249000F8018281882309F407C181E0CFCFC43CD1
:1024A000DC4509F037CFF8018281882309F4FCC0AC
:1024B0000E94D518623071058105910540F00E9497
:1024C000D518653071058105910508F4BDCE82E00F
:1024D000B5CFF8018281C73CFCE5DF07A1F4882372
:1024E00009F4E2C00E94D5186F307105810591058D
:1024F00040F00E94D518643171058105910508F4FA
:10250000A3CE8FE09BCFC83CDC45A0F4882309F420
:10251000CBC00E94D518693071058105910540F046
:102520000E94D5186E3071058105910508F48CCE96
:1025300089E084CF882309F4B7C00E94D51865319B
:1025400071058105910540F00E94D518673171052C
:102550008105910508F478CE85E170CFCC3CECE59F
:10256000DE0739F5F8018281882361F01092F104C9
:102570000E94902B9093EF048093EE0480E20E94DF
:10258000A82092C08091F10481110FC08091EE04C7
:102590009091EF040E949C2B883C910530F487E2D7
:1025A0000E94521F87E20E94492080E20E94AF20D1
:1025B0007BC0CD3CFCE5DF0708F041C0CA3C8CE5A0
:1025C000D807B1F4F8018281882309F46DC00E9414
:1025D000D518693171058105910540F00E94D51823
:1025E000623271058105910508F42ECE89E126CF6E
:1025F000CB3CDC4509F08ECEF8018281882351F076
:102600001092F0040E94902B9093ED048093EC04C0
:1026100082E0B5CF8091F00481110FC08091EC046D
:102620009091ED040E949C2B883C910530F486E249
:102630000E94521F86E20E94492082E0B7CFC03D2F
:10264000ECE5DE0731F4F8018281882369F180E04E
:1026500009C0C13DFCE5DF0741F4F8018281882310
:1026600019F182E00E94EF311FC0CD3CDC4509F03A
:1026700051CEF8018281811179CF8091F1048111CD
:1026800094CF8091EE049091EF040E949C2B883CA3
:10269000910508F08ACF80E20E94AF2088E20E9474
:1026A000521F88E20E94492080E0DF91CF911F9164
:1026B0000F91FF900895CF93282F30E0F901EB5D43
:1026C000F24FC491F901EB55F24F2491222359F0B6
:1026D00081EE0E94521F8C2F0E94521F8C2F0E944D
:1026E000492081EE04C08C2F0E94521F8C2FCF9165
:1026F0000C9449200F931F93CF93DF93EC01062F87
:10270000FE018491882359F19E012F5F3F4F813054
:1027100041F4E901F9011491812F0E94521F812F88
:102720000DC0823031F4E901F90184910E94521FF9
:102730000AC0833031F4E901F90184910E944920F3
:1027400002C00E945B132196802F8823C9F2EFE913
:10275000FFE03197F1F700C000008150F6CFDF9124
:10276000CF911F910F91089560E00C947A130C940F
:102770002F0B0E94531D0C942A0B08950C94330BBD
:1027800080E090E0089508959FE0799FF001112482
:102790009BE4899FE00DF11D1124E60FF11DEE0F62
:1027A000FF1FE25EFC4F859194910895880F991F59
:1027B000FC01EB5DF14F859194910895CF93DF93E8
:1027C0000E94C4130E947615EC01811520E4920743
:1027D000B0F5811540E3940708F0E1C0803E910513
:1027E000D0F4803C910508F06FC0883A910570F4F0
:1027F000853A910508F06BC08130910509F472C1EA
:1028000008F429C1049708F06DC125C18D3B9105DD
:1028100008F468C020C18F3F910509F048F4803F5B
:10282000910508F0B6C0883E910508F45BC113C15C
:10283000811550E2950708F455C19F70ACC0811511
:1028400064E59607D8F4C11583E5D80708F0E2C01F
:10285000C11521E5D20740F4C11540E5D40708F0C1
:10286000A7C0DF70D06A3EC1C11552E5D50708F098
:10287000BBC0DC2FCC27C16FD06A34C1811566E59F
:10288000960750F4C11585E5D80708F0D9C0DC2FAC
:10289000CC27C46FD06A26C1811528E5920708F4B9
:1028A000DAC0811549E5940708F4D0C09056811527
:1028B000904208F0D0C08D2F8F710E94F315DD2754
:1028C000D0628F71D82B0EC1805C910964C0853AAB
:1028D000910509F4C3C0863A910509F0C2C0C2E867
:1028E000D0E400C1883A910509F4BEC0893A910547
:1028F00009F4BDC08A3A910509F4BCC08B3A910530
:1029000009F4BBC08C3A910509F4BAC08B3B910520
:1029100009F4B9C08C3B910509F4B8C08D3A910512
:1029200009F4B7C0803B910509F4B6C08E3A910511
:1029300009F4B5C08F3A910509F4B4C0813B910503
:1029400009F4B3C0823B910509F4B2C0833B910501
:1029500009F4B1C0843B910509F4B0C0853B9105F1
:1029600009F4AFC0863B910509F4AEC0873B9105E1
:1029700009F4ADC0883B910509F4ACC0893B9105D1
:1029800009F4ABC08A3B910509F4AAC0C0E0D4E4C5
:10299000A9C0D065A7C00E94D613EC01A3C0992797
:1029A000D3FF03C0EC01D86C9DC0EC01D06C9AC081
:1029B0002C2F237081E090E002C0880F991F2A9588
:1029C000E2F79C689E0144E0369527954A95E1F729
:1029D0002370922BCF70C695C69560E2C69FE0012A
:1029E0001124C82BD92B7EC02C2F2695269580E24A
:1029F000289F90011124C370DD2781E090E0AC0195
:102A000002C0440F551FCA95E2F7EA01C22BD32B2F
:102A1000DC6868C02C2F2695269580E2289F9001BF
:102A20001124C370DD2781E090E0AC0102C0440FA7
:102A3000551FCA95E2F7EA01C22BD32BDA6852C0C0
:102A4000CF71DD27DC2FCC27D0624CC0DC2FCC2708
:102A5000C06FD06A47C0C0E0D0E044C0C1E8D0E455
:102A600041C0C3E8D0E43EC0C2EED4E43BC0C9EEEE
:102A7000D4E438C0CAEED4E435C0C5EBD4E432C0E7
:102A8000C6EBD4E42FC0C3EBD4E42CC0C4EBD4E435
:102A900029C0C7EBD4E426C0CCECD4E423C0CDECF1
:102AA000D4E420C0C3E8D5E41DC0CAE8D5E41AC008
:102AB000C2E9D5E417C0C4E9D5E414C0C1E2D6E444
:102AC00011C0C3E2D6E40EC0C4E2D6E40BC0C5E236
:102AD000D6E408C0C6E2D6E405C0C7E2D6E402C028
:102AE000CAE2D6E4CE01DF91CF91089582389105F4
:102AF00049F1B0F48133910509F458C048F48932A2
:102B0000910509F44EC08A32910509F454C0089524
:102B10008533910509F440C08933910599F00895F2
:102B2000833E910529F138F4803E910591F0823E73
:102B30009105A1F00895863E9105F9F0873E910533
:102B400031F108952091360620FD3AC021FD38C0AC
:102B500008958091360680FD35C032C080913606DA
:102B600082FF32C08091360684FD30C083EE39C0CA
:102B70008091360682FD28C0F5CF8091360683FF0E
:102B800027C08091360684FD21C087EE2AC080913F
:102B9000360683FD1DC0F5CF8091360685FD1AC02F
:102BA0001BC08091360685FD17C014C08091360683
:102BB00086FD14C015C08091360686FD11C00EC07A
:102BC00080EE0FC089E30DC082EE0BC080E009C02B
:102BD00086EE07C089E205C085E303C08AE201C032
:102BE00081E390E00895CF93C82F0E94702A90E06F
:102BF000909337068093360682FF0DC09C2F987104
:102C0000983019F4C77FC46006C09C2F947194302B
:102C100011F4CB7FC86083FF0DC09C2F9871983151
:102C200019F4C77EC46106C09C2F9471943111F4CD
:102C3000CB7EC86184FDC77E8C2FCF910895089507
:102C40000F931F93CF93FB012281211102C0C1E09A
:102C500041C08C01C091FF04C11125C086319C4543
:102C6000B1F70E941F1681E08093FF040E94902B11
:102C70009093FE048093FD041092F2041092F404E9
:102C80001092F3041092F6041092F5041092F804D6
:102C90001092F7041092FA041092F9041092FC04B6
:102CA0001092FB0417C08091FD049091FE040E94D5
:102CB0009C2B883C910558F69091F204E92FF0E0A6
:102CC000EE0FFF1FED50FB4F118300839F5F90932A
:102CD000F204C0E08C2FCF911F910F9108950895B9
:102CE00085B7806885BF85B7806885BFA8ECB1E0EF
:102CF00041E050E025E02A0F8D91E82FE295EF703A
:102D0000F0E031A18F70BA0102C0660F771F8A957B
:102D1000E2F7CB01962F9095932391A392A1892B53
:102D200082A32A13E9CFA9EBB1E041E050E02FE004
:102D30002A0F8D91E82FE295EF70F0E031A18F70AE
:102D4000BA0102C0660F771F8A95E2F7CB01962F72
:102D50009095932391A392A1892B82A32A13E9CF63
:102D6000EAE0F5E0A0E0B5E0119211921D921D920B
:102D700075E0E431F707C1F70C94B7132F923F9237
:102D80005F926F927F928F929F92AF92BF92CF92FB
:102D9000DF92EF92FF920F931F93CF93DF9328EC74
:102DA000C22E21E0D22E00E015E0E801EE24E394EB
:102DB000F12C662463945E018880998019821882C0
:102DC000D6018D916D01E82FE295EF70F0E021A121
:102DD0008F70A70102C0440F551F8A95E2F7CA0100
:102DE000242B21A322A1742E7094272122A350EA20
:102DF0005A95F1F799EB292E91E0392E20E030E039
:102E0000D1017D911D01472F42954F7050E0DA01AD
:102E100090965C90488159817F70D70102C0AA0FBB
:102E2000BB1F7A95E2F7BD01652141F4B701022E7F
:102E300002C0660F771F0A94E2F702C060E070E0FC
:102E4000462B572B598348832F5F3F4F2F30310537
:102E5000B9F691A1792271A292A1892B82A322961F
:102E6000F501808191818816990641F060921405E0
:102E70000E94902B9093160580931505F5E0CA30BB
:102E8000DF0709F098CF809114058823B1F0809175
:102E90001505909116050E949C2B069770F0EAE0AC
:102EA000F5E0D8018D919D918D0181939193B5E0CD
:102EB0000A301B07B1F7109214050E94B91381E084
:102EC000DF91CF911F910F91FF90EF90DF90CF9006
:102ED000BF90AF909F908F907F906F905F903F904A
:102EE0002F900895E82FF0E0EE0FFF1FE65FFA4FF6
:102EF000808191810895CF92DF92EF92FF920F939C
:102F00001F93CF93DF9385E39EE00E94880A8AE0B7
:102F1000E82E85E0F82EC0E0D0E090E3C92E9EE0D8
:102F2000D92E07E21EE0DF93CF93DF92CF920E946B
:102F3000210B8DE29EE00E94880AF7018191919118
:102F40007F010E941D2A9F938F931F930F930E94CE
:102F5000210B85E29EE00E94880A21968DB79EB7DC
:102F600008960FB6F8949EBF0FBE8DBFC530D10531
:102F7000D1F6DF91CF911F910F91FF90EF90DF90ED
:102F8000CF900895EF92FF920F931F93CF93DF930B
:102F9000E901662309F44BC0242F30E0EFEFF0E0A5
:102FA000E61BF109B901E69F9001E79F300DF69FFE
:102FB000300D1124232F8B01031B11095CE3E52E37
:102FC000F12CB7010E94C336FB01BC01069FC00172
:102FD000079F900D169F900D1124B7010E94C336D4
:102FE000E230F105B1F040F4309779F0319711F506
:102FF000832F242F461B21C0E430F105A1F068F097
:103000003597C1F4842F861B18C0832F262F230FDA
:1030100014C0862F830FE42F03C0E42FE61B842FF8
:10302000432F2E2F0AC0842F462F430F06C0842F14
:10303000242F03C080E020E040E0E42FF0E0E356DE
:10304000FF4E4491E22FF0E0E356FF4E9491E82FBB
:10305000F0E0E356FF4EE49149839883EA83DF91E1
:10306000CF911F910F91FF90EF90089588E090E02D
:103070000C94F936AB01BC0188E090E00C94173752
:103080008091C30580FF08C081E790E19F938F93F3
:103090000E94210B0F900F9083E08093F80510920F
:1030A000F9058FEF8093FA058093FB056091F80591
:1030B0007091F9058091FA059091FB050C943A18EE
:1030C0008091C30580FF08C08AE590E19F938F93AC
:1030D0000E94210B0F900F908091C30580FF0FC0BD
:1030E0008091F80581701F928F938DE390E19F93FB
:1030F0008F930E94210B0F900F900F900F90809153
:10310000C30580FF10C08091F80586958F731F92CC
:103110008F9382E290E19F938F930E94210B0F90F7
:103120000F900F900F908091C30580FF19C0809180
:10313000F805881F8827881F9091F905292F220FED
:10314000822B97FB992790F99F938F9388E090E1CA
:103150009F938F930E94210B0F900F900F900F90D1
:103160008091C30580FF0EC08091FA051F928F9356
:103170008EEE9FE09F938F930E94210B0F900F90F4
:103180000F900F908091C30580FF0EC08091FB05CA
:103190001F928F9384ED9FE09F938F930E94210B4A
:1031A0000F900F900F900F9008956091F80560FFB9
:1031B00006C066956F7370E080E090E0089560E06F
:1031C00070E0CB0108958091F80580FF06C060E1B2
:1031D00070E080E096E00C944E1C80E090E0FC01F2
:1031E000E050FA4F118210821282039680339105CB
:1031F000B1F7EDCFCF93DF93C8EFD5E088818E7F15
:1032000088836091F8057091F9058091FA05909195
:10321000FB050E943A18888181701F928F9388E97C
:103220009EE09F938F930E94210B2FEF80E792E007
:10323000215080409040E1F700C000000F900F90B7
:103240000F900F90DF91CF910C94E3189091F805B7
:1032500090FF0FC020E030E0F901E050FA4F818389
:10326000608342832D5F3F4F20333105A9F70C94D3
:10327000E3180895EF92FF920F931F93CF93DF937C
:1032800000D01F92CDB7DEB70091F8051091F90577
:103290002091FA053091FB050093FC051093FD0584
:1032A0002093FE053093FF052091F80520FF21C0F3
:1032B000042FF62EE92E182F9E012F5F3F4F0E94FC
:1032C000C2178091FC0510FB87F98093FC051695C9
:1032D0008091FD058078182BE0FA17F91093FD0511
:1032E000F092FE050093FF054B8169818A810E945F
:1032F00026190F900F900F90DF91CF911F910F9192
:10330000FF90EF9008952F923F924F925F926F92AD
:103310007F928F929F92AF92BF92CF92DF92EF9265
:10332000FF920F931F93CF93DF9300D000D01F9293
:10333000CDB7DEB79D838C83262E342E8091F80581
:1033400080FFCFC0982F9E77923029F48C819D8189
:103350000E943A1984C0E82FE695EF739EE39E0F12
:103360009F73943018F43090FB0579C09AE39E0F58
:103370009F73993070F4881F8827881F9091F905F2
:10338000292F220F282B2C8397FB992790F99D83B7
:1033900066C087E28E0F8F738A3008F060C0F0E05D
:1033A0007997E0FD03C021E0298302C03FEF398314
:1033B000EE7FED56FF4EA590B4908981882E880F40
:1033C0009908C50124E0969587952A95E1F7889E8E
:1033D0003001899E700C989E700C1124CC80DD8089
:1033E00098E9C91A9EEFD90A30E0E32E36E0F32EB1
:1033F00000E010E048E6442E55245394C601B20183
:103400000E94C3362091C30520FF18C0BF92AF921F
:103410009F92A981AF939F938F931F930F93A1E7DF
:10342000BEE0BF93AF938A839B830E94210B0FB6AC
:10343000F894DEBF0FBECDBF9B818A819701432DDB
:10344000622D0E94C2170F5F1F4FC60CD71CB3E03E
:10345000EB0EF11C0031110589F60E94E3188091F2
:10346000F8052C8120FB87F98093F805922F96951B
:103470008091F9058078892B3D8130FB87F9809315
:10348000F9052092FA053092FB056091F8057091DC
:10349000F9058091FA059091FB050E943A188091F8
:1034A000FB051F928F938091FA051F928F93809155
:1034B000F805881F8827881F9091F905292F220F6A
:1034C000822B97FB992790F99F938F938CE49EE032
:1034D0009F938F930E94210B0FB6F894DEBF0FBE0F
:1034E000CDBF0F900F900F900F900F90DF91CF9165
:1034F0001F910F91FF90EF90DF90CF90BF90AF9012
:103500009F908F907F906F905F904F903F902F9003
:1035100008958091F80580FF31C0817882608093A2
:10352000F8056091F8057091F9058091FA05909180
:10353000FB050E943A188091F80586958F731F92BB
:103540008F9383E29FE09F938F930E94210B0F90B4
:103550000F900F900F908091F805881F8827881F83
:103560009091F905292F220F97FB992790F9409107
:10357000FB056091FA05822B0C94831908958091C4
:10358000C30581608093C3058DEB9FE09F938F936C
:103590000E94210B81E0809317058091C3050F9055
:1035A0000F9080FF08C087EA9FE09F938F930E944F
:1035B000210B0F900F900E94582A811110C080910A
:1035C000C30580FF08C08FE79FE09F938F930E9401
:1035D000210B0F900F900E94372A0E9440180E94E2
:1035E00036186093F8057093F9058093FA05909367
:1035F000FB056E77C1F48091C30580FF08C086E3A8
:103600009FE09F938F930E94210B0F900F900E9439
:1036100040180E9436186093F8057093F90580935E
:10362000FA059093FB050E9460188091F80580FFD1
:1036300004C086958F730C94891A089581E00C94C8
:10364000891A8091F80586958F73815009F481E07D
:103650000C94891ACF93DF93C8EFD5E088818160FD
:1036600088836091F8057091F9058091FA05909131
:10367000FB050E943A18888181701F928F9387EC16
:103680009EE09F938F930E94210B0F900F900F90BD
:103690000F90888186958F73DF91CF910C94891A52
:1036A0008091F805809581701F928F9385EF9EE041
:1036B0009F938F930E94210B8091F8050F900F909C
:1036C0000F900F9080FD0C94FA180C942A1BE8EFD1
:1036D000F5E02081221F2227221F3091F905432F78
:1036E000440F842F822B37FB992790F9089668E6C0
:1036F00071E00E94D736438162810C948319209136
:10370000F805221F2227221F3091F905432F440F6D
:10371000842F822B37FB992790F9883091051CF470
:10372000805A9E4F01C0089768E671E00E94D73624
:103730004091FB056091FA050C9483196091FA059C
:10374000862F90E0883F910514F4685F01C06FEF09
:103750008091F805881F8827881F9091F905292FE7
:10376000220F97FB992790F94091FB05822B0C942F
:1037700083196091FA05862F90E0089714F068503D
:1037800001C060E08091F805881F8827881F90910C
:10379000F905292F220F97FB992790F94091FB05F6
:1037A000822B0C9483194091FB05842F90E0883F75
:1037B000910514F4485F01C04FEF8091F805881F10
:1037C0008827881F9091F905292F220F97FB9927A9
:1037D00090F96091FA05822B0C9483194091FB05B6
:1037E000842F90E0089714F0485001C040E0809189
:1037F000F805881F8827881F9091F905292F220F27
:1038000097FB992790F96091FA05822B0C94831904
:103810006093F8057093F9058093FA059093FB0582
:103820000E943A188091F80580FF04C086958F7336
:103830000C94891A0C94E3182EB1342F309523235D
:103840003EB1432B3FB7F894FC01680F791FE61790
:10385000F70789F0819198E04EB9000000C087FF1A
:103860002EB9880F000000C000C000C02EB900C0F3
:103870009A9591F7ECCF3FBF08952DB1242B2DB928
:103880009B01220F331F620F731F0E941C1C87ECC9
:1038900090E00197F1F700C00000089544E00C9417
:1038A0003D1CCF93DF93FC012785211116C0EC014D
:1038B00081E0878787810E94762988850E948929EF
:1038C0000E944029EA81FB816A897B89CE010696A4
:1038D000309719F0DF91CF910994DF91CF9108953E
:1038E000EF92FF920F931F93CF93DF93FC012085FC
:1038F000211134C0EC01E380F480F7E5FF1A24E1E4
:103900002E9DC0012F9D900D1124DC01A75EBE4F9E
:103910001496ED91FC91159752966D917C91539769
:10392000815E9E4F309709F0099584E18E9D80015C
:103930008F9D100D1124075E1E4FF80187810E9494
:103940007C29F80180850E948F290E9440291882D5
:103950001F8219861092190510921805DF91CF91D8
:103960001F910F91FF90EF900895DF92EF92FF92D9
:103970000F931F93CF93DF93FB012281222379F1D1
:103980002091A5012F3F59F18C01CFE1D1E0E12C2D
:10399000F12CDD24D3948091A501082E000C990B05
:1039A0008E159F05E4F088818823A1F08B819C818E
:1039B0000817190739F4809118059091190508170F
:1039C000190741F0DF82CE0106970E94511CCE01FB
:1039D0000E94701CFFEFEF1AFF0A6496DCCFDF91A4
:1039E000CF911F910F91FF90EF90DF900895EF928C
:1039F000FF920F931F93CF93DF939C0137552F3F77
:103A0000310511F008F047C04091A501042E000CCB
:103A1000550B4217530714F42093A501FB017C01B9
:103A2000828194E1929F8001939F100D1124E801FF
:103A3000C75EDE4F8E8792818E81992311F1FA86BF
:103A4000E9868F5F8E830E94902B9C878B870E94D4
:103A5000AF298F830E94732988870E9486299885C1
:103A6000892B8887E881F9816A897B89C801815E11
:103A70009E4F309709F00995F0921905E0921805CC
:103A80000AC0882341F08F85882329F0C801815E10
:103A90009E4F0E94701C81E0DF91CF911F910F918A
:103AA000FF90EF900895CF92DF92EF92FF920F93E5
:103AB0001F93CF93DF938091A5018F3FC1F1C0E0A9
:103AC000D4E12C2F30E08091A501082E000C990B39
:103AD0008217930764F1D29FF001D39FF00D112458
:103AE000E75EFE4FE088F188E114F10419F488ECF8
:103AF000E82EF12CD29F6001D39FD00C11248601B7
:103B0000075E1E4FF8018681882379F083859485AE
:103B10000E949C2BE816F90640F4C8010E94511C33
:103B2000C601815E9E4F0E94701CCF5FCACFDF919D
:103B3000CF911F910F91FF90EF90DF90CF9008955C
:103B400090931F0580931E050895E0911E05F09146
:103B50001F05309721F00190F081E02D099480E05D
:103B60000895EF92FF920F931F93CF93DF93E0910D
:103B70001E05F0911F053097B1F18C010280F38191
:103B8000E02D09958091C30582FF2DC080FF04C000
:103B900085EA91E10E94880AE80110E28FE9E82EA7
:103BA00081E1F82E8091C30580FF0BC088811F92B0
:103BB0008F93FF92EF920E94210B0F900F900F9026
:103BC0000F90115021961111EDCF8091C30580FF08
:103BD0000AC08DE991E1DF91CF911F910F91FF9084
:103BE000EF900C94880ADF91CF911F910F91FF9075
:103BF000EF900895E0911E05F0911F05309721F098
:103C00000480F581E02D0994089520911C053091E0
:103C10001D058217930771F090931D0580931C0575
:103C2000E0911E05F0911F05309721F00680F78185
:103C3000E02D0994089520911A0530911B058217F3
:103C4000930771F090931B0580931A05E0911E0570
:103C5000F0911F05309721F00084F185E02D099443
:103C6000089508950C94311E81E008950E94872BD9
:103C70000E9470160E94102C0C94BF1ACF93C82F6C
:103C80008091C30582FF1EC080FF04C08EEB91E1CE
:103C90000E94880A8091C30580FF0CC01F92CF93B9
:103CA00089EB91E19F938F930E94210B0F900F90CE
:103CB0000F900F908091C30580FF04C087EB91E1C6
:103CC0000E94880A8C2FCF910C94BE134F925F9262
:103CD0007F928F929F92AF92BF92CF92DF92EF929C
:103CE000FF920F931F93CF93DF93CDB7DEB72A9741
:103CF0000FB6F894DEBF0FBECDBF0E94BE160E9465
:103D0000341E811111C08FEF89838A831B820E9428
:103D1000902B8160782F9D838C8349815A816B81A0
:103D20008D810E94241F57C091E2C92E95E0D92EA3
:103D300000E010E0AA24A394B12C702E802F0E94E2
:103D400072174C01F601419051906F014826592697
:103D50004114510431F40F5F1F4F0530110569F70D
:103D6000D2CF8091C30581FD0E947B1720E030E017
:103D70007501022E02C0EE0CFF1C0A94E2F7C70187
:103D800084219521892B09F12E837F828E209F200B
:103D900091E0892809F490E098870E94902B816037
:103DA000782F9A8789874E815F8168858A850E94EE
:103DB000241F000F111FF801EF5DFA4F80819181E0
:103DC000E826F926F182E08206C02F5F3F4F2F30B0
:103DD000310571F6C0CF0E94252E109120050E945A
:103DE000A51D1817D9F00E94A51D809320052A96BD
:103DF0000FB6F894DEBF0FBECDBFDF91CF911F91FC
:103E00000F91FF90EF90DF90CF90BF90AF909F9079
:103E10008F907F905F904F900C943E1E2A960FB625
:103E2000F894DEBF0FBECDBFDF91CF911F910F91F0
:103E3000FF90EF90DF90CF90BF90AF909F908F90CA
:103E40007F905F904F900895CF93DF93CDB7DEB70B
:103E50002B970FB6F894DEBF0FBECDBF4F835887A8
:103E600069877A878B87DE01119686E0FD011192C2
:103E70008A95E9F785E0FE01379601900D928A95C3
:103E8000E1F749815A816B817C818D819E810E94FD
:103E90001A262B960FB6F894DEBF0FBECDBFDF916A
:103EA000CF910895882309F4F3C0682F8238C1F4B4
:103EB0000E94A51D81FDECC069E38091A60190914F
:103EC000A7010E94F72A0E9440292FEF81EE94E07B
:103ED000215080409040E1F700C0000069E319C024
:103EE0008338F9F40E94A51D80FDD2C063E580915E
:103EF000A6019091A7010E94F72A0E9440292FEF66
:103F000081EE94E0215080409040E1F700C0000035
:103F100063E58091A6019091A7010E94022B0C9469
:103F200040298438C1F40E94A51D82FDB1C067E418
:103F30008091A6019091A7010E94F72A0E94402932
:103F40002FEF81EE94E0215080409040E1F700C0D7
:103F5000000067E4DECF8CEF860F813A38F4809161
:103F6000A6019091A7010E94F72AD9CF80E2860F7F
:103F7000883048F4677081E001C0880F6A95EAF7DD
:103F80000E947629CCCF8BE5860F833070F4653A9A
:103F900029F0663A31F083E890E005C081E890E0CE
:103FA00002C082E890E00C94051E88E5860F8531FA
:103FB00008F06EC0683A61F1693A69F16A3A71F1E4
:103FC0006B3A79F16C3A81F16B3B89F16C3B91F181
:103FD0006D3A99F1603BA1F16E3AA9F16F3AB1F1F6
:103FE000613BB9F1623BC1F1633BC9F1643BD1F183
:103FF000653BD9F1663BE1F1673BE9F1683BF1F1E3
:10400000693BF9F16A3B09F43FC080E090E03EC0B3
:1040100082EE90E03BC089EE90E038C08AEE90E0FE
:1040200035C085EB90E032C086EB90E02FC083EB8B
:1040300090E02CC084EB90E029C087EB90E026C094
:104040008CEC90E023C08DEC90E020C083E891E000
:104050001DC08AE891E01AC082E991E017C084E9A6
:1040600091E014C081E292E011C083E292E00EC0C0
:1040700084E292E00BC085E292E008C086E292E022
:1040800005C087E292E002C08AE292E00C941B1E17
:104090000895882309F45BC0682F823879F40E9460
:1040A000A51D81FF54C069E38091A6019091A701ED
:1040B0000E94F72A0E94402969E310C08338B1F4B6
:1040C0000E94A51D80FF43C063E58091A6019091E9
:1040D000A7010E94F72A0E94402963E58091A6016A
:1040E0009091A7010E94022B0C944029843879F406
:1040F0000E94A51D82FF2BC067E48091A6019091CC
:10410000A7010E94F72A0E94402967E4E7CF8CEFBD
:10411000860F813A18F380E2860F883048F4677082
:1041200081E001C0880F6A95EAF70E947C29DCCF04
:104130008BE5860F833020F480E090E00C94051E20
:10414000685A653120F480E090E00C941B1E0895BD
:10415000882321F00E9476290C9440290895882311
:1041600021F00E947C290C94402908954F925F927F
:104170006F927F92AF92BF92CF92DF92EF92FF92B7
:104180000F931F93CF93DF931F92CDB7DEB77C01C0
:10419000A72EFC01058102950F701281112321F0D9
:1041A00069830E949629698169830E9439296981FE
:1041B000882381F0112371F080E2860F883050F05F
:1041C00082E00E9422290E94392991E0B82EB92666
:1041D000698101C0B12CCA2CC2948FE0C822D12CB5
:1041E000F601EB57FF4F0C94EB368A2D807F0A2D9A
:1041F0000F70882311F00295007F1123C1F0002376
:1042000009F4DCC180E2860F883010F0611105C02E
:10421000802F69830E94762904C0802F69830E94C1
:104220008929698169830E9440296981C7C1862FD4
:1042300069830E9449206981002309F4E2C180E278
:10424000860F883010F0611104C0802F0E947C29F5
:1042500003C0802F0E948F290E944029D2C18A2D3D
:10426000807F9A2D9F70803211F4892F03C0892F8F
:104270008295807F662319F06130B1F01FC0112351
:1042800049F0002309F452C1013009F04FC10E94E6
:10429000A929B7C1002319F0013009F4B2C18983FB
:1042A0000E94AC29898148C1112321F0063008F011
:1042B000A8C13CC1053008F0A4C13EC1112351F092
:1042C000002309F433C1F701958190FF77C19F70F6
:1042D00095832CC1002309F42FC181C18A2D8695B5
:1042E0008695837090E0009719F0019761F089C17D
:1042F000112321F0862F9A2D937002C080E090E068
:104300000E94051E8EC1112321F0862F9A2D9370D5
:1043100002C080E090E00E941B1E83C11123F9F0CF
:10432000653F51F0663F71F0643FA9F4809130061B
:104330009091310681600BC08091300690913106DA
:10434000826005C080913006909131068460909320
:10435000310680933006862F0E94AB2C1EC0653F2D
:1043600051F0663F71F0643FA9F48091300690915E
:1043700031068E7F0BC080913006909131068D7F83
:1043800005C080913006909131068B7F9093310665
:1043900080933006862F0E94132D0E94982D41C1D4
:1043A0008A2D837009F052C0111137C1862F829572
:1043B00086958770880F880F962F9F70492E512CF5
:1043C000612C712C082E04C0440C551C661C771CF3
:1043D0000A94D2F764FF14C00FE010E020E030E050
:1043E000B901A80104C0440F551F661F771F8A95A5
:1043F000D2F7CB01BA01609570958095909503C076
:1044000060E070E0CB012A2D26952695237030E0E0
:104410002230310569F02330310589F0642975298E
:10442000862997292130310571F00E945D27F5C05A
:1044300064297529862997290E946F27EEC00E945A
:104440005D27C301B2010E944B27E7C0112319F079
:104450008A2D817001C08695882309F4DEC0862FDD
:10446000829586958770880F880F962F9F70492EAA
:10447000512C612C712C082E04C0440C551C661C58
:10448000771C0A94D2F764FF14C00FE010E020E01C
:1044900030E0B901A80104C0440F551F661F771F03
:1044A0008A95D2F7CB01BA01609570958095909569
:1044B00003C060E070E0CB012A2D2695269523707D
:1044C000422F50E04230510569F04330510589F0E8
:1044D00064297529862997294130510571F00E9478
:1044E00022289BC064297529862997290E9434288F
:1044F00094C00E942228C301B2010E9410288DC0DE
:10450000862F90E0FC01E05EF109E531F10508F04D
:1045100051C0EB56FF4F0C94EB36062F0F708A2DCF
:104520008F71112331F00E94A927802F0E94A820AB
:1045300068C00E94CA27802F0E94AF2062C011234A
:1045400041F0053008F05DC08A2D8F710E94EF2781
:1045500058C0063008F055C0F7CF112339F08A2D26
:104560008F710E94A9274DC01123C9F38A2D8F7125
:104570000E94CA2746C0112329F08A2D8F710E94FC
:1045800094273FC00E948F273CC0112351F01A2D61
:104590001F71812F0E94A92763E0812F0E94192992
:1045A00030C081E00E942229023058F182E00E944E
:1045B000222927C0112331F0002389F2862F0E947F
:1045C000521F1FC0002391F2693349F45FEF77EE69
:1045D00083E0515070408040E1F700C00000862F1A
:1045E0000E9449200EC04A2D4F70C7010E94C0137F
:1045F0000E94BE2616C04A2D4F70C7010E94C313E9
:1046000010C098E0C916D10441F05CF0FAE0CF1A6E
:10461000D10822E0C216D10420F40E94A51D0E94F8
:10462000BE13BB2001F10E94152980FD1CC0F701BB
:1046300012820E940F290E94A927C7010E944323CA
:104640000E940F290F90DF91CF911F910F91FF9042
:10465000EF90DF90CF90BF90AF907F906F905F9082
:104660004F900C94CA270F90DF91CF911F910F911B
:10467000FF90EF90DF90CF90BF90AF907F906F90C2
:104680005F904F9008950F931F93CF93DF93EC01AA
:10469000888199812B813C81232BB9F09F3F11F4B4
:1046A0008F3F99F0CE010E94AB10882371F0688192
:1046B00079818A810E94EC288C010E9446280E9400
:1046C0004827B801CE010E94B620DF91CF911F91FB
:1046D0000F9108950E9496290E94A6298091A60113
:1046E0009091A7010E940D2B0E9440290E94B32E99
:1046F0000E94982D80E090E00E94051E80E090E0EE
:104700000C941B1E0E9483290C946A230E94E128AA
:10471000E92FE295EF70F0E03297EE30F105B0F45A
:10472000E655FF4F0C94EB36803F91F018F4803E35
:1047300068F40EC0843F51F40BC0803E48F0813FC6
:1047400029F406C093FB882780F9089580E0089536
:1047500081E00895CF93DF9300D000D01F92CDB7B2
:10476000DEB70F900F900F900F900F90DF91CF91C9
:104770000895CF93DF9300D000D000D0CDB7DEB73F
:1047800026960FB6F894DEBF0FBECDBFDF91CF9156
:1047900008951F93CF93DF93C0912C0516E080916D
:1047A0002D05C81799F0D0E01C9FF0011D9FF00D5A
:1047B0001124E25DFA4F40815181628173818481CD
:1047C00095810E94B9232196C770E9CFDF91CF91DF
:1047D0001F91089540915E0550915F0560916005BD
:1047E0007091610580916205909163050C94B923E5
:1047F0008091630582958F7009F054C080916005A7
:10480000882309F44FC080912C05A0912D0560915B
:104810005E0570915F054091610550916205B6E0BB
:104820008A1709F43FC090E041155105C1F17F3F5F
:1048300011F46F3FA1F1B89FF001B99FF00D112461
:10484000E25DFA4F218172132AC02081621327C0D2
:104850002281211124C0238134812417350710F4CB
:1048600021503109241B350B283C3105C0F420911F
:1048700063052F7020612093630526E0289FF001D7
:10488000299FF00D1124ED5CFA4F80818F708061BB
:1048900080838EE595E00E9443230C94C923019602
:1048A0008770BECF0895CF92DF92EF92FF920F9361
:1048B0001F93CF93DF93CDB7DEB762970FB6F8940F
:1048C000DEBF0FBECDBF8C0185E0F801DE011D9675
:1048D00001900D928A95E1F7D8014C9111965C9167
:1048E000119712966C9112971396CD90DC901497B5
:1048F00030915E0570915F05809161059091620530
:10490000009709F46BC17F3F19F43F3F09F466C17A
:10491000E0906005EE2009F4C0C020916305C81640
:10492000D90628F0F601E81BF90BCF0104C08095E9
:1049300090958C0D9D1DFF24F394883C910578F093
:10494000F12C207F09F0C6C07C2DD98AC88A8989BC
:104950000E94AA238EE595E00E944323B1C0822FD6
:10496000807F09F046C0751314C0341312C0611162
:1049700010C02F702061209363050E94EA238EE50A
:1049800095E00E94432380916305D80115968C938E
:104990002EC0CD2819F15F3F11F44F3FF9F0F62EEC
:1049A00061111CC080912C0520912D0536E08217E5
:1049B00009F45AC090E0389FF001399FF00D11249E
:1049C000E25DFA4F7181571306C07081471303C02F
:1049D0007281711103C001968770E9CFF62E6623AC
:1049E00009F418C180916305816080936305F12CFF
:1049F00011C1751308C0341306C0611104C0809141
:104A00006305D801C3C04D875E878D859E856A8BFF
:104A10000E9486236A898823E1F16623D1F12091DF
:104A20006305822F82958F7090E0029774F08091D9
:104A30005E0590915F0598878F831986DB86CA860D
:104A40002C87CE0107960E94432386E0F801AEE54D
:104A5000B5E001900D928A95E1F70E94F8230E943B
:104A6000EA23FF24F394D6C04D875E878D859E850B
:104A70000E94E128292F22952F7030E02230310545
:104A80000CF0BCC09F7009F0B6C0805E883008F49E
:104A9000C1C0C8010E944323E4CFC816D90608F458
:104AA00053C0F601E81BF90BCF01883C910508F4CF
:104AB00050C0F12C7C2DD98AC88A89890E94AA23EA
:104AC000EEE5F5E086E0DF011D928A95E9F70E94A8
:104AD000EA23A0C0751314C0341312C0611110C0B2
:104AE00080916305F8018583C8010E94432386E015
:104AF000EEE5F5E0DF011D928A95E9F7FE2C8AC00C
:104B00004D875E878D859E856A8B0E9486236A8984
:104B1000882309F4BECF662309F4BBCF2091630537
:104B2000822F82958F7090E002970CF48ECF809147
:104B30005E0590915F059A8389831B82DD82CC821A
:104B40002E83CE0101967FCF809590958C0D9D1D73
:104B5000ACCFF62E662309F49CCF75132EC0341308
:104B60002CC02091630520FD1FC0822F82958F707D
:104B7000D9F0D80115962C9315978F3049F08F5F97
:104B8000982F9295907F822F8F70892B15968C93FA
:104B9000C8010E94432386E0F801AEE5B5E001902C
:104BA0000D928A95E1F793CF86E0F801AEE5B5E086
:104BB00001900D928A95E1F72DC04D875E878D8516
:104BC0009E850E948623811140CF8091630581607C
:104BD00080936305C8010E9443231CC0662309F427
:104BE00058CF4D875E878D859E850E9486238823BA
:104BF00009F44FCF2ACF811148CF0CC024303105A2
:104C00000CF047CF9F7009F440CFF8019581907F59
:104C100009F03BCF8F2D62960FB6F894DEBF0FBE22
:104C2000CDBFDF91CF911F910F91FF90EF90DF905B
:104C3000CF9008951F93CF93DF93CDB7DEB72C9716
:104C40000FB6F894DEBF0FBECDBF4F83588769877C
:104C50007A878B879C87CE0107960E9453248823EE
:104C600069F08F8198852A853B85232BF1F19F3F41
:104C700009F063C08F3F09F060C037C086E0FE01D5
:104C80003796DE01119601900D928A95E1F76F81BA
:104C90007885EA85FB85309741F17F3F11F46F3FBE
:104CA00021F120912D0530E0C901019687709927E7
:104CB00040912C0550E08417950709F447C069839B
:104CC0007A83FD83EC8396E0929FD001939FB00D91
:104CD0001124A25DBA4FFE01319601900D929A9572
:104CE000E1F780932D050E94C92316E080912C05E1
:104CF00090912D058917C1F1189FC0011124825D83
:104D00009A4F0E945324882379F1E0912C051E9F2D
:104D1000F0011124E25DFA4F40815181628173817B
:104D2000848195810E94B92380912C0590E00196A1
:104D30008770992780932C05D9CF4F815885698535
:104D40007A858B859C850E94B923CFCF0E948223D0
:104D500010922D0510922C05EEE5F5E086E0DF01BE
:104D60001D928A95E9F7C1CF2C960FB6F894DEBF55
:104D70000FBECDBFDF91CF911F910895EF92FF92AB
:104D80000F931F93CF93DF938C01892B09F46CC091
:104D9000F12CEE24E394E8012196F8018491843704
:104DA00040F4843008F051C0813081F0823019F134
:104DB0005BC0853709F444C0A8F19CE7980F903791
:104DC00008F052C08F770E94492041C00E5F1F4FEC
:104DD000FE01C49180E28C0F883048F4C7708E2D9C
:104DE00001C0880FCA95EAF70E94992914C08C2F38
:104DF0000E94521F2DC00E5F1F4FFE01C49180E222
:104E00008C0F883058F4C7708E2D01C0880FCA955A
:104E1000EAF70E949F290E9440291AC08C2F0E9405
:104E2000492016C00E5F1F4FFE01C491CC2381F0B4
:104E30008FE99FE00197F1F700C00000C150F6CF65
:104E40000E5F1F4FFE01F49003C00E94521F8E019F
:104E50008F2D882309F49FCFEFE9FFE03197F1F719
:104E600000C000008150F5CFDF91CF911F910F91CD
:104E7000FF90EF90089508950E943B2760939A0554
:104E800070939B0580939C0590939D050C946A23D9
:104E900008950C943C270F931F9300919A0510914D
:104EA0009B0520919C0530919D05602B712B822BD9
:104EB000932B1F910F910C943C270F931F930091FC
:104EC0009A0510919B0520919C0530919D056023CA
:104ED0007123822393231F910F910C943C270F93EE
:104EE0001F9300919A0510919B0520919C0530918C
:104EF0009D0560277127822793271F910F910C949E
:104F00003C270C94880E0E9481276093960570932D
:104F1000970580939805909399050C946A2360E017
:104F200070E0CB010C9483270F931F9341E050E076
:104F300060E070E08A019B0104C0000F111F221F76
:104F4000331F8A95D2F7C901B8011F910F910C94B4
:104F500083270F931F9341E050E060E070E004C0AE
:104F6000440F551F661F771F8A95D2F780919605CB
:104F700090919705A0919805B09199058A019B01A0
:104F8000082B192B2A2B3B2BC901B8011F910F911C
:104F90000C9483270F931F9341E050E060E070E092
:104FA00004C0440F551F661F771F8A95D2F740959E
:104FB0005095609570958091960590919705A09178
:104FC0009805B09199058A019B01082319232A238A
:104FD0003B23C901B8011F910F910C9483270F93B4
:104FE0001F9341E050E060E070E004C0440F551FA3
:104FF000661F771F8A95D2F7809196059091970545
:10500000A0919805B09199058A019B01082719275D
:105010002A273B27C901B8011F910F910C948327C0
:105020000F931F9300919605109197052091980575
:1050300030919905602B712B822B932B1F910F912F
:105040000C9483270F931F93009196051091970559
:105050002091980530919905602371238223932331
:105060001F910F910C9483270F931F930091960526
:105070001091970520919805309199056027712727
:10508000822793271F910F910C94832708952FE077
:10509000929F800D1124A82FA695A695A69587709E
:1050A00051E001C0550F8A95EAF785E0A89FD0012D
:1050B000112420E030E070E0F901EA0FFB1FEC5909
:1050C000FA4F4081CB01022E02C0969587950A9433
:1050D000E2F781709927819584278523842780832F
:1050E0002F5F3F4F2530310539F708952FE0929F0C
:1050F000800D1124682F669566956695982F977098
:1051000085E0689FB001112440E050E080E0FA01A2
:10511000E60FF71FEC59FA4F208130E0092E02C04C
:10512000369527950A94E2F721703327042E01C0A3
:10513000220F0A94EAF7822B4F5F5F4F45305105EB
:1051400031F70895CF92DF92EF92FF920F931F9362
:10515000CF93DF938C01C0909A05D0909B05E0908F
:105160009C05F0909D058091960590919705A091E2
:105170009805B0919905C82AD92AEA2AFB2ACFE1D5
:10518000D0E0D701C6010C2E04C0B695A79597951F
:1051900087950A94D2F780FF06C0B8018C2F0E9431
:1051A000DE13019721F4219760F780E001C08C2F76
:1051B000DF91CF911F910F91FF90EF90DF90CF90F3
:1051C0000895CF93DF93EC010E94A228BE010E94B4
:1051D000DE13DF91CF9108951F93CF93DF93EB01FF
:1051E00090912B05992321F0CB010E94E12813C057
:1051F000882349F0CB010E94A228182F682FCE01E6
:105200000E94472804C0CB010E947628182FBE01B7
:10521000812F0E94DE13DF91CF911F91089580911D
:105220009E05859585958595089580919E05877045
:10523000089598E0899F90011124262B20939E05C4
:105240000C94A92720919E058095822380939E052A
:10525000982F977069F430E0482F082E000C550BFA
:105260002417350729F08595859585950C94CA27CF
:10527000089590919E05977081E009F480E008956B
:10528000E091A601F091A7018091C2058083E09191
:10529000A601F091A70190818091C105892B80839F
:1052A000E091A601F091A70190818091C005892B22
:1052B000808380919F05882381F0E091A601F09181
:1052C000A7019081892B80838091A6019091A701ED
:1052D0000E94792A811110929F058091A6019091D8
:1052E000A7010C94B11D8091C20508959091C2054B
:1052F000892B8093C205089580959091C2058923DA
:105300008093C20508951092C20508958091C10549
:1053100008959091C105892B8093C10508958095CA
:105320009091C10589238093C10508951092C1050C
:1053300008959091C005892B8093C00508958095AC
:105340009091C00589238093C00508951092C005EF
:10535000089580939F05089510929F050895809168
:105360009F0508959093E7018093E6010895CF92F9
:10537000DF92EF92FF926C01EE24FF24C114D1045E
:10538000E104F10421F0C701B60120E101C020E0F1
:10539000C72ED82EE92EFF24C114D104E104F10454
:1053A00019F0285FC701B6016B017C0154E0F69447
:1053B000E794D794C7945A95D1F7C114D104E10466
:1053C000F10419F02C5FC701B6016B017C0142E0CA
:1053D000F694E794D794C7944A95D1F7C114D104B1
:1053E000E104F10419F02E5FC701B601DC01CB0125
:1053F000B695A79597958795892B8A2B8B2B09F0C6
:105400002F5F822FFF90EF90DF90CF9008958295CD
:10541000982F9C7C392F36953695282F237344E09E
:10542000249FC0011124932F982B292F2A7A269587
:10543000892F8575880F822B08951F93CF93DF9353
:105440001F92CDB7DEB799830E94072A182F998142
:10545000892F0E94072A212F30E0322F2227A9010D
:10546000482BCA010F90DF91CF911F9108956DEEE7
:105470007EEF80E090E00E94233760E082E090E0E1
:105480000E94053760E083E090E00E94053760E00D
:1054900084E090E00E94053760E085E090E00E94A3
:1054A000053740E050E0BA0188E090E00C941737EF
:1054B00080E090E00E94FF3621E08D3E9E4F09F093
:1054C00020E0822F089582E090E00C94F13683E092
:1054D00090E00C94F136682F83E090E00C9405374F
:1054E00084E090E00C94F136682F84E090E00C9416
:1054F0000537FC0131969C01205E3F4F80E0919181
:1055000091118F5FE217F307D1F708959C01FC0119
:1055100032969FEF80E04191461789F09F3F19F442
:10552000411101C0982F8F5F8E31A9F79F3F39F04D
:10553000F901E90FF11D97FDFA9562830895089529
:10554000FC01329680962081261301C0108231968C
:10555000E817F907C1F70895262F26952695269571
:105560002F3170F4FC01E20FF11D677021E030E093
:1055700001C0220F6A95EAF78181282B21830895C3
:105580008091C30580FF0CC01F926F938FEE91E155
:105590009F938F930E94210B0F900F900F900F906D
:1055A0000895262F2695269526952F3178F4FC010F
:1055B000E20FF11D677021E030E001C0220F6A9513
:1055C000EAF7209581812823218308958091C305DE
:1055D00080FF0CC01F926F9381ED91E19F938F9399
:1055E0000E94210B0F900F900F900F900895209123
:1055F000B801222329F02091360627FD0C94AC2A0D
:105600000C94862A2091B801222329F02091360695
:1056100027FD0C94D12A0C94A02AFC013196809687
:105620001192E817F907E1F7089580913C0684305C
:1056300039F11092C40520E488E190E00FB6F894A7
:10564000A895809360000FBE2093600080E00E94C8
:10565000BE1383B7817F846083BF83B7816083BFBC
:105660007894889583B78E7F83BF0FB6F894A895FA
:1056700080916000886180936000109260000FBE8E
:10568000089508950895CF930E94412B0E94BE165D
:105690000E94422BC0E08C2F0E947217892B29F4A4
:1056A000CF5FC530C1F780E001C081E0CF910895A0
:1056B0000E9482230E94A51D0C94BE131F920F927C
:1056C0000FB60F9211248F939F93AF93BF93809146
:1056D000C405811113C08091320690913306A091C8
:1056E0003406B09135064196A11DB11D8093320656
:1056F00090933306A0933406B0933506BF91AF91D3
:105700009F918F910F900FBE0F901F90189582E080
:1057100084BD93E095BD9AEF97BD80936E00089588
:105720002FB7F8948091320690913306A0913406F9
:10573000B09135062FBF0895CF92DF92EF92FF927E
:105740000F931F932FB7F894409132065091330670
:1057500060913406709135062FBF6A017B01EE24FB
:10576000FF248C0120E030E0C016D106E206F306EB
:1057700010F4415051099A01281B390BC9011F919E
:105780000F91FF90EF90DF90CF90089578941F9243
:105790000F920FB60F9211248F939F93AF93BF93E5
:1057A0008091320690913306A0913406B09135066F
:1057B0000196A11DB11D8093320690933306A093EC
:1057C0003406B0933506BF91AF919F918F910F90A2
:1057D0000FBE0F901F90189581E08093E00080E24B
:1057E0008093D8001092C9008FE19EE40197F1F7F1
:1057F00000C0000087E090EBDC01809345069093A9
:105800004606A0934706B09348069CE088E10FB691
:10581000F894A895809360000FBE90936000FFCF2E
:105820000E94582A811102C00E94372A0E94632ACE
:105830008093C3050E94702A90E09093370680936E
:1058400036060E94672A682F70E080E090E00C9492
:1058500049278091C70580FF0BC06091AB0185E0AF
:10586000689FB001112475956795759567952BC054
:1058700081FF09C06091AB0185E0689FB0011124F0
:105880007595679520C082FF07C06091AB0185E0E8
:10589000689FB001112417C09091C8059923D1F0D9
:1058A0006091AA01961788F72091AB0185E0289FA7
:1058B00090011124929FA001939F500D112470E03C
:1058C000CA010E94D7366038710540F46115710530
:1058D00039F002C065E070E0862F08958FE70895E3
:1058E00081E008958091C70580FF08C06091A901FB
:1058F00070E0759567957595679521C081FF06C025
:105900006091A90170E07595679519C082FF04C088
:105910006091A90170E010C09091C8059923C1F071
:105920006091A8019617A0F78091A901899FC001F5
:10593000112470E00E94D7366038710528F4611593
:10594000710521F0862F08958FE7089581E008956D
:1059500061E070E0F4CF803F21F40E94292C819512
:1059600004C0813F29F40E94292C8093CB0508951F
:10597000823F21F40E94292C819504C0833F29F4A1
:105980000E94292C8093CA050895893F19F40E942A
:10599000722C05C08A3F31F40E94722C819580934D
:1059A000CC0508958B3F21F40E94722C819504C090
:1059B0008C3F29F40E94722C8093CD050895843F7A
:1059C00021F48091C905816017C0853F21F4809141
:1059D000C905826011C0863F21F48091C9058460A9
:1059E0000BC0873F21F48091C905886005C0883FBE
:1059F00031F48091C90580618093C90508958D3F78
:105A000021F48091C70581600BC08E3F21F4809105
:105A1000C705826005C08F3F29F48091C705846067
:105A20008093C7050895803F39F48091CB0587FFA7
:105A30006CC01092CB0569C0813F29F48091CB05E1
:105A40001816BCF362C09091CA05823F29F497FFF3
:105A50005CC01092CA0559C0833F19F41916CCF3E3
:105A600054C0893F41F48091CC0518160CF04DC00C
:105A70001092CC054AC08A3F29F48091CC0587FF5B
:105A800044C0F6CF8B3F39F48091CD0587FF3DC0F0
:105A90001092CD053AC08C3F29F48091CD0518169F
:105AA000BCF333C0843F21F48091C9058E7F17C0B9
:105AB000853F21F48091C9058D7F11C0863F21F477
:105AC0008091C9058B7F0BC0873F21F48091C90568
:105AD000877F05C0883F31F48091C9058F7E809310
:105AE000C90513C08D3F21F48091C7058E7F0BC07F
:105AF0008E3F21F48091C7058D7F05C08F3F29F42B
:105B00008091C7058B7F8093C7058091CA0581115D
:105B10000EC08091CB0581110AC08091CC05811106
:105B200006C08091CD05811102C01092C80508956C
:105B30008091C30583FF7EC084E392E10E94880ABE
:105B40008091C9051F928F938FE292E19F938F936B
:105B50000E94210B8DE292E10E94880A8091CA0581
:105B6000282F082E000C330B3F938F938AE292E18B
:105B70009F938F930E94210B88E292E10E94880AF2
:105B80008091CB05282F082E000C330B3F938F9369
:105B900085E292E19F938F930E94210B83E292E131
:105BA0000E94880A8091CC05282F082E000C330B08
:105BB0003F938F9380E292E19F938F930E94210BFA
:105BC0008EE192E10E94880A8091CD05282F082E4F
:105BD000000C330B3F938F938BE192E19F938F9354
:105BE0000E94210B88E192E10E94880A8091C805F9
:105BF0001F928F9385E192E19F938F930E94210BD7
:105C000083E192E10E94880A8091C7051F928F93D9
:105C100080E192E19F938F930E94210B8DE092E1AE
:105C20000E94880A8DB79EB74C960FB6F8949EBF17
:105C30000FBE8DBF89EC95E00E94FA1D0E94902B4B
:105C40009093C6058093C50508951F93CF93DF9366
:105C50008091C5059091C6050E949C2BAC01909146
:105C6000C805992321F02091AC0130E006C02091B5
:105C7000AD018AE0289F900111244217530708F4D0
:105C80006EC08091CA05C091CB05D091CC05109112
:105C9000CD05811107C0C1115EC0D1115CC01111C9
:105CA0005AC05DC09F3F19F09F5F9093C8051816BA
:105CB00024F40E94292C8093CA058091CA0587FF8D
:105CC00005C00E94292C81958093CA051C1624F4D6
:105CD0000E94292C8093CB058091CB0587FF05C0BE
:105CE0000E94292C81958093CB054091CA054423BD
:105CF00079F03091CB05332359F025EB4203A00115
:105D000011245093CA053203C00111249093CB058E
:105D10001D1624F40E94722C8093CC058091CC0532
:105D200087FF05C00E94722C81958093CC051116C7
:105D300024F40E94722C8093CD058091CD0587FFBD
:105D400005C00E94722C81958093CD05DF91CF9183
:105D50001F910C94982D9F3F09F0A6CFAECFDF91F5
:105D6000CF911F910895E9ECF5E085E0DF011D92E8
:105D70008A95E9F71092C8051092C7050895809199
:105D8000F10508959FB7F8941092D0059FBF9091A8
:105D90003C06943009F057C09091E9009F70309113
:105DA000EC00232F217030FD20E8922B24E020937B
:105DB000E9002091EB0020FF43C02091EE0027FF77
:105DC0003FC02091CE05222321F02091E80025FF3D
:105DD00037C01092CE0526E03091E80035FD15C0A1
:105DE00030913C06343061F53091EB0035FD28C030
:105DF000215021F481E08093CE0522C0EFE9FFE03D
:105E00003197F1F700C00000E7CF8093F100809157
:105E1000E80085FD0AC08091E80080FFFCCF8091FA
:105E2000E8008E778093E80006C08FB7F89421E0F1
:105E30002093D0058FBF9F709093E90080E0089574
:105E40009F709093E9008FEF08950F931F93CF9366
:105E5000DF9300D01F92CDB7DEB78C010E94FF31D7
:105E6000823011F0843019F593E099831B830A8303
:105E70009093E9008FEF9091E800815095FD06C066
:105E800095ED9A95F1F700008111F5CF8091E8002A
:105E900085FF0DC040E050E063E070E0CE01019668
:105EA0000E941C328091E8008E778093E8000F906A
:105EB0000F900F90DF91CF911F910F910895CF9385
:105EC000DF9300D01F92CDB7DEB720913C0624307F
:105ED00031F522E02983805891099B838A8383E0EE
:105EE0008093E9008FEF9091E800815095FD06C006
:105EF00095ED9A95F1F700008111F5CF8091E800BA
:105F000085FF0DC040E050E063E070E0CE010196F7
:105F10000E941C328091E8008E778093E8000F90F9
:105F20000F900F90DF91CF910895CF93DF93EC0105
:105F30000E94FF31823011F08430F9F482E08093C6
:105F4000E9009FEF8091E800915085FD06C085ED46
:105F50008A95F1F700009111F5CF8091E80085FF57
:105F60000CC040E050E065E070E0CE010E941C32C1
:105F70008091E8008E778093E800DF91CF910895BB
:105F8000CF93DF93EC010E94FF31823019F084300F
:105F900009F047C08091B8018823E1F0809136066E
:105FA00087FF18C085E08093E9008FEF9091E800AB
:105FB000815095FD06C095E19A95F1F70000811199
:105FC000F5CF8091E80085FF2CC040E050E060E212
:105FD00070E017C081E08093E9008FEF9091E800B6
:105FE000815095FD06C095ED9A95F1F7000081115D
:105FF000F5CF8091E80085FF14C040E050E068E0F4
:1060000070E0CE010E941C328091E8008E77809370
:10601000E80080E2FE01A1EDB5E001900D928A95C5
:10602000E1F7DF91CF9108958CE792E10E94880A11
:1060300080913B06811109C00E94B1330E940E3449
:106040008091E20084608093E200089588E792E105
:106050000E94880A10923B06089584E792E10C940E
:10606000880A80E792E10C94880A8CE692E10E940B
